{
  "address": "0x21CfE326634c6ba3737F513ecaDCcCbB7500B59c",
  "abi": [
    {
      "type": "constructor",
      "inputs": [
        {
          "name": "_initialOwner",
          "type": "address",
          "internalType": "address"
        },
        {
          "name": "_implementation",
          "type": "address",
          "internalType": "address"
        }
      ],
      "stateMutability": "nonpayable"
    },
    {
      "type": "receive",
      "stateMutability": "payable"
    },
    {
      "type": "function",
      "name": "IMPLEMENTATION",
      "inputs": [],
      "outputs": [
        {
          "name": "",
          "type": "address",
          "internalType": "address"
        }
      ],
      "stateMutability": "view"
    },
    {
      "type": "function",
      "name": "acceptOwnership",
      "inputs": [],
      "outputs": [],
      "stateMutability": "nonpayable"
    },
    {
      "type": "function",
      "name": "multicall",
      "inputs": [
        {
          "name": "data",
          "type": "bytes[]",
          "internalType": "bytes[]"
        }
      ],
      "outputs": [
        {
          "name": "results",
          "type": "bytes[]",
          "internalType": "bytes[]"
        }
      ],
      "stateMutability": "payable"
    },
    {
      "type": "function",
      "name": "owner",
      "inputs": [],
      "outputs": [
        {
          "name": "",
          "type": "address",
          "internalType": "address"
        }
      ],
      "stateMutability": "view"
    },
    {
      "type": "function",
      "name": "pause",
      "inputs": [],
      "outputs": [],
      "stateMutability": "nonpayable"
    },
    {
      "type": "function",
      "name": "paused",
      "inputs": [],
      "outputs": [
        {
          "name": "",
          "type": "bool",
          "internalType": "bool"
        }
      ],
      "stateMutability": "view"
    },
    {
      "type": "function",
      "name": "pendingOwner",
      "inputs": [],
      "outputs": [
        {
          "name": "",
          "type": "address",
          "internalType": "address"
        }
      ],
      "stateMutability": "view"
    },
    {
      "type": "function",
      "name": "renounceOwnership",
      "inputs": [],
      "outputs": [],
      "stateMutability": "nonpayable"
    },
    {
      "type": "function",
      "name": "transferOwnership",
      "inputs": [
        {
          "name": "newOwner",
          "type": "address",
          "internalType": "address"
        }
      ],
      "outputs": [],
      "stateMutability": "nonpayable"
    },
    {
      "type": "function",
      "name": "unpause",
      "inputs": [],
      "outputs": [],
      "stateMutability": "nonpayable"
    },
    {
      "type": "event",
      "name": "OwnershipTransferStarted",
      "inputs": [
        {
          "name": "previousOwner",
          "type": "address",
          "indexed": true,
          "internalType": "address"
        },
        {
          "name": "newOwner",
          "type": "address",
          "indexed": true,
          "internalType": "address"
        }
      ],
      "anonymous": false
    },
    {
      "type": "event",
      "name": "OwnershipTransferred",
      "inputs": [
        {
          "name": "previousOwner",
          "type": "address",
          "indexed": true,
          "internalType": "address"
        },
        {
          "name": "newOwner",
          "type": "address",
          "indexed": true,
          "internalType": "address"
        }
      ],
      "anonymous": false
    },
    {
      "type": "event",
      "name": "Paused",
      "inputs": [
        {
          "name": "account",
          "type": "address",
          "indexed": false,
          "internalType": "address"
        }
      ],
      "anonymous": false
    },
    {
      "type": "event",
      "name": "Unpaused",
      "inputs": [
        {
          "name": "account",
          "type": "address",
          "indexed": false,
          "internalType": "address"
        }
      ],
      "anonymous": false
    },
    {
      "type": "error",
      "name": "AddressEmptyCode",
      "inputs": [
        {
          "name": "target",
          "type": "address",
          "internalType": "address"
        }
      ]
    },
    {
      "type": "error",
      "name": "EnforcedPause",
      "inputs": []
    },
    {
      "type": "error",
      "name": "ExpectedPause",
      "inputs": []
    },
    {
      "type": "error",
      "name": "FailedCall",
      "inputs": []
    },
    {
      "type": "error",
      "name": "OwnableInvalidOwner",
      "inputs": [
        {
          "name": "owner",
          "type": "address",
          "internalType": "address"
        }
      ]
    },
    {
      "type": "error",
      "name": "OwnableUnauthorizedAccount",
      "inputs": [
        {
          "name": "account",
          "type": "address",
          "internalType": "address"
        }
      ]
    },
    {
      "type": "error",
      "name": "ReentrancyGuardReentrantCall",
      "inputs": []
    }
  ],
  "bytecode": "0x60a060405234801561000f575f5ffd5b506040516109cb3803806109cb83398101604081905261002e91610115565b5f805460ff19169055816001600160a01b03811661006557604051631e4fbdf760e01b81525f600482015260240160405180910390fd5b61006e81610086565b5060016002556001600160a01b031660805250610146565b600180546001600160a01b031916905561009f816100a2565b50565b5f80546001600160a01b03838116610100818102610100600160a81b0319851617855560405193049190911692909183917f8be0079c531659141344cd1fd0a4f28419497f9722a3daafe3b4186f6b6457e091a35050565b80516001600160a01b0381168114610110575f5ffd5b919050565b5f5f60408385031215610126575f5ffd5b61012f836100fa565b915061013d602084016100fa565b90509250929050565b6080516108676101645f395f818160b601526102f201526108675ff3fe608060405260043610610092575f3560e01c80638456cb59116100575780638456cb59146101525780638da5cb5b14610166578063ac9650d814610187578063e30c3978146101a7578063f2fde38b146101c4575f5ffd5b80633a4741bd146100a55780633f4ba83a146100f55780635c975abb14610109578063715018a61461012a57806379ba50971461013e575f5ffd5b366100a15761009f6101e3565b005b5f5ffd5b3480156100b0575f5ffd5b506100d87f000000000000000000000000000000000000000000000000000000000000000081565b6040516001600160a01b0390911681526020015b60405180910390f35b348015610100575f5ffd5b5061009f610208565b348015610114575f5ffd5b505f5460ff1660405190151581526020016100ec565b348015610135575f5ffd5b5061009f610218565b348015610149575f5ffd5b5061009f610229565b34801561015d575f5ffd5b5061009f610272565b348015610171575f5ffd5b505f5461010090046001600160a01b03166100d8565b61019a61019536600461068e565b610282565b6040516100ec91906106ff565b3480156101b2575f5ffd5b506001546001600160a01b03166100d8565b3480156101cf575f5ffd5b5061009f6101de366004610783565b6103a4565b5f5460ff16156102065760405163d93c066560e01b815260040160405180910390fd5b565b61021061041a565b61020661044c565b61022061041a565b6102065f61049d565b60015433906001600160a01b031681146102665760405163118cdaa760e01b81526001600160a01b03821660048201526024015b60405180910390fd5b61026f8161049d565b50565b61027a61041a565b6102066104b6565b606061028c6104f2565b6102946101e3565b8167ffffffffffffffff8111156102ad576102ad6107a9565b6040519080825280602002602001820160405280156102e057816020015b60608152602001906001900390816102cb5790505b5090505f5b828110156103935761036e7f0000000000000000000000000000000000000000000000000000000000000000858584818110610323576103236107bd565b905060200281019061033591906107d1565b8080601f0160208091040260200160405190810160405280939291908181526020018383808284375f9201919091525061051a92505050565b828281518110610380576103806107bd565b60209081029190910101526001016102e5565b5061039e6001600255565b92915050565b6103ac61041a565b600180546001600160a01b0383166001600160a01b031990911681179091556103e25f546001600160a01b036101009091041690565b6001600160a01b03167f38d16b8cac22d99fc7c124b9cd0de2d3fa1faef420bfe791d8c362d765e2270060405160405180910390a350565b5f546001600160a01b036101009091041633146102065760405163118cdaa760e01b815233600482015260240161025d565b61045461058c565b5f805460ff191690557f5db9ee0a495bf2e6ff9c91a7834c1ba4fdd244a5e8aa4e537bd38aeae4b073aa335b6040516001600160a01b03909116815260200160405180910390a1565b600180546001600160a01b031916905561026f816105ae565b6104be6101e3565b5f805460ff191660011790557f62e78cea01bee320cd4e420270b5ea74000d11b0c9f74754ebdbfc544b05a2586104803390565b600280540361051457604051633ee5aeb560e01b815260040160405180910390fd5b60028055565b60605f5f846001600160a01b031684604051610536919061081b565b5f60405180830381855af49150503d805f811461056e576040519150601f19603f3d011682016040523d82523d5f602084013e610573565b606091505b5091509150610583858383610606565b95945050505050565b5f5460ff1661020657604051638dfc202b60e01b815260040160405180910390fd5b5f80546001600160a01b03838116610100818102610100600160a81b0319851617855560405193049190911692909183917f8be0079c531659141344cd1fd0a4f28419497f9722a3daafe3b4186f6b6457e091a35050565b60608261061b5761061682610665565b61065e565b815115801561063257506001600160a01b0384163b155b1561065b57604051639996b31560e01b81526001600160a01b038516600482015260240161025d565b50805b9392505050565b8051156106755780518082602001fd5b60405163d6bda27560e01b815260040160405180910390fd5b5f5f6020838503121561069f575f5ffd5b823567ffffffffffffffff8111156106b5575f5ffd5b8301601f810185136106c5575f5ffd5b803567ffffffffffffffff8111156106db575f5ffd5b8560208260051b84010111156106ef575f5ffd5b6020919091019590945092505050565b5f602082016020835280845180835260408501915060408160051b8601019250602086015f5b8281101561077757603f19878603018452815180518087528060208301602089015e5f602082890101526020601f19601f83011688010196505050602082019150602084019350600181019050610725565b50929695505050505050565b5f60208284031215610793575f5ffd5b81356001600160a01b038116811461065e575f5ffd5b634e487b7160e01b5f52604160045260245ffd5b634e487b7160e01b5f52603260045260245ffd5b5f5f8335601e198436030181126107e6575f5ffd5b83018035915067ffffffffffffffff821115610800575f5ffd5b602001915036819003821315610814575f5ffd5b9250929050565b5f82518060208501845e5f92019182525091905056fea264697066735822122061465d56af2031ce49cf7a56c98af9da83ef2929d5401fd47dfff1bb1bc4350864736f6c634300081c0033",
  "language": "Solidity",
  "compiler": "0.8.28+commit.7893614a"
}