{
  "address": "0x925D5466d4D5b01995E20e1245924aDa6415126a",
  "abi": [
    {
      "inputs": [
        {
          "internalType": "contract ISilo",
          "name": "_silo",
          "type": "address"
        },
        {
          "internalType": "address",
          "name": "_borrower",
          "type": "address"
        }
      ],
      "name": "borrowShare",
      "outputs": [
        {
          "internalType": "uint256",
          "name": "",
          "type": "uint256"
        }
      ],
      "stateMutability": "view",
      "type": "function"
    },
    {
      "inputs": [
        {
          "internalType": "contract ISiloConfig",
          "name": "_siloConfig",
          "type": "address"
        },
        {
          "internalType": "address",
          "name": "_borrower",
          "type": "address"
        }
      ],
      "name": "calculateBorrowValue",
      "outputs": [
        {
          "internalType": "uint256",
          "name": "borrowValue",
          "type": "uint256"
        }
      ],
      "stateMutability": "view",
      "type": "function"
    },
    {
      "inputs": [
        {
          "internalType": "contract ISiloConfig",
          "name": "_siloConfig",
          "type": "address"
        },
        {
          "internalType": "address",
          "name": "_borrower",
          "type": "address"
        }
      ],
      "name": "calculateCollateralValue",
      "outputs": [
        {
          "internalType": "uint256",
          "name": "collateralValue",
          "type": "uint256"
        }
      ],
      "stateMutability": "view",
      "type": "function"
    },
    {
      "inputs": [
        {
          "internalType": "contract ISilo",
          "name": "_silo",
          "type": "address"
        },
        {
          "internalType": "address",
          "name": "_borrower",
          "type": "address"
        }
      ],
      "name": "collateralBalanceOfUnderlying",
      "outputs": [
        {
          "internalType": "uint256",
          "name": "borrowerCollateral",
          "type": "uint256"
        }
      ],
      "stateMutability": "view",
      "type": "function"
    },
    {
      "inputs": [
        {
          "internalType": "contract ISilo",
          "name": "_silo",
          "type": "address"
        }
      ],
      "name": "collateralOnlyDeposits",
      "outputs": [
        {
          "internalType": "uint256",
          "name": "",
          "type": "uint256"
        }
      ],
      "stateMutability": "view",
      "type": "function"
    },
    {
      "inputs": [
        {
          "internalType": "contract ISilo",
          "name": "_silo",
          "type": "address"
        },
        {
          "internalType": "address",
          "name": "_borrower",
          "type": "address"
        }
      ],
      "name": "debtBalanceOfUnderlying",
      "outputs": [
        {
          "internalType": "uint256",
          "name": "",
          "type": "uint256"
        }
      ],
      "stateMutability": "view",
      "type": "function"
    },
    {
      "inputs": [
        {
          "internalType": "contract ISilo[]",
          "name": "_silos",
          "type": "address[]"
        }
      ],
      "name": "getAPRs",
      "outputs": [
        {
          "components": [
            {
              "internalType": "uint256",
              "name": "depositAPR",
              "type": "uint256"
            },
            {
              "internalType": "uint256",
              "name": "borrowAPR",
              "type": "uint256"
            }
          ],
          "internalType": "struct ISiloLens.APR[]",
          "name": "aprs",
          "type": "tuple[]"
        }
      ],
      "stateMutability": "view",
      "type": "function"
    },
    {
      "inputs": [
        {
          "internalType": "contract ISilo",
          "name": "_silo",
          "type": "address"
        }
      ],
      "name": "getBorrowAPR",
      "outputs": [
        {
          "internalType": "uint256",
          "name": "borrowAPR",
          "type": "uint256"
        }
      ],
      "stateMutability": "view",
      "type": "function"
    },
    {
      "inputs": [
        {
          "internalType": "contract ISilo",
          "name": "_silo",
          "type": "address"
        },
        {
          "internalType": "address",
          "name": "_borrower",
          "type": "address"
        }
      ],
      "name": "getBorrowAmount",
      "outputs": [
        {
          "internalType": "uint256",
          "name": "maxRepay",
          "type": "uint256"
        }
      ],
      "stateMutability": "view",
      "type": "function"
    },
    {
      "inputs": [
        {
          "internalType": "contract ISilo",
          "name": "_silo",
          "type": "address"
        }
      ],
      "name": "getDepositAPR",
      "outputs": [
        {
          "internalType": "uint256",
          "name": "depositAPR",
          "type": "uint256"
        }
      ],
      "stateMutability": "view",
      "type": "function"
    },
    {
      "inputs": [
        {
          "internalType": "contract ISilo",
          "name": "_silo",
          "type": "address"
        },
        {
          "internalType": "address",
          "name": "_borrower",
          "type": "address"
        }
      ],
      "name": "getDepositAmount",
      "outputs": [
        {
          "internalType": "uint256",
          "name": "borrowerDeposits",
          "type": "uint256"
        }
      ],
      "stateMutability": "view",
      "type": "function"
    },
    {
      "inputs": [
        {
          "internalType": "contract ISilo",
          "name": "_silo",
          "type": "address"
        }
      ],
      "name": "getFeesAndFeeReceivers",
      "outputs": [
        {
          "internalType": "address",
          "name": "daoFeeReceiver",
          "type": "address"
        },
        {
          "internalType": "address",
          "name": "deployerFeeReceiver",
          "type": "address"
        },
        {
          "internalType": "uint256",
          "name": "daoFee",
          "type": "uint256"
        },
        {
          "internalType": "uint256",
          "name": "deployerFee",
          "type": "uint256"
        }
      ],
      "stateMutability": "view",
      "type": "function"
    },
    {
      "inputs": [
        {
          "internalType": "contract ISilo",
          "name": "_silo",
          "type": "address"
        }
      ],
      "name": "getInterestRateModel",
      "outputs": [
        {
          "internalType": "address",
          "name": "irm",
          "type": "address"
        }
      ],
      "stateMutability": "view",
      "type": "function"
    },
    {
      "inputs": [
        {
          "internalType": "contract ISilo",
          "name": "_silo",
          "type": "address"
        }
      ],
      "name": "getLt",
      "outputs": [
        {
          "internalType": "uint256",
          "name": "lt",
          "type": "uint256"
        }
      ],
      "stateMutability": "view",
      "type": "function"
    },
    {
      "inputs": [
        {
          "internalType": "contract ISilo",
          "name": "_silo",
          "type": "address"
        },
        {
          "internalType": "address",
          "name": "_borrower",
          "type": "address"
        }
      ],
      "name": "getLtv",
      "outputs": [
        {
          "internalType": "uint256",
          "name": "ltv",
          "type": "uint256"
        }
      ],
      "stateMutability": "view",
      "type": "function"
    },
    {
      "inputs": [
        {
          "internalType": "contract ISilo",
          "name": "_silo",
          "type": "address"
        }
      ],
      "name": "getMaxLtv",
      "outputs": [
        {
          "internalType": "uint256",
          "name": "maxLtv",
          "type": "uint256"
        }
      ],
      "stateMutability": "view",
      "type": "function"
    },
    {
      "inputs": [
        {
          "internalType": "contract ISilo",
          "name": "_silo",
          "type": "address"
        }
      ],
      "name": "getModel",
      "outputs": [
        {
          "internalType": "contract IInterestRateModel",
          "name": "irm",
          "type": "address"
        }
      ],
      "stateMutability": "view",
      "type": "function"
    },
    {
      "inputs": [
        {
          "internalType": "contract ISilo",
          "name": "_silo",
          "type": "address"
        }
      ],
      "name": "getRawLiquidity",
      "outputs": [
        {
          "internalType": "uint256",
          "name": "liquidity",
          "type": "uint256"
        }
      ],
      "stateMutability": "view",
      "type": "function"
    },
    {
      "inputs": [
        {
          "internalType": "address",
          "name": "_siloIncentivesController",
          "type": "address"
        }
      ],
      "name": "getSiloIncentivesControllerProgramsNames",
      "outputs": [
        {
          "internalType": "string[]",
          "name": "programsNames",
          "type": "string[]"
        }
      ],
      "stateMutability": "view",
      "type": "function"
    },
    {
      "inputs": [
        {
          "internalType": "contract ISilo",
          "name": "_silo",
          "type": "address"
        },
        {
          "internalType": "address",
          "name": "_borrower",
          "type": "address"
        }
      ],
      "name": "getUserLT",
      "outputs": [
        {
          "internalType": "uint256",
          "name": "userLT",
          "type": "uint256"
        }
      ],
      "stateMutability": "view",
      "type": "function"
    },
    {
      "inputs": [
        {
          "internalType": "contract ISilo",
          "name": "_silo",
          "type": "address"
        },
        {
          "internalType": "address",
          "name": "_borrower",
          "type": "address"
        }
      ],
      "name": "getUserLTV",
      "outputs": [
        {
          "internalType": "uint256",
          "name": "userLTV",
          "type": "uint256"
        }
      ],
      "stateMutability": "view",
      "type": "function"
    },
    {
      "inputs": [
        {
          "components": [
            {
              "internalType": "contract ISilo",
              "name": "silo",
              "type": "address"
            },
            {
              "internalType": "address",
              "name": "wallet",
              "type": "address"
            }
          ],
          "internalType": "struct ISiloLens.Borrower[]",
          "name": "_borrowers",
          "type": "tuple[]"
        }
      ],
      "name": "getUsersHealth",
      "outputs": [
        {
          "components": [
            {
              "internalType": "uint256",
              "name": "lt",
              "type": "uint256"
            },
            {
              "internalType": "uint256",
              "name": "ltv",
              "type": "uint256"
            }
          ],
          "internalType": "struct ISiloLens.BorrowerHealth[]",
          "name": "healths",
          "type": "tuple[]"
        }
      ],
      "stateMutability": "view",
      "type": "function"
    },
    {
      "inputs": [
        {
          "components": [
            {
              "internalType": "contract ISilo",
              "name": "silo",
              "type": "address"
            },
            {
              "internalType": "address",
              "name": "wallet",
              "type": "address"
            }
          ],
          "internalType": "struct ISiloLens.Borrower[]",
          "name": "_borrowers",
          "type": "tuple[]"
        }
      ],
      "name": "getUsersLT",
      "outputs": [
        {
          "internalType": "uint256[]",
          "name": "usersLTs",
          "type": "uint256[]"
        }
      ],
      "stateMutability": "view",
      "type": "function"
    },
    {
      "inputs": [
        {
          "internalType": "contract ISilo",
          "name": "_silo",
          "type": "address"
        }
      ],
      "name": "getUtilization",
      "outputs": [
        {
          "internalType": "uint256",
          "name": "",
          "type": "uint256"
        }
      ],
      "stateMutability": "view",
      "type": "function"
    },
    {
      "inputs": [
        {
          "internalType": "contract ISiloConfig",
          "name": "_siloConfig",
          "type": "address"
        },
        {
          "internalType": "address",
          "name": "_borrower",
          "type": "address"
        }
      ],
      "name": "hasPosition",
      "outputs": [
        {
          "internalType": "bool",
          "name": "has",
          "type": "bool"
        }
      ],
      "stateMutability": "view",
      "type": "function"
    },
    {
      "inputs": [
        {
          "internalType": "contract ISiloConfig",
          "name": "_siloConfig",
          "type": "address"
        },
        {
          "internalType": "address",
          "name": "_borrower",
          "type": "address"
        }
      ],
      "name": "inDebt",
      "outputs": [
        {
          "internalType": "bool",
          "name": "hasDebt",
          "type": "bool"
        }
      ],
      "stateMutability": "view",
      "type": "function"
    },
    {
      "inputs": [
        {
          "internalType": "contract ISilo",
          "name": "_silo",
          "type": "address"
        },
        {
          "internalType": "address",
          "name": "_borrower",
          "type": "address"
        }
      ],
      "name": "isSolvent",
      "outputs": [
        {
          "internalType": "bool",
          "name": "",
          "type": "bool"
        }
      ],
      "stateMutability": "view",
      "type": "function"
    },
    {
      "inputs": [
        {
          "internalType": "contract ISilo",
          "name": "_silo",
          "type": "address"
        }
      ],
      "name": "liquidity",
      "outputs": [
        {
          "internalType": "uint256",
          "name": "",
          "type": "uint256"
        }
      ],
      "stateMutability": "view",
      "type": "function"
    },
    {
      "inputs": [
        {
          "internalType": "contract ISilo",
          "name": "_silo",
          "type": "address"
        },
        {
          "internalType": "contract IPartialLiquidation",
          "name": "_hook",
          "type": "address"
        },
        {
          "internalType": "address",
          "name": "_borrower",
          "type": "address"
        }
      ],
      "name": "maxLiquidation",
      "outputs": [
        {
          "internalType": "uint256",
          "name": "collateralToLiquidate",
          "type": "uint256"
        },
        {
          "internalType": "uint256",
          "name": "debtToRepay",
          "type": "uint256"
        },
        {
          "internalType": "bool",
          "name": "sTokenRequired",
          "type": "bool"
        },
        {
          "internalType": "bool",
          "name": "fullLiquidation",
          "type": "bool"
        }
      ],
      "stateMutability": "view",
      "type": "function"
    },
    {
      "inputs": [
        {
          "internalType": "contract ISilo",
          "name": "_silo",
          "type": "address"
        }
      ],
      "name": "protocolFees",
      "outputs": [
        {
          "internalType": "uint256",
          "name": "daoAndDeployerRevenue",
          "type": "uint256"
        }
      ],
      "stateMutability": "view",
      "type": "function"
    },
    {
      "inputs": [
        {
          "internalType": "contract ISilo",
          "name": "_silo",
          "type": "address"
        }
      ],
      "name": "totalBorrowAmount",
      "outputs": [
        {
          "internalType": "uint256",
          "name": "",
          "type": "uint256"
        }
      ],
      "stateMutability": "view",
      "type": "function"
    },
    {
      "inputs": [
        {
          "internalType": "contract ISilo",
          "name": "_silo",
          "type": "address"
        }
      ],
      "name": "totalBorrowAmountWithInterest",
      "outputs": [
        {
          "internalType": "uint256",
          "name": "amount",
          "type": "uint256"
        }
      ],
      "stateMutability": "view",
      "type": "function"
    },
    {
      "inputs": [
        {
          "internalType": "contract ISilo",
          "name": "_silo",
          "type": "address"
        }
      ],
      "name": "totalBorrowShare",
      "outputs": [
        {
          "internalType": "uint256",
          "name": "",
          "type": "uint256"
        }
      ],
      "stateMutability": "view",
      "type": "function"
    },
    {
      "inputs": [
        {
          "internalType": "contract ISilo",
          "name": "_silo",
          "type": "address"
        }
      ],
      "name": "totalDeposits",
      "outputs": [
        {
          "internalType": "uint256",
          "name": "totalDeposits",
          "type": "uint256"
        }
      ],
      "stateMutability": "view",
      "type": "function"
    },
    {
      "inputs": [
        {
          "internalType": "contract ISilo",
          "name": "_silo",
          "type": "address"
        }
      ],
      "name": "totalDepositsWithInterest",
      "outputs": [
        {
          "internalType": "uint256",
          "name": "amount",
          "type": "uint256"
        }
      ],
      "stateMutability": "view",
      "type": "function"
    },
    {
      "inputs": [],
      "name": "InvalidAsset",
      "type": "error"
    },
    {
      "inputs": [
        {
          "internalType": "uint256",
          "name": "value",
          "type": "uint256"
        },
        {
          "internalType": "uint256",
          "name": "length",
          "type": "uint256"
        }
      ],
      "name": "StringsInsufficientHexLength",
      "type": "error"
    }
  ],
  "bytecode": "0x6080604052348015600e575f5ffd5b50613ce88061001c5f395ff3fe608060405234801561000f575f5ffd5b5060043610610207575f3560e01c8063868682cb1161011f578063d9bd0ea2116100a9578063e940325611610079578063e9403256146104f4578063f2a07bc914610507578063f45b1b3a1461051a578063f5125d3f146102f1578063fdce86431461052d575f5ffd5b8063d9bd0ea2146102de578063dcf844a7146104bb578063dd718ab4146104ce578063e2187218146104e1575f5ffd5b80639bbafd53116100ef5780639bbafd5314610427578063aab2353a1461043a578063b1696c6e14610475578063b1ff4d6c14610495578063b8c876b1146104a8575f5ffd5b8063868682cb146103ce5780638705c359146103e15780638ec109da146103f45780639848b19c14610407575f5ffd5b806343afdad2116101a0578063590630f011610170578063590630f0146103625780635d1e7c2f14610375578063647e0c20146103955780636c15c9ba146103a857806374cd15f3146103bb575f5ffd5b806343afdad2146102f1578063480defa9146103045780634f6a57b61461032457806354a0577114610337575f5ffd5b806324bc00b0116101db57806324bc00b01461029557806336e49658146102b857806337febff4146102cb57806338bad5e5146102de575f5ffd5b8062e0f7a01461020b57806306b39a77146102315780631fe0226914610244578063249a649614610257575b5f5ffd5b61021e610219366004613212565b610540565b6040519081526020015b60405180910390f35b61021e61023f366004613212565b610550565b61021e61025236600461322d565b6105b1565b61026a610265366004613212565b6105c3565b604080516001600160a01b039586168152949093166020850152918301526060820152608001610228565b6102a86102a336600461322d565b6105e0565b6040519015158152602001610228565b61021e6102c6366004613212565b6105eb565b61021e6102d9366004613212565b610635565b61021e6102ec36600461322d565b61063f565b61021e6102ff36600461322d565b6106ab565b610317610312366004613264565b6106b6565b60405161022891906132d3565b61021e610332366004613212565b610792565b61034a610345366004613212565b61079c565b6040516001600160a01b039091168152602001610228565b6102a861037036600461322d565b6107a6565b61038861038336600461332a565b610811565b6040516102289190613389565b61021e6103a3366004613212565b6108f1565b61021e6103b636600461322d565b6108fb565b61021e6103c9366004613212565b610906565b61021e6103dc36600461322d565b610943565b6102a86103ef36600461322d565b6109a3565b61021e61040236600461322d565b6109ae565b61041a610415366004613264565b6109c1565b60405161022891906133d5565b61021e610435366004613212565b610a73565b61044d61044836600461340c565b610aa1565b6040805194855260208501939093529015159183019190915215156060820152608001610228565b610488610483366004613212565b610b94565b6040516102289190613454565b61021e6104a3366004613212565b610d08565b61021e6104b6366004613212565b610d12565b61021e6104c9366004613212565b610d4f565b61021e6104dc36600461322d565b610dc5565b61034a6104ef366004613212565b610dd8565b61021e610502366004613212565b610eaf565b61021e610515366004613212565b610ede565b61021e61052836600461322d565b610ee8565b61021e61053b366004613212565b610f79565b5f61054a8261100f565b92915050565b5f816001600160a01b03166301e1d1146040518163ffffffff1660e01b8152600401602060405180830381865afa15801561058d573d5f5f3e3d5ffd5b505050506040513d601f19601f8201168201806040525081019061054a91906134d8565b5f6105bc838361112f565b9392505050565b5f5f5f5f6105d085611226565b5092989197509550909350915050565b5f6105bc83836113da565b60405163b6d821c760e01b81525f906001600160a01b0383169063b6d821c79061061a90600290600401613503565b602060405180830381865afa15801561058d573d5f5f3e3d5ffd5b5f61054a82611829565b604051635f30114960e01b81526001600160a01b0382811660048301525f9190841690635f301149906024015b602060405180830381865afa158015610687573d5f5f3e3d5ffd5b505050506040513d601f19601f820116820180604052508101906105bc91906134d8565b5f6105bc8383611900565b6060816001600160401b038111156106d0576106d061351d565b60405190808252806020026020018201604052801561071457816020015b604080518082019091525f80825260208201528152602001906001900390816106ee5790505b5090505f5b8281101561078b575f84848381811061073457610734613531565b90506040020180360381019061074a919061359e565b90505f83838151811061075f5761075f613531565b6020026020010151905061077a825f01518360200151611a7b565b825260209091015250600101610719565b5092915050565b5f61054a82611bbe565b5f61054a82610dd8565b6040516338b51ce160e01b81526001600160a01b0382811660048301525f91908416906338b51ce190602401602060405180830381865afa1580156107ed573d5f5f3e3d5ffd5b505050506040513d601f19601f820116820180604052508101906105bc9190613610565b6060816001600160401b0381111561082b5761082b61351d565b60405190808252806020026020018201604052801561086f57816020015b604080518082019091525f80825260208201528152602001906001900390816108495790505b5090505f5b8281101561078b575f84848381811061088f5761088f613531565b90506020020160208101906108a49190613212565b905060405180604001604052806108ba83611bbe565b81526020016108c88361100f565b8152508383815181106108dd576108dd613531565b602090810291909101015250600101610874565b5f61054a82611db9565b5f6105bc8383611e90565b5f816001600160a01b031663ecd658b46040518163ffffffff1660e01b8152600401602060405180830381865afa15801561058d573d5f5f3e3d5ffd5b60405163c99ee7b760e01b81526001600160a01b038084166004830152821660248201525f9073__$89d37a64e3ccc21ed0741d2ae8390c2e12$__9063c99ee7b790604401602060405180830381865af4158015610687573d5f5f3e3d5ffd5b5f6105bc838361213e565b5f6109b9838361223e565b949350505050565b6060816001600160401b038111156109db576109db61351d565b604051908082528060200260200182016040528015610a04578160200160208202803683370190505b5090505f5b8281101561078b575f848483818110610a2457610a24613531565b905060400201803603810190610a3a919061359e565b9050610a4d815f0151826020015161112f565b838381518110610a5f57610a5f613531565b602090810291909101015250600101610a09565b60405163b6d821c760e01b81525f906001600160a01b0383169063b6d821c79061061a908490600401613503565b6040516317a05b0960e31b81526001600160a01b0382811660048301525f9182918291829187169063bd02d84890602401606060405180830381865afa158015610aed573d5f5f3e3d5ffd5b505050506040513d601f19601f82011682018060405250810190610b119190613629565b604051635f30114960e01b81526001600160a01b03898116600483015293975091955093505f91891690635f30114990602401602060405180830381865afa158015610b5f573d5f5f3e3d5ffd5b505050506040513d601f19601f82011682018060405250810190610b8391906134d8565b905083811491505093509350935093565b60605f8290505f816001600160a01b031663fb71aec56040518163ffffffff1660e01b81526004015f60405180830381865afa158015610bd6573d5f5f3e3d5ffd5b505050506040513d5f823e601f3d908101601f19168201604052610bfd919081019061365c565b905080516001600160401b03811115610c1857610c1861351d565b604051908082528060200260200182016040528015610c4b57816020015b6060815260200190600190039081610c365790505b5092505f5b8151811015610d00575f828281518110610c6c57610c6c613531565b60200260200101519050610c7f8161237b565b15610cbf575f610c8e82613780565b60601c9050610c9c81612422565b868481518110610cae57610cae613531565b602002602001018190525050610cf7565b828281518110610cd157610cd1613531565b6020026020010151858381518110610ceb57610ceb613531565b60200260200101819052505b50600101610c50565b505050919050565b5f61054a82612438565b5f816001600160a01b0316630910a5106040518163ffffffff1660e01b8152600401602060405180830381865afa15801561058d573d5f5f3e3d5ffd5b5f816001600160a01b0316639d35abaf6040518163ffffffff1660e01b815260040160a060405180830381865afa158015610d8c573d5f5f3e3d5ffd5b505050506040513d601f19601f82011682018060405250810190610db091906137e9565b50506001600160c01b03909216949350505050565b5f610dd0838361223e565b509392505050565b5f816001600160a01b03166379502c556040518163ffffffff1660e01b8152600401602060405180830381865afa158015610e15573d5f5f3e3d5ffd5b505050506040513d601f19601f82011682018060405250810190610e399190613840565b60405163e48a5f7b60e01b81526001600160a01b038481166004830152919091169063e48a5f7b9060240161022060405180830381865afa158015610e80573d5f5f3e3d5ffd5b505050506040513d601f19601f82011682018060405250810190610ea4919061397e565b610120015192915050565b60405163b6d821c760e01b81525f906001600160a01b0383169063b6d821c79061061a90600190600401613503565b5f61054a82612544565b6040516370a0823160e01b81526001600160a01b0382811660048301525f9190841690634cdad5069082906370a0823190602401602060405180830381865afa158015610f37573d5f5f3e3d5ffd5b505050506040513d601f19601f82011682018060405250810190610f5b91906134d8565b6040518263ffffffff1660e01b815260040161066c91815260200190565b5f5f826001600160a01b0316639ef2fda06040518163ffffffff1660e01b8152600401606060405180830381865afa158015610fb7573d5f5f3e3d5ffd5b505050506040513d601f19601f82011682018060405250810190610fdb9190613999565b8051909150156110095780516020820151610fff90670de0b6b3a764000090613a0b565b6105bc9190613a36565b50919050565b5f5f826001600160a01b03166379502c556040518163ffffffff1660e01b8152600401602060405180830381865afa15801561104d573d5f5f3e3d5ffd5b505050506040513d601f19601f820116820180604052508101906110719190613840565b60405163e48a5f7b60e01b81526001600160a01b038581166004830152919091169063e48a5f7b9060240161022060405180830381865afa1580156110b8573d5f5f3e3d5ffd5b505050506040513d601f19601f820116820180604052508101906110dc919061397e565b61012001516040516364efe17760e01b81526001600160a01b038581166004830152426024830152919250908216906364efe17790604401602060405180830381865afa158015610687573d5f5f3e3d5ffd5b5f5f5f846001600160a01b03166379502c556040518163ffffffff1660e01b8152600401602060405180830381865afa15801561116e573d5f5f3e3d5ffd5b505050506040513d601f19601f820116820180604052508101906111929190613840565b6040516394c0527d60e01b81526001600160a01b03868116600483015291909116906394c0527d9060240161044060405180830381865afa1580156111d9573d5f5f3e3d5ffd5b505050506040513d601f19601f820116820180604052508101906111fd9190613a49565b604081015191935091506001600160a01b03161561121e5781610160015192505b505092915050565b5f5f5f5f5f856001600160a01b03166379502c556040518163ffffffff1660e01b8152600401602060405180830381865afa158015611267573d5f5f3e3d5ffd5b505050506040513d601f19601f8201168201806040525081019061128b9190613840565b604051630509af0560e51b81526001600160a01b038881166004830152919091169063a135e0a090602401608060405180830381865afa1580156112d1573d5f5f3e3d5ffd5b505050506040513d601f19601f820116820180604052508101906112f59190613a7e565b9050809350819450829550505050856001600160a01b031663c45a01556040518163ffffffff1660e01b8152600401602060405180830381865afa15801561133f573d5f5f3e3d5ffd5b505050506040513d601f19601f820116820180604052508101906113639190613840565b604051630c0d053960e11b81526001600160a01b038881166004830152919091169063181a0a72906024016040805180830381865afa1580156113a8573d5f5f3e3d5ffd5b505050506040513d601f19601f820116820180604052508101906113cc9190613abe565b909790965092945090925090565b5f5f5f846001600160a01b031663aecc90cb6040518163ffffffff1660e01b81526004016040805180830381865afa158015611418573d5f5f3e3d5ffd5b505050506040513d601f19601f8201168201806040525081019061143c9190613abe565b60405163e48a5f7b60e01b81526001600160a01b0380841660048301529294509092505f9187169063e48a5f7b9060240161022060405180830381865afa158015611489573d5f5f3e3d5ffd5b505050506040513d601f19601f820116820180604052508101906114ad919061397e565b60405163e48a5f7b60e01b81526001600160a01b0384811660048301529192505f9188169063e48a5f7b9060240161022060405180830381865afa1580156114f7573d5f5f3e3d5ffd5b505050506040513d601f19601f8201168201806040525081019061151b919061397e565b60a08301516040516370a0823160e01b81526001600160a01b0389811660048301529293509116906370a0823190602401602060405180830381865afa158015611567573d5f5f3e3d5ffd5b505050506040513d601f19601f8201168201806040525081019061158b91906134d8565b1561159d57600194505050505061054a565b60808201516040516370a0823160e01b81526001600160a01b038881166004830152909116906370a0823190602401602060405180830381865afa1580156115e7573d5f5f3e3d5ffd5b505050506040513d601f19601f8201168201806040525081019061160b91906134d8565b1561161d57600194505050505061054a565b60a08101516040516370a0823160e01b81526001600160a01b038881166004830152909116906370a0823190602401602060405180830381865afa158015611667573d5f5f3e3d5ffd5b505050506040513d601f19601f8201168201806040525081019061168b91906134d8565b1561169d57600194505050505061054a565b60808101516040516370a0823160e01b81526001600160a01b038881166004830152909116906370a0823190602401602060405180830381865afa1580156116e7573d5f5f3e3d5ffd5b505050506040513d601f19601f8201168201806040525081019061170b91906134d8565b1561171d57600194505050505061054a565b60c08201516040516370a0823160e01b81526001600160a01b038881166004830152909116906370a0823190602401602060405180830381865afa158015611767573d5f5f3e3d5ffd5b505050506040513d601f19601f8201168201806040525081019061178b91906134d8565b1561179d57600194505050505061054a565b60c08101516040516370a0823160e01b81526001600160a01b038881166004830152909116906370a0823190602401602060405180830381865afa1580156117e7573d5f5f3e3d5ffd5b505050506040513d601f19601f8201168201806040525081019061180b91906134d8565b1561181d57600194505050505061054a565b505f9695505050505050565b5f816001600160a01b03166379502c556040518163ffffffff1660e01b8152600401602060405180830381865afa158015611866573d5f5f3e3d5ffd5b505050506040513d601f19601f8201168201806040525081019061188a9190613840565b60405163e48a5f7b60e01b81526001600160a01b038481166004830152919091169063e48a5f7b9060240161022060405180830381865afa1580156118d1573d5f5f3e3d5ffd5b505050506040513d601f19601f820116820180604052508101906118f5919061397e565b610160015192915050565b5f5f5f846001600160a01b03166379502c556040518163ffffffff1660e01b8152600401602060405180830381865afa15801561193f573d5f5f3e3d5ffd5b505050506040513d601f19601f820116820180604052508101906119639190613840565b6040516394c0527d60e01b81526001600160a01b03868116600483015291909116906394c0527d9060240161044060405180830381865afa1580156119aa573d5f5f3e3d5ffd5b505050506040513d601f19601f820116820180604052508101906119ce9190613a49565b604081015191935091506001600160a01b03161561121e57611a728282865f60018660c001516001600160a01b03166370a082318b6040518263ffffffff1660e01b8152600401611a2e91906001600160a01b0391909116815260200190565b602060405180830381865afa158015611a49573d5f5f3e3d5ffd5b505050506040513d601f19601f82011682018060405250810190611a6d91906134d8565b612625565b95945050505050565b5f5f5f5f856001600160a01b03166379502c556040518163ffffffff1660e01b8152600401602060405180830381865afa158015611abb573d5f5f3e3d5ffd5b505050506040513d601f19601f82011682018060405250810190611adf9190613840565b6040516394c0527d60e01b81526001600160a01b03878116600483015291909116906394c0527d9060240161044060405180830381865afa158015611b26573d5f5f3e3d5ffd5b505050506040513d601f19601f82011682018060405250810190611b4a9190613a49565b604081015191935091506001600160a01b031615611bb557611baa8282875f60018660c001516001600160a01b03166370a082318c6040518263ffffffff1660e01b8152600401611a2e91906001600160a01b0391909116815260200190565b935081610160015192505b50509250929050565b5f5f826001600160a01b031663a1ff9bee6040518163ffffffff1660e01b8152600401602060405180830381865afa158015611bfc573d5f5f3e3d5ffd5b505050506040513d601f19601f82011682018060405250810190611c2091906134d8565b9050805f03611c3157505f92915050565b5f836001600160a01b03166379502c556040518163ffffffff1660e01b8152600401602060405180830381865afa158015611c6e573d5f5f3e3d5ffd5b505050506040513d601f19601f82011682018060405250810190611c929190613840565b60405163e48a5f7b60e01b81526001600160a01b038681166004830152919091169063e48a5f7b9060240161022060405180830381865afa158015611cd9573d5f5f3e3d5ffd5b505050506040513d601f19601f82011682018060405250810190611cfd919061397e565b905081846001600160a01b031663ecd658b46040518163ffffffff1660e01b8152600401602060405180830381865afa158015611d3c573d5f5f3e3d5ffd5b505050506040513d601f19601f82011682018060405250810190611d6091906134d8565b611d698661100f565b611d739190613a0b565b611d7d9190613a36565b60208201518251919450670de0b6b3a764000091611d9b9083613aeb565b611da59190613aeb565b611daf9085613a0b565b6109b99190613a36565b5f816001600160a01b03166379502c556040518163ffffffff1660e01b8152600401602060405180830381865afa158015611df6573d5f5f3e3d5ffd5b505050506040513d601f19601f82011682018060405250810190611e1a9190613840565b60405163e48a5f7b60e01b81526001600160a01b038481166004830152919091169063e48a5f7b9060240161022060405180830381865afa158015611e61573d5f5f3e3d5ffd5b505050506040513d601f19601f82011682018060405250810190611e85919061397e565b610140015192915050565b5f5f5f846001600160a01b03166379502c556040518163ffffffff1660e01b8152600401602060405180830381865afa158015611ecf573d5f5f3e3d5ffd5b505050506040513d601f19601f82011682018060405250810190611ef39190613840565b604051630483b24f60e41b81526001600160a01b038781166004830152919091169063483b24f090602401606060405180830381865afa158015611f39573d5f5f3e3d5ffd5b505050506040513d601f19601f82011682018060405250810190611f5d9190613afe565b506040516370a0823160e01b81526001600160a01b0387811660048301529294509092505f918416906370a0823190602401602060405180830381865afa158015611faa573d5f5f3e3d5ffd5b505050506040513d601f19601f82011682018060405250810190611fce91906134d8565b6040516370a0823160e01b81526001600160a01b0387811660048301529192505f918416906370a0823190602401602060405180830381865afa158015612017573d5f5f3e3d5ffd5b505050506040513d601f19601f8201168201806040525081019061203b91906134d8565b905081156120b35760405163a7d6e44b60e01b81526001600160a01b0388169063a7d6e44b906120719085905f90600401613b3d565b602060405180830381865afa15801561208c573d5f5f3e3d5ffd5b505050506040513d601f19601f820116820180604052508101906120b091906134d8565b94505b80156121345760405163a7d6e44b60e01b81526001600160a01b0388169063a7d6e44b906120e8908490600190600401613b3d565b602060405180830381865afa158015612103573d5f5f3e3d5ffd5b505050506040513d601f19601f8201168201806040525081019061212791906134d8565b6121319086613b61565b94505b5050505092915050565b6040516394c0527d60e01b81526001600160a01b0382811660048301525f9182918516906394c0527d9060240161044060405180830381865afa158015612187573d5f5f3e3d5ffd5b505050506040513d601f19601f820116820180604052508101906121ab9190613a49565b60c08101519092506001600160a01b031615801591506109b9575060c08101516040516370a0823160e01b81526001600160a01b038581166004830152909116906370a0823190602401602060405180830381865afa158015612210573d5f5f3e3d5ffd5b505050506040513d601f19601f8201168201806040525081019061223491906134d8565b1515949350505050565b6040516394c0527d60e01b81526001600160a01b0382811660048301525f918291829182918716906394c0527d9060240161044060405180830381865afa15801561228b573d5f5f3e3d5ffd5b505050506040513d601f19601f820116820180604052508101906122af9190613a49565b606082015191935091506001600160a01b03166122d3575f5f935093505050612374565b60c08101516040516370a0823160e01b81526001600160a01b0380881660048301525f9261235592869286928b92879260019216906370a0823190602401602060405180830381865afa15801561232c573d5f5f3e3d5ffd5b505050506040513d601f19601f8201168201806040525081019061235091906134d8565b61267c565b905061236a81846060015184606001516128f9565b5090955093505050505b9250929050565b5f815160141461238c57505f919050565b5f61239683613780565b60601c90506123a48161294f565b515f036123b357505f92915050565b6040516370a0823160e01b81523060048201526001600160a01b038216906370a0823190602401602060405180830381865afa925050508015612413575060408051601f3d908101601f19168201909252612410918101906134d8565b60015b15611009575060019392505050565b606061054a6001600160a01b0383166014612975565b5f5f826001600160a01b03166379502c556040518163ffffffff1660e01b8152600401602060405180830381865afa158015612476573d5f5f3e3d5ffd5b505050506040513d601f19601f8201168201806040525081019061249a9190613840565b604051630483b24f60e41b81526001600160a01b038581166004830152919091169063483b24f090602401606060405180830381865afa1580156124e0573d5f5f3e3d5ffd5b505050506040513d601f19601f820116820180604052508101906125049190613afe565b92505050806001600160a01b03166318160ddd6040518163ffffffff1660e01b8152600401602060405180830381865afa158015610687573d5f5f3e3d5ffd5b5f61054a826001600160a01b031663b6d821c760016040518263ffffffff1660e01b81526004016125759190613503565b602060405180830381865afa158015612590573d5f5f3e3d5ffd5b505050506040513d601f19601f820116820180604052508101906125b491906134d8565b60405163b6d821c760e01b81526001600160a01b0385169063b6d821c7906125e190600290600401613503565b602060405180830381865afa1580156125fc573d5f5f3e3d5ffd5b505050506040513d601f19601f8201168201806040525081019061262091906134d8565b612aea565b5f815f0361263457505f612672565b5f61264388888888888861267c565b905080608001515f03612659575f915050612672565b61266c81896060015189606001516128f9565b93505050505b9695505050505050565b6126bb6040518060a001604052805f6001600160a01b031681526020015f6001600160a01b031681526020015f81526020015f81526020015f81525090565b85606001516001600160a01b031687606001516001600160a01b0316146127255760018460018111156126f0576126f06134ef565b14612704578660e001518660e00151612711565b8661010001518661010001515b6001600160a01b0390811660208401521681525b5f5f6127368960800151885f612b02565b80935081925050505f5f8a604001516001600160a01b031663ffbaaf7a6040518163ffffffff1660e01b81526004016040805180830381865afa15801561277f573d5f5f3e3d5ffd5b505050506040513d601f19601f820116820180604052508101906127a39190613b74565b915091506127b48382865f5f612bea565b604086015260a08b01516127c9908a5f612b02565b9450925060018760018111156127e1576127e16134ef565b146127ec5781612808565b6128088b604001518c61012001518d5f01518e60200151612c25565b91506128188383865f6001612bea565b606086015260c08a015161282d908a88612b02565b945092505f6001886001811115612846576128466134ef565b146128c0578a604001516001600160a01b031663b6d821c760026040518263ffffffff1660e01b815260040161287c9190613503565b602060405180830381865afa158015612897573d5f5f3e3d5ffd5b505050506040513d601f19601f820116820180604052508101906128bb91906134d8565b6128d3565b6128d38b604001518c6101200151612d1b565b90506128e484828760016002612bea565b608087015250939a9950505050505050505050565b5f5f5f612907868686612e0e565b909350915082158015612918575081155b1561292a57505f915081905080612946565b825f0361293957505f19612946565b6129438284612f64565b90505b93509350939050565b60408051603f833b908101601f1916820190925281815290805f60208401853c50919050565b6060825f612984846002613a0b565b61298f906002613b61565b6001600160401b038111156129a6576129a661351d565b6040519080825280601f01601f1916602001820160405280156129d0576020820181803683370190505b509050600360fc1b815f815181106129ea576129ea613531565b60200101906001600160f81b03191690815f1a905350600f60fb1b81600181518110612a1857612a18613531565b60200101906001600160f81b03191690815f1a9053505f612a3a856002613a0b565b612a45906001613b61565b90505b6001811115612abc576f181899199a1a9b1b9c1cb0b131b232b360811b83600f1660108110612a7957612a79613531565b1a60f81b828281518110612a8f57612a8f613531565b60200101906001600160f81b03191690815f1a90535060049290921c91612ab581613b96565b9050612a48565b5081156109b95760405163e22e27eb60e01b8152600481018690526024810185905260440160405180910390fd5b5f828211612afa578183036105bc565b5f9392505050565b5f5f825f03612b7c5760405163dce5c2db60e01b81526001600160a01b03858116600483015286169063dce5c2db906024016040805180830381865afa158015612b4e573d5f5f3e3d5ffd5b505050506040513d601f19601f82011682018060405250810190612b729190613b74565b9092509050612be2565b829150846001600160a01b03166318160ddd6040518163ffffffff1660e01b8152600401602060405180830381865afa158015612bbb573d5f5f3e3d5ffd5b505050506040513d601f19601f82011682018060405250810190612bdf91906134d8565b90505b935093915050565b5f5f5f612bf8878786612f7a565b91509150815f03612c0d578792505050611a72565b612c1988828488612fd5565b98975050505050505050565b6040516367efe7fd60e11b81526001600160a01b0385811660048301524260248301525f91829186169063cfdfcffa90604401602060405180830381865afa925050508015612c91575060408051601f3d908101601f19168201909252612c8e918101906134d8565b60015b15612c995790505b5f5f876001600160a01b03166339c5c5056040518163ffffffff1660e01b81526004016040805180830381865afa158015612cd6573d5f5f3e3d5ffd5b505050506040513d601f19601f82011682018060405250810190612cfa9190613b74565b91509150612d0b8282858989613017565b50919a9950505050505050505050565b6040516367efe7fd60e11b81526001600160a01b0383811660048301524260248301525f91829184169063cfdfcffa90604401602060405180830381865afa925050508015612d87575060408051601f3d908101601f19168201909252612d84918101906134d8565b60015b15612d8f5790505b60405163b6d821c760e01b8152612e05906001600160a01b0386169063b6d821c790612dc090600290600401613503565b602060405180830381865afa158015612ddb573d5f5f3e3d5ffd5b505050506040513d601f19601f82011682018060405250810190612dff91906134d8565b82613071565b50949350505050565b5f5f5f85606001518660400151612e259190613b61565b90508015612eb75785516001600160a01b0316612e425780612eb4565b85516040516313b0be3360e01b8152600481018390526001600160a01b038781166024830152909116906313b0be3390604401602060405180830381865afa158015612e90573d5f5f3e3d5ffd5b505050506040513d601f19601f82011682018060405250810190612eb491906134d8565b92505b608086015115612f5b5760208601516001600160a01b0316612edd578560800151612f58565b602086015160808701516040516313b0be3360e01b815260048101919091526001600160a01b038681166024830152909116906313b0be3390604401602060405180830381865afa158015612f34573d5f5f3e3d5ffd5b505050506040513d601f19601f82011682018060405250810190612f5891906134d8565b91505b50935093915050565b5f6105bc83670de0b6b3a7640000846001612fd5565b5f5f835f03612f87575f94505b6002836002811115612f9b57612f9b6134ef565b14612fc657612fac6003600a613c86565b612fb69085613b61565b612fc1866001613b61565b612fc9565b83855b90969095509350505050565b5f613002612fe2836130b9565b8015612ffd57505f8480612ff857612ff8613a22565b868809115b151590565b61300d8686866130e5565b611a729190613b61565b5f5f5f5f6130258888613071565b90935090508585016130408282670de0b6b3a76400006131a2565b92505f61304d8484613aeb565b90508a198181101561305d578091505b818c01965050505095509550955095915050565b5f8083158061307e575082155b1561308d57508290505f612374565b6130a08484670de0b6b3a76400006131a2565b9050808401915083821015612374575091925f92509050565b5f60028260038111156130ce576130ce6134ef565b6130d89190613c91565b60ff166001149050919050565b5f838302815f1985870982811083820303915050805f036131195783828161310f5761310f613a22565b04925050506105bc565b8084116131375761313784156131305760116131ea565b60126131ea565b5f848688095f868103871696879004966002600389028118808a02820302808a02820302808a02820302808a02820302808a02820302808a02909103029181900381900460010186841190950394909402919094039290920491909117919091029150509392505050565b5f835f036131b157505f6105bc565b50828202828482816131c5576131c5613a22565b04146131d257505f6105bc565b8181816131e1576131e1613a22565b04949350505050565b634e487b715f52806020526024601cfd5b6001600160a01b038116811461320f575f5ffd5b50565b5f60208284031215613222575f5ffd5b81356105bc816131fb565b5f5f6040838503121561323e575f5ffd5b8235613249816131fb565b91506020830135613259816131fb565b809150509250929050565b5f5f60208385031215613275575f5ffd5b82356001600160401b0381111561328a575f5ffd5b8301601f8101851361329a575f5ffd5b80356001600160401b038111156132af575f5ffd5b8560208260061b84010111156132c3575f5ffd5b6020919091019590945092505050565b602080825282518282018190525f918401906040840190835b8181101561331f5761330983855180518252602090810151910152565b60209390930192604092909201916001016132ec565b509095945050505050565b5f5f6020838503121561333b575f5ffd5b82356001600160401b03811115613350575f5ffd5b8301601f81018513613360575f5ffd5b80356001600160401b03811115613375575f5ffd5b8560208260051b84010111156132c3575f5ffd5b602080825282518282018190525f918401906040840190835b8181101561331f576133bf83855180518252602090810151910152565b60209390930192604092909201916001016133a2565b602080825282518282018190525f918401906040840190835b8181101561331f5783518352602093840193909201916001016133ee565b5f5f5f6060848603121561341e575f5ffd5b8335613429816131fb565b92506020840135613439816131fb565b91506040840135613449816131fb565b809150509250925092565b5f602082016020835280845180835260408501915060408160051b8601019250602086015f5b828110156134cc57603f19878603018452815180518087528060208301602089015e5f602082890101526020601f19601f8301168801019650505060208201915060208401935060018101905061347a565b50929695505050505050565b5f602082840312156134e8575f5ffd5b5051919050565b634e487b7160e01b5f52602160045260245ffd5b6020810160038310613517576135176134ef565b91905290565b634e487b7160e01b5f52604160045260245ffd5b634e487b7160e01b5f52603260045260245ffd5b60405161022081016001600160401b03811182821017156135685761356861351d565b60405290565b604051601f8201601f191681016001600160401b03811182821017156135965761359661351d565b604052919050565b5f60408284031280156135af575f5ffd5b50604080519081016001600160401b03811182821017156135d2576135d261351d565b60405282356135e0816131fb565b815260208301356135f0816131fb565b60208201529392505050565b8051801515811461360b575f5ffd5b919050565b5f60208284031215613620575f5ffd5b6105bc826135fc565b5f5f5f6060848603121561363b575f5ffd5b835160208501519093509150613653604085016135fc565b90509250925092565b5f6020828403121561366c575f5ffd5b81516001600160401b03811115613681575f5ffd5b8201601f81018413613691575f5ffd5b80516001600160401b038111156136aa576136aa61351d565b8060051b6136ba6020820161356e565b918252602081840181019290810190878411156136d5575f5ffd5b6020850192505b838310156137755782516001600160401b038111156136f9575f5ffd5b8501603f81018913613709575f5ffd5b60208101516001600160401b038111156137255761372561351d565b613738601f8201601f191660200161356e565b8181526040838301018b101561374c575f5ffd5b8160408401602083015e5f602083830101528085525050506020820191506020830192506136dc565b979650505050505050565b805160208201516bffffffffffffffffffffffff198116919060148210156137cc576bffffffffffffffffffffffff196bffffffffffffffffffffffff198360140360031b1b82161692505b5050919050565b80516001600160401b038116811461360b575f5ffd5b5f5f5f5f5f60a086880312156137fd575f5ffd5b85516001600160c01b0381168114613813575f5ffd5b9450613821602087016137d3565b6040870151606088015160809098015196999198509695945092505050565b5f60208284031215613850575f5ffd5b81516105bc816131fb565b805161360b816131fb565b5f6102208284031215613877575f5ffd5b61387f613545565b8251815260208084015190820152905061389b6040830161385b565b60408201526138ac6060830161385b565b60608201526138bd6080830161385b565b60808201526138ce60a0830161385b565b60a08201526138df60c0830161385b565b60c08201526138f060e0830161385b565b60e0820152613902610100830161385b565b610100820152613915610120830161385b565b6101208201526101408281015190820152610160808301519082015261018080830151908201526101a080830151908201526101c0808301519082015261395f6101e0830161385b565b6101e082015261397261020083016135fc565b61020082015292915050565b5f610220828403121561398f575f5ffd5b6105bc8383613866565b5f60608284031280156139aa575f5ffd5b50604051606081016001600160401b03811182821017156139cd576139cd61351d565b604090815283518252602080850151908301526139eb9084016137d3565b60408201529392505050565b634e487b7160e01b5f52601160045260245ffd5b808202811582820484141761054a5761054a6139f7565b634e487b7160e01b5f52601260045260245ffd5b5f82613a4457613a44613a22565b500490565b5f5f6104408385031215613a5b575f5ffd5b613a658484613866565b9150613a75846102208501613866565b90509250929050565b5f5f5f5f60808587031215613a91575f5ffd5b84516020860151604087015160608801519296509094509250613ab3816131fb565b939692955090935050565b5f5f60408385031215613acf575f5ffd5b8251613ada816131fb565b6020840151909250613259816131fb565b8181038181111561054a5761054a6139f7565b5f5f5f60608486031215613b10575f5ffd5b8351613b1b816131fb565b6020850151909350613b2c816131fb565b6040850151909250613449816131fb565b8281526040810160028310613b5457613b546134ef565b8260208301529392505050565b8082018082111561054a5761054a6139f7565b5f5f60408385031215613b85575f5ffd5b505080516020909101519092909150565b5f81613ba457613ba46139f7565b505f190190565b6001815b6001841115612be257808504811115613bca57613bca6139f7565b6001841615613bd857908102905b60019390931c928002613baf565b5f82613bf45750600161054a565b81613c0057505f61054a565b8160018114613c165760028114613c2057613c3c565b600191505061054a565b60ff841115613c3157613c316139f7565b50506001821b61054a565b5060208310610133831016604e8410600b8410161715613c5f575081810a61054a565b613c6b5f198484613bab565b805f1904821115613c7e57613c7e6139f7565b029392505050565b5f6105bc8383613be6565b5f60ff831680613ca357613ca3613a22565b8060ff8416069150509291505056fea26469706673582212201aee64d7e76b6624e551c041c39e8629bfa7fb976d1afc896c289088d6f2e79964736f6c634300081c0033",
  "language": "Solidity",
  "compiler": "0.8.28+commit.7893614a"
}