{
  "address": "0x023D9Bcb63532D1215D4AdbDb66A4410e506B90e",
  "abi": [
    {
      "inputs": [
        {
          "internalType": "address",
          "name": "_initialOwner",
          "type": "address"
        },
        {
          "internalType": "address",
          "name": "_beneficiary",
          "type": "address"
        }
      ],
      "stateMutability": "nonpayable",
      "type": "constructor"
    },
    {
      "inputs": [],
      "name": "BENEFICIARY",
      "outputs": [
        {
          "internalType": "address",
          "name": "",
          "type": "address"
        }
      ],
      "stateMutability": "view",
      "type": "function"
    },
    {
      "inputs": [],
      "name": "REWARD_ASSET",
      "outputs": [
        {
          "internalType": "address",
          "name": "",
          "type": "address"
        }
      ],
      "stateMutability": "view",
      "type": "function"
    },
    {
      "inputs": [],
      "name": "acceptOwnership",
      "outputs": [],
      "stateMutability": "nonpayable",
      "type": "function"
    },
    {
      "inputs": [],
      "name": "claimRewards",
      "outputs": [
        {
          "internalType": "uint256",
          "name": "rewards",
          "type": "uint256"
        }
      ],
      "stateMutability": "nonpayable",
      "type": "function"
    },
    {
      "inputs": [],
      "name": "distributionEnd",
      "outputs": [
        {
          "internalType": "uint256",
          "name": "",
          "type": "uint256"
        }
      ],
      "stateMutability": "view",
      "type": "function"
    },
    {
      "inputs": [],
      "name": "emergencyWithdraw",
      "outputs": [],
      "stateMutability": "nonpayable",
      "type": "function"
    },
    {
      "inputs": [],
      "name": "emissionPerSecond",
      "outputs": [
        {
          "internalType": "uint256",
          "name": "",
          "type": "uint256"
        }
      ],
      "stateMutability": "view",
      "type": "function"
    },
    {
      "inputs": [],
      "name": "fundingGap",
      "outputs": [
        {
          "internalType": "uint256",
          "name": "gap",
          "type": "uint256"
        }
      ],
      "stateMutability": "view",
      "type": "function"
    },
    {
      "inputs": [],
      "name": "lastUpdateTimestamp",
      "outputs": [
        {
          "internalType": "uint256",
          "name": "",
          "type": "uint256"
        }
      ],
      "stateMutability": "view",
      "type": "function"
    },
    {
      "inputs": [],
      "name": "owner",
      "outputs": [
        {
          "internalType": "address",
          "name": "",
          "type": "address"
        }
      ],
      "stateMutability": "view",
      "type": "function"
    },
    {
      "inputs": [],
      "name": "pendingOwner",
      "outputs": [
        {
          "internalType": "address",
          "name": "",
          "type": "address"
        }
      ],
      "stateMutability": "view",
      "type": "function"
    },
    {
      "inputs": [],
      "name": "pendingRewards",
      "outputs": [
        {
          "internalType": "uint256",
          "name": "rewards",
          "type": "uint256"
        }
      ],
      "stateMutability": "view",
      "type": "function"
    },
    {
      "inputs": [],
      "name": "renounceOwnership",
      "outputs": [],
      "stateMutability": "nonpayable",
      "type": "function"
    },
    {
      "inputs": [
        {
          "internalType": "uint256",
          "name": "_emissionPerSecond",
          "type": "uint256"
        },
        {
          "internalType": "uint256",
          "name": "_distributionEnd",
          "type": "uint256"
        }
      ],
      "name": "setEmissions",
      "outputs": [],
      "stateMutability": "nonpayable",
      "type": "function"
    },
    {
      "inputs": [
        {
          "internalType": "address",
          "name": "newOwner",
          "type": "address"
        }
      ],
      "name": "transferOwnership",
      "outputs": [],
      "stateMutability": "nonpayable",
      "type": "function"
    },
    {
      "anonymous": false,
      "inputs": [
        {
          "indexed": true,
          "internalType": "uint256",
          "name": "emissionPerSecond",
          "type": "uint256"
        },
        {
          "indexed": true,
          "internalType": "uint256",
          "name": "distributionEnd",
          "type": "uint256"
        }
      ],
      "name": "EmissionsUpdated",
      "type": "event"
    },
    {
      "anonymous": false,
      "inputs": [
        {
          "indexed": true,
          "internalType": "address",
          "name": "previousOwner",
          "type": "address"
        },
        {
          "indexed": true,
          "internalType": "address",
          "name": "newOwner",
          "type": "address"
        }
      ],
      "name": "OwnershipTransferStarted",
      "type": "event"
    },
    {
      "anonymous": false,
      "inputs": [
        {
          "indexed": true,
          "internalType": "address",
          "name": "previousOwner",
          "type": "address"
        },
        {
          "indexed": true,
          "internalType": "address",
          "name": "newOwner",
          "type": "address"
        }
      ],
      "name": "OwnershipTransferred",
      "type": "event"
    },
    {
      "anonymous": false,
      "inputs": [
        {
          "indexed": true,
          "internalType": "uint256",
          "name": "amount",
          "type": "uint256"
        }
      ],
      "name": "RewardsClaimed",
      "type": "event"
    },
    {
      "inputs": [
        {
          "internalType": "address",
          "name": "target",
          "type": "address"
        }
      ],
      "name": "AddressEmptyCode",
      "type": "error"
    },
    {
      "inputs": [],
      "name": "DistributionTimeExpired",
      "type": "error"
    },
    {
      "inputs": [],
      "name": "FailedCall",
      "type": "error"
    },
    {
      "inputs": [
        {
          "internalType": "uint256",
          "name": "balance",
          "type": "uint256"
        },
        {
          "internalType": "uint256",
          "name": "needed",
          "type": "uint256"
        }
      ],
      "name": "InsufficientBalance",
      "type": "error"
    },
    {
      "inputs": [],
      "name": "NoBalance",
      "type": "error"
    },
    {
      "inputs": [
        {
          "internalType": "address",
          "name": "owner",
          "type": "address"
        }
      ],
      "name": "OwnableInvalidOwner",
      "type": "error"
    },
    {
      "inputs": [
        {
          "internalType": "address",
          "name": "account",
          "type": "address"
        }
      ],
      "name": "OwnableUnauthorizedAccount",
      "type": "error"
    },
    {
      "inputs": [
        {
          "internalType": "address",
          "name": "token",
          "type": "address"
        }
      ],
      "name": "SafeERC20FailedOperation",
      "type": "error"
    }
  ],
  "bytecode": "0x60c060405234801561000f575f5ffd5b50604051610bf5380380610bf583398101604081905261002e91610174565b816001600160a01b03811661005c57604051631e4fbdf760e01b81525f600482015260240160405180910390fd5b610065816100ee565b506001600160a01b0381166080819052604080516338d52e0f60e01b815290516338d52e0f916004808201926020929091908290030181865afa1580156100ae573d5f5f3e3d5ffd5b505050506040513d601f19601f820116820180604052508101906100d291906101a5565b6001600160a01b031660a05250504260038190556004556101c5565b600180546001600160a01b03191690556101078161010a565b50565b5f80546001600160a01b038381166001600160a01b0319831681178455604051919092169283917f8be0079c531659141344cd1fd0a4f28419497f9722a3daafe3b4186f6b6457e09190a35050565b80516001600160a01b038116811461016f575f5ffd5b919050565b5f5f60408385031215610185575f5ffd5b61018e83610159565b915061019c60208401610159565b90509250929050565b5f602082840312156101b5575f5ffd5b6101be82610159565b9392505050565b60805160a0516109e56102105f395f81816101df01528181610223015281816103b90152818161046401528181610504015261057b01525f8181610115015261024501526109e55ff3fe608060405234801561000f575f5ffd5b50600436106100f0575f3560e01c8063cbc6300511610093578063eded3fda11610063578063eded3fda146101b6578063efa90b54146101be578063f2fde38b146101c7578063f7b87410146101da575f5ffd5b8063cbc630051461018c578063d116440014610194578063db2e21bc1461019d578063e30c3978146101a5575f5ffd5b8063715018a6116100ce578063715018a61461015757806379ba50971461016157806380d8d2d5146101695780638da5cb5b1461017c575f5ffd5b806314bcec9f146100f45780632f99c6cc14610110578063372500ab1461014f575b5f5ffd5b6100fd60045481565b6040519081526020015b60405180910390f35b6101377f000000000000000000000000000000000000000000000000000000000000000081565b6040516001600160a01b039091168152602001610107565b6100fd610201565b61015f610298565b005b61015f6102ab565b61015f6101773660046108df565b6102f4565b5f546001600160a01b0316610137565b6100fd610364565b6100fd60025481565b61015f610445565b6001546001600160a01b0316610137565b6100fd61052b565b6100fd60035481565b61015f6101d53660046108ff565b610606565b6101377f000000000000000000000000000000000000000000000000000000000000000081565b5f61020a61052b565b42600455905080156102955761026a6001600160a01b037f0000000000000000000000000000000000000000000000000000000000000000167f000000000000000000000000000000000000000000000000000000000000000083610676565b60405181907fed6771ea2f01816faa7ccf034b76201581d0b4374e86f83b06a8b4191c6b9f89905f90a25b90565b6102a06106cd565b6102a95f6106f9565b565b60015433906001600160a01b031681146102e85760405163118cdaa760e01b81526001600160a01b03821660048201526024015b60405180910390fd5b6102f1816106f9565b50565b6102fc6106cd565b610304610201565b50811561032b5742811161032b57604051636866137760e01b815260040160405180910390fd5b60028290556003819055604051819083907e4333fe4794577acf2e9369fe929af5352230f35a966ce5c115d02d02024f1e905f90a35050565b5f6003546004541061037557505f90565b5f6004546003546103869190610939565b90505f60025482610397919061094c565b6040516370a0823160e01b81523060048201529091505f906001600160a01b037f000000000000000000000000000000000000000000000000000000000000000016906370a0823190602401602060405180830381865afa1580156103fe573d5f5f3e3d5ffd5b505050506040513d601f19601f820116820180604052508101906104229190610963565b90508181101561043b576104368183610939565b61043d565b5f5b935050505090565b61044d6106cd565b6040516370a0823160e01b81523060048201525f907f00000000000000000000000000000000000000000000000000000000000000006001600160a01b0316906370a0823190602401602060405180830381865afa1580156104b1573d5f5f3e3d5ffd5b505050506040513d601f19601f820116820180604052508101906104d59190610963565b9050805f036104f757604051636165515360e11b815260040160405180910390fd5b6102f16001600160a01b037f0000000000000000000000000000000000000000000000000000000000000000163383610676565b6004546003545f9190808210610543575f9250505090565b5f8261054f4284610712565b6105599190610939565b6040516370a0823160e01b81523060048201529091505f906001600160a01b037f000000000000000000000000000000000000000000000000000000000000000016906370a0823190602401602060405180830381865afa1580156105c0573d5f5f3e3d5ffd5b505050506040513d601f19601f820116820180604052508101906105e49190610963565b90506105fd600254836105f7919061094c565b82610712565b94505050505090565b61060e6106cd565b600180546001600160a01b0383166001600160a01b0319909116811790915561063e5f546001600160a01b031690565b6001600160a01b03167f38d16b8cac22d99fc7c124b9cd0de2d3fa1faef420bfe791d8c362d765e2270060405160405180910390a350565b604080516001600160a01b038416602482015260448082018490528251808303909101815260649091019091526020810180516001600160e01b031663a9059cbb60e01b1790526106c890849061072b565b505050565b5f546001600160a01b031633146102a95760405163118cdaa760e01b81523360048201526024016102df565b600180546001600160a01b03191690556102f18161078c565b5f8183106107205781610722565b825b90505b92915050565b5f61073f6001600160a01b038416836107db565b905080515f14158015610763575080806020019051810190610761919061097a565b155b156106c857604051635274afe760e01b81526001600160a01b03841660048201526024016102df565b5f80546001600160a01b038381166001600160a01b0319831681178455604051919092169283917f8be0079c531659141344cd1fd0a4f28419497f9722a3daafe3b4186f6b6457e09190a35050565b606061072283835f845f5f856001600160a01b031684866040516107ff9190610999565b5f6040518083038185875af1925050503d805f8114610839576040519150601f19603f3d011682016040523d82523d5f602084013e61083e565b606091505b509150915061084e86838361085a565b925050505b9392505050565b60608261086f5761086a826108b6565b610853565b815115801561088657506001600160a01b0384163b155b156108af57604051639996b31560e01b81526001600160a01b03851660048201526024016102df565b5080610853565b8051156108c65780518082602001fd5b60405163d6bda27560e01b815260040160405180910390fd5b5f5f604083850312156108f0575f5ffd5b50508035926020909101359150565b5f6020828403121561090f575f5ffd5b81356001600160a01b0381168114610853575f5ffd5b634e487b7160e01b5f52601160045260245ffd5b8181038181111561072557610725610925565b808202811582820484141761072557610725610925565b5f60208284031215610973575f5ffd5b5051919050565b5f6020828403121561098a575f5ffd5b81518015158114610853575f5ffd5b5f82518060208501845e5f92019182525091905056fea2646970667358221220aacc79729f3ec8675f37086bd5c11759e3a09e56b2efc3e8e943f3fedda8d66064736f6c634300081c0033",
  "language": "Solidity",
  "compiler": "0.8.28+commit.7893614a"
}