{
  "address": "0x4451765739b2D7BCe5f8BC95Beaf966c45E1Dcc9",
  "abi": [
    {
      "inputs": [
        {
          "internalType": "address",
          "name": "_initialOwner",
          "type": "address"
        },
        {
          "internalType": "address",
          "name": "_asset",
          "type": "address"
        },
        {
          "internalType": "address",
          "name": "_stream",
          "type": "address"
        }
      ],
      "stateMutability": "nonpayable",
      "type": "constructor"
    },
    {
      "inputs": [],
      "name": "MAX_REDEEM_DURATION_CAP",
      "outputs": [
        {
          "internalType": "uint256",
          "name": "",
          "type": "uint256"
        }
      ],
      "stateMutability": "view",
      "type": "function"
    },
    {
      "inputs": [],
      "name": "MAX_REDEEM_RATIO",
      "outputs": [
        {
          "internalType": "uint256",
          "name": "",
          "type": "uint256"
        }
      ],
      "stateMutability": "view",
      "type": "function"
    },
    {
      "inputs": [],
      "name": "acceptOwnership",
      "outputs": [],
      "stateMutability": "nonpayable",
      "type": "function"
    },
    {
      "inputs": [
        {
          "internalType": "address",
          "name": "owner",
          "type": "address"
        },
        {
          "internalType": "address",
          "name": "spender",
          "type": "address"
        }
      ],
      "name": "allowance",
      "outputs": [
        {
          "internalType": "uint256",
          "name": "",
          "type": "uint256"
        }
      ],
      "stateMutability": "view",
      "type": "function"
    },
    {
      "inputs": [
        {
          "internalType": "address",
          "name": "spender",
          "type": "address"
        },
        {
          "internalType": "uint256",
          "name": "value",
          "type": "uint256"
        }
      ],
      "name": "approve",
      "outputs": [
        {
          "internalType": "bool",
          "name": "",
          "type": "bool"
        }
      ],
      "stateMutability": "nonpayable",
      "type": "function"
    },
    {
      "inputs": [],
      "name": "asset",
      "outputs": [
        {
          "internalType": "address",
          "name": "",
          "type": "address"
        }
      ],
      "stateMutability": "view",
      "type": "function"
    },
    {
      "inputs": [
        {
          "internalType": "address",
          "name": "account",
          "type": "address"
        }
      ],
      "name": "balanceOf",
      "outputs": [
        {
          "internalType": "uint256",
          "name": "",
          "type": "uint256"
        }
      ],
      "stateMutability": "view",
      "type": "function"
    },
    {
      "inputs": [
        {
          "internalType": "uint256",
          "name": "_redeemIndex",
          "type": "uint256"
        }
      ],
      "name": "cancelRedeem",
      "outputs": [],
      "stateMutability": "nonpayable",
      "type": "function"
    },
    {
      "inputs": [
        {
          "internalType": "uint256",
          "name": "_shares",
          "type": "uint256"
        }
      ],
      "name": "convertToAssets",
      "outputs": [
        {
          "internalType": "uint256",
          "name": "",
          "type": "uint256"
        }
      ],
      "stateMutability": "view",
      "type": "function"
    },
    {
      "inputs": [
        {
          "internalType": "uint256",
          "name": "_assets",
          "type": "uint256"
        }
      ],
      "name": "convertToShares",
      "outputs": [
        {
          "internalType": "uint256",
          "name": "",
          "type": "uint256"
        }
      ],
      "stateMutability": "view",
      "type": "function"
    },
    {
      "inputs": [],
      "name": "decimals",
      "outputs": [
        {
          "internalType": "uint8",
          "name": "",
          "type": "uint8"
        }
      ],
      "stateMutability": "view",
      "type": "function"
    },
    {
      "inputs": [
        {
          "internalType": "uint256",
          "name": "_assets",
          "type": "uint256"
        },
        {
          "internalType": "address",
          "name": "_receiver",
          "type": "address"
        }
      ],
      "name": "deposit",
      "outputs": [
        {
          "internalType": "uint256",
          "name": "shares",
          "type": "uint256"
        }
      ],
      "stateMutability": "nonpayable",
      "type": "function"
    },
    {
      "inputs": [
        {
          "internalType": "uint256",
          "name": "redeemIndex",
          "type": "uint256"
        }
      ],
      "name": "finalizeRedeem",
      "outputs": [],
      "stateMutability": "nonpayable",
      "type": "function"
    },
    {
      "inputs": [
        {
          "internalType": "uint256",
          "name": "_xSiloAmount",
          "type": "uint256"
        },
        {
          "internalType": "uint256",
          "name": "_duration",
          "type": "uint256"
        }
      ],
      "name": "getAmountByVestingDuration",
      "outputs": [
        {
          "internalType": "uint256",
          "name": "siloAmountAfterVesting",
          "type": "uint256"
        }
      ],
      "stateMutability": "view",
      "type": "function"
    },
    {
      "inputs": [
        {
          "internalType": "uint256",
          "name": "_xSiloAfterVesting",
          "type": "uint256"
        },
        {
          "internalType": "uint256",
          "name": "_duration",
          "type": "uint256"
        }
      ],
      "name": "getAmountInByVestingDuration",
      "outputs": [
        {
          "internalType": "uint256",
          "name": "xSiloAmountIn",
          "type": "uint256"
        }
      ],
      "stateMutability": "view",
      "type": "function"
    },
    {
      "inputs": [
        {
          "internalType": "address",
          "name": "_userAddress",
          "type": "address"
        },
        {
          "internalType": "uint256",
          "name": "_redeemIndex",
          "type": "uint256"
        }
      ],
      "name": "getUserRedeem",
      "outputs": [
        {
          "internalType": "uint256",
          "name": "currentSiloAmount",
          "type": "uint256"
        },
        {
          "internalType": "uint256",
          "name": "xSiloAmount",
          "type": "uint256"
        },
        {
          "internalType": "uint256",
          "name": "siloAmountAfterVesting",
          "type": "uint256"
        },
        {
          "internalType": "uint256",
          "name": "endTime",
          "type": "uint256"
        }
      ],
      "stateMutability": "view",
      "type": "function"
    },
    {
      "inputs": [
        {
          "internalType": "address",
          "name": "_userAddress",
          "type": "address"
        }
      ],
      "name": "getUserRedeemsBalance",
      "outputs": [
        {
          "internalType": "uint256",
          "name": "redeemingSiloAmount",
          "type": "uint256"
        }
      ],
      "stateMutability": "view",
      "type": "function"
    },
    {
      "inputs": [
        {
          "internalType": "address",
          "name": "_userAddress",
          "type": "address"
        }
      ],
      "name": "getUserRedeemsLength",
      "outputs": [
        {
          "internalType": "uint256",
          "name": "",
          "type": "uint256"
        }
      ],
      "stateMutability": "view",
      "type": "function"
    },
    {
      "inputs": [
        {
          "internalType": "uint256",
          "name": "_xSiloAmount",
          "type": "uint256"
        },
        {
          "internalType": "uint256",
          "name": "_duration",
          "type": "uint256"
        }
      ],
      "name": "getXAmountByVestingDuration",
      "outputs": [
        {
          "internalType": "uint256",
          "name": "xSiloAfterVesting",
          "type": "uint256"
        }
      ],
      "stateMutability": "view",
      "type": "function"
    },
    {
      "inputs": [
        {
          "internalType": "address",
          "name": "",
          "type": "address"
        }
      ],
      "name": "maxDeposit",
      "outputs": [
        {
          "internalType": "uint256",
          "name": "",
          "type": "uint256"
        }
      ],
      "stateMutability": "view",
      "type": "function"
    },
    {
      "inputs": [
        {
          "internalType": "address",
          "name": "",
          "type": "address"
        }
      ],
      "name": "maxMint",
      "outputs": [
        {
          "internalType": "uint256",
          "name": "",
          "type": "uint256"
        }
      ],
      "stateMutability": "view",
      "type": "function"
    },
    {
      "inputs": [
        {
          "internalType": "address",
          "name": "_owner",
          "type": "address"
        }
      ],
      "name": "maxRedeem",
      "outputs": [
        {
          "internalType": "uint256",
          "name": "shares",
          "type": "uint256"
        }
      ],
      "stateMutability": "view",
      "type": "function"
    },
    {
      "inputs": [],
      "name": "maxRedeemDuration",
      "outputs": [
        {
          "internalType": "uint256",
          "name": "",
          "type": "uint256"
        }
      ],
      "stateMutability": "view",
      "type": "function"
    },
    {
      "inputs": [
        {
          "internalType": "address",
          "name": "_owner",
          "type": "address"
        }
      ],
      "name": "maxWithdraw",
      "outputs": [
        {
          "internalType": "uint256",
          "name": "assets",
          "type": "uint256"
        }
      ],
      "stateMutability": "view",
      "type": "function"
    },
    {
      "inputs": [],
      "name": "minRedeemDuration",
      "outputs": [
        {
          "internalType": "uint256",
          "name": "",
          "type": "uint256"
        }
      ],
      "stateMutability": "view",
      "type": "function"
    },
    {
      "inputs": [],
      "name": "minRedeemRatio",
      "outputs": [
        {
          "internalType": "uint256",
          "name": "",
          "type": "uint256"
        }
      ],
      "stateMutability": "view",
      "type": "function"
    },
    {
      "inputs": [
        {
          "internalType": "uint256",
          "name": "_shares",
          "type": "uint256"
        },
        {
          "internalType": "address",
          "name": "_receiver",
          "type": "address"
        }
      ],
      "name": "mint",
      "outputs": [
        {
          "internalType": "uint256",
          "name": "assets",
          "type": "uint256"
        }
      ],
      "stateMutability": "nonpayable",
      "type": "function"
    },
    {
      "inputs": [],
      "name": "name",
      "outputs": [
        {
          "internalType": "string",
          "name": "",
          "type": "string"
        }
      ],
      "stateMutability": "view",
      "type": "function"
    },
    {
      "inputs": [],
      "name": "notificationReceiver",
      "outputs": [
        {
          "internalType": "contract INotificationReceiver",
          "name": "",
          "type": "address"
        }
      ],
      "stateMutability": "view",
      "type": "function"
    },
    {
      "inputs": [],
      "name": "owner",
      "outputs": [
        {
          "internalType": "address",
          "name": "",
          "type": "address"
        }
      ],
      "stateMutability": "view",
      "type": "function"
    },
    {
      "inputs": [],
      "name": "pendingOwner",
      "outputs": [
        {
          "internalType": "address",
          "name": "",
          "type": "address"
        }
      ],
      "stateMutability": "view",
      "type": "function"
    },
    {
      "inputs": [
        {
          "internalType": "uint256",
          "name": "assets",
          "type": "uint256"
        }
      ],
      "name": "previewDeposit",
      "outputs": [
        {
          "internalType": "uint256",
          "name": "",
          "type": "uint256"
        }
      ],
      "stateMutability": "view",
      "type": "function"
    },
    {
      "inputs": [
        {
          "internalType": "uint256",
          "name": "shares",
          "type": "uint256"
        }
      ],
      "name": "previewMint",
      "outputs": [
        {
          "internalType": "uint256",
          "name": "",
          "type": "uint256"
        }
      ],
      "stateMutability": "view",
      "type": "function"
    },
    {
      "inputs": [
        {
          "internalType": "uint256",
          "name": "_shares",
          "type": "uint256"
        }
      ],
      "name": "previewRedeem",
      "outputs": [
        {
          "internalType": "uint256",
          "name": "assets",
          "type": "uint256"
        }
      ],
      "stateMutability": "view",
      "type": "function"
    },
    {
      "inputs": [
        {
          "internalType": "uint256",
          "name": "_assets",
          "type": "uint256"
        }
      ],
      "name": "previewWithdraw",
      "outputs": [
        {
          "internalType": "uint256",
          "name": "shares",
          "type": "uint256"
        }
      ],
      "stateMutability": "view",
      "type": "function"
    },
    {
      "inputs": [
        {
          "internalType": "uint256",
          "name": "_shares",
          "type": "uint256"
        },
        {
          "internalType": "address",
          "name": "_receiver",
          "type": "address"
        },
        {
          "internalType": "address",
          "name": "_owner",
          "type": "address"
        }
      ],
      "name": "redeem",
      "outputs": [
        {
          "internalType": "uint256",
          "name": "assets",
          "type": "uint256"
        }
      ],
      "stateMutability": "nonpayable",
      "type": "function"
    },
    {
      "inputs": [
        {
          "internalType": "uint256",
          "name": "_xSiloAmountToBurn",
          "type": "uint256"
        },
        {
          "internalType": "uint256",
          "name": "_duration",
          "type": "uint256"
        }
      ],
      "name": "redeemSilo",
      "outputs": [
        {
          "internalType": "uint256",
          "name": "siloAmountAfterVesting",
          "type": "uint256"
        }
      ],
      "stateMutability": "nonpayable",
      "type": "function"
    },
    {
      "inputs": [],
      "name": "renounceOwnership",
      "outputs": [],
      "stateMutability": "nonpayable",
      "type": "function"
    },
    {
      "inputs": [
        {
          "internalType": "contract INotificationReceiver",
          "name": "_notificationReceiver",
          "type": "address"
        },
        {
          "internalType": "bool",
          "name": "_allProgramsStopped",
          "type": "bool"
        }
      ],
      "name": "setNotificationReceiver",
      "outputs": [],
      "stateMutability": "nonpayable",
      "type": "function"
    },
    {
      "inputs": [
        {
          "internalType": "contract IStream",
          "name": "_stream",
          "type": "address"
        }
      ],
      "name": "setStream",
      "outputs": [],
      "stateMutability": "nonpayable",
      "type": "function"
    },
    {
      "inputs": [],
      "name": "stream",
      "outputs": [
        {
          "internalType": "contract IStream",
          "name": "",
          "type": "address"
        }
      ],
      "stateMutability": "view",
      "type": "function"
    },
    {
      "inputs": [],
      "name": "symbol",
      "outputs": [
        {
          "internalType": "string",
          "name": "",
          "type": "string"
        }
      ],
      "stateMutability": "view",
      "type": "function"
    },
    {
      "inputs": [],
      "name": "totalAssets",
      "outputs": [
        {
          "internalType": "uint256",
          "name": "total",
          "type": "uint256"
        }
      ],
      "stateMutability": "view",
      "type": "function"
    },
    {
      "inputs": [],
      "name": "totalSupply",
      "outputs": [
        {
          "internalType": "uint256",
          "name": "",
          "type": "uint256"
        }
      ],
      "stateMutability": "view",
      "type": "function"
    },
    {
      "inputs": [
        {
          "internalType": "address",
          "name": "_to",
          "type": "address"
        },
        {
          "internalType": "uint256",
          "name": "_value",
          "type": "uint256"
        }
      ],
      "name": "transfer",
      "outputs": [
        {
          "internalType": "bool",
          "name": "",
          "type": "bool"
        }
      ],
      "stateMutability": "nonpayable",
      "type": "function"
    },
    {
      "inputs": [
        {
          "internalType": "address",
          "name": "_from",
          "type": "address"
        },
        {
          "internalType": "address",
          "name": "_to",
          "type": "address"
        },
        {
          "internalType": "uint256",
          "name": "_value",
          "type": "uint256"
        }
      ],
      "name": "transferFrom",
      "outputs": [
        {
          "internalType": "bool",
          "name": "",
          "type": "bool"
        }
      ],
      "stateMutability": "nonpayable",
      "type": "function"
    },
    {
      "inputs": [
        {
          "internalType": "address",
          "name": "newOwner",
          "type": "address"
        }
      ],
      "name": "transferOwnership",
      "outputs": [],
      "stateMutability": "nonpayable",
      "type": "function"
    },
    {
      "inputs": [
        {
          "internalType": "uint256",
          "name": "_minRedeemRatio",
          "type": "uint256"
        },
        {
          "internalType": "uint256",
          "name": "_minRedeemDuration",
          "type": "uint256"
        },
        {
          "internalType": "uint256",
          "name": "_maxRedeemDuration",
          "type": "uint256"
        }
      ],
      "name": "updateRedeemSettings",
      "outputs": [],
      "stateMutability": "nonpayable",
      "type": "function"
    },
    {
      "inputs": [
        {
          "internalType": "address",
          "name": "_user",
          "type": "address"
        }
      ],
      "name": "userRedeems",
      "outputs": [
        {
          "components": [
            {
              "internalType": "uint256",
              "name": "currentSiloAmount",
              "type": "uint256"
            },
            {
              "internalType": "uint256",
              "name": "xSiloAmountToBurn",
              "type": "uint256"
            },
            {
              "internalType": "uint256",
              "name": "siloAmountAfterVesting",
              "type": "uint256"
            },
            {
              "internalType": "uint256",
              "name": "endTime",
              "type": "uint256"
            }
          ],
          "internalType": "struct IXRedeemPolicy.RedeemInfo[]",
          "name": "",
          "type": "tuple[]"
        }
      ],
      "stateMutability": "view",
      "type": "function"
    },
    {
      "inputs": [
        {
          "internalType": "uint256",
          "name": "_assets",
          "type": "uint256"
        },
        {
          "internalType": "address",
          "name": "_receiver",
          "type": "address"
        },
        {
          "internalType": "address",
          "name": "_owner",
          "type": "address"
        }
      ],
      "name": "withdraw",
      "outputs": [
        {
          "internalType": "uint256",
          "name": "shares",
          "type": "uint256"
        }
      ],
      "stateMutability": "nonpayable",
      "type": "function"
    },
    {
      "anonymous": false,
      "inputs": [
        {
          "indexed": true,
          "internalType": "address",
          "name": "owner",
          "type": "address"
        },
        {
          "indexed": true,
          "internalType": "address",
          "name": "spender",
          "type": "address"
        },
        {
          "indexed": false,
          "internalType": "uint256",
          "name": "value",
          "type": "uint256"
        }
      ],
      "name": "Approval",
      "type": "event"
    },
    {
      "anonymous": false,
      "inputs": [
        {
          "indexed": true,
          "internalType": "address",
          "name": "_userAddress",
          "type": "address"
        },
        {
          "indexed": false,
          "internalType": "uint256",
          "name": "xSiloToTransfer",
          "type": "uint256"
        },
        {
          "indexed": false,
          "internalType": "uint256",
          "name": "xSiloToBurn",
          "type": "uint256"
        }
      ],
      "name": "CancelRedeem",
      "type": "event"
    },
    {
      "anonymous": false,
      "inputs": [
        {
          "indexed": true,
          "internalType": "address",
          "name": "sender",
          "type": "address"
        },
        {
          "indexed": true,
          "internalType": "address",
          "name": "owner",
          "type": "address"
        },
        {
          "indexed": false,
          "internalType": "uint256",
          "name": "assets",
          "type": "uint256"
        },
        {
          "indexed": false,
          "internalType": "uint256",
          "name": "shares",
          "type": "uint256"
        }
      ],
      "name": "Deposit",
      "type": "event"
    },
    {
      "anonymous": false,
      "inputs": [
        {
          "indexed": true,
          "internalType": "address",
          "name": "_userAddress",
          "type": "address"
        },
        {
          "indexed": false,
          "internalType": "uint256",
          "name": "siloToRedeem",
          "type": "uint256"
        },
        {
          "indexed": false,
          "internalType": "uint256",
          "name": "xSiloToBurn",
          "type": "uint256"
        }
      ],
      "name": "FinalizeRedeem",
      "type": "event"
    },
    {
      "anonymous": false,
      "inputs": [
        {
          "indexed": true,
          "internalType": "contract INotificationReceiver",
          "name": "newNotificationReceiver",
          "type": "address"
        }
      ],
      "name": "NotificationReceiverUpdate",
      "type": "event"
    },
    {
      "anonymous": false,
      "inputs": [
        {
          "indexed": true,
          "internalType": "address",
          "name": "previousOwner",
          "type": "address"
        },
        {
          "indexed": true,
          "internalType": "address",
          "name": "newOwner",
          "type": "address"
        }
      ],
      "name": "OwnershipTransferStarted",
      "type": "event"
    },
    {
      "anonymous": false,
      "inputs": [
        {
          "indexed": true,
          "internalType": "address",
          "name": "previousOwner",
          "type": "address"
        },
        {
          "indexed": true,
          "internalType": "address",
          "name": "newOwner",
          "type": "address"
        }
      ],
      "name": "OwnershipTransferred",
      "type": "event"
    },
    {
      "anonymous": false,
      "inputs": [
        {
          "indexed": true,
          "internalType": "address",
          "name": "_userAddress",
          "type": "address"
        },
        {
          "indexed": false,
          "internalType": "uint256",
          "name": "currentSiloAmount",
          "type": "uint256"
        },
        {
          "indexed": false,
          "internalType": "uint256",
          "name": "xSiloToBurn",
          "type": "uint256"
        },
        {
          "indexed": false,
          "internalType": "uint256",
          "name": "siloAmountAfterVesting",
          "type": "uint256"
        },
        {
          "indexed": false,
          "internalType": "uint256",
          "name": "duration",
          "type": "uint256"
        }
      ],
      "name": "StartRedeem",
      "type": "event"
    },
    {
      "anonymous": false,
      "inputs": [
        {
          "indexed": true,
          "internalType": "contract IStream",
          "name": "newStream",
          "type": "address"
        }
      ],
      "name": "StreamUpdate",
      "type": "event"
    },
    {
      "anonymous": false,
      "inputs": [
        {
          "indexed": true,
          "internalType": "address",
          "name": "from",
          "type": "address"
        },
        {
          "indexed": true,
          "internalType": "address",
          "name": "to",
          "type": "address"
        },
        {
          "indexed": false,
          "internalType": "uint256",
          "name": "value",
          "type": "uint256"
        }
      ],
      "name": "Transfer",
      "type": "event"
    },
    {
      "anonymous": false,
      "inputs": [
        {
          "indexed": false,
          "internalType": "uint256",
          "name": "minRedeemRatio",
          "type": "uint256"
        },
        {
          "indexed": false,
          "internalType": "uint256",
          "name": "minRedeemDuration",
          "type": "uint256"
        },
        {
          "indexed": false,
          "internalType": "uint256",
          "name": "maxRedeemDuration",
          "type": "uint256"
        }
      ],
      "name": "UpdateRedeemSettings",
      "type": "event"
    },
    {
      "anonymous": false,
      "inputs": [
        {
          "indexed": true,
          "internalType": "address",
          "name": "sender",
          "type": "address"
        },
        {
          "indexed": true,
          "internalType": "address",
          "name": "receiver",
          "type": "address"
        },
        {
          "indexed": true,
          "internalType": "address",
          "name": "owner",
          "type": "address"
        },
        {
          "indexed": false,
          "internalType": "uint256",
          "name": "assets",
          "type": "uint256"
        },
        {
          "indexed": false,
          "internalType": "uint256",
          "name": "shares",
          "type": "uint256"
        }
      ],
      "name": "Withdraw",
      "type": "event"
    },
    {
      "inputs": [
        {
          "internalType": "address",
          "name": "target",
          "type": "address"
        }
      ],
      "name": "AddressEmptyCode",
      "type": "error"
    },
    {
      "inputs": [],
      "name": "DurationTooHigh",
      "type": "error"
    },
    {
      "inputs": [],
      "name": "DurationTooLow",
      "type": "error"
    },
    {
      "inputs": [
        {
          "internalType": "address",
          "name": "spender",
          "type": "address"
        },
        {
          "internalType": "uint256",
          "name": "allowance",
          "type": "uint256"
        },
        {
          "internalType": "uint256",
          "name": "needed",
          "type": "uint256"
        }
      ],
      "name": "ERC20InsufficientAllowance",
      "type": "error"
    },
    {
      "inputs": [
        {
          "internalType": "address",
          "name": "sender",
          "type": "address"
        },
        {
          "internalType": "uint256",
          "name": "balance",
          "type": "uint256"
        },
        {
          "internalType": "uint256",
          "name": "needed",
          "type": "uint256"
        }
      ],
      "name": "ERC20InsufficientBalance",
      "type": "error"
    },
    {
      "inputs": [
        {
          "internalType": "address",
          "name": "approver",
          "type": "address"
        }
      ],
      "name": "ERC20InvalidApprover",
      "type": "error"
    },
    {
      "inputs": [
        {
          "internalType": "address",
          "name": "receiver",
          "type": "address"
        }
      ],
      "name": "ERC20InvalidReceiver",
      "type": "error"
    },
    {
      "inputs": [
        {
          "internalType": "address",
          "name": "sender",
          "type": "address"
        }
      ],
      "name": "ERC20InvalidSender",
      "type": "error"
    },
    {
      "inputs": [
        {
          "internalType": "address",
          "name": "spender",
          "type": "address"
        }
      ],
      "name": "ERC20InvalidSpender",
      "type": "error"
    },
    {
      "inputs": [
        {
          "internalType": "address",
          "name": "receiver",
          "type": "address"
        },
        {
          "internalType": "uint256",
          "name": "assets",
          "type": "uint256"
        },
        {
          "internalType": "uint256",
          "name": "max",
          "type": "uint256"
        }
      ],
      "name": "ERC4626ExceededMaxDeposit",
      "type": "error"
    },
    {
      "inputs": [
        {
          "internalType": "address",
          "name": "receiver",
          "type": "address"
        },
        {
          "internalType": "uint256",
          "name": "shares",
          "type": "uint256"
        },
        {
          "internalType": "uint256",
          "name": "max",
          "type": "uint256"
        }
      ],
      "name": "ERC4626ExceededMaxMint",
      "type": "error"
    },
    {
      "inputs": [
        {
          "internalType": "address",
          "name": "owner",
          "type": "address"
        },
        {
          "internalType": "uint256",
          "name": "shares",
          "type": "uint256"
        },
        {
          "internalType": "uint256",
          "name": "max",
          "type": "uint256"
        }
      ],
      "name": "ERC4626ExceededMaxRedeem",
      "type": "error"
    },
    {
      "inputs": [
        {
          "internalType": "address",
          "name": "owner",
          "type": "address"
        },
        {
          "internalType": "uint256",
          "name": "assets",
          "type": "uint256"
        },
        {
          "internalType": "uint256",
          "name": "max",
          "type": "uint256"
        }
      ],
      "name": "ERC4626ExceededMaxWithdraw",
      "type": "error"
    },
    {
      "inputs": [],
      "name": "FailedCall",
      "type": "error"
    },
    {
      "inputs": [
        {
          "internalType": "uint256",
          "name": "balance",
          "type": "uint256"
        },
        {
          "internalType": "uint256",
          "name": "needed",
          "type": "uint256"
        }
      ],
      "name": "InsufficientBalance",
      "type": "error"
    },
    {
      "inputs": [],
      "name": "InvalidDurationOrder",
      "type": "error"
    },
    {
      "inputs": [],
      "name": "InvalidRatioOrder",
      "type": "error"
    },
    {
      "inputs": [],
      "name": "MaxRatioOverflow",
      "type": "error"
    },
    {
      "inputs": [],
      "name": "NoChange",
      "type": "error"
    },
    {
      "inputs": [],
      "name": "NoSiloToRedeem",
      "type": "error"
    },
    {
      "inputs": [],
      "name": "NotBeneficiary",
      "type": "error"
    },
    {
      "inputs": [
        {
          "internalType": "address",
          "name": "owner",
          "type": "address"
        }
      ],
      "name": "OwnableInvalidOwner",
      "type": "error"
    },
    {
      "inputs": [
        {
          "internalType": "address",
          "name": "account",
          "type": "address"
        }
      ],
      "name": "OwnableUnauthorizedAccount",
      "type": "error"
    },
    {
      "inputs": [],
      "name": "RedeemIndexDoesNotExist",
      "type": "error"
    },
    {
      "inputs": [],
      "name": "ReentrancyGuardReentrantCall",
      "type": "error"
    },
    {
      "inputs": [
        {
          "internalType": "address",
          "name": "token",
          "type": "address"
        }
      ],
      "name": "SafeERC20FailedOperation",
      "type": "error"
    },
    {
      "inputs": [],
      "name": "SelfTransferNotAllowed",
      "type": "error"
    },
    {
      "inputs": [],
      "name": "StopAllRelatedPrograms",
      "type": "error"
    },
    {
      "inputs": [],
      "name": "TokenIsNotAContract",
      "type": "error"
    },
    {
      "inputs": [],
      "name": "VestingNotOver",
      "type": "error"
    },
    {
      "inputs": [],
      "name": "ZeroAmount",
      "type": "error"
    },
    {
      "inputs": [],
      "name": "ZeroAssets",
      "type": "error"
    },
    {
      "inputs": [],
      "name": "ZeroShares",
      "type": "error"
    },
    {
      "inputs": [],
      "name": "ZeroTransfer",
      "type": "error"
    }
  ],
  "bytecode": "0x60c060405260326009555f600a5562ed4e00600b5534801561001f575f5ffd5b50604051612fdd380380612fdd83398101604081905261003e9161058a565b8281818461004b8161013c565b60405160200161005b91906105e1565b60408051601f198184030181529190526100748761013c565b60405160200161008491906105e1565b60408051601f1981840301815291905260036100a08382610695565b5060046100ad8282610695565b5050505f5f6100c1836101e660201b60201c565b91509150816100d15760126100d3565b805b60ff1660a05250506001600160a01b03908116608052811661010e57604051631e4fbdf760e01b81525f600482015260240160405180910390fd5b610117816102bc565b506001600160a01b03811615610132576101328160016102d8565b5050505050610872565b6040805160048152602481019091526020810180516001600160e01b039081166395d89b4160e01b179091526060915f91829161017c918691906103ea16565b9150915081158061018c57508051155b156101b15750506040805180820190915260018152603f60f81b602082015292915050565b60208151036101cb576101c3816104a0565b949350505050565b808060200190518101906101c3919061074f565b5050919050565b60408051600481526024810182526020810180516001600160e01b031663313ce56760e01b17905290515f918291829182916001600160a01b0387169161022c916107ff565b5f60405180830381855afa9150503d805f8114610264576040519150601f19603f3d011682016040523d82523d5f602084013e610269565b606091505b509150915081801561027d57506020815110155b156102b0575f81806020019051810190610297919061080a565b905060ff81116102ae576001969095509350505050565b505b505f9485945092505050565b600680546001600160a01b03191690556102d58161051e565b50565b6007546001600160a01b038084169116036103065760405163a88ee57760e01b815260040160405180910390fd5b80806103835750306001600160a01b0316826001600160a01b0316632f99c6cc6040518163ffffffff1660e01b81526004016020604051808303815f875af1158015610354573d5f5f3e3d5ffd5b505050506040513d601f19601f820116820180604052508101906103789190610821565b6001600160a01b0316145b6103a05760405163644d871f60e01b815260040160405180910390fd5b600780546001600160a01b0319166001600160a01b0384169081179091556040517fcbbf50d43e4e05c7b7eaf15f2a0ea9205db1caef13cd177bc16e79a02f33a19f905f90a25050565b5f60606001600160a01b0384163b610415576040516373d39f9d60e01b815260040160405180910390fd5b5f5f856001600160a01b03168560405161042f91906107ff565b5f60405180830381855afa9150503d805f8114610467576040519150601f19603f3d011682016040523d82523d5f602084013e61046c565b606091505b509150915081610491575f60405180602001604052805f815250935093505050610499565b600193509150505b9250929050565b80516060905f5b818110156101df578381815181106104c1576104c161083a565b01602001516001600160f81b0319161561051657828482815181106104e8576104e861083a565b602001015160f81c60f81b60405160200161050492919061084e565b60405160208183030381529060405292505b6001016104a7565b600580546001600160a01b038381166001600160a01b0319831681179093556040519116919082907f8be0079c531659141344cd1fd0a4f28419497f9722a3daafe3b4186f6b6457e0905f90a35050565b80516001600160a01b0381168114610585575f5ffd5b919050565b5f5f5f6060848603121561059c575f5ffd5b6105a58461056f565b92506105b36020850161056f565b91506105c16040850161056f565b90509250925092565b5f81518060208401855e5f93019283525090919050565b600f60fb1b81525f6105f660018301846105ca565b9392505050565b634e487b7160e01b5f52604160045260245ffd5b600181811c9082168061062557607f821691505b60208210810361064357634e487b7160e01b5f52602260045260245ffd5b50919050565b601f82111561069057805f5260205f20601f840160051c8101602085101561066e5750805b601f840160051c820191505b8181101561068d575f815560010161067a565b50505b505050565b81516001600160401b038111156106ae576106ae6105fd565b6106c2816106bc8454610611565b84610649565b6020601f8211600181146106f4575f83156106dd5750848201515b5f19600385901b1c1916600184901b17845561068d565b5f84815260208120601f198516915b828110156107235787850151825560209485019460019092019101610703565b508482101561074057868401515f19600387901b60f8161c191681555b50505050600190811b01905550565b5f6020828403121561075f575f5ffd5b81516001600160401b03811115610774575f5ffd5b8201601f81018413610784575f5ffd5b80516001600160401b0381111561079d5761079d6105fd565b604051601f8201601f19908116603f011681016001600160401b03811182821017156107cb576107cb6105fd565b6040528181528282016020018610156107e2575f5ffd5b8160208401602083015e5f91810160200191909152949350505050565b5f6105f682846105ca565b5f6020828403121561081a575f5ffd5b5051919050565b5f60208284031215610831575f5ffd5b6105f68261056f565b634e487b7160e01b5f52603260045260245ffd5b5f61085982856105ca565b6001600160f81b03199390931683525050600101919050565b60805160a0516127356108a85f395f61089301525f818161039d0152818161130c01528181611c0d0152611e6a01526127355ff3fe608060405234801561000f575f5ffd5b50600436106102cb575f3560e01c806394bf804d1161017b578063ba087652116100e4578063d905777e1161009e578063e30c397811610079578063e30c397814610698578063e9ed87f8146106a9578063ef8b30f7146106b2578063f2fde38b146106c5575f5ffd5b8063d905777e1461063a578063dd62ed3e1461064d578063e025494c14610685575f5ffd5b8063ba087652146105c5578063c4b10766146105d8578063c63d75b6146103d5578063c6e6f592146105e1578063cc6c5423146105f4578063ce96cb7714610627575f5ffd5b8063abace07d11610135578063abace07d14610546578063aff6cbf114610551578063b229253014610564578063b3d7f6b914610577578063b460af941461058a578063b90c2b521461059d575f5ffd5b806394bf804d146104df57806395d89b41146104f257806399cd11ea146104fa578063a6b0d7d91461050d578063a739378814610520578063a9059cbb14610533575f5ffd5b80634cdad506116102375780636f2a6791116101f157806379ba5097116101cc57806379ba5097146104935780638d18e24b1461049b5780638da5cb5b146104bb57806390e3d13a146104cc575f5ffd5b80636f2a67911461045057806370a0823114610463578063715018a61461048b575f5ffd5b80634cdad506146103e9578063539ffb77146103fc57806355f5e5f51461040f578063692d1741146104225780636b5ab9bf1461042a5780636e553f651461043d575f5ffd5b80631c352679116102885780631c3526791461035057806323b872dd14610359578063313ce5671461036c578063355e3f471461038657806338d52e0f1461039b578063402d267d146103d5575f5ffd5b806301e1d114146102cf57806306fdde03146102ea57806307a2d13a146102ff578063095ea7b3146103125780630a28a4771461033557806318160ddd14610348575b5f5ffd5b6102d76106d8565b6040519081526020015b60405180910390f35b6102f2610767565b6040516102e1919061221c565b6102d761030d366004612251565b6107f7565b61032561032036600461227c565b610807565b60405190151581526020016102e1565b6102d7610343366004612251565b61081e565b6002546102d7565b6102d760095481565b6103256103673660046122a6565b61083c565b61037461088c565b60405160ff90911681526020016102e1565b6103996103943660046122e4565b6108bc565b005b7f00000000000000000000000000000000000000000000000000000000000000005b6040516001600160a01b0390911681526020016102e1565b6102d76103e336600461230d565b505f1990565b6102d76103f7366004612251565b610980565b61039961040a366004612251565b610997565b6102d761041d366004612328565b610ac2565b6102d7606481565b6102d761043836600461230d565b610b02565b6102d761044b366004612348565b610b8c565b6007546103bd906001600160a01b031681565b6102d761047136600461230d565b6001600160a01b03165f9081526020819052604090205490565b610399610bda565b610399610bed565b6104ae6104a936600461230d565b610c36565b6040516102e19190612376565b6005546001600160a01b03166103bd565b6103996104da3660046123eb565b610ccf565b6102d76104ed366004612348565b610d6d565b6102f2610da9565b6102d7610508366004612328565b610db8565b6008546103bd906001600160a01b031681565b6102d761052e366004612328565b610dcf565b61032561054136600461227c565b610f71565b6102d76301e1338081565b61039961055f366004612251565b610fad565b6102d7610572366004612328565b6110cc565b6102d7610585366004612251565b611106565b6102d7610598366004612417565b611112565b6102d76105ab36600461230d565b6001600160a01b03165f908152600c602052604090205490565b6102d76105d3366004612417565b61114f565b6102d7600a5481565b6102d76105ef366004612251565b61118c565b61060761060236600461227c565b611196565b6040805194855260208501939093529183015260608201526080016102e1565b6102d761063536600461230d565b611234565b6102d761064836600461230d565b61125d565b6102d761065b366004612456565b6001600160a01b039182165f90815260016020908152604080832093909416825291909152205490565b61039961069336600461230d565b611267565b6006546001600160a01b03166103bd565b6102d7600b5481565b6102d76106c0366004612251565b611279565b6103996106d336600461230d565b611284565b5f6106e16112f5565b6007549091506001600160a01b0316801561076357806001600160a01b031663eded3fda6040518163ffffffff1660e01b8152600401602060405180830381865afa158015610732573d5f5f3e3d5ffd5b505050506040513d601f19601f820116820180604052508101906107569190612482565b61076090836124ad565b91505b5090565b606060038054610776906124c0565b80601f01602080910402602001604051908101604052809291908181526020018280546107a2906124c0565b80156107ed5780601f106107c4576101008083540402835291602001916107ed565b820191905f5260205f20905b8154815290600101906020018083116107d057829003601f168201915b5050505050905090565b5f6108018261137d565b92915050565b5f33610814818585611388565b5060019392505050565b5f5f6108298361118c565b9050610835815f6110cc565b9392505050565b5f60ff815c161561086057604051633ee5aeb560e01b815260040160405180910390fd5b60015f805c60ff19168217905d5061087984848461139a565b90505f60ff19815c16815d509392505050565b5f6108b7817f00000000000000000000000000000000000000000000000000000000000000006124f8565b905090565b6108c46113bd565b60648311156108e657604051638afd3e4160e01b815260040160405180910390fd5b80821061090657604051636f5e092160e11b815260040160405180910390fd5b6301e1338081111561092b57604051630dc7fdcf60e11b815260040160405180910390fd5b6009839055600a829055600b81905560408051848152602081018490529081018290527f42bf8a4fb36303c64b3ad5dbfca4ce353ac15f6d786b0cbdfa6de7a04e18040d9060600160405180910390a1505050565b5f5f61098c835f610ac2565b9050610835816107f7565b60ff5f5c16156109ba57604051633ee5aeb560e01b815260040160405180910390fd5b60015f805c60ff19168217905d50335f818152600c6020526040902054829081106109f8576040516312bde1e960e01b815260040160405180910390fd5b335f908152600c60205260408120805485908110610a1857610a18612511565b905f5260205f20906004020190505f610a33825f015461118c565b90505f818360010154610a469190612525565b604080518481526020810183905291925033917f24d0485fd6d140767f954cdbbd96c3e68366e93b31a6d2c3b1c1f3a09111aa1f910160405180910390a2610a8d866113ea565b8115610a9e57610a9e3033846114d4565b8015610aae57610aae30826114df565b505f93505050815c60ff19169050815d5050565b5f825f03610ad157505f610801565b5f610adb836114ed565b9050805f03610aed575f915050610801565b610afa848260645f611563565b949350505050565b6001600160a01b0381165f908152600c6020526040812054808203610b2957505f92915050565b5f5b81811015610b85576001600160a01b0384165f908152600c60205260408120805483908110610b5c57610b5c612511565b905f5260205f2090600402019050806002015484610b7a91906124ad565b935050600101610b2b565b5050919050565b5f60ff815c1615610bb057604051633ee5aeb560e01b815260040160405180910390fd5b60015f805c60ff19168217905d50610bc883836115ae565b90505f60ff19815c16815d5092915050565b610be26113bd565b610beb5f6115c9565b565b60065433906001600160a01b03168114610c2a5760405163118cdaa760e01b81526001600160a01b03821660048201526024015b60405180910390fd5b610c33816115c9565b50565b6001600160a01b0381165f908152600c60209081526040808320805482518185028101850190935280835260609492939192909184015b82821015610cc4578382905f5260205f2090600402016040518060800160405290815f8201548152602001600182015481526020016002820154815260200160038201548152505081526020019060010190610c6d565b505050509050919050565b610cd76113bd565b6008546001600160a01b03808416911603610d055760405163a88ee57760e01b815260040160405180910390fd5b80610d2357604051638969f75960e01b815260040160405180910390fd5b600880546001600160a01b0319166001600160a01b0384169081179091556040517f8ac70028cbcdf11017e87b22003359f7577da04d0880c74ae3289a9029bef6a9905f90a25050565b5f60ff815c1615610d9157604051633ee5aeb560e01b815260040160405180910390fd5b60015f805c60ff19168217905d50610bc883836115e2565b606060048054610776906124c0565b5f5f610dc48484610ac2565b9050610afa816107f7565b5f60ff815c1615610df357604051633ee5aeb560e01b815260040160405180910390fd5b60015f805c60ff19168217905d505f8311610e2157604051631f2a200560e01b815260040160405180910390fd5b600a54821015610e4457604051630c6dacc160e31b815260040160405180910390fd5b610e4e8383610db8565b9050805f03610e7057604051632b50386160e11b815260040160405180910390fd5b5f610e7a846107f7565b60408051828152602081018790529081018490526060810185905290915033907ff59d172032c72637fb0c7924e9a26fd6d4f91a7d62830fef457c4048c1ff1a349060800160405180910390a28215610f5357335f908152600c6020908152604091829020825160808101845284815291820187905291810184905260608101610f0486426124ad565b90528154600181810184555f938452602093849020835160049093020191825592820151928101929092556040810151600283015560600151600390910155610f4e3330866114d4565b610f60565b610f6033333385886115fd565b505f60ff19815c16815d5092915050565b5f60ff815c1615610f9557604051633ee5aeb560e01b815260040160405180910390fd5b60015f805c60ff19168217905d50610bc88383611651565b60ff5f5c1615610fd057604051633ee5aeb560e01b815260040160405180910390fd5b60015f805c60ff19168217905d50335f818152600c60205260409020548290811061100e576040516312bde1e960e01b815260040160405180910390fd5b335f908152600c6020526040812080548590811061102e5761102e612511565b905f5260205f2090600402019050806003015442101561106157604051636982ad9b60e11b815260040160405180910390fd5b6002810154600182015460405133927f0da072ebd7a5649099f43a3776eb0cda17aca79426ee9f28aae203f5dfa04eda926110a492918252602082015260400190565b60405180910390a2600281015460018201546110bf866113ea565b610aae30333085856115fd565b5f825f036110db57505f610801565b5f6110e5836114ed565b9050805f036110f8575f19915050610801565b610afa846064836001611563565b5f61080182600161165e565b5f60ff815c161561113657604051633ee5aeb560e01b815260040160405180910390fd5b60015f805c60ff19168217905d50610879848484611696565b5f60ff815c161561117357604051633ee5aeb560e01b815260040160405180910390fd5b60015f805c60ff19168217905d506108798484846116e3565b5f61080182611279565b6001600160a01b0382165f908152600c60205260408120548190819081908690869081106111d7576040516312bde1e960e01b815260040160405180910390fd5b6001600160a01b0388165f908152600c6020526040812080548990811061120057611200612511565b5f9182526020909120600490910201805460018201546002830154600390930154919c909b50919950975095505050505050565b5f5f61098c611257846001600160a01b03165f9081526020819052604090205490565b5f610ac2565b5f61080182611730565b61126f6113bd565b610c33815f61174d565b5f610801825f61185f565b61128c6113bd565b600680546001600160a01b0383166001600160a01b031990911681179091556112bd6005546001600160a01b031690565b6001600160a01b03167f38d16b8cac22d99fc7c124b9cd0de2d3fa1faef420bfe791d8c362d765e2270060405160405180910390a350565b6040516370a0823160e01b81523060048201525f907f00000000000000000000000000000000000000000000000000000000000000006001600160a01b0316906370a0823190602401602060405180830381865afa158015611359573d5f5f3e3d5ffd5b505050506040513d601f19601f820116820180604052508101906108b79190612482565b5f610801825f61165e565b611395838383600161188e565b505050565b5f336113a7858285611961565b6113b28585856119c3565b506001949350505050565b6005546001600160a01b03163314610beb5760405163118cdaa760e01b8152336004820152602401610c21565b335f908152600c60205260409020805461140690600190612525565b8154811061141657611416612511565b905f5260205f209060040201600c5f336001600160a01b03166001600160a01b031681526020019081526020015f20828154811061145657611456612511565b5f9182526020808320845460049093020191825560018085015490830155600280850154908301556003938401549390910192909255338152600c909152604090208054806114a7576114a7612538565b5f8281526020812060045f1990930192830201818155600181018290556002810182905560030155905550565b6113958383836119c3565b6114e98282611a20565b5050565b5f600a548210156114ff57505f919050565b600954600b545f611511836064612525565b90508185118061151f575080155b1561152f57506064949350505050565b600a5461154f61153f8288612525565b8361154a8487612525565b611a54565b61155990856124ad565b9695505050505050565b5f61159061157083611b11565b801561158b57505f84806115865761158661254c565b868809115b151590565b61159b868686611a54565b6115a591906124ad565b95945050505050565b5f5f195f6115bb85611279565b9050610afa33858784611b3d565b600680546001600160a01b0319169055610c3381611b89565b5f5f195f6115ef85611106565b9050610afa33858388611b3d565b805f0361161d57604051639811e0c760e01b815260040160405180910390fd5b815f0361163d57604051630cb65c7760e21b815260040160405180910390fd5b61164a8585858585611bda565b5050505050565b5f336108148185856119c3565b5f61083561166a6106d8565b6116759060016124ad565b6116805f600a612664565b60025461168d91906124ad565b85919085611563565b5f5f6116a183611234565b9050808511156116ca57828582604051633fa733bb60e21b8152600401610c2193929190612560565b5f6116d48661081e565b90506115a533868689856115fd565b5f5f6116ee8361125d565b90508085111561171757828582604051632e52afbb60e21b8152600401610c2193929190612560565b5f61172186610980565b90506115a5338686848a6115fd565b6001600160a01b0381165f90815260208190526040812054610801565b6007546001600160a01b0380841691160361177b5760405163a88ee57760e01b815260040160405180910390fd5b80806117f85750306001600160a01b0316826001600160a01b0316632f99c6cc6040518163ffffffff1660e01b81526004016020604051808303815f875af11580156117c9573d5f5f3e3d5ffd5b505050506040513d601f19601f820116820180604052508101906117ed9190612672565b6001600160a01b0316145b6118155760405163644d871f60e01b815260040160405180910390fd5b600780546001600160a01b0319166001600160a01b0384169081179091556040517fcbbf50d43e4e05c7b7eaf15f2a0ea9205db1caef13cd177bc16e79a02f33a19f905f90a25050565b5f61083561186e82600a612664565b60025461187b91906124ad565b6118836106d8565b61168d9060016124ad565b6001600160a01b0384166118b75760405163e602df0560e01b81525f6004820152602401610c21565b6001600160a01b0383166118e057604051634a1406b160e11b81525f6004820152602401610c21565b6001600160a01b038085165f908152600160209081526040808320938716835292905220829055801561195b57826001600160a01b0316846001600160a01b03167f8c5be1e5ebec7d5bd14f71427d1e84f3dd0314c0f7b2291e5b200ac8c7c3b9258460405161195291815260200190565b60405180910390a35b50505050565b6001600160a01b038381165f908152600160209081526040808320938616835292905220545f19811461195b57818110156119b557828183604051637dc7a0d960e11b8152600401610c2193929190612560565b61195b84848484035f61188e565b6001600160a01b0383166119ec57604051634b637e8f60e11b81525f6004820152602401610c21565b6001600160a01b038216611a155760405163ec442f0560e01b81525f6004820152602401610c21565b611395838383611c9a565b6001600160a01b038216611a4957604051634b637e8f60e11b81525f6004820152602401610c21565b6114e9825f83611c9a565b5f838302815f1985870982811083820303915050805f03611a8857838281611a7e57611a7e61254c565b0492505050610835565b808411611aa657611aa68415611a9f576011611e54565b6012611e54565b5f848688095f868103871696879004966002600389028118808a02820302808a02820302808a02820302808a02820302808a02820302808a02909103029181900381900460010186841190950394909402919094039290920491909117919091029150509392505050565b5f6002826003811115611b2657611b2661268d565b611b3091906126a1565b60ff166001149050919050565b805f03611b5d57604051639811e0c760e01b815260040160405180910390fd5b815f03611b7d57604051630cb65c7760e21b815260040160405180910390fd5b61195b84848484611e65565b600580546001600160a01b038381166001600160a01b0319831681179093556040519116919082907f8be0079c531659141344cd1fd0a4f28419497f9722a3daafe3b4186f6b6457e0905f90a35050565b826001600160a01b0316856001600160a01b031614611bfe57611bfe838683611961565b611c088382611a20565b611c337f00000000000000000000000000000000000000000000000000000000000000008584611ee9565b826001600160a01b0316846001600160a01b0316866001600160a01b03167ffbde797d201c681b91056529119e0b02407c7bb96a4a2c75c01fc9667232c8db8585604051611c8b929190918252602082015260400190565b60405180910390a45050505050565b816001600160a01b0316836001600160a01b031603611ccc576040516352a7f8fb60e01b815260040160405180910390fd5b805f03611cec576040516310cadee360e01b815260040160405180910390fd5b6007546001600160a01b03168015611d6157806001600160a01b031663372500ab6040518163ffffffff1660e01b81526004016020604051808303815f875af1158015611d3b573d5f5f3e3d5ffd5b505050506040513d601f19601f82011682018060405250810190611d5f9190612482565b505b611d6c848484611f48565b6008546001600160a01b031680611d84575050505050565b806001600160a01b031663bbdc013b86611db2886001600160a01b03165f9081526020819052604090205490565b87611dd1896001600160a01b03165f9081526020819052604090205490565b6002546040516001600160e01b031960e088901b1681526001600160a01b03958616600482015260248101949094529390911660448301526064820152608481019190915260a4810186905260c4015f604051808303815f87803b158015611e37575f5ffd5b505af1158015611e49573d5f5f3e3d5ffd5b505050505050505050565b634e487b715f52806020526024601cfd5b611e917f000000000000000000000000000000000000000000000000000000000000000085308561205b565b611e9b8382612094565b826001600160a01b0316846001600160a01b03167fdcbc1c05240f31ff3ad067ef1ee35ce4997762752e3a095284754544f4c709d78484604051611952929190918252602082015260400190565b6040516001600160a01b0383811660248301526044820183905261139591859182169063a9059cbb906064015b604051602081830303815290604052915060e01b6020820180516001600160e01b0383818316178352505050506120c8565b6001600160a01b038316611f72578060025f828254611f6791906124ad565b90915550611fcf9050565b6001600160a01b0383165f9081526020819052604090205481811015611fb15783818360405163391434e360e21b8152600401610c2193929190612560565b6001600160a01b0384165f9081526020819052604090209082900390555b6001600160a01b038216611feb57600280548290039055612009565b6001600160a01b0382165f9081526020819052604090208054820190555b816001600160a01b0316836001600160a01b03167fddf252ad1be2c89b69c2b068fc378daa952ba7f163c4a11628f55a4df523b3ef8360405161204e91815260200190565b60405180910390a3505050565b6040516001600160a01b03848116602483015283811660448301526064820183905261195b9186918216906323b872dd90608401611f16565b6001600160a01b0382166120bd5760405163ec442f0560e01b81525f6004820152602401610c21565b6114e95f8383611c9a565b5f6120dc6001600160a01b03841683612129565b905080515f141580156121005750808060200190518101906120fe91906126ce565b155b1561139557604051635274afe760e01b81526001600160a01b0384166004820152602401610c21565b606061083583835f845f5f856001600160a01b0316848660405161214d91906126e9565b5f6040518083038185875af1925050503d805f8114612187576040519150601f19603f3d011682016040523d82523d5f602084013e61218c565b606091505b50915091506115598683836060826121ac576121a7826121f3565b610835565b81511580156121c357506001600160a01b0384163b155b156121ec57604051639996b31560e01b81526001600160a01b0385166004820152602401610c21565b5080610835565b8051156122035780518082602001fd5b60405163d6bda27560e01b815260040160405180910390fd5b602081525f82518060208401528060208501604085015e5f604082850101526040601f19601f83011684010191505092915050565b5f60208284031215612261575f5ffd5b5035919050565b6001600160a01b0381168114610c33575f5ffd5b5f5f6040838503121561228d575f5ffd5b823561229881612268565b946020939093013593505050565b5f5f5f606084860312156122b8575f5ffd5b83356122c381612268565b925060208401356122d381612268565b929592945050506040919091013590565b5f5f5f606084860312156122f6575f5ffd5b505081359360208301359350604090920135919050565b5f6020828403121561231d575f5ffd5b813561083581612268565b5f5f60408385031215612339575f5ffd5b50508035926020909101359150565b5f5f60408385031215612359575f5ffd5b82359150602083013561236b81612268565b809150509250929050565b602080825282518282018190525f918401906040840190835b818110156123d3578351805184526020810151602085015260408101516040850152606081015160608501525060808301925060208401935060018101905061238f565b509095945050505050565b8015158114610c33575f5ffd5b5f5f604083850312156123fc575f5ffd5b823561240781612268565b9150602083013561236b816123de565b5f5f5f60608486031215612429575f5ffd5b83359250602084013561243b81612268565b9150604084013561244b81612268565b809150509250925092565b5f5f60408385031215612467575f5ffd5b823561247281612268565b9150602083013561236b81612268565b5f60208284031215612492575f5ffd5b5051919050565b634e487b7160e01b5f52601160045260245ffd5b8082018082111561080157610801612499565b600181811c908216806124d457607f821691505b6020821081036124f257634e487b7160e01b5f52602260045260245ffd5b50919050565b60ff818116838216019081111561080157610801612499565b634e487b7160e01b5f52603260045260245ffd5b8181038181111561080157610801612499565b634e487b7160e01b5f52603160045260245ffd5b634e487b7160e01b5f52601260045260245ffd5b6001600160a01b039390931683526020830191909152604082015260600190565b6001815b60018411156125bc578085048111156125a0576125a0612499565b60018416156125ae57908102905b60019390931c928002612585565b935093915050565b5f826125d257506001610801565b816125de57505f610801565b81600181146125f457600281146125fe5761261a565b6001915050610801565b60ff84111561260f5761260f612499565b50506001821b610801565b5060208310610133831016604e8410600b841016171561263d575081810a610801565b6126495f198484612581565b805f190482111561265c5761265c612499565b029392505050565b5f61083560ff8416836125c4565b5f60208284031215612682575f5ffd5b815161083581612268565b634e487b7160e01b5f52602160045260245ffd5b5f60ff8316806126bf57634e487b7160e01b5f52601260045260245ffd5b8060ff84160691505092915050565b5f602082840312156126de575f5ffd5b8151610835816123de565b5f82518060208501845e5f92019182525091905056fea2646970667358221220bc62db1bb2215f17a33eb0558bcfd6390750d6ba4fc507214e389c733663a51864736f6c634300081c0033",
  "language": "Solidity",
  "compiler": "0.8.28+commit.7893614a"
}