{
  "address": "0xEd397c29753c33f11ee5645F742deFd96032509A",
  "abi": [
    {
      "inputs": [
        {
          "internalType": "address",
          "name": "_vaultIncentivesController",
          "type": "address"
        },
        {
          "internalType": "address",
          "name": "_siloIncentivesController",
          "type": "address"
        },
        {
          "internalType": "bytes32",
          "name": "_externalSalt",
          "type": "bytes32"
        }
      ],
      "name": "createIncentivesControllerCL",
      "outputs": [
        {
          "internalType": "contract SiloIncentivesControllerCL",
          "name": "logic",
          "type": "address"
        }
      ],
      "stateMutability": "nonpayable",
      "type": "function"
    },
    {
      "inputs": [
        {
          "internalType": "address",
          "name": "",
          "type": "address"
        }
      ],
      "name": "createdInFactory",
      "outputs": [
        {
          "internalType": "bool",
          "name": "",
          "type": "bool"
        }
      ],
      "stateMutability": "view",
      "type": "function"
    },
    {
      "inputs": [
        {
          "internalType": "address",
          "name": "owner",
          "type": "address"
        }
      ],
      "name": "nonces",
      "outputs": [
        {
          "internalType": "uint256",
          "name": "",
          "type": "uint256"
        }
      ],
      "stateMutability": "view",
      "type": "function"
    },
    {
      "anonymous": false,
      "inputs": [
        {
          "indexed": false,
          "internalType": "address",
          "name": "logic",
          "type": "address"
        }
      ],
      "name": "IncentivesControllerCLCreated",
      "type": "event"
    },
    {
      "inputs": [
        {
          "internalType": "address",
          "name": "account",
          "type": "address"
        },
        {
          "internalType": "uint256",
          "name": "currentNonce",
          "type": "uint256"
        }
      ],
      "name": "InvalidAccountNonce",
      "type": "error"
    }
  ],
  "bytecode": "0x6080604052348015600e575f5ffd5b506107bf8061001c5f395ff3fe608060405234801561000f575f5ffd5b506004361061003f575f3560e01c806356f5a384146100435780637ecebe0014610073578063b32d705b146100a9575b5f5ffd5b610056610051366004610200565b6100db565b6040516001600160a01b0390911681526020015b60405180910390f35b61009b610081366004610239565b6001600160a01b03165f9081526020819052604090205490565b60405190815260200161006a565b6100cb6100b7366004610239565b60016020525f908152604090205460ff1681565b604051901515815260200161006a565b335f81815260208181526040808320805460018101909155815160609590951b6bffffffffffffffffffffffff19168584015260348501526054808501869052815180860390910181526074909401905282519201919091208484604051610142906101d8565b6001600160a01b039283168152911660208201526040018190604051809103905ff5905080158015610176573d5f5f3e3d5ffd5b506001600160a01b0381165f81815260016020818152604092839020805460ff191690921790915590519182529192507f0d91d4738bd0eb7a2895427da0d991cd7384daa986222af6464bcae5c2d3e536910160405180910390a19392505050565b6105308061025a83390190565b80356001600160a01b03811681146101fb575f5ffd5b919050565b5f5f5f60608486031215610212575f5ffd5b61021b846101e5565b9250610229602085016101e5565b9150604084013590509250925092565b5f60208284031215610249575f5ffd5b610252826101e5565b939250505056fe60c060405234801561000f575f5ffd5b5060405161053038038061053083398101604081905261002e916100ae565b6001600160a01b038216610055576040516348a7684f60e11b815260040160405180910390fd5b6001600160a01b03811661007c5760405163130dfd7b60e21b815260040160405180910390fd5b6001600160a01b039182166080521660a0526100df565b80516001600160a01b03811681146100a9575f5ffd5b919050565b5f5f604083850312156100bf575f5ffd5b6100c883610093565b91506100d660208401610093565b90509250929050565b60805160a05161041f6101115f395f81816048015260f801525f8181608b0152818160ce0152610199015261041f5ff3fe608060405234801561000f575f5ffd5b506004361061003f575f3560e01c8063a13659d514610043578063ab2939fb14610086578063f57a64ae146100ad575b5f5ffd5b61006a7f000000000000000000000000000000000000000000000000000000000000000081565b6040516001600160a01b03909116815260200160405180910390f35b61006a7f000000000000000000000000000000000000000000000000000000000000000081565b6100b56100b7565b005b604051633bd73ee360e21b81526001600160a01b037f0000000000000000000000000000000000000000000000000000000000000000811660048301525f917f00000000000000000000000000000000000000000000000000000000000000009091169063ef5cfb8c906024015f604051808303815f875af115801561013f573d5f5f3e3d5ffd5b505050506040513d5f823e601f3d908101601f1916820160405261016691908101906102e5565b90505f5b815181101561027357818181518110610185576101856103d5565b60200260200101515f01515f031561026b577f00000000000000000000000000000000000000000000000000000000000000006001600160a01b0316632e953c218383815181106101d8576101d86103d5565b6020026020010151604001518484815181106101f6576101f66103d5565b6020908102919091010151516040516001600160e01b031960e085901b1681526001600160a01b0390921660048301526cffffffffffffffffffffffffff1660248201526044015f604051808303815f87803b158015610254575f5ffd5b505af1158015610266573d5f5f3e3d5ffd5b505050505b60010161016a565b5050565b634e487b7160e01b5f52604160045260245ffd5b6040516060810167ffffffffffffffff811182821017156102ae576102ae610277565b60405290565b604051601f8201601f1916810167ffffffffffffffff811182821017156102dd576102dd610277565b604052919050565b5f602082840312156102f5575f5ffd5b815167ffffffffffffffff81111561030b575f5ffd5b8201601f8101841361031b575f5ffd5b805167ffffffffffffffff81111561033557610335610277565b61034460208260051b016102b4565b80828252602082019150602060608402850101925086831115610365575f5ffd5b6020840193505b828410156103cb5760608488031215610383575f5ffd5b61038b61028b565b845181526020808601519082015260408501516001600160a01b03811681146103b2575f5ffd5b604082015282526060939093019260209091019061036c565b9695505050505050565b634e487b7160e01b5f52603260045260245ffdfea26469706673582212202bbf4a440d94e59aa5c93293bdd68c8a131a61685947d00f69286fa1d83f73eb64736f6c634300081c0033a264697066735822122010e58ea40adea4c562c8fb8149b8fbe0416dfba9af4398231fe809482e68018964736f6c634300081c0033",
  "language": "Solidity",
  "compiler": "0.8.28+commit.7893614a"
}