{
  "address": "0x451b35b2dF223a7Ef71c4ecb451C1C15019e28A5",
  "abi": [
    {
      "inputs": [
        {
          "internalType": "contract ISiloVaultsFactory",
          "name": "_siloVaultsFactory",
          "type": "address"
        },
        {
          "internalType": "contract ISiloIncentivesControllerFactory",
          "name": "_siloIncentivesControllerFactory",
          "type": "address"
        },
        {
          "internalType": "contract ISiloIncentivesControllerCLFactory",
          "name": "_siloIncentivesControllerCLFactory",
          "type": "address"
        },
        {
          "internalType": "contract IdleVaultsFactory",
          "name": "_idleVaultsFactory",
          "type": "address"
        }
      ],
      "stateMutability": "nonpayable",
      "type": "constructor"
    },
    {
      "inputs": [],
      "name": "IDLE_VAULTS_FACTORY",
      "outputs": [
        {
          "internalType": "contract IdleVaultsFactory",
          "name": "",
          "type": "address"
        }
      ],
      "stateMutability": "view",
      "type": "function"
    },
    {
      "inputs": [],
      "name": "SILO_INCENTIVES_CONTROLLER_CL_FACTORY",
      "outputs": [
        {
          "internalType": "contract ISiloIncentivesControllerCLFactory",
          "name": "",
          "type": "address"
        }
      ],
      "stateMutability": "view",
      "type": "function"
    },
    {
      "inputs": [],
      "name": "SILO_INCENTIVES_CONTROLLER_FACTORY",
      "outputs": [
        {
          "internalType": "contract ISiloIncentivesControllerFactory",
          "name": "",
          "type": "address"
        }
      ],
      "stateMutability": "view",
      "type": "function"
    },
    {
      "inputs": [],
      "name": "SILO_VAULTS_FACTORY",
      "outputs": [
        {
          "internalType": "contract ISiloVaultsFactory",
          "name": "",
          "type": "address"
        }
      ],
      "stateMutability": "view",
      "type": "function"
    },
    {
      "inputs": [
        {
          "components": [
            {
              "internalType": "address",
              "name": "initialOwner",
              "type": "address"
            },
            {
              "internalType": "uint256",
              "name": "initialTimelock",
              "type": "uint256"
            },
            {
              "internalType": "address",
              "name": "asset",
              "type": "address"
            },
            {
              "internalType": "address",
              "name": "incentivesControllerOwner",
              "type": "address"
            },
            {
              "internalType": "string",
              "name": "name",
              "type": "string"
            },
            {
              "internalType": "string",
              "name": "symbol",
              "type": "string"
            },
            {
              "internalType": "contract IIncentivesClaimingLogicFactory[]",
              "name": "trustedFactories",
              "type": "address[]"
            },
            {
              "internalType": "contract ISilo[]",
              "name": "silosWithIncentives",
              "type": "address[]"
            }
          ],
          "internalType": "struct ISiloVaultDeployer.CreateSiloVaultParams",
          "name": "params",
          "type": "tuple"
        }
      ],
      "name": "createSiloVault",
      "outputs": [
        {
          "internalType": "contract ISiloVault",
          "name": "vault",
          "type": "address"
        },
        {
          "internalType": "contract ISiloIncentivesController",
          "name": "incentivesController",
          "type": "address"
        },
        {
          "internalType": "contract IERC4626",
          "name": "idleVault",
          "type": "address"
        }
      ],
      "stateMutability": "nonpayable",
      "type": "function"
    },
    {
      "inputs": [
        {
          "internalType": "address",
          "name": "owner",
          "type": "address"
        }
      ],
      "name": "nonces",
      "outputs": [
        {
          "internalType": "uint256",
          "name": "",
          "type": "uint256"
        }
      ],
      "stateMutability": "view",
      "type": "function"
    },
    {
      "anonymous": false,
      "inputs": [
        {
          "indexed": true,
          "internalType": "address",
          "name": "vault",
          "type": "address"
        },
        {
          "indexed": false,
          "internalType": "address",
          "name": "market",
          "type": "address"
        },
        {
          "indexed": false,
          "internalType": "address",
          "name": "claimingLogic",
          "type": "address"
        }
      ],
      "name": "CreateIncentivesCL",
      "type": "event"
    },
    {
      "anonymous": false,
      "inputs": [
        {
          "indexed": true,
          "internalType": "address",
          "name": "vault",
          "type": "address"
        },
        {
          "indexed": false,
          "internalType": "address",
          "name": "incentivesController",
          "type": "address"
        },
        {
          "indexed": false,
          "internalType": "address",
          "name": "idleVault",
          "type": "address"
        }
      ],
      "name": "CreateSiloVault",
      "type": "event"
    },
    {
      "inputs": [],
      "name": "EmptyIdleVaultFactory",
      "type": "error"
    },
    {
      "inputs": [],
      "name": "EmptySiloIncentivesControllerCLFactory",
      "type": "error"
    },
    {
      "inputs": [],
      "name": "EmptySiloIncentivesControllerFactory",
      "type": "error"
    },
    {
      "inputs": [],
      "name": "EmptySiloVaultFactory",
      "type": "error"
    },
    {
      "inputs": [
        {
          "internalType": "address",
          "name": "silo",
          "type": "address"
        }
      ],
      "name": "GaugeIsNotConfigured",
      "type": "error"
    },
    {
      "inputs": [
        {
          "internalType": "address",
          "name": "account",
          "type": "address"
        },
        {
          "internalType": "uint256",
          "name": "currentNonce",
          "type": "uint256"
        }
      ],
      "name": "InvalidAccountNonce",
      "type": "error"
    },
    {
      "inputs": [],
      "name": "VaultAddressMismatch",
      "type": "error"
    }
  ],
  "bytecode": "0x610100604052348015610010575f5ffd5b506040516111bd3803806111bd83398101604081905261002f91610104565b6001600160a01b03841661005657604051639f7392d960e01b815260040160405180910390fd5b6001600160a01b03821661007d57604051638dcdad6d60e01b815260040160405180910390fd5b6001600160a01b0381166100a457604051631082fd5960e11b815260040160405180910390fd5b6001600160a01b0383166100cb57604051634f4c84ef60e11b815260040160405180910390fd5b6001600160a01b0393841660805291831660a052821660c0521660e052610160565b6001600160a01b0381168114610101575f5ffd5b50565b5f5f5f5f60808587031215610117575f5ffd5b8451610122816100ed565b6020860151909450610133816100ed565b6040860151909350610144816100ed565b6060860151909250610155816100ed565b939692955090935050565b60805160a05160c05160e051610fec6101d15f395f818160ab015261033e01525f818161016e01526108c001525f8181610147015261024b01525f81816101200152818161041e015281816104ee01528181610571015281816105ec015281816106460152610a350152610fec5ff3fe608060405234801561000f575f5ffd5b5060043610610060575f3560e01c80635d424dce146100645780636899dc28146100a65780637ecebe00146100e55780638dd579c91461011b578063d9d5059114610142578063fd4e4be214610169575b5f5ffd5b610077610072366004610c59565b610190565b604080516001600160a01b03948516815292841660208401529216918101919091526060015b60405180910390f35b6100cd7f000000000000000000000000000000000000000000000000000000000000000081565b6040516001600160a01b03909116815260200161009d565b61010d6100f3366004610d84565b6001600160a01b03165f9081526020819052604090205490565b60405190815260200161009d565b6100cd7f000000000000000000000000000000000000000000000000000000000000000081565b6100cd7f000000000000000000000000000000000000000000000000000000000000000081565b6100cd7f000000000000000000000000000000000000000000000000000000000000000081565b5f5f5f5f6101f1335f81815260208190526040812080546001810190915590919060405160609290921b6bffffffffffffffffffffffff19166020830152603482015260540160405160208183030381529060405280519060200120905090565b90505f610215865f01518760200151886040015189608001518a60a00151876103fe565b60608701516040516368b497ab60e11b81526001600160a01b0391821660048201528183166024820152604481018590529192507f0000000000000000000000000000000000000000000000000000000000000000169063d1692f56906064016020604051808303815f875af1158015610291573d5f5f3e3d5ffd5b505050506040513d601f19601f820116820180604052508101906102b59190610da6565b93506060806102ca8860e001518588866106d0565b80925081935050506102e488858885858d60c00151610a06565b9650826001600160a01b0316876001600160a01b0316146103185760405163b4c1be7b60e01b815260040160405180910390fd5b604051635f46f7f560e11b81526001600160a01b038881166004830152602482018690527f0000000000000000000000000000000000000000000000000000000000000000169063be8defea906044016020604051808303815f875af1158015610384573d5f5f3e3d5ffd5b505050506040513d601f19601f820116820180604052508101906103a89190610da6565b604080516001600160a01b0389811682528084166020830152929750918916917ff11952be09bd4aba4d2548ec1ac2e27c763a8eaaa0d96b954bd5f6e184be8736910160405180910390a2505050509193909250565b604051623f675f60e91b81523060048201525f9081906001600160a01b037f00000000000000000000000000000000000000000000000000000000000000001690637ecebe0090602401602060405180830381865afa158015610463573d5f5f3e3d5ffd5b505050506040513d601f19601f820116820180604052508101906104879190610dc1565b90505f6104e6848361049881610dd8565b94506040516bffffffffffffffffffffffff193060601b16602082015260348101829052605481018390525f9060740160405160208183030381529060405280519060200120905092915050565b90505f6105e87f00000000000000000000000000000000000000000000000000000000000000006001600160a01b031663254067426040518163ffffffff1660e01b8152600401602060405180830381865afa158015610548573d5f5f3e3d5ffd5b505050506040513d601f19601f8201168201806040525081019061056c9190610da6565b6040517f000000000000000000000000000000000000000000000000000000000000000060388201526f5af43d82803e903d91602b57fd5bf3ff60248201526014810191909152733d602d80600a3d3981f3363d3d373d3d3d363d738152605881018490526037600c8201206078820152605560439091012090565b90507f00000000000000000000000000000000000000000000000000000000000000006001600160a01b031663053670e08b8b848c8c8c60405160200161063496959493929190610e2a565b604051602081830303815290604052847f00000000000000000000000000000000000000000000000000000000000000006040518463ffffffff1660e01b815260040161068393929190610e83565b602060405180830381865afa15801561069e573d5f5f3e3d5ffd5b505050506040513d601f19601f820116820180604052508101906106c29190610da6565b9a9950505050505050505050565b606080855167ffffffffffffffff8111156106ed576106ed610ac1565b604051908082528060200260200182016040528015610716578160200160208202803683370190505b509150855167ffffffffffffffff81111561073357610733610ac1565b60405190808252806020026020018201604052801561075c578160200160208202803683370190505b5090505f5b86518110156109fc575f87828151811061077d5761077d610eb5565b602002602001015190505f816001600160a01b0316638fea80626040518163ffffffff1660e01b8152600401602060405180830381865afa1580156107c4573d5f5f3e3d5ffd5b505050506040513d601f19601f820116820180604052508101906107e89190610da6565b60405163a37d941160e01b81526001600160a01b0384811660048301529192505f9183169063a37d941190602401602060405180830381865afa158015610831573d5f5f3e3d5ffd5b505050506040513d601f19601f820116820180604052508101906108559190610da6565b9050826001600160a01b03821661088f57604051631ef8290960e31b81526001600160a01b03909116600482015260240160405180910390fd5b506040516315bd68e160e21b81526001600160a01b0389811660048301528281166024830152604482018b90525f917f0000000000000000000000000000000000000000000000000000000000000000909116906356f5a384906064016020604051808303815f875af1158015610908573d5f5f3e3d5ffd5b505050506040513d601f19601f8201168201806040525081019061092c9190610da6565b90508087868151811061094157610941610eb5565b60200260200101906001600160a01b031690816001600160a01b0316815250508386868151811061097457610974610eb5565b60200260200101906001600160a01b031690816001600160a01b031681525050876001600160a01b03167fb9777f6bac53a0b0e19e5a2ba70fda35f8de7eb0eda9e74e5ef31b36667c93a985836040516109e49291906001600160a01b0392831681529116602082015260400190565b60405180910390a25050600190920191506107619050565b5094509492505050565b8551602087015160408089015160808a015160a08b01519251631a7728bf60e21b81525f956001600160a01b037f000000000000000000000000000000000000000000000000000000000000000016956369dca2fc95610a7695929491938e908e908e908e908e90600401610f0c565b6020604051808303815f875af1158015610a92573d5f5f3e3d5ffd5b505050506040513d601f19601f82011682018060405250810190610ab69190610da6565b979650505050505050565b634e487b7160e01b5f52604160045260245ffd5b604051610100810167ffffffffffffffff81118282101715610af957610af9610ac1565b60405290565b604051601f8201601f1916810167ffffffffffffffff81118282101715610b2857610b28610ac1565b604052919050565b6001600160a01b0381168114610b44575f5ffd5b50565b8035610b5281610b30565b919050565b5f82601f830112610b66575f5ffd5b813567ffffffffffffffff811115610b8057610b80610ac1565b610b93601f8201601f1916602001610aff565b818152846020838601011115610ba7575f5ffd5b816020850160208301375f918101602001919091529392505050565b5f67ffffffffffffffff821115610bdc57610bdc610ac1565b5060051b60200190565b5f82601f830112610bf5575f5ffd5b8135610c08610c0382610bc3565b610aff565b8082825260208201915060208360051b860101925085831115610c29575f5ffd5b602085015b83811015610c4f578035610c4181610b30565b835260209283019201610c2e565b5095945050505050565b5f60208284031215610c69575f5ffd5b813567ffffffffffffffff811115610c7f575f5ffd5b82016101008185031215610c91575f5ffd5b610c99610ad5565b610ca282610b47565b815260208281013590820152610cba60408301610b47565b6040820152610ccb60608301610b47565b6060820152608082013567ffffffffffffffff811115610ce9575f5ffd5b610cf586828501610b57565b60808301525060a082013567ffffffffffffffff811115610d14575f5ffd5b610d2086828501610b57565b60a08301525060c082013567ffffffffffffffff811115610d3f575f5ffd5b610d4b86828501610be6565b60c08301525060e082013567ffffffffffffffff811115610d6a575f5ffd5b610d7686828501610be6565b60e083015250949350505050565b5f60208284031215610d94575f5ffd5b8135610d9f81610b30565b9392505050565b5f60208284031215610db6575f5ffd5b8151610d9f81610b30565b5f60208284031215610dd1575f5ffd5b5051919050565b5f60018201610df557634e487b7160e01b5f52601160045260245ffd5b5060010190565b5f81518084528060208401602086015e5f602082860101526020601f19601f83011685010191505092915050565b6001600160a01b0387811682526020820187905285811660408301528416606082015260c0608082018190525f90610e6490830185610dfc565b82810360a0840152610e768185610dfc565b9998505050505050505050565b606081525f610e956060830186610dfc565b6020830194909452506001600160a01b0391909116604090910152919050565b634e487b7160e01b5f52603260045260245ffd5b5f8151808452602084019350602083015f5b82811015610f025781516001600160a01b0316865260209586019590910190600101610edb565b5093949350505050565b6001600160a01b038b81168252602082018b905289166040820152610140606082018190525f90610f3f9083018a610dfc565b8281036080840152610f51818a610dfc565b60a084018990526001600160a01b03881660c085015283810360e08501529050610f7b8187610ec9565b9050828103610100840152610f908186610ec9565b9050828103610120840152610fa58185610ec9565b9d9c5050505050505050505050505056fea2646970667358221220da0f8a64a9f2ba9ab8fd0a33ab3a0137c2b8a6c206a01ff1228be6c7482ae7fb64736f6c634300081c0033",
  "language": "Solidity",
  "compiler": "0.8.28+commit.7893614a"
}