{
  "address": "0xBc1FCB9B2EC31939f3702Fd8605e8986098a7eC1",
  "abi": [
    {
      "inputs": [
        {
          "internalType": "address",
          "name": "_owner",
          "type": "address"
        },
        {
          "internalType": "address",
          "name": "_notifier",
          "type": "address"
        },
        {
          "internalType": "address",
          "name": "_shareToken",
          "type": "address"
        },
        {
          "internalType": "bytes32",
          "name": "_externalSalt",
          "type": "bytes32"
        }
      ],
      "name": "create",
      "outputs": [
        {
          "internalType": "address",
          "name": "controller",
          "type": "address"
        }
      ],
      "stateMutability": "nonpayable",
      "type": "function"
    },
    {
      "inputs": [
        {
          "internalType": "address",
          "name": "",
          "type": "address"
        }
      ],
      "name": "isSiloIncentivesController",
      "outputs": [
        {
          "internalType": "bool",
          "name": "",
          "type": "bool"
        }
      ],
      "stateMutability": "view",
      "type": "function"
    },
    {
      "inputs": [
        {
          "internalType": "address",
          "name": "owner",
          "type": "address"
        }
      ],
      "name": "nonces",
      "outputs": [
        {
          "internalType": "uint256",
          "name": "",
          "type": "uint256"
        }
      ],
      "stateMutability": "view",
      "type": "function"
    },
    {
      "anonymous": false,
      "inputs": [
        {
          "indexed": true,
          "internalType": "address",
          "name": "controller",
          "type": "address"
        }
      ],
      "name": "SiloIncentivesControllerCreated",
      "type": "event"
    },
    {
      "inputs": [
        {
          "internalType": "address",
          "name": "account",
          "type": "address"
        },
        {
          "internalType": "uint256",
          "name": "currentNonce",
          "type": "uint256"
        }
      ],
      "name": "InvalidAccountNonce",
      "type": "error"
    }
  ],
  "bytecode": "0x6080604052348015600e575f5ffd5b5061373c8061001c5f395ff3fe608060405234801561000f575f5ffd5b506004361061003f575f3560e01c80630f52994a146100435780637ecebe001461007a578063f0eb5ab2146100b0575b5f5ffd5b610065610051366004610201565b60016020525f908152604090205460ff1681565b60405190151581526020015b60405180910390f35b6100a2610088366004610201565b6001600160a01b03165f9081526020819052604090205490565b604051908152602001610071565b6100c36100be366004610221565b6100db565b6040516001600160a01b039091168152602001610071565b335f81815260208181526040808320805460018101909155815160609590951b6bffffffffffffffffffffffff1916858401526034850152605480850186905281518086039091018152607490940190528251920191909120858585604051610143906101d9565b6001600160a01b039384168152918316602083015290911660408201526060018190604051809103905ff5905080158015610180573d5f5f3e3d5ffd5b506001600160a01b0381165f818152600160208190526040808320805460ff19169092179091555192935090917f0a53f473a13c410d2f112a9928b8c3b24774adb46b692a6c99999d13fcc7416c9190a2949350505050565b61349d8061026a83390190565b80356001600160a01b03811681146101fc575f5ffd5b919050565b5f60208284031215610211575f5ffd5b61021a826101e6565b9392505050565b5f5f5f5f60808587031215610234575f5ffd5b61023d856101e6565b935061024b602086016101e6565b9250610259604086016101e6565b939692955092936060013592505056fe60c060405234801561000f575f5ffd5b5060405161349d38038061349d83398101604081905261002e9161015d565b82828181816001600160a01b03811661006057604051631e4fbdf760e01b81525f600482015260240160405180910390fd5b610069816100d7565b506001600160a01b0381166100915760405163d92e233d60e01b815260040160405180910390fd5b6001600160a01b03908116608052841692506100c39150505760405163a5c9497760e01b815260040160405180910390fd5b6001600160a01b031660a0525061019d9050565b600180546001600160a01b03191690556100f0816100f3565b50565b5f80546001600160a01b038381166001600160a01b0319831681178455604051919092169283917f8be0079c531659141344cd1fd0a4f28419497f9722a3daafe3b4186f6b6457e09190a35050565b80516001600160a01b0381168114610158575f5ffd5b919050565b5f5f5f6060848603121561016f575f5ffd5b61017884610142565b925061018660208501610142565b915061019460408501610142565b90509250925092565b60805160a0516132ae6101ef5f395f81816101e5015281816105de01528181610e63015281816111370152818161173b01526117c801525f818161036c0152818161058f0152610c6801526132ae5ff3fe608060405234801561000f575f5ffd5b50600436106101dc575f3560e01c8063aaf5eb6811610109578063cfc262371161009e578063f2fde38b1161006e578063f2fde38b14610536578063f5ba475014610549578063f5cf673b1461055c578063fb71aec51461056f575f5ffd5b8063cfc2623714610460578063e30c3978146104ff578063e7b8b9c414610510578063ef5cfb8c14610523575f5ffd5b8063bec1e022116100d9578063bec1e02214610414578063c1616f6914610427578063cc0801641461043a578063cd72a4bf1461044d575f5ffd5b8063aaf5eb68146103c1578063b5a89065146103db578063b90817f2146103ee578063bbdc013b14610401575f5ffd5b806379ba50971161017f5780638da5cb5b1161014f5780638da5cb5b146103575780639f2e6a0c14610367578063a5eb3f0d1461038e578063a7b800dd146103ae575f5ffd5b806379ba5097146102b55780637d8bf6ec146102bd57806382794f39146102d15780638ba2c3c814610344575f5ffd5b80636f564e7d116101ba5780636f564e7d1461025a578063711ec9ac1461027a578063715018a61461028257806374d945ec1461028a575f5ffd5b80631d7e3556146101e05780632e953c211461022457806358703bed14610239575b5f5ffd5b6102077f000000000000000000000000000000000000000000000000000000000000000081565b6040516001600160a01b0390911681526020015b60405180910390f35b61023761023236600461295b565b610584565b005b61024c6102473660046129d3565b61077b565b60405190815260200161021b565b61026d610268366004612a21565b610885565b60405161021b9190612a66565b61024c6108d9565b6102376108e8565b610207610298366004612a78565b6001600160a01b039081165f908152600760205260409020541690565b6102376108fb565b61024c6c0c9f2c9cd04674edea4000000081565b6102e46102df366004612ace565b610944565b60405161021b91905f60a0820190508251825260018060a01b0360208401511660208301526001600160681b03604084015116604083015264ffffffffff606084015116606083015264ffffffffff608084015116608083015292915050565b61024c610352366004612b0c565b610a22565b5f546001600160a01b0316610207565b6102077f000000000000000000000000000000000000000000000000000000000000000081565b6103a161039c3660046129d3565b610a8f565b60405161021b9190612b4d565b61024c6103bc366004612c76565b610aee565b6103c9602481565b60405160ff909116815260200161021b565b61024c6103e9366004612b0c565b610b69565b6102376103fc366004612a78565b610bd8565b61023761040f366004612ca7565b610c5d565b610237610422366004612d0f565b610d91565b610237610435366004612d6f565b610f82565b61024c610448366004612b0c565b611033565b61023761045b366004612e0c565b61109b565b6104ba61046e366004612a21565b60056020525f908152604090208054600182015460029092015490916001600160a01b0316906001600160681b0381169064ffffffffff600160681b8204811691600160901b90041685565b604080519586526001600160a01b0390941660208601526001600160681b039092169284019290925264ffffffffff918216606084015216608082015260a00161021b565b6001546001600160a01b0316610207565b61024c61051e366004612ace565b611233565b6103a1610531366004612a78565b61129b565b610237610544366004612a78565b6112e0565b6103a1610557366004612e5b565b611350565b61023761056a366004612eb7565b61141a565b6105776114c6565b60405161021b9190612edf565b336001600160a01b037f000000000000000000000000000000000000000000000000000000000000000016146105cc5760405162f09cf360e01b815260040160405180910390fd5b6001600160681b03811615610777575f7f00000000000000000000000000000000000000000000000000000000000000006001600160a01b03166318160ddd6040518163ffffffff1660e01b8152600401602060405180830381865afa158015610638573d5f5f3e3d5ffd5b505050506040513d601f19601f8201168201806040525081019061065c9190612f42565b90505f61066884611583565b5f8181526005602052604090209091506106828284611624565b506002810180544264ffffffffff818116600160901b90810264ffffffffff60901b1985161790945592820492909216916001600160681b03909116906106cb90600190612f6d565b6002840180546001600160901b031916600160681b64ffffffffff93909316929092026001600160681b031916919091176001600160681b0388161790556107138486611624565b50600292909201805469ffffffffffffffffffff60681b1916600160901b64ffffffffff9384160264ffffffffff60681b191617600160681b429390931692909202919091176001600160681b0319166001600160681b0390921691909117905550505b5050565b5f5f5f5f61078887611737565b90925090505f5b8581101561087a575f6107f88888848181106107ad576107ad612f80565b90506020028101906107bf9190612f94565b8080601f0160208091040260200160405190810160405280939291908181526020018383808284375f92019190915250610aee92505050565b5f818152600560205260409020600101549091506001600160a01b0390811690861661082657809550610858565b806001600160a01b0316866001600160a01b031614610858576040516305ff3f2d60e41b815260040160405180910390fd5b6108648a83878761184d565b61086e9088612fd6565b9650505060010161078f565b505050509392505050565b5f8181526004602052604090205460609060ff16156108af576108a982601461188f565b92915050565b6108a9826040516020016108c591815260200190565b604051602081830303815290604052611a08565b6108e56024600a6130cc565b81565b6108f0611a8d565b6108f95f611ab9565b565b60015433906001600160a01b031681146109385760405163118cdaa760e01b81526001600160a01b03821660048201526024015b60405180910390fd5b61094181611ab9565b50565b6040805160a0810182525f808252602082018190529181018290526060810182905260808101919091525f6109ad84848080601f0160208091040260200160405190810160405280939291908181526020018383808284375f92019190915250610aee92505050565b6040805160a0810182525f838152600560208181528483208054855260018101546001600160a01b031682860152600201546001600160681b0381169585019590955264ffffffffff600160681b860481166060860152959092529052600160901b9091049091166080820152949350505050565b5f5f610a6284848080601f0160208091040260200160405190810160405280939291908181526020018383808284375f92019190915250610aee92505050565b6001600160a01b0386165f90815260066020908152604080832093835292905220549150505b9392505050565b60606001600160a01b038416610ab857604051638aa3a72f60e01b815260040160405180910390fd5b5f610ac38484611ad2565b9050610ace81611b63565b610ad83382611bc0565b9150610ae633338785611ca9565b509392505050565b80515f90602a819003610b1357610a88610b0784611f63565b6001600160a01b031690565b8015801590610b23575060208111155b610b40576040516302d7eecb60e61b815260040160405180910390fd5b82604051602001610b5191906130f1565b604051602081830303815290604052610a88906130fc565b5f5f610ba984848080601f0160208091040260200160405190810160405280939291908181526020018383808284375f92019190915250610aee92505050565b5f9081526005602090815260408083206001600160a01b03891684526003019091529020549150509392505050565b610be0611a8d565b6040516370a0823160e01b81523060048201526109419033906001600160a01b038416906370a0823190602401602060405180830381865afa158015610c28573d5f5f3e3d5ffd5b505050506040513d601f19601f82011682018060405250810190610c4c9190612f42565b6001600160a01b0384169190612004565b336001600160a01b037f00000000000000000000000000000000000000000000000000000000000000001614610ca55760405162f09cf360e01b815260040160405180910390fd5b5f610cb06002612056565b9050846001600160a01b0316876001600160a01b03161480610cd0575080155b15610cdb5750610d89565b6001600160a01b038716610cf3578183039250610d06565b6001600160a01b038516610d0657918101915b6001600160a01b03871615610d1a57948101945b6001600160a01b03851615610d2f5781840393505b5f5b81811015610d86575f610d4560028361205f565b90506001600160a01b03891615610d6257610d62818a878b61206a565b6001600160a01b03871615610d7d57610d7d8188878961206a565b50600101610d31565b50505b505050505050565b610d99611a8d565b428264ffffffffff161015610dc157604051636e03f20160e11b815260040160405180910390fd5b6c0c9f2c9cd04674edea40000000816001600160681b031610610df75760405163495c2d9160e01b815260040160405180910390fd5b5f610e3685858080601f0160208091040260200160405190810160405280939291908181526020018383808284375f92019190915250610aee92505050565b9050610e4360028261214e565b610e6057604051630a96b47560e01b815260040160405180910390fd5b5f7f00000000000000000000000000000000000000000000000000000000000000006001600160a01b03166318160ddd6040518163ffffffff1660e01b8152600401602060405180830381865afa158015610ebd573d5f5f3e3d5ffd5b505050506040513d601f19601f82011682018060405250810190610ee19190612f42565b9050610eed8282611624565b505f8281526005602052604090819020600201805476ffffffffff0000000000ffffffffffffffffffffffffff1916600160901b64ffffffffff8816026001600160681b031916176001600160681b038616179055517fce209946668ea0ad6199b320ade5271adc93d0c1083851b571b990f3e0260f1290610f729088908890613147565b60405180910390a1505050505050565b610f8a611a8d565b8051516020811115610faf576040516310b47cc360e01b815260040160405180910390fd5b6c0c9f2c9cd04674edea4000000082604001516001600160681b031610610fe95760405163495c2d9160e01b815260040160405180910390fd5b42826060015164ffffffffff16101561101557604051636e03f20160e11b815260040160405180910390fd5b5f611022835f0151610aee565b905061102e8184612165565b505050565b5f5f61107384848080601f0160208091040260200160405190810160405280939291908181526020018383808284375f92019190915250610aee92505050565b90505f5f61108087611737565b915091506110908784848461184d565b979650505050505050565b6110a3611a8d565b428164ffffffffff1610156110cb57604051636e03f20160e11b815260040160405180910390fd5b5f61110a84848080601f0160208091040260200160405190810160405280939291908181526020018383808284375f92019190915250610aee92505050565b905061111760028261214e565b61113457604051630a96b47560e01b815260040160405180910390fd5b5f7f00000000000000000000000000000000000000000000000000000000000000006001600160a01b03166318160ddd6040518163ffffffff1660e01b8152600401602060405180830381865afa158015611191573d5f5f3e3d5ffd5b505050506040513d601f19601f820116820180604052508101906111b59190612f42565b90506111c18282611624565b505f8281526005602052604090819020600201805464ffffffffff60901b1916600160901b64ffffffffff871602179055517f58e6e5fdc9bafcdde90e850e8776b427a5a0e26e6c86f28a3c9c1f1801876118906112249087908790879061315a565b60405180910390a15050505050565b5f5f61127384848080601f0160208091040260200160405190810160405280939291908181526020018383808284375f92019190915250610aee92505050565b5f90815260056020526040902060020154600160901b900464ffffffffff1691505092915050565b60606001600160a01b0382166112c457604051638aa3a72f60e01b815260040160405180910390fd5b6112cd3361227e565b90506112db33338484611ca9565b919050565b6112e8611a8d565b600180546001600160a01b0383166001600160a01b031990911681179091556113185f546001600160a01b031690565b6001600160a01b03167f38d16b8cac22d99fc7c124b9cd0de2d3fa1faef420bfe791d8c362d765e2270060405160405180910390a350565b6001600160a01b038085165f908152600760205260409020546060913391879116821461138f57604051620bb58b60e51b815260040160405180910390fd5b86866001600160a01b0382166113b857604051630702b3d960e41b815260040160405180910390fd5b6001600160a01b0381166113df57604051638aa3a72f60e01b815260040160405180910390fd5b5f6113ea8888611ad2565b90506113f581611b63565b6113ff8a82611bc0565b955061140d338b8b89611ca9565b5050505050949350505050565b611422611a8d565b6001600160a01b0382166114495760405163d92e233d60e01b815260040160405180910390fd5b6001600160a01b0381166114705760405163d92e233d60e01b815260040160405180910390fd5b6001600160a01b038281165f8181526007602052604080822080546001600160a01b0319169486169485179055517f4925eafc82d0c4d67889898eeed64b18488ab19811e61620f387026dec126a289190a35050565b60605f6114d36002612293565b519050806001600160401b038111156114ee576114ee612bb1565b60405190808252806020026020018201604052801561152157816020015b606081526020019060019003908161150c5790505b5091505f5b8181101561157e5761155961153b6002612293565b828151811061154c5761154c612f80565b6020026020010151610885565b83828151811061156b5761156b612f80565b6020908102919091010152600101611526565b505090565b6001600160a01b0381165f81815260056020526040812060020154600160681b900464ffffffffff1690036112db575f818152600460209081526040808320805460ff1916600117905580516080810182526060808252928101849052908101839052908101919091526115f68361229f565b81526001600160a01b03831660208201525f60408201819052606082015261161e8282612165565b50919050565b5f82815260056020526040812080546002909101546001600160681b0381169064ffffffffff600160681b8204811691600160901b9004164282900361167057839450505050506108a9565b5f61167e858585858b6122b5565b90508481146116fe575f888152600560205260409020818155600201805464ffffffffff60681b1916600160681b4264ffffffffff16021790557fbcaf32358137afa5170f844d4e02a1b3013677faba70d948cc705ce0a38305846116e289610885565b826040516116f1929190613184565b60405180910390a1611090565b5f888152600560205260409020600201805464ffffffffff60681b1916600160681b4264ffffffffff1602179055979650505050505050565b5f807f00000000000000000000000000000000000000000000000000000000000000006040516370a0823160e01b81526001600160a01b03858116600483015291909116906370a0823190602401602060405180830381865afa1580156117a0573d5f5f3e3d5ffd5b505050506040513d601f19601f820116820180604052508101906117c49190612f42565b91507f00000000000000000000000000000000000000000000000000000000000000006001600160a01b03166318160ddd6040518163ffffffff1660e01b8152600401602060405180830381865afa158015611822573d5f5f3e3d5ffd5b505050506040513d601f19601f820116820180604052508101906118469190612f42565b9050915091565b6001600160a01b0384165f90815260066020908152604080832086845290915290205461187c84868585612338565b6118869082612fd6565b95945050505050565b6060825f61189e8460026131a5565b6118a9906002612fd6565b6001600160401b038111156118c0576118c0612bb1565b6040519080825280601f01601f1916602001820160405280156118ea576020820181803683370190505b509050600360fc1b815f8151811061190457611904612f80565b60200101906001600160f81b03191690815f1a905350600f60fb1b8160018151811061193257611932612f80565b60200101906001600160f81b03191690815f1a9053505f6119548560026131a5565b61195f906001612fd6565b90505b60018111156119d6576f181899199a1a9b1b9c1cb0b131b232b360811b83600f166010811061199357611993612f80565b1a60f81b8282815181106119a9576119a9612f80565b60200101906001600160f81b03191690815f1a90535060049290921c916119cf816131bc565b9050611962565b508115611a005760405163e22e27eb60e01b8152600481018690526024810185905260440161092f565b949350505050565b80516060905f5b81811015611a8657838181518110611a2957611a29612f80565b01602001516001600160f81b03191615611a7e5782848281518110611a5057611a50612f80565b602001015160f81c60f81b604051602001611a6c9291906131d1565b60405160208183030381529060405292505b600101611a0f565b5050919050565b5f546001600160a01b031633146108f95760405163118cdaa760e01b815233600482015260240161092f565b600180546001600160a01b0319169055610941816123a9565b6060816001600160401b03811115611aec57611aec612bb1565b604051908082528060200260200182016040528015611b15578160200160208202803683370190505b5090505f5b82811015611b5c57611b378484838181106107ad576107ad612f80565b828281518110611b4957611b49612f80565b6020908102919091010152600101611b1a565b5092915050565b5f5b815181101561077757611b9b828281518110611b8357611b83612f80565b6020026020010151600261214e90919063ffffffff16565b611bb857604051630a96b47560e01b815260040160405180910390fd5b600101611b65565b8051606090806001600160401b03811115611bdd57611bdd612bb1565b604051908082528060200260200182016040528015611c3857816020015b611c2560405180606001604052805f81526020015f81526020015f6001600160a01b031681525090565b815260200190600190039081611bfb5790505b5091505f5f611c4686611737565b90925090505f5b83811015611c9f57611c7a87878381518110611c6b57611c6b612f80565b602002602001015184866123f8565b858281518110611c8c57611c8c612f80565b6020908102919091010152600101611c4d565b5050505092915050565b5f5b8151811015611f5c576001600160a01b0384165f90815260066020526040812083518290859085908110611ce157611ce1612f80565b60200260200101516020015181526020019081526020015f205490505f81848481518110611d1157611d11612f80565b60200260200101515f0151611d269190612fd6565b90508015611f5257838381518110611d4057611d40612f80565b60200260200101515f01515f14611e1357611d77848481518110611d6657611d66612f80565b602002602001015160200151610885565b604051611d8491906130f1565b6040518091039020848481518110611d9e57611d9e612f80565b6020026020010151604001516001600160a01b0316876001600160a01b03167f9ac9a44091881640a73610df0bdc77ce7a7c33784685a2902e0140b6b9652f0d878781518110611df057611df0612f80565b60200260200101515f0151604051611e0a91815260200190565b60405180910390a45b6001600160a01b0386165f90815260066020526040812085518290879087908110611e4057611e40612f80565b60200260200101516020015181526020019081526020015f2081905550611e85848481518110611e7257611e72612f80565b602002602001015160400151868361246e565b838381518110611e9757611e97612f80565b6020026020010151604001516001600160a01b0316856001600160a01b0316876001600160a01b03167f7c791aa670e586419eeb53ce75c06cfaf3c657e90935bd3aae64380872f849fa878781518110611ef357611ef3612f80565b6020026020010151602001518b86604051611f2a939291909283526001600160a01b03919091166020830152604082015260600190565b60405180910390a480848481518110611f4557611f45612f80565b6020908102919091010151525b5050600101611cab565b5050505050565b5f8151602a14611f8657604051636fa478cf60e11b815260040160405180910390fd5b60025b602a81101561161e575f5f611fbd858481518110611fa957611fa9612f80565b01602001516001600160f81b031916612482565b9150915081611fdf57604051636fa478cf60e11b815260040160405180910390fd5b60ff8116611fee8560106131f5565b611ff89190613226565b93505050600101611f89565b604080516001600160a01b038416602482015260448082018490528251808303909101815260649091019091526020810180516001600160e01b031663a9059cbb60e01b17905261102e908490612512565b5f6108a9825490565b5f610a888383612573565b5f61207785858486612599565b90508015611f5c576001600160a01b0384165f9081526006602090815260408083208884529091528120546120ad908390612fd6565b6001600160a01b0386165f9081526006602090815260408083208a8452909152902081905590506120dd86610885565b6040516120ea91906130f1565b604080519182900382205f898152600560209081529290206001015484845290926001600160a01b0391821692918916917f9ac9a44091881640a73610df0bdc77ce7a7c33784685a2902e0140b6b9652f0d910160405180910390a4505050505050565b5f8181526001830160205260408120541515610a88565b60208101516001600160a01b03166121905760405163dfde867160e01b815260040160405180910390fd5b61219b60028361265f565b6121b8576040516383528a7f60e01b815260040160405180910390fd5b6020818101515f84815260059092526040918290206001810180546001600160a01b0319166001600160a01b0390931692909217909155606083015160029091018054838501516001600160681b03166001600160b81b0319909116600160901b64ffffffffff948516026001600160901b0319161717600160681b429390931692909202919091179055815190517f0cf558cc2f9ccbbf831b6392a319e7892856e9324a757e9c3648ee9e5b88cb4f9161227291612a66565b60405180910390a15050565b60606108a98261228e6002612293565b611bc0565b60605f610a888361266a565b60606108a96001600160a01b038316601461188f565b5f8415806122c1575081155b806122cb57504284145b806122d65750828410155b156122e2575084611886565b5f8342116122f057426122f2565b835b90505f6122ff8683612f6d565b905061232061230e82896131a5565b61231a6024600a6130cc565b866126c3565b925061232c8884612fd6565b98975050505050505050565b5f8481526005602081815260408084206001600160a01b038816855260038101835290842054888552929091528054600290910154839161239c916001600160681b0381169064ffffffffff600160681b8204811691600160901b900416886122b5565b9050611090858284612780565b5f80546001600160a01b038381166001600160a01b0319831681178455604051919092169283917f8be0079c531659141344cd1fd0a4f28419497f9722a3daafe3b4186f6b6457e09190a35050565b61242260405180606001604052805f81526020015f81526020015f6001600160a01b031681525090565b5f61242f85878587612599565b6040805160608101825291825260208083018890525f9788526005905295869020600101546001600160a01b0316958101959095525092949350505050565b61102e6001600160a01b0384168383612004565b5f8060f883901c602f8111801561249c5750603a8160ff16105b156124b157600194602f199091019350915050565b8060ff1660401080156124c7575060478160ff16105b156124dc576001946036199091019350915050565b8060ff1660601080156124f2575060678160ff16105b15612507576001946056199091019350915050565b505f93849350915050565b5f6125266001600160a01b038416836127a0565b905080515f1415801561254a5750808060200190518101906125489190613245565b155b1561102e57604051635274afe760e01b81526001600160a01b038416600482015260240161092f565b5f825f01828154811061258857612588612f80565b905f5260205f200154905092915050565b5f8481526005602090815260408083206001600160a01b038716845260030190915281205481806125ca8886611624565b90508083146126545785156125e7576125e4868285612780565b91505b5f8881526005602090815260408083206001600160a01b038b1680855260039091019092529091208290557f06e13548f41cff17d181fb7a95d6935aaf6175b5a584469e25f3bf999103a5e561263c8a610885565b8360405161264b929190613184565b60405180910390a25b509695505050505050565b5f610a8883836127ad565b6060815f018054806020026020016040519081016040528092919081815260200182805480156126b757602002820191905f5260205f20905b8154815260200190600101908083116126a3575b50505050509050919050565b5f838302815f1985870982811083820303915050805f036126f7578382816126ed576126ed613264565b0492505050610a88565b80841161271557612715841561270e5760116127f9565b60126127f9565b5f848688095f868103871696879004966002600389028118808a02820302808a02820302808a02820302808a02820302808a02820302808a02909103029181900381900460010186841190950394909402919094039290920491909117919091029150509392505050565b5f611a008461278f8486612f6d565b61279b6024600a6130cc565b6126c3565b6060610a8883835f61280a565b5f8181526001830160205260408120546127f257508154600181810184555f8481526020808220909301849055845484825282860190935260409020919091556108a9565b505f6108a9565b634e487b715f52806020526024601cfd5b6060814710156128365760405163cf47918160e01b81524760048201526024810183905260440161092f565b5f5f856001600160a01b0316848660405161285191906130f1565b5f6040518083038185875af1925050503d805f811461288b576040519150601f19603f3d011682016040523d82523d5f602084013e612890565b606091505b50915091506128a08683836128aa565b9695505050505050565b6060826128bf576128ba82612906565b610a88565b81511580156128d657506001600160a01b0384163b155b156128ff57604051639996b31560e01b81526001600160a01b038516600482015260240161092f565b5080610a88565b8051156129165780518082602001fd5b60405163d6bda27560e01b815260040160405180910390fd5b80356001600160a01b03811681146112db575f5ffd5b80356001600160681b03811681146112db575f5ffd5b5f5f6040838503121561296c575f5ffd5b6129758361292f565b915061298360208401612945565b90509250929050565b5f5f83601f84011261299c575f5ffd5b5081356001600160401b038111156129b2575f5ffd5b6020830191508360208260051b85010111156129cc575f5ffd5b9250929050565b5f5f5f604084860312156129e5575f5ffd5b6129ee8461292f565b925060208401356001600160401b03811115612a08575f5ffd5b612a148682870161298c565b9497909650939450505050565b5f60208284031215612a31575f5ffd5b5035919050565b5f81518084528060208401602086015e5f602082860101526020601f19601f83011685010191505092915050565b602081525f610a886020830184612a38565b5f60208284031215612a88575f5ffd5b610a888261292f565b5f5f83601f840112612aa1575f5ffd5b5081356001600160401b03811115612ab7575f5ffd5b6020830191508360208285010111156129cc575f5ffd5b5f5f60208385031215612adf575f5ffd5b82356001600160401b03811115612af4575f5ffd5b612b0085828601612a91565b90969095509350505050565b5f5f5f60408486031215612b1e575f5ffd5b612b278461292f565b925060208401356001600160401b03811115612b41575f5ffd5b612a1486828701612a91565b602080825282518282018190525f918401906040840190835b81811015612ba657835180518452602080820151818601526040918201516001600160a01b03169185019190915290930192606090920191600101612b66565b509095945050505050565b634e487b7160e01b5f52604160045260245ffd5b604051608081016001600160401b0381118282101715612be757612be7612bb1565b60405290565b5f82601f830112612bfc575f5ffd5b81356001600160401b03811115612c1557612c15612bb1565b604051601f8201601f19908116603f011681016001600160401b0381118282101715612c4357612c43612bb1565b604052818152838201602001851015612c5a575f5ffd5b816020850160208301375f918101602001919091529392505050565b5f60208284031215612c86575f5ffd5b81356001600160401b03811115612c9b575f5ffd5b611a0084828501612bed565b5f5f5f5f5f5f60c08789031215612cbc575f5ffd5b612cc58761292f565b955060208701359450612cda6040880161292f565b959894975094956060810135955060808101359460a0909101359350915050565b803564ffffffffff811681146112db575f5ffd5b5f5f5f5f60608587031215612d22575f5ffd5b84356001600160401b03811115612d37575f5ffd5b612d4387828801612a91565b9095509350612d56905060208601612cfb565b9150612d6460408601612945565b905092959194509250565b5f60208284031215612d7f575f5ffd5b81356001600160401b03811115612d94575f5ffd5b820160808185031215612da5575f5ffd5b612dad612bc5565b81356001600160401b03811115612dc2575f5ffd5b612dce86828501612bed565b825250612ddd6020830161292f565b6020820152612dee60408301612945565b6040820152612dff60608301612cfb565b6060820152949350505050565b5f5f5f60408486031215612e1e575f5ffd5b83356001600160401b03811115612e33575f5ffd5b612e3f86828701612a91565b9094509250612e52905060208501612cfb565b90509250925092565b5f5f5f5f60608587031215612e6e575f5ffd5b612e778561292f565b9350612e856020860161292f565b925060408501356001600160401b03811115612e9f575f5ffd5b612eab8782880161298c565b95989497509550505050565b5f5f60408385031215612ec8575f5ffd5b612ed18361292f565b91506129836020840161292f565b5f602082016020835280845180835260408501915060408160051b8601019250602086015f5b82811015612f3657603f19878603018452612f21858351612a38565b94506020938401939190910190600101612f05565b50929695505050505050565b5f60208284031215612f52575f5ffd5b5051919050565b634e487b7160e01b5f52601160045260245ffd5b818103818111156108a9576108a9612f59565b634e487b7160e01b5f52603260045260245ffd5b5f5f8335601e19843603018112612fa9575f5ffd5b8301803591506001600160401b03821115612fc2575f5ffd5b6020019150368190038213156129cc575f5ffd5b808201808211156108a9576108a9612f59565b6001815b60018411156130245780850481111561300857613008612f59565b600184161561301657908102905b60019390931c928002612fed565b935093915050565b5f8261303a575060016108a9565b8161304657505f6108a9565b816001811461305c576002811461306657613082565b60019150506108a9565b60ff84111561307757613077612f59565b50506001821b6108a9565b5060208310610133831016604e8410600b84101617156130a5575081810a6108a9565b6130b15f198484612fe9565b805f19048211156130c4576130c4612f59565b029392505050565b5f610a8860ff84168361302c565b5f81518060208401855e5f93019283525090919050565b5f610a8882846130da565b8051602080830151919081101561161e575f1960209190910360031b1b16919050565b81835281816020850137505f828201602090810191909152601f909101601f19169091010190565b602081525f611a0060208301848661311f565b604081525f61316d60408301858761311f565b905064ffffffffff83166020830152949350505050565b604081525f6131966040830185612a38565b90508260208301529392505050565b80820281158282048414176108a9576108a9612f59565b5f816131ca576131ca612f59565b505f190190565b5f6131dc82856130da565b6001600160f81b03199390931683525050600101919050565b6001600160a01b0381811683821681810290921691818304811482151761321e5761321e612f59565b505092915050565b6001600160a01b0381811683821601908111156108a9576108a9612f59565b5f60208284031215613255575f5ffd5b81518015158114610a88575f5ffd5b634e487b7160e01b5f52601260045260245ffdfea26469706673582212207950843795d1ef913ffa402206644d0ef6577eaa20a83f04d536de94eebe1d4564736f6c634300081c0033a2646970667358221220d34a45a30be136f6f3593fc52859911b614bdbf2baefe0a4bb2e3e4d4b81ae4e64736f6c634300081c0033",
  "language": "Solidity",
  "compiler": "0.8.28+commit.7893614a"
}