{
  "address": "0xb59605f42A1c564aacc9387132Ad712295b21E55",
  "abi": [
    {
      "inputs": [
        {
          "internalType": "contract IInterestRateModelV2Factory",
          "name": "_irmConfigFactory",
          "type": "address"
        },
        {
          "internalType": "contract ISiloFactory",
          "name": "_siloFactory",
          "type": "address"
        },
        {
          "internalType": "address",
          "name": "_siloImpl",
          "type": "address"
        },
        {
          "internalType": "address",
          "name": "_shareProtectedCollateralTokenImpl",
          "type": "address"
        },
        {
          "internalType": "address",
          "name": "_shareDebtTokenImpl",
          "type": "address"
        }
      ],
      "stateMutability": "nonpayable",
      "type": "constructor"
    },
    {
      "inputs": [],
      "name": "IRM_CONFIG_FACTORY",
      "outputs": [
        {
          "internalType": "contract IInterestRateModelV2Factory",
          "name": "",
          "type": "address"
        }
      ],
      "stateMutability": "view",
      "type": "function"
    },
    {
      "inputs": [],
      "name": "SHARE_DEBT_TOKEN_IMPL",
      "outputs": [
        {
          "internalType": "address",
          "name": "",
          "type": "address"
        }
      ],
      "stateMutability": "view",
      "type": "function"
    },
    {
      "inputs": [],
      "name": "SHARE_PROTECTED_COLLATERAL_TOKEN_IMPL",
      "outputs": [
        {
          "internalType": "address",
          "name": "",
          "type": "address"
        }
      ],
      "stateMutability": "view",
      "type": "function"
    },
    {
      "inputs": [],
      "name": "SILO_FACTORY",
      "outputs": [
        {
          "internalType": "contract ISiloFactory",
          "name": "",
          "type": "address"
        }
      ],
      "stateMutability": "view",
      "type": "function"
    },
    {
      "inputs": [],
      "name": "SILO_IMPL",
      "outputs": [
        {
          "internalType": "address",
          "name": "",
          "type": "address"
        }
      ],
      "stateMutability": "view",
      "type": "function"
    },
    {
      "inputs": [
        {
          "components": [
            {
              "components": [
                {
                  "internalType": "address",
                  "name": "deployed",
                  "type": "address"
                },
                {
                  "internalType": "address",
                  "name": "factory",
                  "type": "address"
                },
                {
                  "internalType": "bytes",
                  "name": "txInput",
                  "type": "bytes"
                }
              ],
              "internalType": "struct ISiloDeployer.OracleCreationTxData",
              "name": "solvencyOracle0",
              "type": "tuple"
            },
            {
              "components": [
                {
                  "internalType": "address",
                  "name": "deployed",
                  "type": "address"
                },
                {
                  "internalType": "address",
                  "name": "factory",
                  "type": "address"
                },
                {
                  "internalType": "bytes",
                  "name": "txInput",
                  "type": "bytes"
                }
              ],
              "internalType": "struct ISiloDeployer.OracleCreationTxData",
              "name": "maxLtvOracle0",
              "type": "tuple"
            },
            {
              "components": [
                {
                  "internalType": "address",
                  "name": "deployed",
                  "type": "address"
                },
                {
                  "internalType": "address",
                  "name": "factory",
                  "type": "address"
                },
                {
                  "internalType": "bytes",
                  "name": "txInput",
                  "type": "bytes"
                }
              ],
              "internalType": "struct ISiloDeployer.OracleCreationTxData",
              "name": "solvencyOracle1",
              "type": "tuple"
            },
            {
              "components": [
                {
                  "internalType": "address",
                  "name": "deployed",
                  "type": "address"
                },
                {
                  "internalType": "address",
                  "name": "factory",
                  "type": "address"
                },
                {
                  "internalType": "bytes",
                  "name": "txInput",
                  "type": "bytes"
                }
              ],
              "internalType": "struct ISiloDeployer.OracleCreationTxData",
              "name": "maxLtvOracle1",
              "type": "tuple"
            }
          ],
          "internalType": "struct ISiloDeployer.Oracles",
          "name": "_oracles",
          "type": "tuple"
        },
        {
          "components": [
            {
              "internalType": "int256",
              "name": "uopt",
              "type": "int256"
            },
            {
              "internalType": "int256",
              "name": "ucrit",
              "type": "int256"
            },
            {
              "internalType": "int256",
              "name": "ulow",
              "type": "int256"
            },
            {
              "internalType": "int256",
              "name": "ki",
              "type": "int256"
            },
            {
              "internalType": "int256",
              "name": "kcrit",
              "type": "int256"
            },
            {
              "internalType": "int256",
              "name": "klow",
              "type": "int256"
            },
            {
              "internalType": "int256",
              "name": "klin",
              "type": "int256"
            },
            {
              "internalType": "int256",
              "name": "beta",
              "type": "int256"
            },
            {
              "internalType": "int112",
              "name": "ri",
              "type": "int112"
            },
            {
              "internalType": "int112",
              "name": "Tcrit",
              "type": "int112"
            }
          ],
          "internalType": "struct IInterestRateModelV2.Config",
          "name": "_irmConfigData0",
          "type": "tuple"
        },
        {
          "components": [
            {
              "internalType": "int256",
              "name": "uopt",
              "type": "int256"
            },
            {
              "internalType": "int256",
              "name": "ucrit",
              "type": "int256"
            },
            {
              "internalType": "int256",
              "name": "ulow",
              "type": "int256"
            },
            {
              "internalType": "int256",
              "name": "ki",
              "type": "int256"
            },
            {
              "internalType": "int256",
              "name": "kcrit",
              "type": "int256"
            },
            {
              "internalType": "int256",
              "name": "klow",
              "type": "int256"
            },
            {
              "internalType": "int256",
              "name": "klin",
              "type": "int256"
            },
            {
              "internalType": "int256",
              "name": "beta",
              "type": "int256"
            },
            {
              "internalType": "int112",
              "name": "ri",
              "type": "int112"
            },
            {
              "internalType": "int112",
              "name": "Tcrit",
              "type": "int112"
            }
          ],
          "internalType": "struct IInterestRateModelV2.Config",
          "name": "_irmConfigData1",
          "type": "tuple"
        },
        {
          "components": [
            {
              "internalType": "address",
              "name": "implementation",
              "type": "address"
            },
            {
              "internalType": "bytes",
              "name": "initializationData",
              "type": "bytes"
            }
          ],
          "internalType": "struct ISiloDeployer.ClonableHookReceiver",
          "name": "_clonableHookReceiver",
          "type": "tuple"
        },
        {
          "components": [
            {
              "internalType": "address",
              "name": "deployer",
              "type": "address"
            },
            {
              "internalType": "address",
              "name": "hookReceiver",
              "type": "address"
            },
            {
              "internalType": "uint256",
              "name": "deployerFee",
              "type": "uint256"
            },
            {
              "internalType": "uint256",
              "name": "daoFee",
              "type": "uint256"
            },
            {
              "internalType": "address",
              "name": "token0",
              "type": "address"
            },
            {
              "internalType": "address",
              "name": "solvencyOracle0",
              "type": "address"
            },
            {
              "internalType": "address",
              "name": "maxLtvOracle0",
              "type": "address"
            },
            {
              "internalType": "address",
              "name": "interestRateModel0",
              "type": "address"
            },
            {
              "internalType": "uint256",
              "name": "maxLtv0",
              "type": "uint256"
            },
            {
              "internalType": "uint256",
              "name": "lt0",
              "type": "uint256"
            },
            {
              "internalType": "uint256",
              "name": "liquidationTargetLtv0",
              "type": "uint256"
            },
            {
              "internalType": "uint256",
              "name": "liquidationFee0",
              "type": "uint256"
            },
            {
              "internalType": "uint256",
              "name": "flashloanFee0",
              "type": "uint256"
            },
            {
              "internalType": "bool",
              "name": "callBeforeQuote0",
              "type": "bool"
            },
            {
              "internalType": "address",
              "name": "token1",
              "type": "address"
            },
            {
              "internalType": "address",
              "name": "solvencyOracle1",
              "type": "address"
            },
            {
              "internalType": "address",
              "name": "maxLtvOracle1",
              "type": "address"
            },
            {
              "internalType": "address",
              "name": "interestRateModel1",
              "type": "address"
            },
            {
              "internalType": "uint256",
              "name": "maxLtv1",
              "type": "uint256"
            },
            {
              "internalType": "uint256",
              "name": "lt1",
              "type": "uint256"
            },
            {
              "internalType": "uint256",
              "name": "liquidationTargetLtv1",
              "type": "uint256"
            },
            {
              "internalType": "uint256",
              "name": "liquidationFee1",
              "type": "uint256"
            },
            {
              "internalType": "uint256",
              "name": "flashloanFee1",
              "type": "uint256"
            },
            {
              "internalType": "bool",
              "name": "callBeforeQuote1",
              "type": "bool"
            }
          ],
          "internalType": "struct ISiloConfig.InitData",
          "name": "_siloInitData",
          "type": "tuple"
        }
      ],
      "name": "deploy",
      "outputs": [
        {
          "internalType": "contract ISiloConfig",
          "name": "siloConfig",
          "type": "address"
        }
      ],
      "stateMutability": "nonpayable",
      "type": "function"
    },
    {
      "inputs": [
        {
          "internalType": "address",
          "name": "owner",
          "type": "address"
        }
      ],
      "name": "nonces",
      "outputs": [
        {
          "internalType": "uint256",
          "name": "",
          "type": "uint256"
        }
      ],
      "stateMutability": "view",
      "type": "function"
    },
    {
      "anonymous": false,
      "inputs": [
        {
          "indexed": false,
          "internalType": "contract ISiloConfig",
          "name": "siloConfig",
          "type": "address"
        }
      ],
      "name": "SiloCreated",
      "type": "event"
    },
    {
      "inputs": [],
      "name": "DaoMaxRangeExceeded",
      "type": "error"
    },
    {
      "inputs": [],
      "name": "DaoMinRangeExceeded",
      "type": "error"
    },
    {
      "inputs": [],
      "name": "EmptyToken0",
      "type": "error"
    },
    {
      "inputs": [],
      "name": "EmptyToken1",
      "type": "error"
    },
    {
      "inputs": [],
      "name": "FailedDeployment",
      "type": "error"
    },
    {
      "inputs": [
        {
          "internalType": "address",
          "name": "_factory",
          "type": "address"
        }
      ],
      "name": "FailedToCreateAnOracle",
      "type": "error"
    },
    {
      "inputs": [],
      "name": "HookReceiverMisconfigured",
      "type": "error"
    },
    {
      "inputs": [
        {
          "internalType": "uint256",
          "name": "balance",
          "type": "uint256"
        },
        {
          "internalType": "uint256",
          "name": "needed",
          "type": "uint256"
        }
      ],
      "name": "InsufficientBalance",
      "type": "error"
    },
    {
      "inputs": [
        {
          "internalType": "address",
          "name": "account",
          "type": "address"
        },
        {
          "internalType": "uint256",
          "name": "currentNonce",
          "type": "uint256"
        }
      ],
      "name": "InvalidAccountNonce",
      "type": "error"
    },
    {
      "inputs": [],
      "name": "InvalidCallBeforeQuote",
      "type": "error"
    },
    {
      "inputs": [],
      "name": "InvalidDeployer",
      "type": "error"
    },
    {
      "inputs": [],
      "name": "InvalidIrm",
      "type": "error"
    },
    {
      "inputs": [],
      "name": "InvalidLt",
      "type": "error"
    },
    {
      "inputs": [],
      "name": "InvalidMaxLtv",
      "type": "error"
    },
    {
      "inputs": [],
      "name": "InvalidQuoteToken",
      "type": "error"
    },
    {
      "inputs": [],
      "name": "LiquidationTargetLtvTooHigh",
      "type": "error"
    },
    {
      "inputs": [],
      "name": "MaxDeployerFeeExceeded",
      "type": "error"
    },
    {
      "inputs": [],
      "name": "MaxFlashloanFeeExceeded",
      "type": "error"
    },
    {
      "inputs": [],
      "name": "MaxLiquidationFeeExceeded",
      "type": "error"
    },
    {
      "inputs": [],
      "name": "MissingHookReceiver",
      "type": "error"
    },
    {
      "inputs": [],
      "name": "OracleMisconfiguration",
      "type": "error"
    },
    {
      "inputs": [],
      "name": "SameAsset",
      "type": "error"
    }
  ],
  "bytecode": "0x610120604052348015610010575f5ffd5b50604051614fe0380380614fe083398101604081905261002f9161006f565b6001600160a01b0394851660805292841660a05290831660c052821660e05216610100526100e0565b6001600160a01b038116811461006c575f5ffd5b50565b5f5f5f5f5f60a08688031215610083575f5ffd5b855161008e81610058565b602087015190955061009f81610058565b60408701519094506100b081610058565b60608701519093506100c181610058565b60808701519092506100d281610058565b809150509295509295909350565b60805160a05160c05160e05161010051614e1e6101c25f395f818160ee01528181610250015281816109de0152610a3801525f818161014b015281816102280152818161092a015261098401525f8181610172015281816102000152818161085a01526108b401525f818160c701528181610289015281816105cd0152818161064e015281816106cd0152818161074d015281816107cd0152818161087c015281816108d60152818161094c015281816109a601528181610a0001528181610a5a0152610a9f01525f818160830152818161033e01526103cf0152614e1e5ff3fe608060405234801561000f575f5ffd5b506004361061007a575f3560e01c80637ecebe00116100585780637ecebe0014610110578063c2bcfc5114610146578063db35c4031461016d578063e1329d5514610194575f5ffd5b806328cdfde01461007e5780635956617c146100c2578063654ec411146100e9575b5f5ffd5b6100a57f000000000000000000000000000000000000000000000000000000000000000081565b6040516001600160a01b0390911681526020015b60405180910390f35b6100a57f000000000000000000000000000000000000000000000000000000000000000081565b6100a57f000000000000000000000000000000000000000000000000000000000000000081565b61013861011e36600461185b565b6001600160a01b03165f9081526020819052604090205490565b6040519081526020016100b9565b6100a57f000000000000000000000000000000000000000000000000000000000000000081565b6100a57f000000000000000000000000000000000000000000000000000000000000000081565b6100a56101a236600461194d565b5f6101ae858584610330565b6101c0826101bb88611c2c565b61047e565b6101d6826101d1602086018661185b565b61053c565b6101df826105ac565b82516040516317f3a7e360e11b81526001600160a01b0380841660048301527f0000000000000000000000000000000000000000000000000000000000000000811660248301527f0000000000000000000000000000000000000000000000000000000000000000811660448301527f00000000000000000000000000000000000000000000000000000000000000008116606483015291821660848201523360a48201529192507f00000000000000000000000000000000000000000000000000000000000000001690632fe74fc69060c4015f604051808303815f87803b1580156102ca575f5ffd5b505af11580156102dc573d5f5f3e3d5ffd5b505050506102eb828285610b6a565b6040516001600160a01b03821681527f520b4351811464729581037d20341082d8883f518612cfb0d3c2f75c12b0c29d9060200160405180910390a195945050505050565b5f610339610bfb565b90505f7f00000000000000000000000000000000000000000000000000000000000000006001600160a01b0316639e684d8586846040518363ffffffff1660e01b815260040161038a929190611cfd565b60408051808303815f875af11580156103a5573d5f5f3e3d5ffd5b505050506040513d601f19601f820116820180604052508101906103c99190611d96565b9150505f7f00000000000000000000000000000000000000000000000000000000000000006001600160a01b0316639e684d8586856040518363ffffffff1660e01b815260040161041b929190611cfd565b60408051808303815f875af1158015610436573d5f5f3e3d5ffd5b505050506040513d601f19601f8201168201806040525081019061045a9190611d96565b6001600160a01b0393841660e0870152909216610220909401939093525050505050565b60a08201516001600160a01b03166104aa57805161049b90610c55565b6001600160a01b031660a08301525b60c08201516001600160a01b03166104d8576104c98160200151610c55565b6001600160a01b031660c08301525b6101e08201516001600160a01b0316610508576104f88160400151610c55565b6001600160a01b03166101e08301525b6102008201516001600160a01b0316610538576105288160600151610c55565b6001600160a01b03166102008301525b5050565b6001600160a01b038116158061055d575060208201516001600160a01b0316155b61057a576040516332c5e96160e01b815260040160405180910390fd5b6001600160a01b038116156105385761059a81610595610bfb565b610d46565b6001600160a01b031660208301525050565b60405163216dd0d160e11b81523360048201525f9081906001600160a01b037f000000000000000000000000000000000000000000000000000000000000000016906342dba1a290602401602060405180830381865afa158015610612573d5f5f3e3d5ffd5b505050506040513d601f19601f820116820180604052508101906106369190611dc4565b905061064061179c565b61064861179c565b610850857f00000000000000000000000000000000000000000000000000000000000000006001600160a01b031663e20d71706040518163ffffffff1660e01b81526004016040805180830381865afa1580156106a7573d5f5f3e3d5ffd5b505050506040513d601f19601f820116820180604052508101906106cb9190611df1565b7f00000000000000000000000000000000000000000000000000000000000000006001600160a01b031663a4c3e2726040518163ffffffff1660e01b8152600401602060405180830381865afa158015610727573d5f5f3e3d5ffd5b505050506040513d601f19601f8201168201806040525081019061074b9190611dc4565b7f00000000000000000000000000000000000000000000000000000000000000006001600160a01b03166363fcc73f6040518163ffffffff1660e01b8152600401602060405180830381865afa1580156107a7573d5f5f3e3d5ffd5b505050506040513d601f19601f820116820180604052508101906107cb9190611dc4565b7f00000000000000000000000000000000000000000000000000000000000000006001600160a01b031663eeb016f26040518163ffffffff1660e01b8152600401602060405180830381865afa158015610827573d5f5f3e3d5ffd5b505050506040513d601f19601f8201168201806040525081019061084b9190611dc4565b610d5b565b90925090506108a17f0000000000000000000000000000000000000000000000000000000000000000847f000000000000000000000000000000000000000000000000000000000000000033610f18565b6001600160a01b031660408301526108fb7f0000000000000000000000000000000000000000000000000000000000000000847f000000000000000000000000000000000000000000000000000000000000000033610f82565b6001600160a01b039081166040808401918252840151821660a0808601919091529051909116908201526109717f0000000000000000000000000000000000000000000000000000000000000000847f000000000000000000000000000000000000000000000000000000000000000033610f91565b6001600160a01b031660808301526109cb7f0000000000000000000000000000000000000000000000000000000000000000847f000000000000000000000000000000000000000000000000000000000000000033610fa0565b6001600160a01b03166080820152610a257f0000000000000000000000000000000000000000000000000000000000000000847f000000000000000000000000000000000000000000000000000000000000000033610faf565b6001600160a01b031660c0830152610a7f7f0000000000000000000000000000000000000000000000000000000000000000847f000000000000000000000000000000000000000000000000000000000000000033610fbe565b8160c001906001600160a01b031690816001600160a01b0316815250505f7f00000000000000000000000000000000000000000000000000000000000000006001600160a01b03166349f33f2e6040518163ffffffff1660e01b8152600401602060405180830381865afa158015610af9573d5f5f3e3d5ffd5b505050506040513d601f19601f82011682018060405250810190610b1d9190611dc4565b9050610b27610bfb565b818484604051610b3690611827565b610b4293929190611fa3565b8190604051809103905ff5905080158015610b5f573d5f5f3e3d5ffd5b509695505050505050565b5f610b78602083018361185b565b6001600160a01b031614610bf65782602001516001600160a01b031663d1f5789483838060200190610baa9190611fce565b6040518463ffffffff1660e01b8152600401610bc893929190612017565b5f604051808303815f87803b158015610bdf575f5ffd5b505af1158015610bf1573d5f5f3e3d5ffd5b505050505b505050565b335f81815260208190526040812080546001810190915590919060405160609290921b6bffffffffffffffffffffffff19166020830152603482015260540160405160208183030381529060405280519060200120905090565b80515f906001600160a01b031615610c6c57505190565b60208201516001600160a01b038116610c8757505f92915050565b610c948360400151610fcd565b5f5f826001600160a01b03168560400151604051610cb29190612056565b5f604051808303815f865af19150503d805f8114610ceb576040519150601f19603f3d011682016040523d82523d5f602084013e610cf0565b606091505b5091509150818015610d03575080516020145b8390610d3357604051630557304160e31b81526001600160a01b0390911660048201526024015b60405180910390fd5b50610d3d8161206c565b95945050505050565b5f610d5283835f610fe2565b90505b92915050565b610d6361179c565b610d6b61179c565b610d78878787878761107a565b5060208701516001600160a01b039081166101e084015260808801518116606084015260a0880151811660e084015260c08801511615610dbc578660c00151610dc2565b8660a001515b6001600160a01b039081166101008085019190915260e0808a0151831661012080870191909152918a015161014080870191909152918a015161016080870191909152918a01516101808087019190915260408b01516020808801919091526060808d01518852938c01516101a080890191909152918c01516101c080890191909152918c0151151561020080890191909152908c015185166101e080880191909152918c01518516938601939093528a01518316908401528801511615610e8f57866102000151610e96565b866101e001515b6001600160a01b039081166101008301526102208801511661012082015261024087015161014082015261026087015161016082015261028087015161018082015260408701516020820152606087015181526102a08701516101a08201526102c08701516101c08201526102e0909601511515610200870152959350505050565b5f610d3d85610f278685611544565b604051603881018790526f5af43d82803e903d91602b57fd5bf3ff60248201526014810192909252733d602d80600a3d3981f3363d3d373d3d3d363d73825260588201526037600c8201206078820152605560439091012090565b5f610d3d85610f278685611598565b5f610d3d85610f2786856115ce565b5f610d3d85610f278685611604565b5f610d3d85610f27868561163a565b5f610d3d85610f278685611670565b5f610fd6610bfb565b82519092019190915250565b5f8147101561100d5760405163cf47918160e01b815247600482015260248101839052604401610d2a565b6e5af43d82803e903d91602b57fd5bf360205283601152763d602d80600a3d3981f3363d3d373d3d3d363d730000008460881c175f52826037600984f590506001600160a01b0381166110735760405163b06ebf3d60e01b815260040160405180910390fd5b9392505050565b60208501515f906001600160a01b03166110a75760405163d83793a160e01b815260040160405180910390fd5b60808601516001600160a01b03166110d257604051636bb1aa5360e11b815260040160405180910390fd5b6101c08601516001600160a01b03166110fe57604051634eaf414f60e11b815260040160405180910390fd5b856101c001516001600160a01b031686608001516001600160a01b0316036111395760405163534c524d60e11b815260040160405180910390fd5b610100860151151580611150575061024086015115155b61116d576040516375fcbb8960e01b815260040160405180910390fd5b8561012001518661010001511115611198576040516375fcbb8960e01b815260040160405180910390fd5b85610260015186610240015111156111c3576040516375fcbb8960e01b815260040160405180910390fd5b8186610160015111156111e95760405163f817842b60e01b815260040160405180910390fd5b81866102a00151111561120f5760405163f817842b60e01b815260040160405180910390fd5b670de0b6b3a764000086610160015187610120015161122e919061208f565b111561124d576040516313fd16a560e11b815260040160405180910390fd5b670de0b6b3a7640000866102a0015187610260015161126c919061208f565b111561128b576040516313fd16a560e11b815260040160405180910390fd5b60c08601516001600160a01b031615806112b1575060a08601516001600160a01b031615155b6112ce5760405163952268d360e01b815260040160405180910390fd5b856101a0015115806112ec575060a08601516001600160a01b031615155b611309576040516349cc353360e01b815260040160405180910390fd5b6102008601516001600160a01b0316158061133157506101e08601516001600160a01b031615155b61134e5760405163952268d360e01b815260040160405180910390fd5b856102e00151158061136d57506101e08601516001600160a01b031615155b61138a576040516349cc353360e01b815260040160405180910390fd5b611393866116a6565b604086015115806113ad575085516001600160a01b031615155b6113ca5760405163043c669f60e01b815260040160405180910390fd5b83866040015111156113ef57604051632b01a30160e01b815260040160405180910390fd5b606086015185516001600160801b0316111561141e5760405163722a3f8560e01b815260040160405180910390fd5b84602001516001600160801b03168660600151111561145057604051636adeb10960e11b815260040160405180910390fd5b8286610180015111156114765760405163923f853d60e01b815260040160405180910390fd5b82866102c00151111561149c5760405163923f853d60e01b815260040160405180910390fd5b85610120015186610140015111156114c75760405163250a504d60e11b815260040160405180910390fd5b85610260015186610280015111156114f25760405163250a504d60e11b815260040160405180910390fd5b60e08601516001600160a01b03161580159061151b57506102208601516001600160a01b031615155b61153857604051632e4e395f60e01b815260040160405180910390fd5b50600195945050505050565b5f82827f1d056e62b182fd7d4dada6cf9079a3ba83adb009746718f4f8751cbe6b93da6160405160200161157a939291906120ae565b60405160208183030381529060405280519060200120905092915050565b5f82827fccf028ea8322db4ac7e226915bfb048583cd927e584ca9a1865904fbc439f66360405160200161157a939291906120ae565b5f82827f4245b46a55891445529f9a01161a9f64cdec348f693a26b07e5f0aa22b486b7d60405160200161157a939291906120ae565b5f82827f700bad9da2e1385ef7139f09887b5c24cdbc6e2d1b8562842d95da2e68c340cd60405160200161157a939291906120ae565b5f82827fbe4a9bb64c254c9ac164216a73a2afa86df28fb3a0204a98a311293dcd5f35fc60405160200161157a939291906120ae565b5f82827ff36c517579d731f207a45998256dee21125b3bb93f46a3a5d2a4caff5251ca7460405160200161157a939291906120ae565b5f6116b5818360a001516116e3565b90506116c5818360c001516116e3565b90506116d681836101e001516116e3565b9050610bf6818361020001515b5f6001600160a01b0382166116f9575081610d55565b816001600160a01b031663217a4b706040518163ffffffff1660e01b8152600401602060405180830381865afa158015611735573d5f5f3e3d5ffd5b505050506040513d601f19601f8201168201806040525081019061175991906120d6565b90506001600160a01b03831615610d5557806001600160a01b0316836001600160a01b031614610d55576040516368ada7f160e11b815260040160405180910390fd5b60408051610220810182525f80825260208201819052918101829052606081018290526080810182905260a0810182905260c0810182905260e08101829052610100810182905261012081018290526101408101829052610160810182905261018081018290526101a081018290526101c081018290526101e0810182905261020081019190915290565b612cf7806120f283390190565b6001600160a01b0381168114611848575f5ffd5b50565b803561185681611834565b919050565b5f6020828403121561186b575f5ffd5b813561107381611834565b5f6101408284031215611887575f5ffd5b50919050565b634e487b7160e01b5f52604160045260245ffd5b60405161030081016001600160401b03811182821017156118c4576118c461188d565b60405290565b604051606081016001600160401b03811182821017156118c4576118c461188d565b604051608081016001600160401b03811182821017156118c4576118c461188d565b604051601f8201601f191681016001600160401b03811182821017156119365761193661188d565b604052919050565b80358015158114611856575f5ffd5b5f5f5f5f5f8587036105c0811215611963575f5ffd5b86356001600160401b03811115611978575f5ffd5b87016080818a031215611989575f5ffd5b95506119988860208901611876565b94506119a8886101608901611876565b93506102a08701356001600160401b038111156119c3575f5ffd5b87016040818a0312156119d4575f5ffd5b92506103006102bf19820112156119e9575f5ffd5b506119f26118a1565b6119ff6102c0880161184b565b8152611a0e6102e0880161184b565b602082015261030087013560408201526103208701356060820152611a36610340880161184b565b6080820152611a48610360880161184b565b60a0820152611a5a610380880161184b565b60c0820152611a6c6103a0880161184b565b60e08201526103c08701356101008201526103e0870135610120820152610400870135610140820152610420870135610160820152610440870135610180820152611aba610460880161193e565b6101a0820152611acd610480880161184b565b6101c0820152611ae06104a0880161184b565b6101e0820152611af36104c0880161184b565b610200820152611b066104e0880161184b565b6102208201526105008701356102408201526105208701356102608201526105408701356102808201526105608701356102a08201526105808701356102c0820152611b556105a0880161193e565b6102e0820152809150509295509295909350565b5f60608284031215611b79575f5ffd5b611b816118ca565b90508135611b8e81611834565b81526020820135611b9e81611834565b602082015260408201356001600160401b03811115611bbb575f5ffd5b8201601f81018413611bcb575f5ffd5b80356001600160401b03811115611be457611be461188d565b611bf7601f8201601f191660200161190e565b818152856020838501011115611c0b575f5ffd5b816020840160208301375f6020838301015280604085015250505092915050565b5f60808236031215611c3c575f5ffd5b611c446118ec565b82356001600160401b03811115611c59575f5ffd5b611c6536828601611b69565b82525060208301356001600160401b03811115611c80575f5ffd5b611c8c36828601611b69565b60208301525060408301356001600160401b03811115611caa575f5ffd5b611cb636828601611b69565b60408301525060608301356001600160401b03811115611cd4575f5ffd5b611ce036828601611b69565b60608301525092915050565b8035600d81900b8114611856575f5ffd5b823581526020808401359082015260408084013590820152606080840135908201526080808401359082015260a0808401359082015260c0808401359082015260e080840135908201526101608101611d596101008501611cec565b611d69610100840182600d0b9052565b50611d776101208501611cec565b611d87610120840182600d0b9052565b50826101408301529392505050565b5f5f60408385031215611da7575f5ffd5b825191506020830151611db981611834565b809150509250929050565b5f60208284031215611dd4575f5ffd5b5051919050565b80516001600160801b0381168114611856575f5ffd5b5f6040828403128015611e02575f5ffd5b50604080519081016001600160401b0381118282101715611e2557611e2561188d565b604052611e3183611ddb565b8152611e3f60208401611ddb565b60208201529392505050565b80518252602081015160208301526040810151611e7360408401826001600160a01b03169052565b506060810151611e8e60608401826001600160a01b03169052565b506080810151611ea960808401826001600160a01b03169052565b5060a0810151611ec460a08401826001600160a01b03169052565b5060c0810151611edf60c08401826001600160a01b03169052565b5060e0810151611efa60e08401826001600160a01b03169052565b50610100810151611f176101008401826001600160a01b03169052565b50610120810151611f346101208401826001600160a01b03169052565b506101408101516101408301526101608101516101608301526101808101516101808301526101a08101516101a08301526101c08101516101c08301526101e0810151611f8d6101e08401826001600160a01b03169052565b50610200810151610bf661020084018215159052565b8381526104608101611fb86020830185611e4b565b611fc6610240830184611e4b565b949350505050565b5f5f8335601e19843603018112611fe3575f5ffd5b8301803591506001600160401b03821115611ffc575f5ffd5b602001915036819003821315612010575f5ffd5b9250929050565b6001600160a01b03841681526040602082018190528101829052818360608301375f818301606090810191909152601f909201601f1916010192915050565b5f82518060208501845e5f920191825250919050565b80516020808301519190811015611887575f1960209190910360031b1b16919050565b80820180821115610d5557634e487b7160e01b5f52601160045260245ffd5b92835260609190911b6bffffffffffffffffffffffff19166020830152603482015260540190565b5f602082840312156120e6575f5ffd5b81516110738161183456fe610480604052348015610010575f5ffd5b50604051612cf7380380612cf783398101604081905261002f916104c5565b608083905260208201518251670de0b6b3a76400009161004e91610502565b1061006c5760405163cd4e616760e01b815260040160405180910390fd5b815f015160a08181525050816020015160c08181525050816101e001516001600160a01b031660e0816001600160a01b03168152505081604001516001600160a01b0316610100816001600160a01b03168152505081606001516001600160a01b0316610120816001600160a01b03168152505081608001516001600160a01b0316610140816001600160a01b03168152505081604001516001600160a01b0316610160816001600160a01b0316815250508160c001516001600160a01b0316610180816001600160a01b0316815250508160e001516001600160a01b03166101a0816001600160a01b0316815250508161010001516001600160a01b03166101c0816001600160a01b0316815250508161012001516001600160a01b03166101e0816001600160a01b031681525050816101400151610200818152505081610160015161022081815250508161018001516102408181525050816101a001516102608181525050816101c00151610280818152505081610200015115156102a08115158152505080604001516001600160a01b03166102c0816001600160a01b03168152505080606001516001600160a01b03166102e0816001600160a01b03168152505080608001516001600160a01b0316610300816001600160a01b03168152505080604001516001600160a01b0316610320816001600160a01b0316815250508060c001516001600160a01b0316610340816001600160a01b0316815250508060e001516001600160a01b0316610360816001600160a01b0316815250508061010001516001600160a01b0316610380816001600160a01b0316815250508061012001516001600160a01b03166103a0816001600160a01b0316815250508061014001516103c081815250508061016001516103e081815250508061018001516104008181525050806101a001516104208181525050806101c001516104408181525050806102000151151561046081151581525050505050610527565b60405161022081016001600160401b038111828210171561037d57634e487b7160e01b5f52604160045260245ffd5b60405290565b80516001600160a01b0381168114610399575f5ffd5b919050565b80518015158114610399575f5ffd5b5f61022082840312156103be575f5ffd5b6103c661034e565b825181526020808401519082015290506103e260408301610383565b60408201526103f360608301610383565b606082015261040460808301610383565b608082015261041560a08301610383565b60a082015261042660c08301610383565b60c082015261043760e08301610383565b60e08201526104496101008301610383565b61010082015261045c6101208301610383565b6101208201526101408281015190820152610160808301519082015261018080830151908201526101a080830151908201526101c080830151908201526104a66101e08301610383565b6101e08201526104b9610200830161039e565b61020082015292915050565b5f5f5f61046084860312156104d8575f5ffd5b835192506104e985602086016103ad565b91506104f98561024086016103ad565b90509250925092565b8082018082111561052157634e487b7160e01b5f52601160045260245ffd5b92915050565b60805160a05160c05160e05161010051610120516101405161016051610180516101a0516101c0516101e05161020051610220516102405161026051610280516102a0516102c0516102e05161030051610320516103405161036051610380516103a0516103c0516103e051610400516104205161044051610460516123ad61094a5f395f611f8c01525f81816112800152611f3701525f611f1101525f611eeb01525f611ec501525f611e9f01525f818161079e0152818161101b0152818161174e0152611e7001525f611e4101525f611e1201525f818161042f015281816105d901528181610a0e01528181610b8b01528181610dea015281816119920152611de301525f8181610b6801528181610d35015281816116a4015281816118be0152611db401525f8181610b4501528181610ced015281816116d3015281816119280152611d8501525f818161057c01528181610a3001528181610d0e01528181610d58015281816112a3015281816116750152611d5601525f818161038f0152818161045f015281816105420152818161064b01528181610764015281816108b1015281816108d7015281816109d401528181610b0b01528181610c9b01528181610e5c0152818161108f0152818161124601528181611315015281816113b001528181611602015281816116460152818161181f01528181611d270152611ff201525f611c9c01525f81816111fd0152611c4701525f611c2101525f611bfb01525f611bd501525f611baf01525f818161073e01528181610f3b015281816115ce0152611b8001525f611b5101525f611b2201525f818161049b015281816105ac0152818161098b01528181610ae501528181610db801528181610e350152818161195d0152611af301525f8181610ac201528181610c4f01528181611524015281816118890152611ac401525f8181610a9f01528181610c0801528181611553015281816118f30152611a9501525f818161051c015281816109ad01528181610c2901528181610c7001528181611220015281816114f50152611a6601525f818161036e015281816103f3015281816104e2015281816106710152818161070401528181610877015281816109110152818161095101528181610a6501528181610bb601528181610e8201528181610faf015281816111d1015281816112d4015281816113630152818161138a01528181611482015281816114c6015281816117eb01528181611a370152611fc001525f818161185401528181611c6d0152611f5d01525f818161080301528181610f8901528181611069015281816111a6015281816115a80152818161172801528181611a110152611d0101525f81816107dd01528181610f6301528181611043015281816111850152818161158201528181611702015281816119eb0152611cdb01525f6101ce01526123ad5ff3fe608060405234801561000f575f5ffd5b506004361061013d575f3560e01c806362402b04116100b4578063a135e0a011610079578063a135e0a014610308578063a5abc68a14610344578063aecc90cb1461036c578063d2c725e0146103b3578063e48a5f7b146103bd578063f6f8174f146103dd575f5ffd5b806362402b04146102ca57806372db6559146102d25780637d16b1f5146102e557806394c0527d146102ed5780639dd4133014610300575f5ffd5b8063255d70c811610105578063255d70c8146101fe5780632e6da205146102135780633c3eac121461023457806340c755e114610267578063483b24f01461027a5780634b82d63d146102b7575f5ffd5b8063038c0a5e1461014157806307439b49146101695780630b1d67c6146101945780631544a6db146101a7578063189e17e4146101c9575b5f5ffd5b61015461014f3660046120d2565b6103f0565b60405190151581526020015b60405180910390f35b61017c610177366004612103565b6104df565b6040516001600160a01b039091168152602001610160565b61017c6101a2366004612103565b6105a5565b6101ba6101b53660046120d2565b610699565b60405161016093929190612274565b6101f07f000000000000000000000000000000000000000000000000000000000000000081565b604051908152602001610160565b61021161020c366004612103565b610701565b005b610226610221366004612103565b610864565b6040516101609291906122e8565b610247610242366004612103565b61094d565b604080516001600160a01b03938416815292909116602083015201610160565b610154610275366004612103565b610a55565b61028d610288366004612103565b610a60565b604080516001600160a01b0394851681529284166020840152921691810191909152606001610160565b6102476102c5366004612305565b610bb2565b610211610d7f565b6102116102e03660046120d2565b610dad565b610211610f24565b6102266102fb366004612103565b6110ea565b610211611151565b61031b610316366004612103565b611183565b604080519485526020850193909352918301526001600160a01b03166060820152608001610160565b61017c610352366004612103565b5f602081905290815260409020546001600160a01b031681565b7f00000000000000000000000000000000000000000000000000000000000000007f0000000000000000000000000000000000000000000000000000000000000000610247565b60015f5c14610154565b6103d06103cb366004612103565b6112ca565b604051610160919061233d565b6101546103eb366004612103565b611354565b5f7f00000000000000000000000000000000000000000000000000000000000000006001600160a01b0316836001600160a01b03160361045d576104547f0000000000000000000000000000000000000000000000000000000000000000836113d6565b151590506104d9565b7f00000000000000000000000000000000000000000000000000000000000000006001600160a01b0316836001600160a01b0316036104c0576104547f0000000000000000000000000000000000000000000000000000000000000000836113d6565b6040516349d73a2760e01b815260040160405180910390fd5b92915050565b5f7f00000000000000000000000000000000000000000000000000000000000000006001600160a01b0316826001600160a01b03160361054057507f0000000000000000000000000000000000000000000000000000000000000000919050565b7f00000000000000000000000000000000000000000000000000000000000000006001600160a01b0316826001600160a01b0316036104c057507f0000000000000000000000000000000000000000000000000000000000000000919050565b919050565b5f5f6105d17f0000000000000000000000000000000000000000000000000000000000000000846113d6565b90505f6105fe7f0000000000000000000000000000000000000000000000000000000000000000856113d6565b905081158061060b575080155b6106285760405163fc6ba97d60e01b815260040160405180910390fd5b81158015610634575080155b1561064257505f9392505050565b815f0361066f577f0000000000000000000000000000000000000000000000000000000000000000610691565b7f00000000000000000000000000000000000000000000000000000000000000005b949350505050565b6040805160e0810182525f80825260208201819052918101829052606081018290526080810182905260a0810182905260c08101919091526106d9612031565b6106e1612031565b6106ea85611448565b92506106f5846110ea565b93969095509293505050565b5f7f00000000000000000000000000000000000000000000000000000000000000006001600160a01b0316826001600160a01b03160361076257507f00000000000000000000000000000000000000000000000000000000000000006107be565b7f00000000000000000000000000000000000000000000000000000000000000006001600160a01b0316826001600160a01b0316036104c057507f00000000000000000000000000000000000000000000000000000000000000005b604051631b88d98560e21b81526001600160a01b0382811660048301527f000000000000000000000000000000000000000000000000000000000000000060248301527f00000000000000000000000000000000000000000000000000000000000000006044830152831690636e236614906064015f604051808303815f87803b15801561084a575f5ffd5b505af115801561085c573d5f5f3e3d5ffd5b505050505050565b61086c612031565b610874612031565b5f7f00000000000000000000000000000000000000000000000000000000000000006001600160a01b0316846001600160a01b0316036108d557507f0000000000000000000000000000000000000000000000000000000000000000610931565b7f00000000000000000000000000000000000000000000000000000000000000006001600160a01b0316846001600160a01b0316036104c057507f00000000000000000000000000000000000000000000000000000000000000005b61093a816112ca565b9250610945846112ca565b915050915091565b5f5f7f00000000000000000000000000000000000000000000000000000000000000006001600160a01b0316836001600160a01b0316036109d257507f0000000000000000000000000000000000000000000000000000000000000000927f000000000000000000000000000000000000000000000000000000000000000092509050565b7f00000000000000000000000000000000000000000000000000000000000000006001600160a01b0316836001600160a01b0316036104c057507f0000000000000000000000000000000000000000000000000000000000000000927f000000000000000000000000000000000000000000000000000000000000000092509050565b5f6104d93383611780565b5f5f5f7f00000000000000000000000000000000000000000000000000000000000000006001600160a01b0316846001600160a01b031603610b0957507f000000000000000000000000000000000000000000000000000000000000000091507f000000000000000000000000000000000000000000000000000000000000000090507f0000000000000000000000000000000000000000000000000000000000000000610bab565b7f00000000000000000000000000000000000000000000000000000000000000006001600160a01b0316846001600160a01b0316036104c057507f000000000000000000000000000000000000000000000000000000000000000091507f000000000000000000000000000000000000000000000000000000000000000090507f00000000000000000000000000000000000000000000000000000000000000005b9193909250565b5f5f7f00000000000000000000000000000000000000000000000000000000000000006001600160a01b0316846001600160a01b031603610c99576001836001811115610c0157610c0161234c565b14610c4d577f00000000000000000000000000000000000000000000000000000000000000007f0000000000000000000000000000000000000000000000000000000000000000610c90565b7f00000000000000000000000000000000000000000000000000000000000000007f00000000000000000000000000000000000000000000000000000000000000005b91509150610d78565b7f00000000000000000000000000000000000000000000000000000000000000006001600160a01b0316846001600160a01b0316036104c0576001836001811115610ce657610ce661234c565b14610d32577f00000000000000000000000000000000000000000000000000000000000000007f0000000000000000000000000000000000000000000000000000000000000000610c90565b507f000000000000000000000000000000000000000000000000000000000000000090507f00000000000000000000000000000000000000000000000000000000000000005b9250929050565b610d876117e0565b5f5c610da65760405163f874d85960e01b815260040160405180910390fd5b5f80805d50565b336001600160a01b037f0000000000000000000000000000000000000000000000000000000000000000161480610e0c5750336001600160a01b037f000000000000000000000000000000000000000000000000000000000000000016145b610e29576040516336ed4fb960e01b815260040160405180910390fd5b5f336001600160a01b037f00000000000000000000000000000000000000000000000000000000000000001614610e80577f0000000000000000000000000000000000000000000000000000000000000000610ea2565b7f00000000000000000000000000000000000000000000000000000000000000005b9050610eae81836103f0565b15610ecc5760405163fc6ba97d60e01b815260040160405180910390fd5b6001600160a01b038281165f9081526020819052604090205416610f1f576001600160a01b038084165f90815260208190526040808220548584168352912080546001600160a01b031916919092161790555b505050565b604051631b88d98560e21b81526001600160a01b037f0000000000000000000000000000000000000000000000000000000000000000811660048301527f000000000000000000000000000000000000000000000000000000000000000060248301527f000000000000000000000000000000000000000000000000000000000000000060448301527f00000000000000000000000000000000000000000000000000000000000000001690636e236614906064015f604051808303815f87803b158015610ff0575f5ffd5b505af1158015611002573d5f5f3e3d5ffd5b5050604051631b88d98560e21b81526001600160a01b037f0000000000000000000000000000000000000000000000000000000000000000811660048301527f000000000000000000000000000000000000000000000000000000000000000060248301527f000000000000000000000000000000000000000000000000000000000000000060448301527f0000000000000000000000000000000000000000000000000000000000000000169250636e23661491506064015f604051808303815f87803b1580156110d2575f5ffd5b505af11580156110e4573d5f5f3e3d5ffd5b50505050565b6110f2612031565b6110fa612031565b5f611104846105a5565b90506001600160a01b03811661111a5750915091565b6001600160a01b038085165f908152602081905260409020541661113d816112ca565b9350611148826112ca565b92505050915091565b6111596117e0565b60015f5c0361117b5760405163e17fbf8960e01b815260040160405180910390fd5b6001805f5d50565b7f00000000000000000000000000000000000000000000000000000000000000007f00000000000000000000000000000000000000000000000000000000000000005f806001600160a01b037f000000000000000000000000000000000000000000000000000000000000000081169086160361124457507f000000000000000000000000000000000000000000000000000000000000000090507f00000000000000000000000000000000000000000000000000000000000000006112c3565b7f00000000000000000000000000000000000000000000000000000000000000006001600160a01b0316856001600160a01b0316036104c057507f000000000000000000000000000000000000000000000000000000000000000090507f00000000000000000000000000000000000000000000000000000000000000005b9193509193565b6112d2612031565b7f00000000000000000000000000000000000000000000000000000000000000006001600160a01b0316826001600160a01b031603611313576104d96119d5565b7f00000000000000000000000000000000000000000000000000000000000000006001600160a01b0316826001600160a01b0316036104c0576104d9611cc5565b5f6104d9336001600160a01b037f000000000000000000000000000000000000000000000000000000000000000016146113ae577f00000000000000000000000000000000000000000000000000000000000000006113d0565b7f00000000000000000000000000000000000000000000000000000000000000005b83611780565b6040516370a0823160e01b81526001600160a01b0382811660048301525f91908416906370a0823190602401602060405180830381865afa15801561141d573d5f5f3e3d5ffd5b505050506040513d601f19601f820116820180604052508101906114419190612360565b9392505050565b6040805160e0810182525f80825260208201819052918101829052606081018290526080810182905260a0810182905260c08101919091527f00000000000000000000000000000000000000000000000000000000000000006001600160a01b0316826001600160a01b031603611600576040518060e001604052807f00000000000000000000000000000000000000000000000000000000000000006001600160a01b031681526020017f00000000000000000000000000000000000000000000000000000000000000006001600160a01b031681526020017f00000000000000000000000000000000000000000000000000000000000000006001600160a01b031681526020017f00000000000000000000000000000000000000000000000000000000000000006001600160a01b031681526020017f000000000000000000000000000000000000000000000000000000000000000081526020017f000000000000000000000000000000000000000000000000000000000000000081526020017f00000000000000000000000000000000000000000000000000000000000000006001600160a01b03168152509050919050565b7f00000000000000000000000000000000000000000000000000000000000000006001600160a01b0316826001600160a01b0316036104c0576040518060e001604052807f00000000000000000000000000000000000000000000000000000000000000006001600160a01b031681526020017f00000000000000000000000000000000000000000000000000000000000000006001600160a01b031681526020017f00000000000000000000000000000000000000000000000000000000000000006001600160a01b031681526020017f00000000000000000000000000000000000000000000000000000000000000006001600160a01b031681526020017f000000000000000000000000000000000000000000000000000000000000000081526020017f000000000000000000000000000000000000000000000000000000000000000081526020017f00000000000000000000000000000000000000000000000000000000000000006001600160a01b03168152509050919050565b5f611789611fb5565b6001600160a01b038281165f908152602081905260409020548116908416146104d957506001600160a01b039081165f90815260208190526040902080546001600160a01b03191692909116919091179055600190565b336001600160a01b037f000000000000000000000000000000000000000000000000000000000000000016148015906118425750336001600160a01b037f00000000000000000000000000000000000000000000000000000000000000001614155b80156118775750336001600160a01b037f00000000000000000000000000000000000000000000000000000000000000001614155b80156118ac5750336001600160a01b037f00000000000000000000000000000000000000000000000000000000000000001614155b80156118e15750336001600160a01b037f00000000000000000000000000000000000000000000000000000000000000001614155b80156119165750336001600160a01b037f00000000000000000000000000000000000000000000000000000000000000001614155b801561194b5750336001600160a01b037f00000000000000000000000000000000000000000000000000000000000000001614155b80156119805750336001600160a01b037f00000000000000000000000000000000000000000000000000000000000000001614155b80156119b55750336001600160a01b037f00000000000000000000000000000000000000000000000000000000000000001614155b156119d35760405163329409fd60e01b815260040160405180910390fd5b565b6119dd612031565b6040518061022001604052807f000000000000000000000000000000000000000000000000000000000000000081526020017f000000000000000000000000000000000000000000000000000000000000000081526020017f00000000000000000000000000000000000000000000000000000000000000006001600160a01b031681526020017f00000000000000000000000000000000000000000000000000000000000000006001600160a01b031681526020017f00000000000000000000000000000000000000000000000000000000000000006001600160a01b031681526020017f00000000000000000000000000000000000000000000000000000000000000006001600160a01b031681526020017f00000000000000000000000000000000000000000000000000000000000000006001600160a01b031681526020017f00000000000000000000000000000000000000000000000000000000000000006001600160a01b031681526020017f00000000000000000000000000000000000000000000000000000000000000006001600160a01b031681526020017f00000000000000000000000000000000000000000000000000000000000000006001600160a01b031681526020017f000000000000000000000000000000000000000000000000000000000000000081526020017f000000000000000000000000000000000000000000000000000000000000000081526020017f000000000000000000000000000000000000000000000000000000000000000081526020017f000000000000000000000000000000000000000000000000000000000000000081526020017f000000000000000000000000000000000000000000000000000000000000000081526020017f00000000000000000000000000000000000000000000000000000000000000006001600160a01b031681526020017f00000000000000000000000000000000000000000000000000000000000000001515815250905090565b611ccd612031565b6040518061022001604052807f000000000000000000000000000000000000000000000000000000000000000081526020017f000000000000000000000000000000000000000000000000000000000000000081526020017f00000000000000000000000000000000000000000000000000000000000000006001600160a01b031681526020017f00000000000000000000000000000000000000000000000000000000000000006001600160a01b031681526020017f00000000000000000000000000000000000000000000000000000000000000006001600160a01b031681526020017f00000000000000000000000000000000000000000000000000000000000000006001600160a01b031681526020017f00000000000000000000000000000000000000000000000000000000000000006001600160a01b031681526020017f00000000000000000000000000000000000000000000000000000000000000006001600160a01b031681526020017f00000000000000000000000000000000000000000000000000000000000000006001600160a01b031681526020017f00000000000000000000000000000000000000000000000000000000000000006001600160a01b031681526020017f000000000000000000000000000000000000000000000000000000000000000081526020017f000000000000000000000000000000000000000000000000000000000000000081526020017f000000000000000000000000000000000000000000000000000000000000000081526020017f000000000000000000000000000000000000000000000000000000000000000081526020017f000000000000000000000000000000000000000000000000000000000000000081526020017f00000000000000000000000000000000000000000000000000000000000000006001600160a01b031681526020017f00000000000000000000000000000000000000000000000000000000000000001515815250905090565b336001600160a01b037f00000000000000000000000000000000000000000000000000000000000000001614806120145750336001600160a01b037f000000000000000000000000000000000000000000000000000000000000000016145b6119d3576040516310528c6d60e11b815260040160405180910390fd5b60408051610220810182525f80825260208201819052918101829052606081018290526080810182905260a0810182905260c0810182905260e08101829052610100810182905261012081018290526101408101829052610160810182905261018081018290526101a081018290526101c081018290526101e0810182905261020081019190915290565b80356001600160a01b03811681146105a0575f5ffd5b5f5f604083850312156120e3575f5ffd5b6120ec836120bc565b91506120fa602084016120bc565b90509250929050565b5f60208284031215612113575f5ffd5b611441826120bc565b8051825260208101516020830152604081015161214460408401826001600160a01b03169052565b50606081015161215f60608401826001600160a01b03169052565b50608081015161217a60808401826001600160a01b03169052565b5060a081015161219560a08401826001600160a01b03169052565b5060c08101516121b060c08401826001600160a01b03169052565b5060e08101516121cb60e08401826001600160a01b03169052565b506101008101516121e86101008401826001600160a01b03169052565b506101208101516122056101208401826001600160a01b03169052565b506101408101516101408301526101608101516101608301526101808101516101808301526101a08101516101a08301526101c08101516101c08301526101e081015161225e6101e08401826001600160a01b03169052565b50610200810151610f1f61020084018215159052565b83516001600160a01b0390811682526020808601518216908301526040808601518216908301526060808601518216908301526080808601519083015260a0858101519083015260c0808601519091169082015261052081016122da60e083018561211c565b61069161030083018461211c565b61044081016122f7828561211c565b61144161022083018461211c565b5f5f60408385031215612316575f5ffd5b61231f836120bc565b9150602083013560028110612332575f5ffd5b809150509250929050565b61022081016104d9828461211c565b634e487b7160e01b5f52602160045260245ffd5b5f60208284031215612370575f5ffd5b505191905056fea26469706673582212202a0ab2626d68c8e83183be61547ccbcc92e24b3d4c148dfc521d89b54695bf9464736f6c634300081c0033a2646970667358221220ff31eb0e1df1813290b7d3f1228bb59aab67c898dcc5c84e979d6c35b082a95764736f6c634300081c0033",
  "language": "Solidity",
  "compiler": "0.8.28+commit.7893614a"
}