{
  "address": "0x1E915d8950f0C6bf9d01C603D33c50b6110beDA3",
  "abi": [
    {
      "inputs": [
        {
          "internalType": "address",
          "name": "_pyth",
          "type": "address"
        }
      ],
      "stateMutability": "nonpayable",
      "type": "constructor"
    },
    {
      "inputs": [
        {
          "internalType": "bytes32",
          "name": "priceId",
          "type": "bytes32"
        }
      ],
      "name": "aggregators",
      "outputs": [
        {
          "internalType": "contract AggregatorV3Interface",
          "name": "aggregator",
          "type": "address"
        }
      ],
      "stateMutability": "view",
      "type": "function"
    },
    {
      "inputs": [
        {
          "internalType": "bytes32",
          "name": "_priceId",
          "type": "bytes32"
        },
        {
          "internalType": "bytes32",
          "name": "_externalSalt",
          "type": "bytes32"
        }
      ],
      "name": "deploy",
      "outputs": [
        {
          "internalType": "contract AggregatorV3Interface",
          "name": "newAggregator",
          "type": "address"
        }
      ],
      "stateMutability": "nonpayable",
      "type": "function"
    },
    {
      "inputs": [
        {
          "internalType": "address",
          "name": "owner",
          "type": "address"
        }
      ],
      "name": "nonces",
      "outputs": [
        {
          "internalType": "uint256",
          "name": "",
          "type": "uint256"
        }
      ],
      "stateMutability": "view",
      "type": "function"
    },
    {
      "inputs": [],
      "name": "pyth",
      "outputs": [
        {
          "internalType": "address",
          "name": "",
          "type": "address"
        }
      ],
      "stateMutability": "view",
      "type": "function"
    },
    {
      "anonymous": false,
      "inputs": [
        {
          "indexed": true,
          "internalType": "bytes32",
          "name": "priceId",
          "type": "bytes32"
        },
        {
          "indexed": true,
          "internalType": "contract AggregatorV3Interface",
          "name": "aggregator",
          "type": "address"
        }
      ],
      "name": "AggregatorDeployed",
      "type": "event"
    },
    {
      "inputs": [],
      "name": "AggregatorAlreadyExists",
      "type": "error"
    },
    {
      "inputs": [
        {
          "internalType": "address",
          "name": "account",
          "type": "address"
        },
        {
          "internalType": "uint256",
          "name": "currentNonce",
          "type": "uint256"
        }
      ],
      "name": "InvalidAccountNonce",
      "type": "error"
    }
  ],
  "bytecode": "0x60a0604052348015600e575f5ffd5b50604051610dc4380380610dc4833981016040819052602b91603b565b6001600160a01b03166080526066565b5f60208284031215604a575f5ffd5b81516001600160a01b0381168114605f575f5ffd5b9392505050565b608051610d406100845f395f818160e101526101920152610d405ff3fe608060405234801561000f575f5ffd5b506004361061004a575f3560e01c8063171223dd1461004e5780637103353e1461007e5780637ecebe00146100a6578063f98d06f0146100dc575b5f5ffd5b61006161005c366004610259565b610103565b6040516001600160a01b0390911681526020015b60405180910390f35b61006161008c366004610279565b60016020525f90815260409020546001600160a01b031681565b6100ce6100b4366004610290565b6001600160a01b03165f9081526020819052604090205490565b604051908152602001610075565b6100617f000000000000000000000000000000000000000000000000000000000000000081565b5f828152600160205260408120546001600160a01b0316156101385760405163a8bc506b60e01b815260040160405180910390fd5b335f8181526020818152604091829020805460018101909155825160609490941b6bffffffffffffffffffffffff1916848301526034840152605480840186905282518085039091018152607490930190915281519101207f0000000000000000000000000000000000000000000000000000000000000000846040516101be9061024c565b6001600160a01b03909216825260208201526040018190604051809103905ff59050801580156101f0573d5f5f3e3d5ffd5b505f8481526001602052604080822080546001600160a01b0319166001600160a01b03851690811790915590519293509185917fadad75616dd59ba6aed2f1597ec5746e08ba81ad2b357d68db3cba56b683bee491a392915050565b610a4d806102be83390190565b5f5f6040838503121561026a575f5ffd5b50508035926020909101359150565b5f60208284031215610289575f5ffd5b5035919050565b5f602082840312156102a0575f5ffd5b81356001600160a01b03811681146102b6575f5ffd5b939250505056fe6080604052348015600e575f5ffd5b50604051610a4d380380610a4d833981016040819052602b916051565b5f55600180546001600160a01b0319166001600160a01b03929092169190911790556086565b5f5f604083850312156061575f5ffd5b82516001600160a01b03811681146076575f5ffd5b6020939093015192949293505050565b6109ba806100935f395ff3fe6080604052600436106100bf575f3560e01c80638205bf6a1161007c578063b633620c11610057578063b633620c146101f5578063bc36c0a914610214578063f98d06f014610229578063feaf968c14610260575f5ffd5b80638205bf6a1461016c5780639a6fc8f514610180578063b5ab58dc146101d6575f5ffd5b806331189334146100c3578063313ce567146100ea57806350d25bcd1461011057806354fd4d5014610124578063668a0f02146101375780637284e4161461014b575b5f5ffd5b3480156100ce575f5ffd5b506100d75f5481565b6040519081526020015b60405180910390f35b3480156100f5575f5ffd5b506100fe610274565b60405160ff90911681526020016100e1565b34801561011b575f5ffd5b506100d7610300565b34801561012f575f5ffd5b5060016100d7565b348015610142575f5ffd5b506100d761037d565b348015610156575f5ffd5b5061015f61038b565b6040516100e19190610693565b348015610177575f5ffd5b506100d76103ab565b34801561018b575f5ffd5b5061019f61019a3660046106c8565b610428565b6040805169ffffffffffffffffffff968716815260208101959095528401929092526060830152909116608082015260a0016100e1565b3480156101e1575f5ffd5b506100d76101f03660046106f8565b6104c2565b348015610200575f5ffd5b506100d761020f3660046106f8565b6104d1565b61022761022236600461070f565b6104da565b005b348015610234575f5ffd5b50600154610248906001600160a01b031681565b6040516001600160a01b0390911681526020016100e1565b34801561026b575f5ffd5b5061019f6105f9565b6001545f80546040516396834ad360e01b81526004810191909152909182916001600160a01b03909116906396834ad390602401608060405180830381865afa1580156102c3573d5f5f3e3d5ffd5b505050506040513d601f19601f820116820180604052508101906102e791906107ad565b905080604001515f196102fa9190610839565b91505090565b6001545f80546040516396834ad360e01b81526004810191909152909182916001600160a01b03909116906396834ad390602401608060405180830381865afa15801561034f573d5f5f3e3d5ffd5b505050506040513d601f19601f8201168201806040525081019061037391906107ad565b5160070b92915050565b5f6103866103ab565b905090565b60606040518060600160405280603e8152602001610947603e9139905090565b6001545f80546040516396834ad360e01b81526004810191909152909182916001600160a01b03909116906396834ad390602401608060405180830381865afa1580156103fa573d5f5f3e3d5ffd5b505050506040513d601f19601f8201168201806040525081019061041e91906107ad565b6060015192915050565b6001545f80546040516396834ad360e01b815260048101919091529091829182918291829182916001600160a01b03909116906396834ad390602401608060405180830381865afa15801561047f573d5f5f3e3d5ffd5b505050506040513d601f19601f820116820180604052508101906104a391906107ad565b8051606090910151979860079190910b97965086955088945092505050565b5f6104cb610300565b92915050565b5f6104cb6103ab565b60015460405163d47eed4560e01b81525f916001600160a01b03169063d47eed459061050c9086908690600401610890565b602060405180830381865afa158015610527573d5f5f3e3d5ffd5b505050506040513d601f19601f8201168201806040525081019061054b919061092f565b600154604051631df3cbc560e31b81529192506001600160a01b03169063ef9e5e289083906105809087908790600401610890565b5f604051808303818588803b158015610597575f5ffd5b505af11580156105a9573d5f5f3e3d5ffd5b505060405133935047925090505f81818185875af1925050503d805f81146105ec576040519150601f19603f3d011682016040523d82523d5f602084013e6105f1565b606091505b505050505050565b6001545f80546040516396834ad360e01b815260048101919091529091829182918291829182916001600160a01b03909116906396834ad390602401608060405180830381865afa158015610650573d5f5f3e3d5ffd5b505050506040513d601f19601f8201168201806040525081019061067491906107ad565b60608101519051909760079190910b9650879550859450849350915050565b602081525f82518060208401528060208501604085015e5f604082850101526040601f19601f83011684010191505092915050565b5f602082840312156106d8575f5ffd5b813569ffffffffffffffffffff811681146106f1575f5ffd5b9392505050565b5f60208284031215610708575f5ffd5b5035919050565b5f5f60208385031215610720575f5ffd5b823567ffffffffffffffff811115610736575f5ffd5b8301601f81018513610746575f5ffd5b803567ffffffffffffffff81111561075c575f5ffd5b8560208260051b8401011115610770575f5ffd5b6020919091019590945092505050565b805167ffffffffffffffff81168114610797575f5ffd5b919050565b8051600381900b8114610797575f5ffd5b5f60808284031280156107be575f5ffd5b506040516080810167ffffffffffffffff811182821017156107ee57634e487b7160e01b5f52604160045260245ffd5b6040528251600781900b8114610802575f5ffd5b815261081060208401610780565b60208201526108216040840161079c565b60408201526060928301519281019290925250919050565b5f825f0b825f0b02805f0b915080821461086157634e487b7160e01b5f52601160045260245ffd5b5092915050565b81835281816020850137505f828201602090810191909152601f909101601f19169091010190565b602080825281018290525f6040600584901b830181019083018583601e1936839003015b8782101561092257868503603f1901845282358181126108d2575f5ffd5b890160208101903567ffffffffffffffff8111156108ee575f5ffd5b8036038213156108fc575f5ffd5b610907878284610868565b965050506020830192506020840193506001820191506108b4565b5092979650505050505050565b5f6020828403121561093f575f5ffd5b505191905056fe4120706f7274206f66206120636861696e6c696e6b2061676772656761746f7220706f77657265642062792070797468206e6574776f726b206665656473a26469706673582212204217e822e165e6fcf6f5ac859c94f64d4d067773c72c866a298739101357fb7f64736f6c634300081c0033a26469706673582212205bbd01f851351e338a777bbb01323764923a2bb426c6828b0a1f87d16d1963c064736f6c634300081c0033",
  "language": "Solidity",
  "compiler": "0.8.28+commit.7893614a"
}