{
  "address": "0xD4576D3B8CcEA7545b8F4cAB2671CF7b712fb73B",
  "abi": [
    {
      "type": "function",
      "name": "createERC4626Oracle",
      "inputs": [
        {
          "name": "_vault",
          "type": "address",
          "internalType": "contract IERC4626"
        },
        {
          "name": "_quoteToken",
          "type": "address",
          "internalType": "address"
        },
        {
          "name": "_externalSalt",
          "type": "bytes32",
          "internalType": "bytes32"
        }
      ],
      "outputs": [
        {
          "name": "oracle",
          "type": "address",
          "internalType": "contract ISiloOracle"
        }
      ],
      "stateMutability": "nonpayable"
    },
    {
      "type": "function",
      "name": "createdInFactory",
      "inputs": [
        {
          "name": "",
          "type": "address",
          "internalType": "address"
        }
      ],
      "outputs": [
        {
          "name": "",
          "type": "bool",
          "internalType": "bool"
        }
      ],
      "stateMutability": "view"
    },
    {
      "type": "function",
      "name": "nonces",
      "inputs": [
        {
          "name": "owner",
          "type": "address",
          "internalType": "address"
        }
      ],
      "outputs": [
        {
          "name": "",
          "type": "uint256",
          "internalType": "uint256"
        }
      ],
      "stateMutability": "view"
    },
    {
      "type": "event",
      "name": "ERC4626OracleCreated",
      "inputs": [
        {
          "name": "oracle",
          "type": "address",
          "indexed": true,
          "internalType": "contract ISiloOracle"
        }
      ],
      "anonymous": false
    },
    {
      "type": "error",
      "name": "InvalidAccountNonce",
      "inputs": [
        {
          "name": "account",
          "type": "address",
          "internalType": "address"
        },
        {
          "name": "currentNonce",
          "type": "uint256",
          "internalType": "uint256"
        }
      ]
    }
  ],
  "bytecode": "0x6080604052348015600e575f5ffd5b506106c28061001c5f395ff3fe608060405234801561000f575f5ffd5b506004361061003f575f3560e01c80637ecebe0014610043578063b32d705b1461007e578063d803f579146100b0575b5f5ffd5b61006b6100513660046101f2565b6001600160a01b03165f9081526020819052604090205490565b6040519081526020015b60405180910390f35b6100a061008c3660046101f2565b60016020525f908152604090205460ff1681565b6040519015158152602001610075565b6100c36100be366004610214565b6100db565b6040516001600160a01b039091168152602001610075565b335f81815260208181526040808320805460018101909155815160609590951b6bffffffffffffffffffffffff19168584015260348501526054808501869052815180860390910181526074909401905282519201919091208484604051610142906101ce565b6001600160a01b039283168152911660208201526040018190604051809103905ff5905080158015610176573d5f5f3e3d5ffd5b506001600160a01b0381165f818152600160208190526040808320805460ff19169092179091555192935090917f6d86f9fc5b1bde243720a4aa74177ac89431d9fa2331e29ff3bf8ebe23fcec7f9190a29392505050565b61043a8061025383390190565b6001600160a01b03811681146101ef575f5ffd5b50565b5f60208284031215610202575f5ffd5b813561020d816101db565b9392505050565b5f5f5f60608486031215610226575f5ffd5b8335610231816101db565b92506020840135610241816101db565b92959294505050604091909101359056fe60e060405234801561000f575f5ffd5b5060405161043a38038061043a83398101604081905261002e916100dd565b81806001600160a01b03166080816001600160a01b031681525050806001600160a01b03166338d52e0f6040518163ffffffff1660e01b8152600401602060405180830381865afa158015610085573d5f5f3e3d5ffd5b505050506040513d601f19601f820116820180604052508101906100a99190610115565b6001600160a01b0390811660a0529190911660c052506101379050565b6001600160a01b03811681146100da575f5ffd5b50565b5f5f604083850312156100ee575f5ffd5b82516100f9816100c6565b602084015190925061010a816100c6565b809150509250929050565b5f60208284031215610125575f5ffd5b8151610130816100c6565b9392505050565b60805160a05160c0516102ce61016c5f395f608101525f60e501525f818160be0152818161011d015261018301526102ce5ff3fe608060405234801561000f575f5ffd5b5060043610610055575f3560e01c806313b0be3314610059578063217a4b701461007f578063411557d1146100b9578063c5d664c6146100e0578063f9fa619a14610107575b5f5ffd5b61006c610067366004610237565b61011a565b6040519081526020015b60405180910390f35b7f00000000000000000000000000000000000000000000000000000000000000005b6040516001600160a01b039091168152602001610076565b6100a17f000000000000000000000000000000000000000000000000000000000000000081565b6100a17f000000000000000000000000000000000000000000000000000000000000000081565b610118610115366004610261565b50565b005b5f7f00000000000000000000000000000000000000000000000000000000000000006001600160a01b0316826001600160a01b03161461016d5760405163981a2a2b60e01b815260040160405180910390fd5b6040516303d1689d60e11b8152600481018490527f00000000000000000000000000000000000000000000000000000000000000006001600160a01b0316906307a2d13a90602401602060405180830381865afa1580156101d0573d5f5f3e3d5ffd5b505050506040513d601f19601f820116820180604052508101906101f49190610281565b9050805f0361021657604051634dfba02360e01b815260040160405180910390fd5b92915050565b80356001600160a01b0381168114610232575f5ffd5b919050565b5f5f60408385031215610248575f5ffd5b823591506102586020840161021c565b90509250929050565b5f60208284031215610271575f5ffd5b61027a8261021c565b9392505050565b5f60208284031215610291575f5ffd5b505191905056fea2646970667358221220ffe2c962015cc94f8b5bb09649f32b115966bbaa044b818f57b8f58143ecb0b964736f6c634300081c0033a264697066735822122083bb4cd4873a10792ac1b93650143ae66fae40be4c469396fa53f6e90f76a58964736f6c634300081c0033",
  "language": "Solidity",
  "compiler": "0.8.28+commit.7893614a"
}