{
  "address": "0x14c646C6Cf518cB6B515f95771cdb4948d2ACcd9",
  "abi": [
    {
      "inputs": [
        {
          "internalType": "contract IEggsLike",
          "name": "_eggs",
          "type": "address"
        }
      ],
      "stateMutability": "nonpayable",
      "type": "constructor"
    },
    {
      "inputs": [],
      "name": "EGGS",
      "outputs": [
        {
          "internalType": "contract IEggsLike",
          "name": "",
          "type": "address"
        }
      ],
      "stateMutability": "view",
      "type": "function"
    },
    {
      "inputs": [],
      "name": "RATE_DIVIDER",
      "outputs": [
        {
          "internalType": "int256",
          "name": "",
          "type": "int256"
        }
      ],
      "stateMutability": "view",
      "type": "function"
    },
    {
      "inputs": [],
      "name": "RATE_MULTIPLIER",
      "outputs": [
        {
          "internalType": "int256",
          "name": "",
          "type": "int256"
        }
      ],
      "stateMutability": "view",
      "type": "function"
    },
    {
      "inputs": [],
      "name": "SAMPLE_AMOUNT",
      "outputs": [
        {
          "internalType": "uint256",
          "name": "",
          "type": "uint256"
        }
      ],
      "stateMutability": "view",
      "type": "function"
    },
    {
      "inputs": [],
      "name": "decimals",
      "outputs": [
        {
          "internalType": "uint8",
          "name": "",
          "type": "uint8"
        }
      ],
      "stateMutability": "view",
      "type": "function"
    },
    {
      "inputs": [],
      "name": "description",
      "outputs": [
        {
          "internalType": "string",
          "name": "",
          "type": "string"
        }
      ],
      "stateMutability": "pure",
      "type": "function"
    },
    {
      "inputs": [
        {
          "internalType": "uint80",
          "name": "",
          "type": "uint80"
        }
      ],
      "name": "getRoundData",
      "outputs": [
        {
          "internalType": "uint80",
          "name": "",
          "type": "uint80"
        },
        {
          "internalType": "int256",
          "name": "",
          "type": "int256"
        },
        {
          "internalType": "uint256",
          "name": "",
          "type": "uint256"
        },
        {
          "internalType": "uint256",
          "name": "",
          "type": "uint256"
        },
        {
          "internalType": "uint80",
          "name": "",
          "type": "uint80"
        }
      ],
      "stateMutability": "pure",
      "type": "function"
    },
    {
      "inputs": [],
      "name": "latestRoundData",
      "outputs": [
        {
          "internalType": "uint80",
          "name": "roundId",
          "type": "uint80"
        },
        {
          "internalType": "int256",
          "name": "answer",
          "type": "int256"
        },
        {
          "internalType": "uint256",
          "name": "startedAt",
          "type": "uint256"
        },
        {
          "internalType": "uint256",
          "name": "updatedAt",
          "type": "uint256"
        },
        {
          "internalType": "uint80",
          "name": "answeredInRound",
          "type": "uint80"
        }
      ],
      "stateMutability": "view",
      "type": "function"
    },
    {
      "inputs": [],
      "name": "version",
      "outputs": [
        {
          "internalType": "uint256",
          "name": "",
          "type": "uint256"
        }
      ],
      "stateMutability": "pure",
      "type": "function"
    },
    {
      "inputs": [],
      "name": "InvalidEggsAddress",
      "type": "error"
    },
    {
      "inputs": [],
      "name": "NotImplemented",
      "type": "error"
    },
    {
      "inputs": [
        {
          "internalType": "uint256",
          "name": "value",
          "type": "uint256"
        }
      ],
      "name": "SafeCastOverflowedUintToInt",
      "type": "error"
    }
  ],
  "bytecode": "0x60a060405234801561000f575f5ffd5b5060405161053638038061053683398101604081905261002e916100de565b6001600160a01b03811615806100af575060405163037c7fc960e21b8152670de0b6b3a764000060048201526001600160a01b03821690630df1ff2490602401602060405180830381865afa158015610089573d5f5f3e3d5ffd5b505050506040513d601f19601f820116820180604052508101906100ad919061010b565b155b156100cd5760405163838b93c760e01b815260040160405180910390fd5b6001600160a01b0316608052610122565b5f602082840312156100ee575f5ffd5b81516001600160a01b0381168114610104575f5ffd5b9392505050565b5f6020828403121561011b575f5ffd5b5051919050565b6080516103f56101415f395f818161015f01526101d301526103f55ff3fe608060405234801561000f575f5ffd5b5060043610610090575f3560e01c80637ec9e491116100635780637ec9e491146100f8578063915fb9ba146101015780639a6fc8f514610110578063c8aae2381461015a578063feaf968c14610199575f5ffd5b8063181d038814610094578063313ce567146100b057806354fd4d50146100bf5780637284e416146100c6575b5f5ffd5b61009d6103dd81565b6040519081526020015b60405180910390f35b604051601281526020016100a7565b600161009d565b604080518082018252601081526f22a3a3a9901790299030b230b83a32b960811b602082015290516100a791906102c2565b61009d6103e881565b61009d670de0b6b3a764000081565b61012361011e3660046102f7565b6101a1565b6040805169ffffffffffffffffffff968716815260208101959095528401929092526060830152909116608082015260a0016100a7565b6101817f000000000000000000000000000000000000000000000000000000000000000081565b6040516001600160a01b0390911681526020016100a7565b6101236101bf565b5f5f5f5f5f60405163d623472560e01b815260040160405180910390fd5b5f5f5f5f5f600194506103e86103dd61026b7f00000000000000000000000000000000000000000000000000000000000000006001600160a01b0316630df1ff24670de0b6b3a76400006040518263ffffffff1660e01b815260040161022791815260200190565b602060405180830381865afa158015610242573d5f5f3e3d5ffd5b505050506040513d601f19601f820116820180604052508101906102669190610327565b61028e565b6102759190610352565b61027f9190610387565b94954294508493508692509050565b5f6001600160ff1b038211156102be5760405163123baf0360e11b81526004810183905260240160405180910390fd5b5090565b602081525f82518060208401528060208501604085015e5f604082850101526040601f19601f83011684010191505092915050565b5f60208284031215610307575f5ffd5b813569ffffffffffffffffffff81168114610320575f5ffd5b9392505050565b5f60208284031215610337575f5ffd5b5051919050565b634e487b7160e01b5f52601160045260245ffd5b8082025f8212600160ff1b8414161561036d5761036d61033e565b81810583148215176103815761038161033e565b92915050565b5f826103a157634e487b7160e01b5f52601260045260245ffd5b600160ff1b82145f19841416156103ba576103ba61033e565b50059056fea26469706673582212209c1c005d0c9c457498211c18e09ed4888effd89cfcb8dacac5f899c6047a3aff64736f6c634300081c0033",
  "language": "Solidity",
  "compiler": "0.8.28+commit.7893614a"
}