{
  "address": "0x7EFD7c750051a3DFd1E18d4db9cB8d71C68A0900",
  "abi": [
    {
      "inputs": [
        {
          "internalType": "contract ISiloOracle",
          "name": "_oracle",
          "type": "address"
        },
        {
          "internalType": "address",
          "name": "_owner",
          "type": "address"
        },
        {
          "internalType": "bytes32",
          "name": "_externalSalt",
          "type": "bytes32"
        }
      ],
      "name": "createOracleForwarder",
      "outputs": [
        {
          "internalType": "contract IOracleForwarder",
          "name": "oracleForwarder",
          "type": "address"
        }
      ],
      "stateMutability": "nonpayable",
      "type": "function"
    },
    {
      "inputs": [
        {
          "internalType": "address",
          "name": "",
          "type": "address"
        }
      ],
      "name": "createdInFactory",
      "outputs": [
        {
          "internalType": "bool",
          "name": "",
          "type": "bool"
        }
      ],
      "stateMutability": "view",
      "type": "function"
    },
    {
      "inputs": [
        {
          "internalType": "address",
          "name": "owner",
          "type": "address"
        }
      ],
      "name": "nonces",
      "outputs": [
        {
          "internalType": "uint256",
          "name": "",
          "type": "uint256"
        }
      ],
      "stateMutability": "view",
      "type": "function"
    },
    {
      "anonymous": false,
      "inputs": [
        {
          "indexed": true,
          "internalType": "address",
          "name": "oracleForwarder",
          "type": "address"
        }
      ],
      "name": "OracleForwarderCreated",
      "type": "event"
    },
    {
      "inputs": [
        {
          "internalType": "address",
          "name": "account",
          "type": "address"
        },
        {
          "internalType": "uint256",
          "name": "currentNonce",
          "type": "uint256"
        }
      ],
      "name": "InvalidAccountNonce",
      "type": "error"
    }
  ],
  "bytecode": "0x6080604052348015600e575f5ffd5b50610a688061001c5f395ff3fe608060405234801561000f575f5ffd5b506004361061003f575f3560e01c80631b07dccf146100435780637ecebe0014610073578063b32d705b146100a9575b5f5ffd5b6100566100513660046101f2565b6100db565b6040516001600160a01b0390911681526020015b60405180910390f35b61009b610081366004610230565b6001600160a01b03165f9081526020819052604090205490565b60405190815260200161006a565b6100cb6100b7366004610230565b60016020525f908152604090205460ff1681565b604051901515815260200161006a565b335f81815260208181526040808320805460018101909155815160609590951b6bffffffffffffffffffffffff19168584015260348501526054808501869052815180860390910181526074909401905282519201919091208484604051610142906101ce565b6001600160a01b039283168152911660208201526040018190604051809103905ff5905080158015610176573d5f5f3e3d5ffd5b506001600160a01b0381165f818152600160208190526040808320805460ff19169092179091555192935090917fc41044415d7fb7803a4578183b0edf5ea245a06953bcf3612665368a9e186f209190a29392505050565b6107e08061025383390190565b6001600160a01b03811681146101ef575f5ffd5b50565b5f5f5f60608486031215610204575f5ffd5b833561020f816101db565b9250602084013561021f816101db565b929592945050506040919091013590565b5f60208284031215610240575f5ffd5b813561024b816101db565b939250505056fe60a060405234801561000f575f5ffd5b506040516107e03803806107e083398101604081905261002e916101aa565b806001600160a01b03811661005c57604051631e4fbdf760e01b81525f600482015260240160405180910390fd5b610065816100e2565b50816001600160a01b031663217a4b706040518163ffffffff1660e01b8152600401602060405180830381865afa1580156100a2573d5f5f3e3d5ffd5b505050506040513d601f19601f820116820180604052508101906100c691906101e2565b6001600160a01b03166080526100db826100fe565b5050610204565b600180546001600160a01b03191690556100fb81610147565b50565b600280546001600160a01b0319166001600160a01b0383169081179091556040517f3f32684a32a11dabdbb8c0177de80aa3ae36a004d75210335b49e544e48cd0aa905f90a250565b5f80546001600160a01b038381166001600160a01b0319831681178455604051919092169283917f8be0079c531659141344cd1fd0a4f28419497f9722a3daafe3b4186f6b6457e09190a35050565b6001600160a01b03811681146100fb575f5ffd5b5f5f604083850312156101bb575f5ffd5b82516101c681610196565b60208401519092506101d781610196565b809150509250929050565b5f602082840312156101f2575f5ffd5b81516101fd81610196565b9392505050565b6080516105b76102295f395f818160d201528181610119015261029001526105b75ff3fe608060405234801561000f575f5ffd5b50600436106100a6575f3560e01c80637adbf9731161006e5780637adbf973146101435780637dc0d1d0146101565780638da5cb5b14610169578063e30c397814610179578063f2fde38b1461018a578063f9fa619a1461019d575f5ffd5b806313b0be33146100aa578063217a4b70146100d0578063715018a61461010a57806378892cea1461011457806379ba50971461013b575b5f5ffd5b6100bd6100b8366004610506565b6101b0565b6040519081526020015b60405180910390f35b7f00000000000000000000000000000000000000000000000000000000000000005b6040516001600160a01b0390911681526020016100c7565b61011261022a565b005b6100f27f000000000000000000000000000000000000000000000000000000000000000081565b61011261023d565b610112610151366004610534565b610286565b6002546100f2906001600160a01b031681565b5f546001600160a01b03166100f2565b6001546001600160a01b03166100f2565b610112610198366004610534565b610348565b6101126101ab366004610534565b6103b8565b6002546040516313b0be3360e01b8152600481018490526001600160a01b0383811660248301525f9216906313b0be3390604401602060405180830381865afa1580156101ff573d5f5f3e3d5ffd5b505050506040513d601f19601f82011682018060405250810190610223919061054f565b9392505050565b610232610415565b61023b5f610441565b565b60015433906001600160a01b0316811461027a5760405163118cdaa760e01b81526001600160a01b03821660048201526024015b60405180910390fd5b61028381610441565b50565b61028e610415565b7f00000000000000000000000000000000000000000000000000000000000000006001600160a01b0316816001600160a01b031663217a4b706040518163ffffffff1660e01b8152600401602060405180830381865afa1580156102f4573d5f5f3e3d5ffd5b505050506040513d601f19601f820116820180604052508101906103189190610566565b6001600160a01b03161461033f5760405163ef02469960e01b815260040160405180910390fd5b6102838161045a565b610350610415565b600180546001600160a01b0383166001600160a01b031990911681179091556103805f546001600160a01b031690565b6001600160a01b03167f38d16b8cac22d99fc7c124b9cd0de2d3fa1faef420bfe791d8c362d765e2270060405160405180910390a350565b600254604051637cfd30cd60e11b81526001600160a01b0383811660048301529091169063f9fa619a906024015f604051808303815f87803b1580156103fc575f5ffd5b505af115801561040e573d5f5f3e3d5ffd5b5050505050565b5f546001600160a01b0316331461023b5760405163118cdaa760e01b8152336004820152602401610271565b600180546001600160a01b0319169055610283816104a3565b600280546001600160a01b0319166001600160a01b0383169081179091556040517f3f32684a32a11dabdbb8c0177de80aa3ae36a004d75210335b49e544e48cd0aa905f90a250565b5f80546001600160a01b038381166001600160a01b0319831681178455604051919092169283917f8be0079c531659141344cd1fd0a4f28419497f9722a3daafe3b4186f6b6457e09190a35050565b6001600160a01b0381168114610283575f5ffd5b5f5f60408385031215610517575f5ffd5b823591506020830135610529816104f2565b809150509250929050565b5f60208284031215610544575f5ffd5b8135610223816104f2565b5f6020828403121561055f575f5ffd5b5051919050565b5f60208284031215610576575f5ffd5b8151610223816104f256fea26469706673582212202fffdf070c470b6723630a527feee63d79881fc35dbde44f85f00e0f006fc26564736f6c634300081c0033a2646970667358221220f7f71dd37e50168197a8b3fb4f370caf56578af09467a2f05f3d36b8148d163164736f6c634300081c0033",
  "language": "Solidity",
  "compiler": "0.8.28+commit.7893614a"
}