{
  "address": "0x9bB048587AE0C620Ba2B370A01D48dADB6C15A37",
  "abi": [
    {
      "type": "constructor",
      "inputs": [
        {
          "name": "_pendleOracle",
          "type": "address",
          "internalType": "contract IPyYtLpOracleLike"
        }
      ],
      "stateMutability": "nonpayable"
    },
    {
      "type": "function",
      "name": "PENDLE_ORACLE",
      "inputs": [],
      "outputs": [
        {
          "name": "",
          "type": "address",
          "internalType": "contract IPyYtLpOracleLike"
        }
      ],
      "stateMutability": "view"
    },
    {
      "type": "function",
      "name": "create",
      "inputs": [
        {
          "name": "_underlyingOracle",
          "type": "address",
          "internalType": "contract ISiloOracle"
        },
        {
          "name": "_market",
          "type": "address",
          "internalType": "address"
        },
        {
          "name": "_externalSalt",
          "type": "bytes32",
          "internalType": "bytes32"
        }
      ],
      "outputs": [
        {
          "name": "pendlePTOracle",
          "type": "address",
          "internalType": "contract ISiloOracle"
        }
      ],
      "stateMutability": "nonpayable"
    },
    {
      "type": "function",
      "name": "createdInFactory",
      "inputs": [
        {
          "name": "",
          "type": "address",
          "internalType": "contract ISiloOracle"
        }
      ],
      "outputs": [
        {
          "name": "",
          "type": "bool",
          "internalType": "bool"
        }
      ],
      "stateMutability": "view"
    },
    {
      "type": "function",
      "name": "nonces",
      "inputs": [
        {
          "name": "owner",
          "type": "address",
          "internalType": "address"
        }
      ],
      "outputs": [
        {
          "name": "",
          "type": "uint256",
          "internalType": "uint256"
        }
      ],
      "stateMutability": "view"
    },
    {
      "type": "event",
      "name": "PendlePTOracleCreated",
      "inputs": [
        {
          "name": "pendlePTOracle",
          "type": "address",
          "indexed": true,
          "internalType": "contract ISiloOracle"
        }
      ],
      "anonymous": false
    },
    {
      "type": "error",
      "name": "InvalidAccountNonce",
      "inputs": [
        {
          "name": "account",
          "type": "address",
          "internalType": "address"
        },
        {
          "name": "currentNonce",
          "type": "uint256",
          "internalType": "uint256"
        }
      ]
    },
    {
      "type": "error",
      "name": "PendleOracleIsZero",
      "inputs": []
    }
  ],
  "bytecode": "0x60a0604052348015600e575f5ffd5b50604051611497380380611497833981016040819052602b916061565b6001600160a01b038116605157604051635d26e47b60e11b815260040160405180910390fd5b6001600160a01b0316608052608c565b5f602082840312156070575f5ffd5b81516001600160a01b03811681146085575f5ffd5b9392505050565b6080516113ed6100aa5f395f8181608e015261016401526113ed5ff3fe608060405234801561000f575f5ffd5b506004361061004a575f3560e01c80637ecebe001461004e5780639c977cf014610089578063b32d705b146100c8578063d1692f56146100fa575b5f5ffd5b61007661005c366004610249565b6001600160a01b03165f9081526020819052604090205490565b6040519081526020015b60405180910390f35b6100b07f000000000000000000000000000000000000000000000000000000000000000081565b6040516001600160a01b039091168152602001610080565b6100ea6100d6366004610249565b60016020525f908152604090205460ff1681565b6040519015158152602001610080565b6100b061010836600461026b565b335f81815260208181526040808320805460018101909155815160609590951b6bffffffffffffffffffffffff1916858401526034850152605480850186905281518086039091018152607490940190528251920191909120847f00000000000000000000000000000000000000000000000000000000000000008560405161019090610225565b6001600160a01b039384168152918316602083015290911660408201526060018190604051809103905ff59050801580156101cd573d5f5f3e3d5ffd5b506001600160a01b0381165f818152600160208190526040808320805460ff19169092179091555192935090917fbaf8ec7d598cbe2ba31c564e5e35ff01d41b83c9429995a4ff25ede25a482d229190a29392505050565b61110e806102aa83390190565b6001600160a01b0381168114610246575f5ffd5b50565b5f60208284031215610259575f5ffd5b813561026481610232565b9392505050565b5f5f5f6060848603121561027d575f5ffd5b833561028881610232565b9250602084013561029881610232565b92959294505050604091909101359056fe610140604052348015610010575f5ffd5b5060405161110e38038061110e83398101604081905261002f9161053c565b5f610039826102c7565b90505f61004583610330565b90505f610051826103ff565b60405162439f4b60e91b81526001600160a01b03868116600483015261070860248301529192505f9182919088169063873e960090604401606060405180830381865afa1580156100a4573d5f5f3e3d5ffd5b505050506040513d601f19601f820116820180604052508101906100c8919061059a565b92505091508080156100d8575081155b6100f55760405163b498fea160e01b815260040160405180910390fd5b60405163abca0eab60e01b81526001600160a01b038781166004830152610708602483015288169063abca0eab90604401602060405180830381865afa158015610141573d5f5f3e3d5ffd5b505050506040513d601f19601f8201168201806040525081019061016591906105e2565b5f03610184576040516303350ef560e31b815260040160405180910390fd5b5f61019084600a6106f2565b6040516313b0be3360e01b8152600481018290526001600160a01b038781166024830152919250908a16906313b0be3390604401602060405180830381865afa1580156101df573d5f5f3e3d5ffd5b505050506040513d601f19601f8201168201806040525081019061020391906105e2565b5f03610225576040516001620cca2360e01b0319815260040160405180910390fd5b6001600160a01b03808a16608081905289821660a05287821660c05286821660e0529088166101005260408051630217a4b760e41b8152905163217a4b70916004808201926020929091908290030181865afa158015610287573d5f5f3e3d5ffd5b505050506040513d601f19601f820116820180604052508101906102ab9190610704565b6001600160a01b0316610120525061079d975050505050505050565b5f816001600160a01b0316632c8ce6bc6040518163ffffffff1660e01b8152600401606060405180830381865afa158015610304573d5f5f3e3d5ffd5b505050506040513d601f19601f82011682018060405250810190610328919061053c565b509392505050565b5f5f826001600160a01b0316632c8ce6bc6040518163ffffffff1660e01b8152600401606060405180830381865afa15801561036e573d5f5f3e3d5ffd5b505050506040513d601f19601f82011682018060405250810190610392919061053c565b50509050806001600160a01b031663a40bee506040518163ffffffff1660e01b8152600401606060405180830381865afa1580156103d2573d5f5f3e3d5ffd5b505050506040513d601f19601f820116820180604052508101906103f6919061072f565b50949350505050565b6040805160048152602481019091526020810180516001600160e01b0390811663313ce56760e01b179091525f918291829161043e9186919061046f16565b915091508161045057505f9392505050565b80806020019051810190610464919061076e565b60ff16949350505050565b5f60606001600160a01b0384163b61049a576040516373d39f9d60e01b815260040160405180910390fd5b5f5f856001600160a01b0316856040516104b49190610787565b5f60405180830381855afa9150503d805f81146104ec576040519150601f19603f3d011682016040523d82523d5f602084013e6104f1565b606091505b509150915081610516575f60405180602001604052805f81525093509350505061051e565b600193509150505b9250929050565b6001600160a01b0381168114610539575f5ffd5b50565b5f5f5f6060848603121561054e575f5ffd5b835161055981610525565b602085015190935061056a81610525565b604085015190925061057b81610525565b809150509250925092565b80518015158114610595575f5ffd5b919050565b5f5f5f606084860312156105ac575f5ffd5b6105b584610586565b9250602084015161ffff811681146105cb575f5ffd5b91506105d960408501610586565b90509250925092565b5f602082840312156105f2575f5ffd5b5051919050565b634e487b7160e01b5f52601160045260245ffd5b6001815b60018411156106485780850481111561062c5761062c6105f9565b600184161561063a57908102905b60019390931c928002610611565b935093915050565b5f8261065e575060016106ec565b8161066a57505f6106ec565b8160018114610680576002811461068a576106a6565b60019150506106ec565b60ff84111561069b5761069b6105f9565b50506001821b6106ec565b5060208310610133831016604e8410600b84101617156106c9575081810a6106ec565b6106d55f19848461060d565b805f19048211156106e8576106e86105f9565b0290505b92915050565b5f6106fd8383610650565b9392505050565b5f60208284031215610714575f5ffd5b81516106fd81610525565b805160ff81168114610595575f5ffd5b5f5f5f60608486031215610741575f5ffd5b83516002811061074f575f5ffd5b602085015190935061076081610525565b91506105d96040850161071f565b5f6020828403121561077e575f5ffd5b6106fd8261071f565b5f82518060208501845e5f920191825250919050565b60805160a05160c05160e05161010051610120516108eb6108235f395f8181610111015261017401525f818161028a015261032901525f8181610263015281816103f501526104d401525f81816102160152818161023a01526102c201525f81816101c8015261035b01525f81816101ef0152818161041d01526104ff01526108eb5ff3fe608060405234801561000f575f5ffd5b50600436106100e5575f3560e01c80639c977cf011610088578063c55dae6311610063578063c55dae6314610238578063cdc0cfb11461025e578063f46f16c214610285578063f9fa619a146102ac575f5ffd5b80639c977cf0146101c3578063ac912490146101ea578063bce2e8d914610211575f5ffd5b80635dd3991e116100c35780635dd3991e1461015c57806378892cea1461016f5780637ab7e36d14610196578063879ac8f8146101a5575f5ffd5b806313b0be33146100e9578063217a4b701461010f57806321d118ef14610149575b5f5ffd5b6100fc6100f73660046107b0565b6102bf565b6040519081526020015b60405180910390f35b7f00000000000000000000000000000000000000000000000000000000000000005b6040516001600160a01b039091168152602001610106565b6101316101573660046107de565b610595565b61013161016a3660046107de565b6105fe565b6101317f000000000000000000000000000000000000000000000000000000000000000081565b6100fc670de0b6b3a764000081565b6101ae61070881565b60405163ffffffff9091168152602001610106565b6101317f000000000000000000000000000000000000000000000000000000000000000081565b6101317f000000000000000000000000000000000000000000000000000000000000000081565b6101317f000000000000000000000000000000000000000000000000000000000000000081565b7f0000000000000000000000000000000000000000000000000000000000000000610131565b6101317f000000000000000000000000000000000000000000000000000000000000000081565b6101317f000000000000000000000000000000000000000000000000000000000000000081565b6102bd6102ba3660046107de565b50565b005b5f7f00000000000000000000000000000000000000000000000000000000000000006001600160a01b0316826001600160a01b0316146103125760405163981a2a2b60e01b815260040160405180910390fd5b60405163abca0eab60e01b81526001600160a01b037f00000000000000000000000000000000000000000000000000000000000000008116600483015261070860248301525f917f00000000000000000000000000000000000000000000000000000000000000009091169063abca0eab90604401602060405180830381865afa1580156103a2573d5f5f3e3d5ffd5b505050506040513d601f19601f820116820180604052508101906103c691906107f9565b9050670de0b6b3a764000081116104a2576040516313b0be3360e01b8152600481018590526001600160a01b037f0000000000000000000000000000000000000000000000000000000000000000811660248301527f000000000000000000000000000000000000000000000000000000000000000016906313b0be3390604401602060405180830381865afa158015610462573d5f5f3e3d5ffd5b505050506040513d601f19601f8201168201806040525081019061048691906107f9565b915061049b8282670de0b6b3a76400006106cd565b915061056e565b5f6104b68583670de0b6b3a76400006106cd565b6040516313b0be3360e01b8152600481018290526001600160a01b037f0000000000000000000000000000000000000000000000000000000000000000811660248301529192507f0000000000000000000000000000000000000000000000000000000000000000909116906313b0be3390604401602060405180830381865afa158015610546573d5f5f3e3d5ffd5b505050506040513d601f19601f8201168201806040525081019061056a91906107f9565b9250505b815f0361058e57604051634dfba02360e01b815260040160405180910390fd5b5092915050565b5f816001600160a01b0316632c8ce6bc6040518163ffffffff1660e01b8152600401606060405180830381865afa1580156105d2573d5f5f3e3d5ffd5b505050506040513d601f19601f820116820180604052508101906105f69190610810565b509392505050565b5f5f826001600160a01b0316632c8ce6bc6040518163ffffffff1660e01b8152600401606060405180830381865afa15801561063c573d5f5f3e3d5ffd5b505050506040513d601f19601f820116820180604052508101906106609190610810565b50509050806001600160a01b031663a40bee506040518163ffffffff1660e01b8152600401606060405180830381865afa1580156106a0573d5f5f3e3d5ffd5b505050506040513d601f19601f820116820180604052508101906106c4919061085a565b50949350505050565b5f838302815f1985870982811083820303915050805f03610701578382816106f7576106f76108a1565b0492505050610784565b80841161071f5761071f841561071857601161078b565b601261078b565b5f848688095f868103871696879004966002600389028118808a02820302808a02820302808a02820302808a02820302808a02820302808a02909103029181900381900460010186841190950394909402919094039290920491909117919091029150505b9392505050565b634e487b715f52806020526024601cfd5b6001600160a01b03811681146102ba575f5ffd5b5f5f604083850312156107c1575f5ffd5b8235915060208301356107d38161079c565b809150509250929050565b5f602082840312156107ee575f5ffd5b81356107848161079c565b5f60208284031215610809575f5ffd5b5051919050565b5f5f5f60608486031215610822575f5ffd5b835161082d8161079c565b602085015190935061083e8161079c565b604085015190925061084f8161079c565b809150509250925092565b5f5f5f6060848603121561086c575f5ffd5b83516002811061087a575f5ffd5b602085015190935061088b8161079c565b604085015190925060ff8116811461084f575f5ffd5b634e487b7160e01b5f52601260045260245ffdfea264697066735822122011bca50c5e9c8defe5a20cf34ddd54bf1af6e11342abdea59ad4830df0bfad2a64736f6c634300081c0033a26469706673582212200a1e8a43022d4a2fdad2df0baad0a677c2c15eda8f61c77819e172d22e8cebab64736f6c634300081c0033",
  "language": "Solidity",
  "compiler": "0.8.28+commit.7893614a"
}