{
  "address": "0x6DaeaF0b5897423Fe372A37eC4dE825686862213",
  "abi": [
    {
      "inputs": [
        {
          "internalType": "contract AggregatorV3Interface",
          "name": "_shadowUsdFeed",
          "type": "address"
        }
      ],
      "stateMutability": "nonpayable",
      "type": "constructor"
    },
    {
      "inputs": [],
      "name": "SHADOW_USD_FEED",
      "outputs": [
        {
          "internalType": "contract AggregatorV3Interface",
          "name": "",
          "type": "address"
        }
      ],
      "stateMutability": "view",
      "type": "function"
    },
    {
      "inputs": [],
      "name": "SHARES_QUOTE_SAMPLE",
      "outputs": [
        {
          "internalType": "uint256",
          "name": "",
          "type": "uint256"
        }
      ],
      "stateMutability": "view",
      "type": "function"
    },
    {
      "inputs": [],
      "name": "SLASHING_PENALTY_DIVIDER",
      "outputs": [
        {
          "internalType": "int256",
          "name": "",
          "type": "int256"
        }
      ],
      "stateMutability": "view",
      "type": "function"
    },
    {
      "inputs": [],
      "name": "X33",
      "outputs": [
        {
          "internalType": "contract IERC4626",
          "name": "",
          "type": "address"
        }
      ],
      "stateMutability": "view",
      "type": "function"
    },
    {
      "inputs": [],
      "name": "decimals",
      "outputs": [
        {
          "internalType": "uint8",
          "name": "",
          "type": "uint8"
        }
      ],
      "stateMutability": "view",
      "type": "function"
    },
    {
      "inputs": [],
      "name": "description",
      "outputs": [
        {
          "internalType": "string",
          "name": "",
          "type": "string"
        }
      ],
      "stateMutability": "pure",
      "type": "function"
    },
    {
      "inputs": [
        {
          "internalType": "uint80",
          "name": "",
          "type": "uint80"
        }
      ],
      "name": "getRoundData",
      "outputs": [
        {
          "internalType": "uint80",
          "name": "",
          "type": "uint80"
        },
        {
          "internalType": "int256",
          "name": "",
          "type": "int256"
        },
        {
          "internalType": "uint256",
          "name": "",
          "type": "uint256"
        },
        {
          "internalType": "uint256",
          "name": "",
          "type": "uint256"
        },
        {
          "internalType": "uint80",
          "name": "",
          "type": "uint80"
        }
      ],
      "stateMutability": "pure",
      "type": "function"
    },
    {
      "inputs": [],
      "name": "latestRoundData",
      "outputs": [
        {
          "internalType": "uint80",
          "name": "roundId",
          "type": "uint80"
        },
        {
          "internalType": "int256",
          "name": "answer",
          "type": "int256"
        },
        {
          "internalType": "uint256",
          "name": "startedAt",
          "type": "uint256"
        },
        {
          "internalType": "uint256",
          "name": "updatedAt",
          "type": "uint256"
        },
        {
          "internalType": "uint80",
          "name": "answeredInRound",
          "type": "uint80"
        }
      ],
      "stateMutability": "view",
      "type": "function"
    },
    {
      "inputs": [],
      "name": "version",
      "outputs": [
        {
          "internalType": "uint256",
          "name": "",
          "type": "uint256"
        }
      ],
      "stateMutability": "pure",
      "type": "function"
    },
    {
      "inputs": [],
      "name": "InvalidShadowUsdFeed",
      "type": "error"
    },
    {
      "inputs": [],
      "name": "NotImplemented",
      "type": "error"
    },
    {
      "inputs": [
        {
          "internalType": "uint256",
          "name": "value",
          "type": "uint256"
        }
      ],
      "name": "SafeCastOverflowedUintToInt",
      "type": "error"
    }
  ],
  "bytecode": "0x60a060405234801561000f575f5ffd5b5060405161077238038061077283398101604081905261002e91610108565b6001600160a01b03811661005557604051631c38302d60e01b815260040160405180910390fd5b5f5f826001600160a01b031663feaf968c6040518163ffffffff1660e01b815260040160a060405180830381865afa158015610093573d5f5f3e3d5ffd5b505050506040513d601f19601f820116820180604052508101906100b79190610150565b509350509250505f821380156100d85750620151806100d6824261019e565b105b6100f557604051631c38302d60e01b815260040160405180910390fd5b50506001600160a01b03166080526101c3565b5f60208284031215610118575f5ffd5b81516001600160a01b038116811461012e575f5ffd5b9392505050565b80516001600160501b038116811461014b575f5ffd5b919050565b5f5f5f5f5f60a08688031215610164575f5ffd5b61016d86610135565b6020870151604088015160608901519297509095509350915061019260808701610135565b90509295509295909350565b818103818111156101bd57634e487b7160e01b5f52601160045260245ffd5b92915050565b60805161058a6101e85f395f81816099015281816101c10152610269015261058a5ff3fe608060405234801561000f575f5ffd5b5060043610610090575f3560e01c80635c79163c116100635780635c79163c146101165780637284e4161461011e5780639a6fc8f514610151578063c15184d41461019b578063feaf968c146101b6575f5ffd5b80630fb3db3a146100945780632c3b0282146100d8578063313ce567146100f557806354fd4d501461010f575b5f5ffd5b6100bb7f000000000000000000000000000000000000000000000000000000000000000081565b6040516001600160a01b0390911681526020015b60405180910390f35b6100e7670de0b6b3a764000081565b6040519081526020016100cf565b6100fd6101be565b60405160ff90911681526020016100cf565b60016100e7565b6100e7600281565b60408051808201825260118152703c19999017902aa9a21030b230b83a32b960791b602082015290516100cf91906103d7565b61016461015f366004610426565b610244565b6040805169ffffffffffffffffffff968716815260208101959095528401929092526060830152909116608082015260a0016100cf565b6100bb733333111a391cc08fa51353e9195526a70b33333381565b610164610262565b5f7f00000000000000000000000000000000000000000000000000000000000000006001600160a01b031663313ce5676040518163ffffffff1660e01b8152600401602060405180830381865afa15801561021b573d5f5f3e3d5ffd5b505050506040513d601f19601f8201168201806040525081019061023f9190610448565b905090565b5f5f5f5f5f60405163d623472560e01b815260040160405180910390fd5b5f5f5f5f5f7f00000000000000000000000000000000000000000000000000000000000000006001600160a01b031663feaf968c6040518163ffffffff1660e01b815260040160a060405180830381865afa1580156102c3573d5f5f3e3d5ffd5b505050506040513d601f19601f820116820180604052508101906102e79190610468565b6040516303d1689d60e11b8152670de0b6b3a764000060048201819052959a50939850919650945092506002919061037c90733333111a391cc08fa51353e9195526a70b333333906307a2d13a90602401602060405180830381865afa158015610353573d5f5f3e3d5ffd5b505050506040513d601f19601f8201168201806040525081019061037791906104bc565b6103a3565b61038690876104e7565b610390919061051c565b61039a919061051c565b93509091929394565b5f6001600160ff1b038211156103d35760405163123baf0360e11b81526004810183905260240160405180910390fd5b5090565b602081525f82518060208401528060208501604085015e5f604082850101526040601f19601f83011684010191505092915050565b69ffffffffffffffffffff81168114610423575f5ffd5b50565b5f60208284031215610436575f5ffd5b81356104418161040c565b9392505050565b5f60208284031215610458575f5ffd5b815160ff81168114610441575f5ffd5b5f5f5f5f5f60a0868803121561047c575f5ffd5b85516104878161040c565b60208701516040880151606089015160808a0151939850919650945092506104ae8161040c565b809150509295509295909350565b5f602082840312156104cc575f5ffd5b5051919050565b634e487b7160e01b5f52601160045260245ffd5b8082025f8212600160ff1b84141615610502576105026104d3565b8181058314821517610516576105166104d3565b92915050565b5f8261053657634e487b7160e01b5f52601260045260245ffd5b600160ff1b82145f198414161561054f5761054f6104d3565b50059056fea2646970667358221220388b35dababc27a2995f01eaf93b80287c2ef8a116813282fd22c28090aa12c064736f6c634300081c0033",
  "language": "Solidity",
  "compiler": "0.8.28+commit.7893614a"
}