{
  "address": "0x0AB251C6dAFB5598d6a6374030B1E0bfA6687dEb",
  "abi": [
    {
      "inputs": [
        {
          "internalType": "contract ISiloIncentivesControllerCLFactory",
          "name": "_siloIncentivesControllerCLFactory",
          "type": "address"
        }
      ],
      "stateMutability": "nonpayable",
      "type": "constructor"
    },
    {
      "inputs": [],
      "name": "CL_FACTORY",
      "outputs": [
        {
          "internalType": "contract ISiloIncentivesControllerCLFactory",
          "name": "",
          "type": "address"
        }
      ],
      "stateMutability": "view",
      "type": "function"
    },
    {
      "inputs": [
        {
          "internalType": "address",
          "name": "_siloVault",
          "type": "address"
        },
        {
          "internalType": "address",
          "name": "_market",
          "type": "address"
        }
      ],
      "name": "createIncentivesControllerCL",
      "outputs": [
        {
          "internalType": "contract SiloIncentivesControllerCL",
          "name": "logic",
          "type": "address"
        }
      ],
      "stateMutability": "nonpayable",
      "type": "function"
    },
    {
      "inputs": [
        {
          "internalType": "address",
          "name": "owner",
          "type": "address"
        }
      ],
      "name": "nonces",
      "outputs": [
        {
          "internalType": "uint256",
          "name": "",
          "type": "uint256"
        }
      ],
      "stateMutability": "view",
      "type": "function"
    },
    {
      "inputs": [
        {
          "internalType": "address",
          "name": "_market",
          "type": "address"
        }
      ],
      "name": "resolveMarketIncentivesController",
      "outputs": [
        {
          "internalType": "contract ISiloIncentivesController",
          "name": "controller",
          "type": "address"
        }
      ],
      "stateMutability": "view",
      "type": "function"
    },
    {
      "inputs": [
        {
          "internalType": "address",
          "name": "_siloVault",
          "type": "address"
        }
      ],
      "name": "resolveSiloVaultIncentivesController",
      "outputs": [
        {
          "internalType": "contract ISiloIncentivesController",
          "name": "controller",
          "type": "address"
        }
      ],
      "stateMutability": "view",
      "type": "function"
    },
    {
      "inputs": [],
      "name": "EmptyCLFactory",
      "type": "error"
    },
    {
      "inputs": [
        {
          "internalType": "address",
          "name": "account",
          "type": "address"
        },
        {
          "internalType": "uint256",
          "name": "currentNonce",
          "type": "uint256"
        }
      ],
      "name": "InvalidAccountNonce",
      "type": "error"
    },
    {
      "inputs": [],
      "name": "InvalidCLFactory",
      "type": "error"
    },
    {
      "inputs": [],
      "name": "MoreThanOneSiloVaultNotificationReceiver",
      "type": "error"
    },
    {
      "inputs": [],
      "name": "UnderlyingMarketDoesNotHaveIncentives",
      "type": "error"
    }
  ],
  "bytecode": "0x60a060405234801561000f575f5ffd5b5060405161092638038061092683398101604081905261002e916100ea565b6001600160a01b03811661005557604051632f73cc3560e01b815260040160405180910390fd5b60405163b32d705b60e01b81525f60048201526001600160a01b0382169063b32d705b90602401602060405180830381865afa158015610097573d5f5f3e3d5ffd5b505050506040513d601f19601f820116820180604052508101906100bb9190610117565b156100d957604051633503f69160e21b815260040160405180910390fd5b6001600160a01b0316608052610136565b5f602082840312156100fa575f5ffd5b81516001600160a01b0381168114610110575f5ffd5b9392505050565b5f60208284031215610127575f5ffd5b81518015158114610110575f5ffd5b6080516107d26101545f395f818160d7015261028301526107d25ff3fe608060405234801561000f575f5ffd5b5060043610610055575f3560e01c8063688932b0146100595780637ecebe0014610089578063b141b8d9146100bf578063e70dd6cf146100d2578063ff086cef146100f9575b5f5ffd5b61006c6100673660046104c0565b61010c565b6040516001600160a01b0390911681526020015b60405180910390f35b6100b16100973660046104c0565b6001600160a01b03165f9081526020819052604090205490565b604051908152602001610080565b61006c6100cd3660046104db565b610280565b61006c7f000000000000000000000000000000000000000000000000000000000000000081565b61006c6101073660046104c0565b61039b565b5f5f826001600160a01b03166379502c556040518163ffffffff1660e01b8152600401602060405180830381865afa15801561014a573d5f5f3e3d5ffd5b505050506040513d601f19601f8201168201806040525081019061016e9190610512565b60405163e48a5f7b60e01b81526001600160a01b038581166004830152919091169063e48a5f7b9060240161022060405180830381865afa1580156101b5573d5f5f3e3d5ffd5b505050506040513d601f19601f820116820180604052508101906101d991906105bb565b6101e081015160405163a37d941160e01b81526001600160a01b03868116600483015292935090915f919083169063a37d941190602401602060405180830381865afa15801561022b573d5f5f3e3d5ffd5b505050506040513d601f19601f8201168201806040525081019061024f9190610512565b90506001600160a01b0381166102785760405163a6591f4160e01b815260040160405180910390fd5b949350505050565b5f7f00000000000000000000000000000000000000000000000000000000000000006001600160a01b03166356f5a3846102b98561039b565b6102c28561010c565b61031f335f81815260208190526040812080546001810190915590919060405160609290921b6bffffffffffffffffffffffff19166020830152603482015260540160405160208183030381529060405280519060200120905090565b6040516001600160e01b031960e086901b1681526001600160a01b03938416600482015292909116602483015260448201526064016020604051808303815f875af1158015610370573d5f5f3e3d5ffd5b505050506040513d601f19601f820116820180604052508101906103949190610512565b9392505050565b5f5f826001600160a01b031663fadbdada6040518163ffffffff1660e01b8152600401602060405180830381865afa1580156103d9573d5f5f3e3d5ffd5b505050506040513d601f19601f820116820180604052508101906103fd9190610512565b90505f816001600160a01b0316637a2bbb686040518163ffffffff1660e01b81526004015f60405180830381865afa15801561043b573d5f5f3e3d5ffd5b505050506040513d5f823e601f3d908101601f1916820160405261046291908101906106d4565b9050805160011461048657604051630150da2f60e31b815260040160405180910390fd5b805f8151811061049857610498610788565b602002602001015192505050919050565b6001600160a01b03811681146104bd575f5ffd5b50565b5f602082840312156104d0575f5ffd5b8135610394816104a9565b5f5f604083850312156104ec575f5ffd5b82356104f7816104a9565b91506020830135610507816104a9565b809150509250929050565b5f60208284031215610522575f5ffd5b8151610394816104a9565b634e487b7160e01b5f52604160045260245ffd5b604051610220810167ffffffffffffffff811182821017156105655761056561052d565b60405290565b604051601f8201601f1916810167ffffffffffffffff811182821017156105945761059461052d565b604052919050565b80516105a7816104a9565b919050565b805180151581146105a7575f5ffd5b5f6102208284031280156105cd575f5ffd5b506105d6610541565b82518152602080840151908201526105f06040840161059c565b60408201526106016060840161059c565b60608201526106126080840161059c565b608082015261062360a0840161059c565b60a082015261063460c0840161059c565b60c082015261064560e0840161059c565b60e0820152610657610100840161059c565b61010082015261066a610120840161059c565b6101208201526101408381015190820152610160808401519082015261018080840151908201526101a080840151908201526101c080840151908201526106b46101e0840161059c565b6101e08201526106c761020084016105ac565b6102008201529392505050565b5f602082840312156106e4575f5ffd5b815167ffffffffffffffff8111156106fa575f5ffd5b8201601f8101841361070a575f5ffd5b805167ffffffffffffffff8111156107245761072461052d565b8060051b6107346020820161056b565b9182526020818401810192908101908784111561074f575f5ffd5b6020850194505b8385101561077d578451925061076b836104a9565b82825260209485019490910190610756565b979650505050505050565b634e487b7160e01b5f52603260045260245ffdfea26469706673582212201f7fd72b23e35cdf5a93e998e57e3062e1ee349ce951135bee691584da09e53c64736f6c634300081c0033",
  "language": "Solidity",
  "compiler": "0.8.28+commit.7893614a"
}