{
  "address": "0x0D925653b179f6F661B7e99D634B7479ED033254",
  "abi": [
    {
      "type": "function",
      "name": "create",
      "inputs": [
        {
          "name": "_vault",
          "type": "address",
          "internalType": "contract IERC4626"
        },
        {
          "name": "_oracle",
          "type": "address",
          "internalType": "contract ISiloOracle"
        },
        {
          "name": "_externalSalt",
          "type": "bytes32",
          "internalType": "bytes32"
        }
      ],
      "outputs": [
        {
          "name": "oracle",
          "type": "address",
          "internalType": "contract ERC4626OracleWithUnderlying"
        }
      ],
      "stateMutability": "nonpayable"
    },
    {
      "type": "function",
      "name": "madeByFactory",
      "inputs": [
        {
          "name": "deployedOracle",
          "type": "address",
          "internalType": "address"
        }
      ],
      "outputs": [
        {
          "name": "isMade",
          "type": "bool",
          "internalType": "bool"
        }
      ],
      "stateMutability": "view"
    },
    {
      "type": "function",
      "name": "nonces",
      "inputs": [
        {
          "name": "owner",
          "type": "address",
          "internalType": "address"
        }
      ],
      "outputs": [
        {
          "name": "",
          "type": "uint256",
          "internalType": "uint256"
        }
      ],
      "stateMutability": "view"
    },
    {
      "type": "function",
      "name": "verifyConfig",
      "inputs": [
        {
          "name": "_vault",
          "type": "address",
          "internalType": "contract IERC4626"
        },
        {
          "name": "_oracle",
          "type": "address",
          "internalType": "contract ISiloOracle"
        }
      ],
      "outputs": [],
      "stateMutability": "view"
    },
    {
      "type": "event",
      "name": "NewOracle",
      "inputs": [
        {
          "name": "oracle",
          "type": "address",
          "indexed": true,
          "internalType": "address"
        }
      ],
      "anonymous": false
    },
    {
      "type": "error",
      "name": "AssetZero",
      "inputs": []
    },
    {
      "type": "error",
      "name": "ExistingAddress",
      "inputs": []
    },
    {
      "type": "error",
      "name": "InvalidAccountNonce",
      "inputs": [
        {
          "name": "account",
          "type": "address",
          "internalType": "address"
        },
        {
          "name": "currentNonce",
          "type": "uint256",
          "internalType": "uint256"
        }
      ]
    },
    {
      "type": "error",
      "name": "NewOracleZero",
      "inputs": []
    },
    {
      "type": "error",
      "name": "QuoteTokenZero",
      "inputs": []
    },
    {
      "type": "error",
      "name": "ZeroAddress",
      "inputs": []
    },
    {
      "type": "error",
      "name": "ZeroQuote",
      "inputs": []
    }
  ],
  "bytecode": "0x6080604052348015600e575f5ffd5b50610df78061001c5f395ff3fe608060405234801561000f575f5ffd5b506004361061004a575f3560e01c80637ecebe001461004e578063c0d530a014610089578063d1692f56146100bb578063ff9e3187146100e6575b5f5ffd5b61007661005c366004610558565b6001600160a01b03165f9081526020819052604090205490565b6040519081526020015b60405180910390f35b6100ab610097366004610558565b60016020525f908152604090205460ff1681565b6040519015158152602001610080565b6100ce6100c9366004610573565b6100fb565b6040516001600160a01b039091168152602001610080565b6100f96100f43660046105b1565b6101b3565b005b5f61010684846101b3565b335f8181526020818152604091829020805460018101909155825160609490941b6bffffffffffffffffffffffff191684830152603484015260548084018690528251808503909101815260749093019091528151910120848460405161016c90610534565b6001600160a01b039283168152911660208201526040018190604051809103905ff59050801580156101a0573d5f5f3e3d5ffd5b5090506101ac81610486565b9392505050565b6001600160a01b0382166101da5760405163d92e233d60e01b815260040160405180910390fd5b6001600160a01b0381166102015760405163d92e233d60e01b815260040160405180910390fd5b5f826001600160a01b03166338d52e0f6040518163ffffffff1660e01b8152600401602060405180830381865afa15801561023e573d5f5f3e3d5ffd5b505050506040513d601f19601f8201168201806040525081019061026291906105e8565b90506001600160a01b03811661028b5760405163945841a560e01b815260040160405180910390fd5b5f6001600160a01b0316826001600160a01b031663217a4b706040518163ffffffff1660e01b8152600401602060405180830381865afa1580156102d1573d5f5f3e3d5ffd5b505050506040513d601f19601f820116820180604052508101906102f591906105e8565b6001600160a01b03160361031c576040516305235ce760e51b815260040160405180910390fd5b816001600160a01b03166313b0be33846001600160a01b03166338d52e0f6040518163ffffffff1660e01b8152600401602060405180830381865afa158015610367573d5f5f3e3d5ffd5b505050506040513d601f19601f8201168201806040525081019061038b91906105e8565b6001600160a01b031663313ce5676040518163ffffffff1660e01b8152600401602060405180830381865afa1580156103c6573d5f5f3e3d5ffd5b505050506040513d601f19601f820116820180604052508101906103ea9190610603565b6103f590600a61071c565b6040516001600160e01b031960e084901b16815260048101919091526001600160a01b0384166024820152604401602060405180830381865afa15801561043e573d5f5f3e3d5ffd5b505050506040513d601f19601f82011682018060405250810190610462919061072a565b5f03610481576040516301a7e28b60e61b815260040160405180910390fd5b505050565b6001600160a01b0381166104ad576040516314ea113360e01b815260040160405180910390fd5b6001600160a01b0381165f9081526001602052604090205460ff16156104e6576040516306de2c2b60e31b815260040160405180910390fd5b6001600160a01b0381165f818152600160208190526040808320805460ff1916909217909155517fb3eacd0e351fafdfefdec84e1cd19679b38dbcd63ea7c2c24da17fd2bc3b3c0e9190a250565b6106808061074283390190565b6001600160a01b0381168114610555575f5ffd5b50565b5f60208284031215610568575f5ffd5b81356101ac81610541565b5f5f5f60608486031215610585575f5ffd5b833561059081610541565b925060208401356105a081610541565b929592945050506040919091013590565b5f5f604083850312156105c2575f5ffd5b82356105cd81610541565b915060208301356105dd81610541565b809150509250929050565b5f602082840312156105f8575f5ffd5b81516101ac81610541565b5f60208284031215610613575f5ffd5b815160ff811681146101ac575f5ffd5b634e487b7160e01b5f52601160045260245ffd5b6001815b60018411156106725780850481111561065657610656610623565b600184161561066457908102905b60019390931c92800261063b565b935093915050565b5f8261068857506001610716565b8161069457505f610716565b81600181146106aa57600281146106b4576106d0565b6001915050610716565b60ff8411156106c5576106c5610623565b50506001821b610716565b5060208310610133831016604e8410600b84101617156106f3575081810a610716565b6106ff5f198484610637565b805f190482111561071257610712610623565b0290505b92915050565b5f6101ac60ff84168361067a565b5f6020828403121561073a575f5ffd5b505191905056fe610100604052348015610010575f5ffd5b5060405161068038038061068083398101604081905261002f91610146565b6001600160a01b03808316608081905290821660e052604080516338d52e0f60e01b815290516338d52e0f916004808201926020929091908290030181865afa15801561007e573d5f5f3e3d5ffd5b505050506040513d601f19601f820116820180604052508101906100a2919061017e565b6001600160a01b031660c0816001600160a01b031681525050806001600160a01b031663217a4b706040518163ffffffff1660e01b8152600401602060405180830381865afa1580156100f7573d5f5f3e3d5ffd5b505050506040513d601f19601f8201168201806040525081019061011b919061017e565b6001600160a01b031660a052506101a09050565b6001600160a01b0381168114610143575f5ffd5b50565b5f5f60408385031215610157575f5ffd5b82516101628161012f565b60208401519092506101738161012f565b809150509250929050565b5f6020828403121561018e575f5ffd5b81516101998161012f565b9392505050565b60805160a05160c05160e05161048c6101f45f395f818161016b015261034601525f818161013c015261031b01525f81816081015261010d01525f818160de01528181610224015261028c015261048c5ff3fe608060405234801561000f575f5ffd5b506004361061004a575f3560e01c806313b0be331461004e578063217a4b7014610074578063c3f909d4146100ab578063f9fa619a146101de575b5f5ffd5b61006161005c3660046103f5565b6101f1565b6040519081526020015b60405180910390f35b6040516001600160a01b037f000000000000000000000000000000000000000000000000000000000000000016815260200161006b565b61019b604080516080810182525f80825260208201819052918101829052606081019190915260405180608001604052807f00000000000000000000000000000000000000000000000000000000000000006001600160a01b031681526020017f00000000000000000000000000000000000000000000000000000000000000006001600160a01b031681526020017f00000000000000000000000000000000000000000000000000000000000000006001600160a01b031681526020017f00000000000000000000000000000000000000000000000000000000000000006001600160a01b0316815250905090565b60405161006b919081516001600160a01b039081168252602080840151821690830152604080840151821690830152606092830151169181019190915260800190565b6101ef6101ec36600461041f565b50565b005b5f6fffffffffffffffffffffffffffffffff831061022257604051631df5999960e21b815260040160405180910390fd5b7f00000000000000000000000000000000000000000000000000000000000000006001600160a01b0316826001600160a01b0316146102745760405163981a2a2b60e01b815260040160405180910390fd5b6040516303d1689d60e11b8152600481018490525f907f00000000000000000000000000000000000000000000000000000000000000006001600160a01b0316906307a2d13a90602401602060405180830381865afa1580156102d9573d5f5f3e3d5ffd5b505050506040513d601f19601f820116820180604052508101906102fd919061043f565b6040516313b0be3360e01b8152600481018290526001600160a01b037f0000000000000000000000000000000000000000000000000000000000000000811660248301529192507f0000000000000000000000000000000000000000000000000000000000000000909116906313b0be3390604401602060405180830381865afa15801561038d573d5f5f3e3d5ffd5b505050506040513d601f19601f820116820180604052508101906103b1919061043f565b9150815f036103d3576040516301a7e28b60e61b815260040160405180910390fd5b5092915050565b80356001600160a01b03811681146103f0575f5ffd5b919050565b5f5f60408385031215610406575f5ffd5b82359150610416602084016103da565b90509250929050565b5f6020828403121561042f575f5ffd5b610438826103da565b9392505050565b5f6020828403121561044f575f5ffd5b505191905056fea264697066735822122014558513211ba682b741061870ea8991904e25ce48d98a49e0af8a0772a5ab3f64736f6c634300081c0033a26469706673582212200d16bf32f2dc6a13c5341985a05ed3cdb1d6e37ec3eda89e82ec909b5c432a4c64736f6c634300081c0033",
  "language": "Solidity",
  "compiler": "0.8.28+commit.7893614a"
}