{
  "address": "0x9F65B9bf51c00B54593965E91BdA486900F8F55a",
  "abi": [
    {
      "type": "constructor",
      "inputs": [
        {
          "name": "_pendleOracle",
          "type": "address",
          "internalType": "contract IPyYtLpOracleLike"
        }
      ],
      "stateMutability": "nonpayable"
    },
    {
      "type": "function",
      "name": "PENDLE_ORACLE",
      "inputs": [],
      "outputs": [
        {
          "name": "",
          "type": "address",
          "internalType": "contract IPyYtLpOracleLike"
        }
      ],
      "stateMutability": "view"
    },
    {
      "type": "function",
      "name": "create",
      "inputs": [
        {
          "name": "_underlyingOracle",
          "type": "address",
          "internalType": "contract ISiloOracle"
        },
        {
          "name": "_market",
          "type": "address",
          "internalType": "address"
        },
        {
          "name": "_externalSalt",
          "type": "bytes32",
          "internalType": "bytes32"
        }
      ],
      "outputs": [
        {
          "name": "pendlePTOracle",
          "type": "address",
          "internalType": "contract ISiloOracle"
        }
      ],
      "stateMutability": "nonpayable"
    },
    {
      "type": "function",
      "name": "createdInFactory",
      "inputs": [
        {
          "name": "",
          "type": "address",
          "internalType": "contract ISiloOracle"
        }
      ],
      "outputs": [
        {
          "name": "",
          "type": "bool",
          "internalType": "bool"
        }
      ],
      "stateMutability": "view"
    },
    {
      "type": "function",
      "name": "nonces",
      "inputs": [
        {
          "name": "owner",
          "type": "address",
          "internalType": "address"
        }
      ],
      "outputs": [
        {
          "name": "",
          "type": "uint256",
          "internalType": "uint256"
        }
      ],
      "stateMutability": "view"
    },
    {
      "type": "event",
      "name": "PendlePTOracleCreated",
      "inputs": [
        {
          "name": "pendlePTOracle",
          "type": "address",
          "indexed": true,
          "internalType": "contract ISiloOracle"
        }
      ],
      "anonymous": false
    },
    {
      "type": "error",
      "name": "InvalidAccountNonce",
      "inputs": [
        {
          "name": "account",
          "type": "address",
          "internalType": "address"
        },
        {
          "name": "currentNonce",
          "type": "uint256",
          "internalType": "uint256"
        }
      ]
    },
    {
      "type": "error",
      "name": "PendleOracleIsZero",
      "inputs": []
    }
  ],
  "bytecode": "0x60a0604052348015600e575f5ffd5b506040516113cf3803806113cf833981016040819052602b916061565b6001600160a01b038116605157604051635d26e47b60e11b815260040160405180910390fd5b6001600160a01b0316608052608c565b5f602082840312156070575f5ffd5b81516001600160a01b03811681146085575f5ffd5b9392505050565b6080516113256100aa5f395f8181608e015261016401526113255ff3fe608060405234801561000f575f5ffd5b506004361061004a575f3560e01c80637ecebe001461004e5780639c977cf014610089578063b32d705b146100c8578063d1692f56146100fa575b5f5ffd5b61007661005c366004610249565b6001600160a01b03165f9081526020819052604090205490565b6040519081526020015b60405180910390f35b6100b07f000000000000000000000000000000000000000000000000000000000000000081565b6040516001600160a01b039091168152602001610080565b6100ea6100d6366004610249565b60016020525f908152604090205460ff1681565b6040519015158152602001610080565b6100b061010836600461026b565b335f81815260208181526040808320805460018101909155815160609590951b6bffffffffffffffffffffffff1916858401526034850152605480850186905281518086039091018152607490940190528251920191909120847f00000000000000000000000000000000000000000000000000000000000000008560405161019090610225565b6001600160a01b039384168152918316602083015290911660408201526060018190604051809103905ff59050801580156101cd573d5f5f3e3d5ffd5b506001600160a01b0381165f818152600160208190526040808320805460ff19169092179091555192935090917fbaf8ec7d598cbe2ba31c564e5e35ff01d41b83c9429995a4ff25ede25a482d229190a29392505050565b611046806102aa83390190565b6001600160a01b0381168114610246575f5ffd5b50565b5f60208284031215610259575f5ffd5b813561026481610232565b9392505050565b5f5f5f6060848603121561027d575f5ffd5b833561028881610232565b9250602084013561029881610232565b92959294505050604091909101359056fe610140604052348015610010575f5ffd5b5060405161104638038061104683398101604081905261002f9161053a565b5f610039826102c7565b90505f61004583610330565b90505f610051826103fd565b60405162439f4b60e91b81526001600160a01b03868116600483015261070860248301529192505f9182919088169063873e960090604401606060405180830381865afa1580156100a4573d5f5f3e3d5ffd5b505050506040513d601f19601f820116820180604052508101906100c89190610598565b92505091508080156100d8575081155b6100f55760405163b498fea160e01b815260040160405180910390fd5b60405163a31426d160e01b81526001600160a01b038781166004830152610708602483015288169063a31426d190604401602060405180830381865afa158015610141573d5f5f3e3d5ffd5b505050506040513d601f19601f8201168201806040525081019061016591906105e0565b5f036101845760405163386fdf2d60e11b815260040160405180910390fd5b5f61019084600a6106f0565b6040516313b0be3360e01b8152600481018290526001600160a01b038781166024830152919250908a16906313b0be3390604401602060405180830381865afa1580156101df573d5f5f3e3d5ffd5b505050506040513d601f19601f8201168201806040525081019061020391906105e0565b5f03610225576040516001620cca2360e01b0319815260040160405180910390fd5b6001600160a01b03808a16608081905289821660a05287821660c05286821660e0529088166101005260408051630217a4b760e41b8152905163217a4b70916004808201926020929091908290030181865afa158015610287573d5f5f3e3d5ffd5b505050506040513d601f19601f820116820180604052508101906102ab91906106fb565b6001600160a01b0316610120525061074c975050505050505050565b5f816001600160a01b0316632c8ce6bc6040518163ffffffff1660e01b8152600401606060405180830381865afa158015610304573d5f5f3e3d5ffd5b505050506040513d601f19601f82011682018060405250810190610328919061053a565b509392505050565b5f5f826001600160a01b0316632c8ce6bc6040518163ffffffff1660e01b8152600401606060405180830381865afa15801561036e573d5f5f3e3d5ffd5b505050506040513d601f19601f82011682018060405250810190610392919061053a565b50509050806001600160a01b03166376d5de856040518163ffffffff1660e01b8152600401602060405180830381865afa1580156103d2573d5f5f3e3d5ffd5b505050506040513d601f19601f820116820180604052508101906103f691906106fb565b9392505050565b6040805160048152602481019091526020810180516001600160e01b0390811663313ce56760e01b179091525f918291829161043c9186919061046d16565b915091508161044e57505f9392505050565b808060200190518101906104629190610716565b60ff16949350505050565b5f60606001600160a01b0384163b610498576040516373d39f9d60e01b815260040160405180910390fd5b5f5f856001600160a01b0316856040516104b29190610736565b5f60405180830381855afa9150503d805f81146104ea576040519150601f19603f3d011682016040523d82523d5f602084013e6104ef565b606091505b509150915081610514575f60405180602001604052805f81525093509350505061051c565b600193509150505b9250929050565b6001600160a01b0381168114610537575f5ffd5b50565b5f5f5f6060848603121561054c575f5ffd5b835161055781610523565b602085015190935061056881610523565b604085015190925061057981610523565b809150509250925092565b80518015158114610593575f5ffd5b919050565b5f5f5f606084860312156105aa575f5ffd5b6105b384610584565b9250602084015161ffff811681146105c9575f5ffd5b91506105d760408501610584565b90509250925092565b5f602082840312156105f0575f5ffd5b5051919050565b634e487b7160e01b5f52601160045260245ffd5b6001815b60018411156106465780850481111561062a5761062a6105f7565b600184161561063857908102905b60019390931c92800261060f565b935093915050565b5f8261065c575060016106ea565b8161066857505f6106ea565b816001811461067e5760028114610688576106a4565b60019150506106ea565b60ff841115610699576106996105f7565b50506001821b6106ea565b5060208310610133831016604e8410600b84101617156106c7575081810a6106ea565b6106d35f19848461060b565b805f19048211156106e6576106e66105f7565b0290505b92915050565b5f6103f6838361064e565b5f6020828403121561070b575f5ffd5b81516103f681610523565b5f60208284031215610726575f5ffd5b815160ff811681146103f6575f5ffd5b5f82518060208501845e5f920191825250919050565b60805160a05160c05160e051610100516101205161087c6107ca5f395f818160f7015261015a01525f818161024a01526102e901525f8181610223015281816103b5015261049401525f81816101fc015261028201525f81816101ae015261031b01525f81816101d5015281816103dd01526104bf015261087c5ff3fe608060405234801561000f575f5ffd5b50600436106100cb575f3560e01c8063879ac8f811610088578063bce2e8d911610063578063bce2e8d9146101f7578063e928bf9a1461021e578063f46f16c214610245578063f9fa619a1461026c575f5ffd5b8063879ac8f81461018b5780639c977cf0146101a9578063ac912490146101d0575f5ffd5b806313b0be33146100cf578063217a4b70146100f557806321d118ef1461012f5780634a5eabc21461014257806378892cea146101555780637ab7e36d1461017c575b5f5ffd5b6100e26100dd36600461076d565b61027f565b6040519081526020015b60405180910390f35b7f00000000000000000000000000000000000000000000000000000000000000005b6040516001600160a01b0390911681526020016100ec565b61011761013d36600461079b565b610555565b61011761015036600461079b565b6105be565b6101177f000000000000000000000000000000000000000000000000000000000000000081565b6100e2670de0b6b3a764000081565b61019461070881565b60405163ffffffff90911681526020016100ec565b6101177f000000000000000000000000000000000000000000000000000000000000000081565b6101177f000000000000000000000000000000000000000000000000000000000000000081565b6101177f000000000000000000000000000000000000000000000000000000000000000081565b6101177f000000000000000000000000000000000000000000000000000000000000000081565b6101177f000000000000000000000000000000000000000000000000000000000000000081565b61027d61027a36600461079b565b50565b005b5f7f00000000000000000000000000000000000000000000000000000000000000006001600160a01b0316826001600160a01b0316146102d25760405163981a2a2b60e01b815260040160405180910390fd5b60405163a31426d160e01b81526001600160a01b037f00000000000000000000000000000000000000000000000000000000000000008116600483015261070860248301525f917f00000000000000000000000000000000000000000000000000000000000000009091169063a31426d190604401602060405180830381865afa158015610362573d5f5f3e3d5ffd5b505050506040513d601f19601f8201168201806040525081019061038691906107b6565b9050670de0b6b3a76400008111610462576040516313b0be3360e01b8152600481018590526001600160a01b037f0000000000000000000000000000000000000000000000000000000000000000811660248301527f000000000000000000000000000000000000000000000000000000000000000016906313b0be3390604401602060405180830381865afa158015610422573d5f5f3e3d5ffd5b505050506040513d601f19601f8201168201806040525081019061044691906107b6565b915061045b8282670de0b6b3a764000061068b565b915061052e565b5f6104768583670de0b6b3a764000061068b565b6040516313b0be3360e01b8152600481018290526001600160a01b037f0000000000000000000000000000000000000000000000000000000000000000811660248301529192507f0000000000000000000000000000000000000000000000000000000000000000909116906313b0be3390604401602060405180830381865afa158015610506573d5f5f3e3d5ffd5b505050506040513d601f19601f8201168201806040525081019061052a91906107b6565b9250505b815f0361054e57604051634dfba02360e01b815260040160405180910390fd5b5092915050565b5f816001600160a01b0316632c8ce6bc6040518163ffffffff1660e01b8152600401606060405180830381865afa158015610592573d5f5f3e3d5ffd5b505050506040513d601f19601f820116820180604052508101906105b691906107cd565b509392505050565b5f5f826001600160a01b0316632c8ce6bc6040518163ffffffff1660e01b8152600401606060405180830381865afa1580156105fc573d5f5f3e3d5ffd5b505050506040513d601f19601f8201168201806040525081019061062091906107cd565b50509050806001600160a01b03166376d5de856040518163ffffffff1660e01b8152600401602060405180830381865afa158015610660573d5f5f3e3d5ffd5b505050506040513d601f19601f820116820180604052508101906106849190610817565b9392505050565b5f838302815f1985870982811083820303915050805f036106bf578382816106b5576106b5610832565b0492505050610684565b8084116106dd576106dd84156106d6576011610748565b6012610748565b5f848688095f868103871696879004966002600389028118808a02820302808a02820302808a02820302808a02820302808a02820302808a02909103029181900381900460010186841190950394909402919094039290920491909117919091029150509392505050565b634e487b715f52806020526024601cfd5b6001600160a01b038116811461027a575f5ffd5b5f5f6040838503121561077e575f5ffd5b82359150602083013561079081610759565b809150509250929050565b5f602082840312156107ab575f5ffd5b813561068481610759565b5f602082840312156107c6575f5ffd5b5051919050565b5f5f5f606084860312156107df575f5ffd5b83516107ea81610759565b60208501519093506107fb81610759565b604085015190925061080c81610759565b809150509250925092565b5f60208284031215610827575f5ffd5b815161068481610759565b634e487b7160e01b5f52601260045260245ffdfea26469706673582212201850fdd738c6dbf287456ed736421127255cacab430d5d1a36eb17caa8a6530764736f6c634300081c0033a264697066735822122048dec5620a9ff32f610e24df0674d3a18d6f2d312189d28d6cf1945ac886dd0364736f6c634300081c0033",
  "language": "Solidity",
  "compiler": "0.8.28+commit.7893614a"
}