{
  "address": "0xDbFD293b7b348De44933e05CFcAACA2E06b1C000",
  "abi": [
    {
      "inputs": [
        {
          "internalType": "contract ISiloOracle",
          "name": "_underlyingOracle",
          "type": "address"
        },
        {
          "internalType": "contract IPendleLPWrapperLike",
          "name": "_wrapper",
          "type": "address"
        },
        {
          "internalType": "bytes32",
          "name": "_externalSalt",
          "type": "bytes32"
        }
      ],
      "name": "create",
      "outputs": [
        {
          "internalType": "contract ISiloOracle",
          "name": "pendleWrapperLPTToSyOracle",
          "type": "address"
        }
      ],
      "stateMutability": "nonpayable",
      "type": "function"
    },
    {
      "inputs": [
        {
          "internalType": "contract ISiloOracle",
          "name": "",
          "type": "address"
        }
      ],
      "name": "createdInFactory",
      "outputs": [
        {
          "internalType": "bool",
          "name": "",
          "type": "bool"
        }
      ],
      "stateMutability": "view",
      "type": "function"
    },
    {
      "inputs": [
        {
          "internalType": "address",
          "name": "owner",
          "type": "address"
        }
      ],
      "name": "nonces",
      "outputs": [
        {
          "internalType": "uint256",
          "name": "",
          "type": "uint256"
        }
      ],
      "stateMutability": "view",
      "type": "function"
    },
    {
      "anonymous": false,
      "inputs": [
        {
          "indexed": true,
          "internalType": "contract ISiloOracle",
          "name": "pendleWrapperLPTToSyOracle",
          "type": "address"
        }
      ],
      "name": "PendleWrapperLPTToSyOracleCreated",
      "type": "event"
    },
    {
      "inputs": [
        {
          "internalType": "address",
          "name": "account",
          "type": "address"
        },
        {
          "internalType": "uint256",
          "name": "currentNonce",
          "type": "uint256"
        }
      ],
      "name": "InvalidAccountNonce",
      "type": "error"
    }
  ],
  "bytecode": "0x6080604052348015600e575f5ffd5b50610fc58061001c5f395ff3fe608060405234801561000f575f5ffd5b506004361061003f575f3560e01c80637ecebe0014610043578063b32d705b1461007e578063d1692f56146100b0575b5f5ffd5b61006b6100513660046101f2565b6001600160a01b03165f9081526020819052604090205490565b6040519081526020015b60405180910390f35b6100a061008c3660046101f2565b60016020525f908152604090205460ff1681565b6040519015158152602001610075565b6100c36100be366004610214565b6100db565b6040516001600160a01b039091168152602001610075565b335f81815260208181526040808320805460018101909155815160609590951b6bffffffffffffffffffffffff19168584015260348501526054808501869052815180860390910181526074909401905282519201919091208484604051610142906101ce565b6001600160a01b039283168152911660208201526040018190604051809103905ff5905080158015610176573d5f5f3e3d5ffd5b506001600160a01b0381165f818152600160208190526040808320805460ff19169092179091555192935090917f2d43e2f2f7b8622fb480305e6bf799e65271622715d6c0eb7b22ecccb86b0fcd9190a29392505050565b610d3d8061025383390190565b6001600160a01b03811681146101ef575f5ffd5b50565b5f60208284031215610202575f5ffd5b813561020d816101db565b9392505050565b5f5f5f60608486031215610226575f5ffd5b8335610231816101db565b92506020840135610241816101db565b92959294505050604091909101359056fe610120604052348015610010575f5ffd5b50604051610d3d380380610d3d83398101604081905261002f91610573565b81816001600160a01b031663b6fccf8a6040518163ffffffff1660e01b8152600401602060405180830381865afa15801561006c573d5f5f3e3d5ffd5b505050506040513d601f19601f8201168201806040525081019061009091906105ab565b6001600160a01b03811660c05281815f6100a86102db565b60405162439f4b60e91b81526001600160a01b038416600482015261070860248201529091505f908190739a9fa8338dd5e5b2188006f1cd2ef26d921650c29063873e960090604401606060405180830381865afa15801561010c573d5f5f3e3d5ffd5b505050506040513d601f19601f8201168201806040525081019061013091906105e1565b9250509150811561015457604051636d75962960e01b815260040160405180910390fd5b8061017257604051637388288f60e11b815260040160405180910390fd5b61017a6103a9565b5f0361019957604051632ef8cd3960e11b815260040160405180910390fd5b5f6101a384610436565b6101ae90600a610722565b6040516313b0be3360e01b8152600481018290526001600160a01b038681166024830152919250908716906313b0be3390604401602060405180830381865afa1580156101fd573d5f5f3e3d5ffd5b505050506040513d601f19601f82011682018060405250810190610221919061072d565b5f03610243576040516001620cca2360e01b0319815260040160405180910390fd5b6001600160a01b03808716608081905290851660a05260408051630217a4b760e41b8152905163217a4b70916004808201926020929091908290030181865afa158015610292573d5f5f3e3d5ffd5b505050506040513d601f19601f820116820180604052508101906102b691906105ab565b6001600160a01b0390811660e0529890981661010052506107c4975050505050505050565b5f5f60c0516001600160a01b0316632c8ce6bc6040518163ffffffff1660e01b8152600401606060405180830381865afa15801561031b573d5f5f3e3d5ffd5b505050506040513d601f19601f8201168201806040525081019061033f9190610744565b50509050806001600160a01b03166376d5de856040518163ffffffff1660e01b8152600401602060405180830381865afa15801561037f573d5f5f3e3d5ffd5b505050506040513d601f19601f820116820180604052508101906103a391906105ab565b91505090565b60c051604051634d44ca8960e01b81526001600160a01b03909116600482015261070860248201525f90739a9fa8338dd5e5b2188006f1cd2ef26d921650c290634d44ca8990604401602060405180830381865afa15801561040d573d5f5f3e3d5ffd5b505050506040513d601f19601f82011682018060405250810190610431919061072d565b905090565b6040805160048152602481019091526020810180516001600160e01b0390811663313ce56760e01b179091525f9182918291610475918691906104a616565b915091508161048757505f9392505050565b8080602001905181019061049b919061078e565b60ff16949350505050565b5f60606001600160a01b0384163b6104d1576040516373d39f9d60e01b815260040160405180910390fd5b5f5f856001600160a01b0316856040516104eb91906107ae565b5f60405180830381855afa9150503d805f8114610523576040519150601f19603f3d011682016040523d82523d5f602084013e610528565b606091505b50915091508161054d575f60405180602001604052805f815250935093505050610555565b600193509150505b9250929050565b6001600160a01b0381168114610570575f5ffd5b50565b5f5f60408385031215610584575f5ffd5b825161058f8161055c565b60208401519092506105a08161055c565b809150509250929050565b5f602082840312156105bb575f5ffd5b81516105c68161055c565b9392505050565b805180151581146105dc575f5ffd5b919050565b5f5f5f606084860312156105f3575f5ffd5b6105fc846105cd565b9250602084015161ffff81168114610612575f5ffd5b9150610620604085016105cd565b90509250925092565b634e487b7160e01b5f52601160045260245ffd5b6001815b60018411156106785780850481111561065c5761065c610629565b600184161561066a57908102905b60019390931c928002610641565b935093915050565b5f8261068e5750600161071c565b8161069a57505f61071c565b81600181146106b057600281146106ba576106d6565b600191505061071c565b60ff8411156106cb576106cb610629565b50506001821b61071c565b5060208310610133831016604e8410600b84101617156106f9575081810a61071c565b6107055f19848461063d565b805f190482111561071857610718610629565b0290505b92915050565b5f6105c68383610680565b5f6020828403121561073d575f5ffd5b5051919050565b5f5f5f60608486031215610756575f5ffd5b83516107618161055c565b60208501519093506107728161055c565b60408501519092506107838161055c565b809150509250925092565b5f6020828403121561079e575f5ffd5b815160ff811681146105c6575f5ffd5b5f82518060208501845e5f920191825250919050565b60805160a05160c05160e0516101005161051a6108235f395f8181610161015261022f01525f8181610111015261018801525f818160af015261039401525f818161013a015261029d01525f81816101f701526102c5015261051a5ff3fe608060405234801561000f575f5ffd5b50600436106100a6575f3560e01c806378892cea1161006e57806378892cea146101835780637ab7e36d146101aa578063879ac8f8146101b95780639c977cf0146101d7578063ac912490146101f2578063f9fa619a14610219575f5ffd5b80630f61ac82146100aa57806313b0be33146100ee578063217a4b701461010f57806329db1be6146101355780633b5bfb8a1461015c575b5f5ffd5b6100d17f000000000000000000000000000000000000000000000000000000000000000081565b6040516001600160a01b0390911681526020015b60405180910390f35b6101016100fc366004610441565b61022c565b6040519081526020016100e5565b7f00000000000000000000000000000000000000000000000000000000000000006100d1565b6100d17f000000000000000000000000000000000000000000000000000000000000000081565b6100d17f000000000000000000000000000000000000000000000000000000000000000081565b6100d17f000000000000000000000000000000000000000000000000000000000000000081565b610101670de0b6b3a764000081565b6101c261070881565b60405163ffffffff90911681526020016100e5565b6100d1739a9fa8338dd5e5b2188006f1cd2ef26d921650c281565b6100d17f000000000000000000000000000000000000000000000000000000000000000081565b61022a61022736600461046b565b50565b005b5f7f00000000000000000000000000000000000000000000000000000000000000006001600160a01b0316826001600160a01b03161461027f5760405163981a2a2b60e01b815260040160405180910390fd5b6040516313b0be3360e01b8152600481018490526001600160a01b037f0000000000000000000000000000000000000000000000000000000000000000811660248301527f000000000000000000000000000000000000000000000000000000000000000016906313b0be3390604401602060405180830381865afa15801561030a573d5f5f3e3d5ffd5b505050506040513d601f19601f8201168201806040525081019061032e919061048b565b9050670de0b6b3a764000061034161037d565b61034b90836104a2565b61035591906104c5565b9050805f0361037757604051634dfba02360e01b815260040160405180910390fd5b92915050565b604051634d44ca8960e01b81526001600160a01b037f000000000000000000000000000000000000000000000000000000000000000016600482015261070860248201525f90739a9fa8338dd5e5b2188006f1cd2ef26d921650c290634d44ca8990604401602060405180830381865afa1580156103fd573d5f5f3e3d5ffd5b505050506040513d601f19601f82011682018060405250810190610421919061048b565b905090565b80356001600160a01b038116811461043c575f5ffd5b919050565b5f5f60408385031215610452575f5ffd5b8235915061046260208401610426565b90509250929050565b5f6020828403121561047b575f5ffd5b61048482610426565b9392505050565b5f6020828403121561049b575f5ffd5b5051919050565b808202811582820484141761037757634e487b7160e01b5f52601160045260245ffd5b5f826104df57634e487b7160e01b5f52601260045260245ffd5b50049056fea26469706673582212206b6e2368da7b3f94ee353fbd5399e3a6c0c329789e317f58ff9b512e937aa0aa64736f6c634300081c0033a26469706673582212201db913a2e151c4b965cd5c86f175259cbc4453cf55e72e09cbe01ea349c0ef6c64736f6c634300081c0033",
  "language": "Solidity",
  "compiler": "0.8.28+commit.7893614a"
}