{
  "address": "0xA1BC7C2D9185F10D6D50075fAeA3c1e20927674c",
  "abi": [
    {
      "inputs": [],
      "name": "decimals",
      "outputs": [
        {
          "internalType": "uint8",
          "name": "",
          "type": "uint8"
        }
      ],
      "stateMutability": "pure",
      "type": "function"
    },
    {
      "inputs": [],
      "name": "name",
      "outputs": [
        {
          "internalType": "string",
          "name": "",
          "type": "string"
        }
      ],
      "stateMutability": "pure",
      "type": "function"
    },
    {
      "inputs": [],
      "name": "symbol",
      "outputs": [
        {
          "internalType": "string",
          "name": "",
          "type": "string"
        }
      ],
      "stateMutability": "pure",
      "type": "function"
    }
  ],
  "bytecode": "0x6080604052348015600e575f5ffd5b506101158061001c5f395ff3fe6080604052348015600e575f5ffd5b5060043610603a575f3560e01c806306fdde0314603e578063313ce56714607c57806395d89b4114608a575b5f5ffd5b60408051808201909152601281527114da5b1bc8159a5c9d1d585b08105cdcd95d60721b60208201525b6040516073919060aa565b60405180910390f35b604051600881526020016073565b60408051808201909152600581526414d5904e1160da1b60208201526068565b602081525f82518060208401528060208501604085015e5f604082850101526040601f19601f8301168401019150509291505056fea2646970667358221220322db8c68dedbba910c5f0ade31004de0834905ea3520db95363f3486f39e2b564736f6c634300081c0033",
  "language": "Solidity",
  "compiler": "0.8.28+commit.7893614a"
}