{
  "address": "0x83f369c267038c885674EbfbA624ab0a41548A14",
  "abi": [
    {
      "inputs": [
        {
          "internalType": "contract IERC4626",
          "name": "_vault",
          "type": "address"
        },
        {
          "internalType": "bytes32",
          "name": "_externalSalt",
          "type": "bytes32"
        }
      ],
      "name": "createIdleVault",
      "outputs": [
        {
          "internalType": "contract IdleVault",
          "name": "idleVault",
          "type": "address"
        }
      ],
      "stateMutability": "nonpayable",
      "type": "function"
    },
    {
      "inputs": [
        {
          "internalType": "address",
          "name": "",
          "type": "address"
        }
      ],
      "name": "isIdleVault",
      "outputs": [
        {
          "internalType": "bool",
          "name": "",
          "type": "bool"
        }
      ],
      "stateMutability": "view",
      "type": "function"
    },
    {
      "inputs": [
        {
          "internalType": "address",
          "name": "owner",
          "type": "address"
        }
      ],
      "name": "nonces",
      "outputs": [
        {
          "internalType": "uint256",
          "name": "",
          "type": "uint256"
        }
      ],
      "stateMutability": "view",
      "type": "function"
    },
    {
      "anonymous": false,
      "inputs": [
        {
          "indexed": true,
          "internalType": "address",
          "name": "idleVault",
          "type": "address"
        },
        {
          "indexed": true,
          "internalType": "address",
          "name": "vault",
          "type": "address"
        }
      ],
      "name": "CreateIdleVault",
      "type": "event"
    },
    {
      "inputs": [
        {
          "internalType": "address",
          "name": "account",
          "type": "address"
        },
        {
          "internalType": "uint256",
          "name": "currentNonce",
          "type": "uint256"
        }
      ],
      "name": "InvalidAccountNonce",
      "type": "error"
    }
  ],
  "bytecode": "0x6080604052348015600e575f5ffd5b50611dd48061001c5f395ff3fe608060405234801561000f575f5ffd5b506004361061003f575f3560e01c8063724d6a05146100435780637ecebe001461007a578063be8defea146100b0575b5f5ffd5b61006561005136600461034c565b60016020525f908152604090205460ff1681565b60405190151581526020015b60405180910390f35b6100a261008836600461034c565b6001600160a01b03165f9081526020819052604090205490565b604051908152602001610071565b6100c36100be36600461036e565b6100db565b6040516001600160a01b039091168152602001610071565b335f81815260208181526040808320805460018101909155815160609590951b6bffffffffffffffffffffffff191685840152603485015260548085018690528151808603909101815260749094019052825192019190912083846001600160a01b03166338d52e0f6040518163ffffffff1660e01b8152600401602060405180830381865afa158015610171573d5f5f3e3d5ffd5b505050506040513d601f19601f820116820180604052508101906101959190610398565b856001600160a01b03166306fdde036040518163ffffffff1660e01b81526004015f60405180830381865afa1580156101d0573d5f5f3e3d5ffd5b505050506040513d5f823e601f3d908101601f191682016040526101f791908101906103c7565b6040516020016102079190610491565b604051602081830303815290604052866001600160a01b03166395d89b416040518163ffffffff1660e01b81526004015f60405180830381865afa158015610251573d5f5f3e3d5ffd5b505050506040513d5f823e601f3d908101601f1916820160405261027891908101906103c7565b60405160200161028891906104b3565b6040516020818303038152906040526040516102a390610328565b6102b094939291906104f8565b8190604051809103905ff59050801580156102cd573d5f5f3e3d5ffd5b506001600160a01b038082165f818152600160208190526040808320805460ff1916909217909155519394509186169290917f4286c5de1dad8bb5adc01a24cf8916f40c950a1859ec7bca4ac0c6efaef3090991a392915050565b61185e8061054183390190565b6001600160a01b0381168114610349575f5ffd5b50565b5f6020828403121561035c575f5ffd5b813561036781610335565b9392505050565b5f5f6040838503121561037f575f5ffd5b823561038a81610335565b946020939093013593505050565b5f602082840312156103a8575f5ffd5b815161036781610335565b634e487b7160e01b5f52604160045260245ffd5b5f602082840312156103d7575f5ffd5b815167ffffffffffffffff8111156103ed575f5ffd5b8201601f810184136103fd575f5ffd5b805167ffffffffffffffff811115610417576104176103b3565b604051601f8201601f19908116603f0116810167ffffffffffffffff81118282101715610446576104466103b3565b60405281815282820160200186101561045d575f5ffd5b8160208401602083015e5f91810160200191909152949350505050565b5f81518060208401855e5f93019283525090919050565b6d024b23632ab30bab63a103337b9160951b81525f610367600e83018461047a565b6249562d60e81b81525f610367600383018461047a565b5f81518084528060208401602086015e5f602082860101526020601f19601f83011685010191505092915050565b6001600160a01b038581168252841660208201526080604082018190525f90610523908301856104ca565b828103606084015261053581856104ca565b97965050505050505056fe60e060405234801561000f575f5ffd5b5060405161185e38038061185e83398101604081905261002e91610247565b828282600361003d8382610351565b50600461004a8282610351565b5050505f5f61005e836100b960201b60201c565b915091508161006e576012610070565b805b60ff1660a05250506001600160a01b0390811660805284166100a55760405163d92e233d60e01b815260040160405180910390fd5b5050506001600160a01b031660c052610438565b60408051600481526024810182526020810180516001600160e01b031663313ce56760e01b17905290515f918291829182916001600160a01b038716916100ff9161040b565b5f60405180830381855afa9150503d805f8114610137576040519150601f19603f3d011682016040523d82523d5f602084013e61013c565b606091505b509150915081801561015057506020815110155b15610183575f8180602001905181019061016a9190610421565b905060ff8111610181576001969095509350505050565b505b505f9485945092505050565b80516001600160a01b03811681146101a5575f5ffd5b919050565b634e487b7160e01b5f52604160045260245ffd5b5f82601f8301126101cd575f5ffd5b81516001600160401b038111156101e6576101e66101aa565b604051601f8201601f19908116603f011681016001600160401b0381118282101715610214576102146101aa565b60405281815283820160200185101561022b575f5ffd5b8160208501602083015e5f918101602001919091529392505050565b5f5f5f5f6080858703121561025a575f5ffd5b6102638561018f565b93506102716020860161018f565b60408601519093506001600160401b0381111561028c575f5ffd5b610298878288016101be565b606087015190935090506001600160401b038111156102b5575f5ffd5b6102c1878288016101be565b91505092959194509250565b600181811c908216806102e157607f821691505b6020821081036102ff57634e487b7160e01b5f52602260045260245ffd5b50919050565b601f82111561034c57805f5260205f20601f840160051c8101602085101561032a5750805b601f840160051c820191505b81811015610349575f8155600101610336565b50505b505050565b81516001600160401b0381111561036a5761036a6101aa565b61037e8161037884546102cd565b84610305565b6020601f8211600181146103b0575f83156103995750848201515b5f19600385901b1c1916600184901b178455610349565b5f84815260208120601f198516915b828110156103df57878501518255602094850194600190920191016103bf565b50848210156103fc57868401515f19600387901b60f8161c191681555b50505050600190811b01905550565b5f82518060208501845e5f920191825250919050565b5f60208284031215610431575f5ffd5b5051919050565b60805160a05160c0516113d261048c5f395f818161027801528181610565015281816105ad01526105f501525f61053e01525f818161023b015281816103d70152818161096b0152610c2401526113d25ff3fe608060405234801561000f575f5ffd5b5060043610610187575f3560e01c806370a08231116100d9578063ba08765211610093578063ce96cb771161006e578063ce96cb7714610362578063d905777e14610375578063dd62ed3e14610388578063ef8b30f71461034f575f5ffd5b8063ba0876521461033c578063c63d75b61461029a578063c6e6f5921461034f575f5ffd5b806370a08231146102c057806394bf804d146102e857806395d89b41146102fb578063a9059cbb14610303578063b3d7f6b914610316578063b460af9414610329575f5ffd5b806323b872dd116101445780633b4515241161011f5780633b45152414610273578063402d267d1461029a5780634cdad506146101bb5780636e553f65146102ad575f5ffd5b806323b872dd1461020c578063313ce5671461021f57806338d52e0f14610239575f5ffd5b806301e1d1141461018b57806306fdde03146101a657806307a2d13a146101bb578063095ea7b3146101ce5780630a28a477146101f157806318160ddd14610204575b5f5ffd5b6101936103c0565b6040519081526020015b60405180910390f35b6101ae61044d565b60405161019d9190611004565b6101936101c9366004611039565b6104dd565b6101e16101dc36600461106b565b6104ee565b604051901515815260200161019d565b6101936101ff366004611039565b610505565b600254610193565b6101e161021a366004611093565b610511565b610227610536565b60405160ff909116815260200161019d565b7f00000000000000000000000000000000000000000000000000000000000000005b6040516001600160a01b03909116815260200161019d565b61025b7f000000000000000000000000000000000000000000000000000000000000000081565b6101936102a83660046110cd565b610562565b6101936102bb3660046110e6565b6105aa565b6101936102ce3660046110cd565b6001600160a01b03165f9081526020819052604090205490565b6101936102f63660046110e6565b6105f2565b6101ae61063a565b6101e161031136600461106b565b610649565b610193610324366004611039565b610656565b610193610337366004611110565b610662565b61019361034a366004611110565b6106c1565b61019361035d366004611039565b61070e565b6101936103703660046110cd565b610719565b6101936103833660046110cd565b61073b565b610193610396366004611149565b6001600160a01b039182165f90815260016020908152604080832093909416825291909152205490565b6040516370a0823160e01b81523060048201525f907f00000000000000000000000000000000000000000000000000000000000000006001600160a01b0316906370a0823190602401602060405180830381865afa158015610424573d5f5f3e3d5ffd5b505050506040513d601f19601f820116820180604052508101906104489190611171565b905090565b60606003805461045c90611188565b80601f016020809104026020016040519081016040528092919081815260200182805461048890611188565b80156104d35780601f106104aa576101008083540402835291602001916104d3565b820191905f5260205f20905b8154815290600101906020018083116104b657829003601f168201915b5050505050905090565b5f6104e8825f610758565b92915050565b5f336104fb818585610791565b5060019392505050565b5f6104e88260016107a3565b5f3361051e8582856107d3565b61052985858561083b565b60019150505b9392505050565b5f61044860067f00000000000000000000000000000000000000000000000000000000000000006111d4565b5f7f00000000000000000000000000000000000000000000000000000000000000006001600160a01b0316826001600160a01b0316036105a3575f196104e8565b5f92915050565b5f7f00000000000000000000000000000000000000000000000000000000000000006001600160a01b0316826001600160a01b0316146105e8575f5ffd5b61052f8383610898565b5f7f00000000000000000000000000000000000000000000000000000000000000006001600160a01b0316826001600160a01b031614610630575f5ffd5b61052f83836108ec565b60606004805461045c90611188565b5f336104fb81858561083b565b5f6104e8826001610758565b5f5f61066d83610719565b90508085111561069f57828582604051633fa733bb60e21b8152600401610696939291906111ed565b60405180910390fd5b5f6106a986610505565b90506106b83386868985610938565b95945050505050565b5f5f6106cc8361073b565b9050808511156106f557828582604051632e52afbb60e21b8152600401610696939291906111ed565b5f6106ff866104dd565b90506106b8338686848a610938565b5f6104e8825f6107a3565b6001600160a01b0381165f908152602081905260408120546104e8905f610758565b6001600160a01b0381165f908152602081905260408120546104e8565b5f61052f6107646103c0565b61076f90600161120e565b61077b6006600a611304565b600254610788919061120e565b859190856109f8565b61079e8383836001610a3a565b505050565b5f61052f6107b36006600a611304565b6002546107c0919061120e565b6107c86103c0565b61078890600161120e565b6001600160a01b038381165f908152600160209081526040808320938616835292905220545f198114610835578181101561082757828183604051637dc7a0d960e11b8152600401610696939291906111ed565b61083584848484035f610a3a565b50505050565b6001600160a01b03831661086457604051634b637e8f60e11b81525f6004820152602401610696565b6001600160a01b03821661088d5760405163ec442f0560e01b81525f6004820152602401610696565b61079e838383610b0c565b5f5f6108a383610562565b9050808411156108cc57828482604051633c8097d960e11b8152600401610696939291906111ed565b5f6108d68561070e565b90506108e433858784610c1f565b949350505050565b5f5f6108f783610562565b9050808411156109205782848260405163284ff66760e01b8152600401610696939291906111ed565b5f61092a85610656565b90506108e433858388610c1f565b826001600160a01b0316856001600160a01b03161461095c5761095c8386836107d3565b6109668382610ca3565b6109917f00000000000000000000000000000000000000000000000000000000000000008584610cdb565b826001600160a01b0316846001600160a01b0316866001600160a01b03167ffbde797d201c681b91056529119e0b02407c7bb96a4a2c75c01fc9667232c8db85856040516109e9929190918252602082015260400190565b60405180910390a45050505050565b5f610a25610a0583610d3a565b8015610a2057505f8480610a1b57610a1b611312565b868809115b151590565b610a30868686610d66565b6106b8919061120e565b6001600160a01b038416610a635760405163e602df0560e01b81525f6004820152602401610696565b6001600160a01b038316610a8c57604051634a1406b160e11b81525f6004820152602401610696565b6001600160a01b038085165f908152600160209081526040808320938716835292905220829055801561083557826001600160a01b0316846001600160a01b03167f8c5be1e5ebec7d5bd14f71427d1e84f3dd0314c0f7b2291e5b200ac8c7c3b92584604051610afe91815260200190565b60405180910390a350505050565b6001600160a01b038316610b36578060025f828254610b2b919061120e565b90915550610b939050565b6001600160a01b0383165f9081526020819052604090205481811015610b755783818360405163391434e360e21b8152600401610696939291906111ed565b6001600160a01b0384165f9081526020819052604090209082900390555b6001600160a01b038216610baf57600280548290039055610bcd565b6001600160a01b0382165f9081526020819052604090208054820190555b816001600160a01b0316836001600160a01b03167fddf252ad1be2c89b69c2b068fc378daa952ba7f163c4a11628f55a4df523b3ef83604051610c1291815260200190565b60405180910390a3505050565b610c4b7f0000000000000000000000000000000000000000000000000000000000000000853085610e23565b610c558382610e5c565b826001600160a01b0316846001600160a01b03167fdcbc1c05240f31ff3ad067ef1ee35ce4997762752e3a095284754544f4c709d78484604051610afe929190918252602082015260400190565b6001600160a01b038216610ccc57604051634b637e8f60e11b81525f6004820152602401610696565b610cd7825f83610b0c565b5050565b6040516001600160a01b0383811660248301526044820183905261079e91859182169063a9059cbb906064015b604051602081830303815290604052915060e01b6020820180516001600160e01b038381831617835250505050610e90565b5f6002826003811115610d4f57610d4f611326565b610d59919061133a565b60ff166001149050919050565b5f838302815f1985870982811083820303915050805f03610d9a57838281610d9057610d90611312565b049250505061052f565b808411610db857610db88415610db1576011610ef1565b6012610ef1565b5f848688095f868103871696879004966002600389028118808a02820302808a02820302808a02820302808a02820302808a02820302808a02909103029181900381900460010186841190950394909402919094039290920491909117919091029150509392505050565b6040516001600160a01b0384811660248301528381166044830152606482018390526108359186918216906323b872dd90608401610d08565b6001600160a01b038216610e855760405163ec442f0560e01b81525f6004820152602401610696565b610cd75f8383610b0c565b5f610ea46001600160a01b03841683610f02565b905080515f14158015610ec8575080806020019051810190610ec69190611367565b155b1561079e57604051635274afe760e01b81526001600160a01b0384166004820152602401610696565b634e487b715f52806020526024601cfd5b606061052f83835f845f5f856001600160a01b03168486604051610f269190611386565b5f6040518083038185875af1925050503d805f8114610f60576040519150601f19603f3d011682016040523d82523d5f602084013e610f65565b606091505b5091509150610f75868383610f7f565b9695505050505050565b606082610f9457610f8f82610fdb565b61052f565b8151158015610fab57506001600160a01b0384163b155b15610fd457604051639996b31560e01b81526001600160a01b0385166004820152602401610696565b508061052f565b805115610feb5780518082602001fd5b60405163d6bda27560e01b815260040160405180910390fd5b602081525f82518060208401528060208501604085015e5f604082850101526040601f19601f83011684010191505092915050565b5f60208284031215611049575f5ffd5b5035919050565b80356001600160a01b0381168114611066575f5ffd5b919050565b5f5f6040838503121561107c575f5ffd5b61108583611050565b946020939093013593505050565b5f5f5f606084860312156110a5575f5ffd5b6110ae84611050565b92506110bc60208501611050565b929592945050506040919091013590565b5f602082840312156110dd575f5ffd5b61052f82611050565b5f5f604083850312156110f7575f5ffd5b8235915061110760208401611050565b90509250929050565b5f5f5f60608486031215611122575f5ffd5b8335925061113260208501611050565b915061114060408501611050565b90509250925092565b5f5f6040838503121561115a575f5ffd5b61116383611050565b915061110760208401611050565b5f60208284031215611181575f5ffd5b5051919050565b600181811c9082168061119c57607f821691505b6020821081036111ba57634e487b7160e01b5f52602260045260245ffd5b50919050565b634e487b7160e01b5f52601160045260245ffd5b60ff81811683821601908111156104e8576104e86111c0565b6001600160a01b039390931683526020830191909152604082015260600190565b808201808211156104e8576104e86111c0565b6001815b600184111561125c57808504811115611240576112406111c0565b600184161561124e57908102905b60019390931c928002611225565b935093915050565b5f82611272575060016104e8565b8161127e57505f6104e8565b8160018114611294576002811461129e576112ba565b60019150506104e8565b60ff8411156112af576112af6111c0565b50506001821b6104e8565b5060208310610133831016604e8410600b84101617156112dd575081810a6104e8565b6112e95f198484611221565b805f19048211156112fc576112fc6111c0565b029392505050565b5f61052f60ff841683611264565b634e487b7160e01b5f52601260045260245ffd5b634e487b7160e01b5f52602160045260245ffd5b5f60ff83168061135857634e487b7160e01b5f52601260045260245ffd5b8060ff84160691505092915050565b5f60208284031215611377575f5ffd5b8151801515811461052f575f5ffd5b5f82518060208501845e5f92019182525091905056fea2646970667358221220bdc4a81250435fe3c7709643a5b459f69c2f52e65cbb072ccf8ef77ea9dfa20a64736f6c634300081c0033a26469706673582212204d5b3587cfe0edfe60d1597b27e4cb39aba5071eba36c2b48ccac25ff0f0dfe064736f6c634300081c0033",
  "language": "Solidity",
  "compiler": "0.8.28+commit.7893614a"
}