{
  "address": "0xC95149D52dA227cfeb0425ac6803086Db5A193b7",
  "abi": [
    {
      "inputs": [
        {
          "internalType": "contract ISiloVault",
          "name": "",
          "type": "address"
        }
      ],
      "name": "accruedFee",
      "outputs": [
        {
          "internalType": "uint256",
          "name": "",
          "type": "uint256"
        }
      ],
      "stateMutability": "view",
      "type": "function"
    },
    {
      "inputs": [
        {
          "internalType": "contract ISiloVault",
          "name": "",
          "type": "address"
        }
      ],
      "name": "admin",
      "outputs": [
        {
          "internalType": "address",
          "name": "",
          "type": "address"
        }
      ],
      "stateMutability": "view",
      "type": "function"
    },
    {
      "inputs": [
        {
          "internalType": "contract ISiloVault",
          "name": "",
          "type": "address"
        }
      ],
      "name": "fee",
      "outputs": [
        {
          "internalType": "uint256",
          "name": "",
          "type": "uint256"
        }
      ],
      "stateMutability": "view",
      "type": "function"
    },
    {
      "inputs": [
        {
          "internalType": "contract ISiloVault",
          "name": "",
          "type": "address"
        },
        {
          "internalType": "contract IERC4626",
          "name": "",
          "type": "address"
        }
      ],
      "name": "flowCaps",
      "outputs": [
        {
          "internalType": "uint128",
          "name": "maxIn",
          "type": "uint128"
        },
        {
          "internalType": "uint128",
          "name": "maxOut",
          "type": "uint128"
        }
      ],
      "stateMutability": "view",
      "type": "function"
    },
    {
      "inputs": [
        {
          "internalType": "contract ISiloVault",
          "name": "vault",
          "type": "address"
        },
        {
          "components": [
            {
              "internalType": "contract IERC4626",
              "name": "market",
              "type": "address"
            },
            {
              "internalType": "uint128",
              "name": "amount",
              "type": "uint128"
            }
          ],
          "internalType": "struct Withdrawal[]",
          "name": "withdrawals",
          "type": "tuple[]"
        },
        {
          "internalType": "contract IERC4626",
          "name": "supplyMarket",
          "type": "address"
        }
      ],
      "name": "reallocateTo",
      "outputs": [],
      "stateMutability": "payable",
      "type": "function"
    },
    {
      "inputs": [
        {
          "internalType": "contract ISiloVault",
          "name": "vault",
          "type": "address"
        },
        {
          "internalType": "address",
          "name": "newAdmin",
          "type": "address"
        }
      ],
      "name": "setAdmin",
      "outputs": [],
      "stateMutability": "nonpayable",
      "type": "function"
    },
    {
      "inputs": [
        {
          "internalType": "contract ISiloVault",
          "name": "vault",
          "type": "address"
        },
        {
          "internalType": "uint256",
          "name": "newFee",
          "type": "uint256"
        }
      ],
      "name": "setFee",
      "outputs": [],
      "stateMutability": "nonpayable",
      "type": "function"
    },
    {
      "inputs": [
        {
          "internalType": "contract ISiloVault",
          "name": "vault",
          "type": "address"
        },
        {
          "components": [
            {
              "internalType": "contract IERC4626",
              "name": "market",
              "type": "address"
            },
            {
              "components": [
                {
                  "internalType": "uint128",
                  "name": "maxIn",
                  "type": "uint128"
                },
                {
                  "internalType": "uint128",
                  "name": "maxOut",
                  "type": "uint128"
                }
              ],
              "internalType": "struct FlowCaps",
              "name": "caps",
              "type": "tuple"
            }
          ],
          "internalType": "struct FlowCapsConfig[]",
          "name": "config",
          "type": "tuple[]"
        }
      ],
      "name": "setFlowCaps",
      "outputs": [],
      "stateMutability": "nonpayable",
      "type": "function"
    },
    {
      "inputs": [
        {
          "internalType": "contract ISiloVault",
          "name": "vault",
          "type": "address"
        },
        {
          "internalType": "address payable",
          "name": "feeRecipient",
          "type": "address"
        }
      ],
      "name": "transferFee",
      "outputs": [],
      "stateMutability": "nonpayable",
      "type": "function"
    },
    {
      "anonymous": false,
      "inputs": [
        {
          "indexed": true,
          "internalType": "address",
          "name": "sender",
          "type": "address"
        },
        {
          "indexed": true,
          "internalType": "contract ISiloVault",
          "name": "vault",
          "type": "address"
        },
        {
          "indexed": true,
          "internalType": "contract IERC4626",
          "name": "supplyMarket",
          "type": "address"
        },
        {
          "indexed": false,
          "internalType": "uint256",
          "name": "suppliedAssets",
          "type": "uint256"
        }
      ],
      "name": "PublicReallocateTo",
      "type": "event"
    },
    {
      "anonymous": false,
      "inputs": [
        {
          "indexed": true,
          "internalType": "address",
          "name": "sender",
          "type": "address"
        },
        {
          "indexed": true,
          "internalType": "contract ISiloVault",
          "name": "vault",
          "type": "address"
        },
        {
          "indexed": true,
          "internalType": "contract IERC4626",
          "name": "market",
          "type": "address"
        },
        {
          "indexed": false,
          "internalType": "uint256",
          "name": "withdrawnAssets",
          "type": "uint256"
        }
      ],
      "name": "PublicWithdrawal",
      "type": "event"
    },
    {
      "anonymous": false,
      "inputs": [
        {
          "indexed": true,
          "internalType": "address",
          "name": "sender",
          "type": "address"
        },
        {
          "indexed": true,
          "internalType": "contract ISiloVault",
          "name": "vault",
          "type": "address"
        },
        {
          "indexed": false,
          "internalType": "address",
          "name": "admin",
          "type": "address"
        }
      ],
      "name": "SetAdmin",
      "type": "event"
    },
    {
      "anonymous": false,
      "inputs": [
        {
          "indexed": true,
          "internalType": "address",
          "name": "sender",
          "type": "address"
        },
        {
          "indexed": true,
          "internalType": "contract ISiloVault",
          "name": "vault",
          "type": "address"
        },
        {
          "indexed": false,
          "internalType": "uint256",
          "name": "fee",
          "type": "uint256"
        }
      ],
      "name": "SetFee",
      "type": "event"
    },
    {
      "anonymous": false,
      "inputs": [
        {
          "indexed": true,
          "internalType": "address",
          "name": "sender",
          "type": "address"
        },
        {
          "indexed": true,
          "internalType": "contract ISiloVault",
          "name": "vault",
          "type": "address"
        },
        {
          "components": [
            {
              "internalType": "contract IERC4626",
              "name": "market",
              "type": "address"
            },
            {
              "components": [
                {
                  "internalType": "uint128",
                  "name": "maxIn",
                  "type": "uint128"
                },
                {
                  "internalType": "uint128",
                  "name": "maxOut",
                  "type": "uint128"
                }
              ],
              "internalType": "struct FlowCaps",
              "name": "caps",
              "type": "tuple"
            }
          ],
          "indexed": false,
          "internalType": "struct FlowCapsConfig[]",
          "name": "config",
          "type": "tuple[]"
        }
      ],
      "name": "SetFlowCaps",
      "type": "event"
    },
    {
      "anonymous": false,
      "inputs": [
        {
          "indexed": true,
          "internalType": "address",
          "name": "sender",
          "type": "address"
        },
        {
          "indexed": true,
          "internalType": "contract ISiloVault",
          "name": "vault",
          "type": "address"
        },
        {
          "indexed": false,
          "internalType": "uint256",
          "name": "amount",
          "type": "uint256"
        },
        {
          "indexed": true,
          "internalType": "address",
          "name": "feeRecipient",
          "type": "address"
        }
      ],
      "name": "TransferFee",
      "type": "event"
    },
    {
      "inputs": [],
      "name": "AlreadySet",
      "type": "error"
    },
    {
      "inputs": [],
      "name": "DepositMarketInWithdrawals",
      "type": "error"
    },
    {
      "inputs": [],
      "name": "EmptyWithdrawals",
      "type": "error"
    },
    {
      "inputs": [],
      "name": "InconsistentWithdrawals",
      "type": "error"
    },
    {
      "inputs": [],
      "name": "IncorrectFee",
      "type": "error"
    },
    {
      "inputs": [
        {
          "internalType": "contract IERC4626",
          "name": "market",
          "type": "address"
        }
      ],
      "name": "MarketNotEnabled",
      "type": "error"
    },
    {
      "inputs": [
        {
          "internalType": "contract IERC4626",
          "name": "market",
          "type": "address"
        }
      ],
      "name": "MaxInflowExceeded",
      "type": "error"
    },
    {
      "inputs": [
        {
          "internalType": "contract IERC4626",
          "name": "market",
          "type": "address"
        }
      ],
      "name": "MaxOutflowExceeded",
      "type": "error"
    },
    {
      "inputs": [],
      "name": "MaxSettableFlowCapExceeded",
      "type": "error"
    },
    {
      "inputs": [],
      "name": "NotAdminNorVaultOwner",
      "type": "error"
    },
    {
      "inputs": [
        {
          "internalType": "contract IERC4626",
          "name": "market",
          "type": "address"
        }
      ],
      "name": "NotEnoughSupply",
      "type": "error"
    },
    {
      "inputs": [
        {
          "internalType": "contract IERC4626",
          "name": "market",
          "type": "address"
        }
      ],
      "name": "WithdrawZero",
      "type": "error"
    }
  ],
  "bytecode": "0x6080604052348015600e575f5ffd5b506117c18061001c5f395ff3fe608060405260043610610084575f3560e01c806391b114b21161005757806391b114b214610146578063976ac86c14610171578063c55b6bb714610190578063e55156b5146101af578063f2dde137146101ce575f5ffd5b80630e4eecf814610088578063239301af146100a957806363a846f8146100bc5780636fcca69b1461010d575b5f5ffd5b348015610093575f5ffd5b506100a76100a236600461123e565b610238565b005b6100a76100b7366004611275565b6103f6565b3480156100c7575f5ffd5b506100f06100d636600461130b565b5f602081905290815260409020546001600160a01b031681565b6040516001600160a01b0390911681526020015b60405180910390f35b348015610118575f5ffd5b5061013861012736600461130b565b60016020525f908152604090205481565b604051908152602001610104565b348015610151575f5ffd5b5061013861016036600461130b565b60026020525f908152604090205481565b34801561017c575f5ffd5b506100a761018b366004611326565b610ba9565b34801561019b575f5ffd5b506100a76101aa36600461123e565b610e89565b3480156101ba575f5ffd5b506100a76101c93660046113a9565b610fe7565b3480156101d9575f5ffd5b506102186101e836600461123e565b600360209081525f92835260408084209091529082529020546001600160801b0380821691600160801b90041682565b604080516001600160801b03938416815292909116602083015201610104565b6001600160a01b038281165f9081526020819052604090205483911633148015906102d45750806001600160a01b0316638da5cb5b6040518163ffffffff1660e01b8152600401602060405180830381865afa15801561029a573d5f5f3e3d5ffd5b505050506040513d601f19601f820116820180604052508101906102be91906113d3565b6001600160a01b0316336001600160a01b031614155b156102f2576040516326d3a7bf60e01b815260040160405180910390fd5b6001600160a01b038381165f908152600260205260408082208054908390559051909282919086169084908381818185875af1925050503d805f8114610353576040519150601f19603f3d011682016040523d82523d5f602084013e610358565b606091505b509150915081610397576103978160405180604001604052806013815260200172199959481d1c985b9cd9995c8819985a5b1959606a1b815250611127565b846001600160a01b0316866001600160a01b0316336001600160a01b03167f6ab9f885fa0bfd2af57586f4cdde83bbfc79294d0cd2d61d4b31e9a3d1be6e2c866040516103e691815260200190565b60405180910390a4505050505050565b6001600160a01b0384165f90815260016020526040902054341461042d5760405163cd3cb2bb60e01b815260040160405180910390fd5b3415610460576001600160a01b0384165f908152600260205260408120805434929061045a908490611402565b90915550505b5f829003610481576040516376da594560e01b815260040160405180910390fd5b604051630e68ec9560e01b81526001600160a01b038281166004830152851690630e68ec9590602401606060405180830381865afa1580156104c5573d5f5f3e3d5ffd5b505050506040513d601f19601f820116820180604052508101906104e99190611464565b6020015161051a57604051632215cda760e01b81526001600160a01b03821660048201526024015b60405180910390fd5b5f610526836001611402565b67ffffffffffffffff81111561053e5761053e61141b565b60405190808252806020026020018201604052801561058257816020015b604080518082019091525f808252602082015281526020019060019003908161055c5790505b5090505f8080805b86811015610986578291505f8888838181106105a8576105a86114fd565b9050604002018036038101906105be919061152c565b8051604051630e68ec9560e01b81526001600160a01b0380831660048301529196509192508b1690630e68ec9590602401606060405180830381865afa15801561060a573d5f5f3e3d5ffd5b505050506040513d601f19601f8201168201806040525081019061062e9190611464565b6020015161065a57604051632215cda760e01b81526001600160a01b0385166004820152602401610511565b80602001516001600160801b03165f03610692576040516312c3b25960e21b81526001600160a01b0385166004820152602401610511565b826001600160a01b0316846001600160a01b0316116106c45760405163192a4ee960e31b815260040160405180910390fd5b866001600160a01b0316846001600160a01b0316036106f65760405163898ca71960e01b815260040160405180910390fd5b5f610701858c611150565b6020808401516001600160a01b03808f165f908152600384526040808220928b16825291909352909120549192506001600160801b03908116600160801b90920416101561076d5760405163cd47b22d60e01b81526001600160a01b0386166004820152602401610511565b81602001516001600160801b03168110156107a657604051636da1ff5d60e11b81526001600160a01b0386166004820152602401610511565b6020808301516001600160a01b03808e165f908152600384526040808220928a1682529190935282208054919290916107e99084906001600160801b031661156b565b92506101000a8154816001600160801b0302191690836001600160801b03160217905550816020015160035f8d6001600160a01b03166001600160a01b031681526020019081526020015f205f876001600160a01b03166001600160a01b031681526020019081526020015f205f0160108282829054906101000a90046001600160801b0316610879919061158a565b92506101000a8154816001600160801b0302191690836001600160801b03160217905550848784815181106108b0576108b06114fd565b6020908102919091018101516001600160a01b039092169091528201516108e0906001600160801b0316826115a9565b8784815181106108f2576108f26114fd565b60200260200101516020018181525050816020015186610912919061156b565b9550846001600160a01b03168b6001600160a01b0316336001600160a01b03167f78b2730a7ba1e3759ea2e3c385e57f33707440fd42c9eda192070d7da0088387856020015160405161097491906001600160801b0391909116815260200190565b60405180910390a4505060010161058a565b506001600160a01b038089165f908152600360209081526040808320938916835292905220546001600160801b03808516911610156109e357604051632b8dbcf360e21b81526001600160a01b0386166004820152602401610511565b6001600160a01b038089165f90815260036020908152604080832093891683529290529081208054859290610a229084906001600160801b031661158a565b82546101009290920a6001600160801b038181021990931691831602179091556001600160a01b038a81165f908152600360209081526040808320938b1683529290522080548693509091601091610a83918591600160801b90041661156b565b92506101000a8154816001600160801b0302191690836001600160801b0316021790555084848888905081518110610abd57610abd6114fd565b60209081029190910101516001600160a01b03909116905283515f1990859088908110610aec57610aec6114fd565b60209081029190910181015101526040516217d38b60eb1b81526001600160a01b0389169063be9c580090610b259087906004016115bc565b5f604051808303815f87803b158015610b3c575f5ffd5b505af1158015610b4e573d5f5f3e3d5ffd5b50506040516001600160801b03861681526001600160a01b0380891693508b16915033907f4d8dc135b6ebc05d8f601ac5b4ea2029a2dc67a78c791053e7d4b252e78a40979060200160405180910390a45050505050505050565b6001600160a01b038381165f908152602081905260409020548491163314801590610c455750806001600160a01b0316638da5cb5b6040518163ffffffff1660e01b8152600401602060405180830381865afa158015610c0b573d5f5f3e3d5ffd5b505050506040513d601f19601f82011682018060405250810190610c2f91906113d3565b6001600160a01b0316336001600160a01b031614155b15610c63576040516326d3a7bf60e01b815260040160405180910390fd5b5f5b82811015610e35575f848483818110610c8057610c806114fd565b905060600201803603810190610c969190611613565b8051604051630e68ec9560e01b81526001600160a01b0380831660048301529293509091881690630e68ec9590602401606060405180830381865afa158015610ce1573d5f5f3e3d5ffd5b505050506040513d601f19601f82011682018060405250810190610d059190611464565b60200151158015610d3d57506020820151516001600160801b0316151580610d3d57505f8260200151602001516001600160801b0316115b15610d6657604051632215cda760e01b81526001600160a01b0382166004820152602401610511565b610d7860026001600160801b03611686565b6001600160801b031682602001515f01516001600160801b03161180610dc85750610dab60026001600160801b03611686565b6001600160801b03168260200151602001516001600160801b0316115b15610de657604051632e61835960e21b815260040160405180910390fd5b6020918201516001600160a01b038089165f908152600385526040808220949092168152928452909120815191909201516001600160801b03908116600160801b029116179055600101610c65565b50836001600160a01b0316336001600160a01b03167f1ce49b3d858f978a9fd8993097e165e1b0a7fa6d86aa67b29decd333fd896c768585604051610e7b9291906116bf565b60405180910390a350505050565b6001600160a01b038281165f908152602081905260409020548391163314801590610f255750806001600160a01b0316638da5cb5b6040518163ffffffff1660e01b8152600401602060405180830381865afa158015610eeb573d5f5f3e3d5ffd5b505050506040513d601f19601f82011682018060405250810190610f0f91906113d3565b6001600160a01b0316336001600160a01b031614155b15610f43576040516326d3a7bf60e01b815260040160405180910390fd5b6001600160a01b038381165f90815260208190526040902054818416911603610f7f5760405163a741a04560e01b815260040160405180910390fd5b6001600160a01b038381165f818152602081815260409182902080546001600160a01b03191694871694851790559051928352909133917fc51248b3e510a1244e01043dffdc0132d10194bd4506382cbcf83d05f6ec57ef91015b60405180910390a3505050565b6001600160a01b038281165f9081526020819052604090205483911633148015906110835750806001600160a01b0316638da5cb5b6040518163ffffffff1660e01b8152600401602060405180830381865afa158015611049573d5f5f3e3d5ffd5b505050506040513d601f19601f8201168201806040525081019061106d91906113d3565b6001600160a01b0316336001600160a01b031614155b156110a1576040516326d3a7bf60e01b815260040160405180910390fd5b6001600160a01b0383165f908152600160205260409020548290036110d95760405163a741a04560e01b815260040160405180910390fd5b6001600160a01b0383165f81815260016020526040908190208490555133907f44a6d70a601a6f8a85c075467e9d7245897140cbf6dd505c9d9d764459f5fb6490610fda9086815260200190565b81511561113657815182602001fd5b8060405162461bcd60e51b8152600401610511919061173f565b6040516370a0823160e01b81526001600160a01b0382811660048301525f91908416906307a2d13a9082906370a0823190602401602060405180830381865afa15801561119f573d5f5f3e3d5ffd5b505050506040513d601f19601f820116820180604052508101906111c39190611774565b6040518263ffffffff1660e01b81526004016111e191815260200190565b602060405180830381865afa1580156111fc573d5f5f3e3d5ffd5b505050506040513d601f19601f820116820180604052508101906112209190611774565b9392505050565b6001600160a01b038116811461123b575f5ffd5b50565b5f5f6040838503121561124f575f5ffd5b823561125a81611227565b9150602083013561126a81611227565b809150509250929050565b5f5f5f5f60608587031215611288575f5ffd5b843561129381611227565b9350602085013567ffffffffffffffff8111156112ae575f5ffd5b8501601f810187136112be575f5ffd5b803567ffffffffffffffff8111156112d4575f5ffd5b8760208260061b84010111156112e8575f5ffd5b60209190910193509150604085013561130081611227565b939692955090935050565b5f6020828403121561131b575f5ffd5b813561122081611227565b5f5f5f60408486031215611338575f5ffd5b833561134381611227565b9250602084013567ffffffffffffffff81111561135e575f5ffd5b8401601f8101861361136e575f5ffd5b803567ffffffffffffffff811115611384575f5ffd5b866020606083028401011115611398575f5ffd5b939660209190910195509293505050565b5f5f604083850312156113ba575f5ffd5b82356113c581611227565b946020939093013593505050565b5f602082840312156113e3575f5ffd5b815161122081611227565b634e487b7160e01b5f52601160045260245ffd5b80820180821115611415576114156113ee565b92915050565b634e487b7160e01b5f52604160045260245ffd5b6040805190810167ffffffffffffffff8111828210171561145e57634e487b7160e01b5f52604160045260245ffd5b60405290565b5f6060828403128015611475575f5ffd5b506040516060810167ffffffffffffffff811182821017156114a557634e487b7160e01b5f52604160045260245ffd5b60405282516001600160b81b03811681146114be575f5ffd5b8152602083015180151581146114d2575f5ffd5b6020820152604083015167ffffffffffffffff811681146114f1575f5ffd5b60408201529392505050565b634e487b7160e01b5f52603260045260245ffd5b80356001600160801b0381168114611527575f5ffd5b919050565b5f604082840312801561153d575f5ffd5b5061154661142f565b823561155181611227565b815261155f60208401611511565b60208201529392505050565b6001600160801b038181168382160190811115611415576114156113ee565b6001600160801b038281168282160390811115611415576114156113ee565b81810381811115611415576114156113ee565b602080825282518282018190525f918401906040840190835b8181101561160857835180516001600160a01b0316845260209081015181850152909301926040909201916001016115d5565b509095945050505050565b5f818303606081128015611625575f5ffd5b5061162e61142f565b833561163981611227565b81526040601f198301121561164c575f5ffd5b61165461142f565b915061166260208501611511565b825261167060408501611511565b6020830152816020820152809250505092915050565b5f6001600160801b038316806116aa57634e487b7160e01b5f52601260045260245ffd5b806001600160801b0384160491505092915050565b602080825281018290525f8360408301825b858110156117355782356116e481611227565b6001600160a01b031682526001600160801b0361170360208501611511565b1660208301526001600160801b0361171d60408501611511565b166040830152606092830192909101906001016116d1565b5095945050505050565b602081525f82518060208401528060208501604085015e5f604082850101526040601f19601f83011684010191505092915050565b5f60208284031215611784575f5ffd5b505191905056fea2646970667358221220f992ffccdecd20e0d9c5936e788f47e33da54262e226a3ec22e6554e51e3ec3464736f6c634300081c0033",
  "language": "Solidity",
  "compiler": "0.8.28+commit.7893614a"
}