{
  "address": "0x42422ccf9b11387Dbe35e524D30bd03E2886992f",
  "abi": [
    {
      "type": "constructor",
      "inputs": [],
      "stateMutability": "nonpayable"
    },
    {
      "type": "function",
      "name": "VAULT_INCENTIVES_MODULE_IMPLEMENTATION",
      "inputs": [],
      "outputs": [
        {
          "name": "",
          "type": "address",
          "internalType": "address"
        }
      ],
      "stateMutability": "view"
    },
    {
      "type": "function",
      "name": "createSiloVault",
      "inputs": [
        {
          "name": "_initialOwner",
          "type": "address",
          "internalType": "address"
        },
        {
          "name": "_initialTimelock",
          "type": "uint256",
          "internalType": "uint256"
        },
        {
          "name": "_asset",
          "type": "address",
          "internalType": "address"
        },
        {
          "name": "_name",
          "type": "string",
          "internalType": "string"
        },
        {
          "name": "_symbol",
          "type": "string",
          "internalType": "string"
        },
        {
          "name": "_externalSalt",
          "type": "bytes32",
          "internalType": "bytes32"
        },
        {
          "name": "_notificationReceiver",
          "type": "address",
          "internalType": "address"
        },
        {
          "name": "_claimingLogics",
          "type": "address[]",
          "internalType": "contract IIncentivesClaimingLogic[]"
        },
        {
          "name": "_marketsWithIncentives",
          "type": "address[]",
          "internalType": "contract IERC4626[]"
        },
        {
          "name": "_trustedFactories",
          "type": "address[]",
          "internalType": "contract IIncentivesClaimingLogicFactory[]"
        }
      ],
      "outputs": [
        {
          "name": "siloVault",
          "type": "address",
          "internalType": "contract ISiloVault"
        }
      ],
      "stateMutability": "nonpayable"
    },
    {
      "type": "function",
      "name": "isSiloVault",
      "inputs": [
        {
          "name": "",
          "type": "address",
          "internalType": "address"
        }
      ],
      "outputs": [
        {
          "name": "",
          "type": "bool",
          "internalType": "bool"
        }
      ],
      "stateMutability": "view"
    },
    {
      "type": "function",
      "name": "nonces",
      "inputs": [
        {
          "name": "owner",
          "type": "address",
          "internalType": "address"
        }
      ],
      "outputs": [
        {
          "name": "",
          "type": "uint256",
          "internalType": "uint256"
        }
      ],
      "stateMutability": "view"
    },
    {
      "type": "function",
      "name": "predictSiloVaultAddress",
      "inputs": [
        {
          "name": "_constructorArgs",
          "type": "bytes",
          "internalType": "bytes"
        },
        {
          "name": "_salt",
          "type": "bytes32",
          "internalType": "bytes32"
        },
        {
          "name": "_deployer",
          "type": "address",
          "internalType": "address"
        }
      ],
      "outputs": [
        {
          "name": "vaultAddress",
          "type": "address",
          "internalType": "address"
        }
      ],
      "stateMutability": "pure"
    },
    {
      "type": "event",
      "name": "CreateSiloVault",
      "inputs": [
        {
          "name": "SiloVault",
          "type": "address",
          "indexed": true,
          "internalType": "address"
        },
        {
          "name": "caller",
          "type": "address",
          "indexed": true,
          "internalType": "address"
        },
        {
          "name": "initialOwner",
          "type": "address",
          "indexed": false,
          "internalType": "address"
        },
        {
          "name": "initialTimelock",
          "type": "uint256",
          "indexed": false,
          "internalType": "uint256"
        },
        {
          "name": "asset",
          "type": "address",
          "indexed": true,
          "internalType": "address"
        },
        {
          "name": "name",
          "type": "string",
          "indexed": false,
          "internalType": "string"
        },
        {
          "name": "symbol",
          "type": "string",
          "indexed": false,
          "internalType": "string"
        }
      ],
      "anonymous": false
    },
    {
      "type": "error",
      "name": "InvalidAccountNonce",
      "inputs": [
        {
          "name": "account",
          "type": "address",
          "internalType": "address"
        },
        {
          "name": "currentNonce",
          "type": "uint256",
          "internalType": "uint256"
        }
      ]
    }
  ],
  "bytecode": "0x60a0604052348015600e575f5ffd5b506040516019906042565b604051809103905ff0801580156031573d5f5f3e3d5ffd5b506001600160a01b0316608052604f565b6119b28061094083390190565b6080516108d361006d5f395f8181608e015261028c01526108d35ff3fe608060405234801561000f575f5ffd5b5060043610610055575f3560e01c8063053670e014610059578063254067421461008957806369dca2fc146100b05780637ecebe00146100c3578063c4e5fbe4146100f9575b5f5ffd5b61006c61006736600461047d565b61012b565b6040516001600160a01b0390911681526020015b60405180910390f35b61006c7f000000000000000000000000000000000000000000000000000000000000000081565b61006c6100be3660046105a2565b610202565b6100eb6100d13660046106ca565b6001600160a01b03165f9081526020819052604090205490565b604051908152602001610080565b61011b6101073660046106ca565b60016020525f908152604090205460ff1681565b6040519015158152602001610080565b5f5f73__$650ed6c308205285445c4c032d37805619$__63e466ce56866040518263ffffffff1660e01b81526004016101649190610713565b602060405180830381865af415801561017f573d5f5f3e3d5ffd5b505050506040513d601f19601f820116820180604052508101906101a39190610725565b6040516001600160f81b031960208201526bffffffffffffffffffffffff19606086901b166021820152603581018690526055810182905290915060750160408051601f19818403018152919052805160209091012095945050505050565b5f73__$650ed6c308205285445c4c032d37805619$__632689beca8c8c8c8c8c6102898d335f81815260208190526040812080546001810190915590919060405160609290921b6bffffffffffffffffffffffff19166020830152603482015260548101839052607401604051602081830303815290604052805190602001209050919050565b8c7f00000000000000000000000000000000000000000000000000000000000000008d8d8d6040518c63ffffffff1660e01b81526004016102d49b9a9998979695949392919061077f565b602060405180830381865af41580156102ef573d5f5f3e3d5ffd5b505050506040513d601f19601f82011682018060405250810190610313919061083f565b90506001805f836001600160a01b03166001600160a01b031681526020019081526020015f205f6101000a81548160ff021916908315150217905550886001600160a01b0316336001600160a01b0316826001600160a01b03167ff70fd2eefc418e3a46ce7d73fbb38e26baf8ca82b2ac851512ffc995f16047e88e8e8d8d6040516103a2949392919061085a565b60405180910390a49a9950505050505050505050565b634e487b7160e01b5f52604160045260245ffd5b604051601f8201601f1916810167ffffffffffffffff811182821017156103f5576103f56103b8565b604052919050565b5f5f67ffffffffffffffff841115610417576104176103b8565b50601f8301601f191660200161042c816103cc565b915050828152838383011115610440575f5ffd5b828260208301375f602084830101529392505050565b6001600160a01b038116811461046a575f5ffd5b50565b803561047881610456565b919050565b5f5f5f6060848603121561048f575f5ffd5b833567ffffffffffffffff8111156104a5575f5ffd5b8401601f810186136104b5575f5ffd5b6104c4868235602084016103fd565b9350506020840135915060408401356104dc81610456565b809150509250925092565b5f82601f8301126104f6575f5ffd5b610505838335602085016103fd565b9392505050565b5f67ffffffffffffffff821115610525576105256103b8565b5060051b60200190565b5f82601f83011261053e575f5ffd5b813561055161054c8261050c565b6103cc565b8082825260208201915060208360051b860101925085831115610572575f5ffd5b602085015b8381101561059857803561058a81610456565b835260209283019201610577565b5095945050505050565b5f5f5f5f5f5f5f5f5f5f6101408b8d0312156105bc575f5ffd5b6105c58b61046d565b995060208b013598506105da60408c0161046d565b975060608b013567ffffffffffffffff8111156105f5575f5ffd5b6106018d828e016104e7565b97505060808b013567ffffffffffffffff81111561061d575f5ffd5b6106298d828e016104e7565b96505060a08b0135945061063f60c08c0161046d565b935060e08b013567ffffffffffffffff81111561065a575f5ffd5b6106668d828e0161052f565b9350506101008b013567ffffffffffffffff811115610683575f5ffd5b61068f8d828e0161052f565b9250506101208b013567ffffffffffffffff8111156106ac575f5ffd5b6106b88d828e0161052f565b9150509295989b9194979a5092959850565b5f602082840312156106da575f5ffd5b813561050581610456565b5f81518084528060208401602086015e5f602082860101526020601f19601f83011685010191505092915050565b602081525f61050560208301846106e5565b5f60208284031215610735575f5ffd5b5051919050565b5f8151808452602084019350602083015f5b828110156107755781516001600160a01b031686526020958601959091019060010161074e565b5093949350505050565b6001600160a01b038c81168252602082018c90528a166040820152610160606082018190525f906107b29083018b6106e5565b82810360808401526107c4818b6106e5565b90508860a08401526107e160c08401896001600160a01b03169052565b6001600160a01b03871660e0840152828103610100840152610803818761073c565b9050828103610120840152610818818661073c565b905082810361014084015261082d818561073c565b9e9d5050505050505050505050505050565b5f6020828403121561084f575f5ffd5b815161050581610456565b60018060a01b0385168152836020820152608060408201525f61088060808301856106e5565b828103606084015261089281856106e5565b97965050505050505056fea26469706673582212206aac47a69bd766835b6feeb69c41b1613003aeacdd3dafa4abe249c2a040cc1f64736f6c634300081c00336080604052348015600e575f5ffd5b5060156019565b60c9565b7ff0c57e16840df040f15088dc2f81fe391c3923bec73e23a9662efc9c229c6a00805468010000000000000000900460ff161560685760405163f92ee8a960e01b815260040160405180910390fd5b80546001600160401b039081161460c65780546001600160401b0319166001600160401b0390811782556040519081527fc7f505b2f371ae2175ee4913f4499e1f2633a7b5936321eed1cdaeb6115181d29060200160405180910390a15b50565b6118dc806100d65f395ff3fe608060405234801561000f575f5ffd5b5060043610610132575f3560e01c806394efa433116100b4578063d166962b11610079578063d166962b1461028c578063d9fdd7dc14610294578063f9d96614146102a7578063fb7cc13e146102ba578063fbfa77cf146102cd578063fd5813ce146102df575f5ffd5b806394efa43314610213578063984618eb1461024b578063a99426491461025e578063cc2a321d14610271578063cc4000e214610279575f5ffd5b80637a2bbb68116100fa5780637a2bbb68146101a2578063828e10c2146101aa57806388a40ff1146101bd5780638da5cb5b146101d05780638f0d341c146101f0575f5ffd5b8063340d3fd514610136578063370eaca71461015457806340d486a11461016957806351c8a13a1461017c57806354d549031461018f575b5f5ffd5b61013e6102f2565b60405161014b91906114c6565b60405180910390f35b610167610162366004611528565b610303565b005b610167610177366004611543565b610390565b61016761018a366004611587565b610572565b61016761019d366004611543565b61061e565b61013e61071b565b6101676101b8366004611528565b610727565b6101676101cb366004611543565b610777565b6101d86107d7565b6040516001600160a01b03909116815260200161014b565b6102036101fe366004611528565b61084b565b604051901515815260200161014b565b61023d610221366004611543565b600560209081525f928352604080842090915290825290205481565b60405190815260200161014b565b61013e610259366004611528565b61085d565b61016761026c366004611528565b610880565b61013e6108f0565b610167610287366004611528565b6108fc565b61013e6109a9565b61013e6102a23660046115b3565b6109c7565b6101676102b53660046116ff565b610a0b565b6101676102c8366004611528565b610c6e565b5f546101d8906001600160a01b031681565b6101676102ed366004611543565b610ddd565b60606102fe6007610e5c565b905090565b61030b610e68565b610328576040516330cd747160e01b815260040160405180910390fd5b610333600782610e8a565b6103505760405163cdded31d60e01b815260040160405180910390fd5b6040516001600160a01b03821681527fb7ec45a00b7dfbb8105d9302d26e28afce92540e6b1fb4b9434620ef48bccd5e906020015b60405180910390a150565b6001600160a01b0381166103b757604051639fabe1c160e01b815260040160405180910390fd5b6001600160a01b0382165f9081526006602052604090206103d89082610e9e565b156103f657604051631889accd60e31b815260040160405180910390fd5b6001600160a01b038083165f908152600560209081526040808320938516835292905220541561043957604051634a05adc960e01b815260040160405180910390fd5b5f5f5f9054906101000a90046001600160a01b03166001600160a01b031663d33219b46040518163ffffffff1660e01b8152600401602060405180830381865afa158015610489573d5f5f3e3d5ffd5b505050506040513d601f19601f820116820180604052508101906104ad9190611812565b90506104b882610ebf565b156104e9576104c5610f6f565b6104e2576040516332a2673b60e21b815260040160405180910390fd5b505f61050e565b6104f1610e68565b61050e576040516330cd747160e01b815260040160405180910390fd5b6001600160a01b038381165f818152600560209081526040808320948716808452948252918290204286019055905192835290917f016abb6372623f4d6f981cf15732955baf8d8c942a1aaac4dc413af5e7c8b02a910160405180910390a2505050565b61057a610e68565b610597576040516330cd747160e01b815260040160405180910390fd5b806105b55760405163b71692ad60e01b815260040160405180910390fd5b6105c0600383610e8a565b6105dd57604051634f23afb160e11b815260040160405180910390fd5b6040516001600160a01b03831681527f0a02602c53a84552ebbe6baedad18499f93ffca3b6e2bf29a4d9298023cbfce2906020015b60405180910390a15050565b610626610e68565b610643576040516330cd747160e01b815260040160405180910390fd5b6001600160a01b0382165f9081526006602052604090206106649082610e9e565b61068157604051638f5e26bd60e01b815260040160405180910390fd5b6001600160a01b0382165f9081526006602052604090206106a29082610e8a565b506001600160a01b0382165f9081526006602052604090206106c390611005565b5f036106d6576106d4600183610e8a565b505b6040516001600160a01b0382811682528316907f65741389e4ae318b012d3e133eabf67127710156132a8713ffb0260a2db2ac1c906020015b60405180910390a25050565b60606102fe6003610e5c565b6001600160a01b0381165f90815260096020526040902054801580159061074d57504281105b61076a57604051634c580c5760e01b815260040160405180910390fd5b6107738261100e565b5050565b6001600160a01b038083165f9081526005602090815260408083209385168352929052205480158015906107ab5750428111155b6107c857604051633bc8bbf360e21b815260040160405180910390fd5b6107d28383611065565b505050565b5f5f5f9054906101000a90046001600160a01b03166001600160a01b0316638da5cb5b6040518163ffffffff1660e01b8152600401602060405180830381865afa158015610827573d5f5f3e3d5ffd5b505050506040513d601f19601f820116820180604052508101906102fe9190611829565b5f610857600783610e9e565b92915050565b6001600160a01b0381165f90815260066020526040902060609061085790610e5c565b610888611114565b6108a557604051637cf97e4d60e11b815260040160405180910390fd5b6001600160a01b0381165f8181526009602090815260408083209290925590519182527f1f00f6ff71e0bf9cfcb24aaafb294d5884fbfe6e71aa439b89758ee27227338c9101610385565b60606102fe6001610e5c565b610904610e68565b610921576040516330cd747160e01b815260040160405180910390fd5b6001600160a01b03811661094857604051639fabe1c160e01b815260040160405180910390fd5b610953600382611186565b61097057604051630da5569b60e41b815260040160405180910390fd5b6040516001600160a01b03821681527f6315777522956b348b60210f67b044cae37438bd6a5587bd053c30075123c04290602001610385565b60605f6109b66001610e5c565b90506109c18161119a565b91505090565b6060610a048383808060200260200160405190810160405280939291908181526020018383602002808284375f9201919091525061119a92505050565b9392505050565b7ff0c57e16840df040f15088dc2f81fe391c3923bec73e23a9662efc9c229c6a008054600160401b810460ff16159067ffffffffffffffff165f81158015610a505750825b90505f8267ffffffffffffffff166001148015610a6c5750303b155b905081158015610a7a575080155b15610a985760405163f92ee8a960e01b815260040160405180910390fd5b845467ffffffffffffffff191660011785558315610ac257845460ff60401b1916600160401b1785555b6001600160a01b038a16610ae957604051639fabe1c160e01b815260040160405180910390fd5b8651885114610b0b576040516305f92e4b60e21b815260040160405180910390fd5b5f80546001600160a01b0319166001600160a01b038c811691909117909155891615610b9657610b3c60038a611186565b610b5957604051630da5569b60e41b815260040160405180910390fd5b6040516001600160a01b038a1681527f6315777522956b348b60210f67b044cae37438bd6a5587bd053c30075123c0429060200160405180910390a15b5f5b8851811015610be557610bdd888281518110610bb657610bb6611844565b60200260200101518a8381518110610bd057610bd0611844565b6020026020010151611065565b600101610b98565b505f5b8651811015610c1b57610c13878281518110610c0657610c06611844565b602002602001015161100e565b600101610be8565b508315610c6257845460ff60401b19168555604051600181527fc7f505b2f371ae2175ee4913f4499e1f2633a7b5936321eed1cdaeb6115181d29060200160405180910390a15b50505050505050505050565b610c76610e68565b610c93576040516330cd747160e01b815260040160405180910390fd5b6001600160a01b038116610cba57604051639fabe1c160e01b815260040160405180910390fd5b610cc5600782610e9e565b15610ce357604051639e61a84760e01b815260040160405180910390fd5b6001600160a01b0381165f9081526009602052604090205415610d1957604051636c4ec7a960e11b815260040160405180910390fd5b5f5f5f9054906101000a90046001600160a01b03166001600160a01b031663d33219b46040518163ffffffff1660e01b8152600401602060405180830381865afa158015610d69573d5f5f3e3d5ffd5b505050506040513d601f19601f82011682018060405250810190610d8d9190611812565b6001600160a01b0383165f81815260096020908152604091829020428501905590519182529192507f8dd615621669723f257be5721b703627a6e339ef1dd2626f4b2877c05e3822049101610612565b610de5611114565b610e0257604051637cf97e4d60e11b815260040160405180910390fd5b6001600160a01b038281165f81815260056020908152604080832094861680845294825280832092909255905192835290917f751d8044554b3c2790f2e7764f467ef9a3cc1e857da662aff85211eed8c2745b910161070f565b60605f610a048361130d565b5f610e716107d7565b6001600160a01b0316336001600160a01b031614905090565b5f610a04836001600160a01b038416611366565b6001600160a01b0381165f9081526001830160205260408120541515610a04565b5f5f610ecb6007611005565b90505f5b81811015610f68575f610ee3600783611449565b60405163b32d705b60e01b81526001600160a01b0387811660048301529192509082169063b32d705b90602401602060405180830381865afa158015610f2b573d5f5f3e3d5ffd5b505050506040513d601f19601f82011682018060405250810190610f4f9190611858565b15610f5f57506001949350505050565b50600101610ecf565b5050919050565b5f610f786107d7565b6001600160a01b0316336001600160a01b031614806102fe57505f5f9054906101000a90046001600160a01b03166001600160a01b031663e66f53b76040518163ffffffff1660e01b8152600401602060405180830381865afa158015610fe1573d5f5f3e3d5ffd5b505050506040513d601f19601f82011682018060405250810190610e719190611829565b5f610857825490565b611019600782611186565b506001600160a01b0381165f8181526009602090815260408083209290925590519182527fba971425660d4c55f7251c56453a1c186fdce58c3cb6a850500dcceb5693a3449101610385565b6001600160a01b0382165f90815260066020526040902061108590611005565b5f0361109857611096600183611186565b505b6001600160a01b0382165f9081526006602052604090206110b99082611186565b506001600160a01b038281165f81815260056020908152604080832094861680845294825280832092909255905192835290917fd14928afa5bf68ec45f87228c95b2b5c87c4d4b2f70ecb2aad7752b6f31cb031910161070f565b5f61111d6107d7565b6001600160a01b0316336001600160a01b031614806102fe57505f5f9054906101000a90046001600160a01b03166001600160a01b031663452a93206040518163ffffffff1660e01b8152600401602060405180830381865afa158015610fe1573d5f5f3e3d5ffd5b5f610a04836001600160a01b038416611454565b606081515f036111a957919050565b5f805b8351811015611205576111f960065f8684815181106111cd576111cd611844565b60200260200101516001600160a01b03166001600160a01b031681526020019081526020015f20611005565b909101906001016111ac565b508067ffffffffffffffff81111561121f5761121f611624565b604051908082528060200260200182016040528015611248578160200160208202803683370190505b5091505f805b8451811015611305575f61129c60065f88858151811061127057611270611844565b60200260200101516001600160a01b03166001600160a01b031681526020019081526020015f20610e5c565b90505f5b81518110156112fb578181815181106112bb576112bb611844565b60200260200101518685806001019650815181106112db576112db611844565b6001600160a01b03909216602092830291909101909101526001016112a0565b505060010161124e565b505050919050565b6060815f0180548060200260200160405190810160405280929190818152602001828054801561135a57602002820191905f5260205f20905b815481526020019060010190808311611346575b50505050509050919050565b5f8181526001830160205260408120548015611440575f611388600183611873565b85549091505f9061139b90600190611873565b90508082146113fa575f865f0182815481106113b9576113b9611844565b905f5260205f200154905080875f0184815481106113d9576113d9611844565b5f918252602080832090910192909255918252600188019052604090208390555b855486908061140b5761140b611892565b600190038181905f5260205f20015f90559055856001015f8681526020019081526020015f205f905560019350505050610857565b5f915050610857565b5f610a0483836114a0565b5f81815260018301602052604081205461149957508154600181810184555f848152602080822090930184905584548482528286019093526040902091909155610857565b505f610857565b5f825f0182815481106114b5576114b5611844565b905f5260205f200154905092915050565b602080825282518282018190525f918401906040840190835b818110156115065783516001600160a01b03168352602093840193909201916001016114df565b509095945050505050565b6001600160a01b0381168114611525575f5ffd5b50565b5f60208284031215611538575f5ffd5b8135610a0481611511565b5f5f60408385031215611554575f5ffd5b823561155f81611511565b9150602083013561156f81611511565b809150509250929050565b8015158114611525575f5ffd5b5f5f60408385031215611598575f5ffd5b82356115a381611511565b9150602083013561156f8161157a565b5f5f602083850312156115c4575f5ffd5b823567ffffffffffffffff8111156115da575f5ffd5b8301601f810185136115ea575f5ffd5b803567ffffffffffffffff811115611600575f5ffd5b8560208260051b8401011115611614575f5ffd5b6020919091019590945092505050565b634e487b7160e01b5f52604160045260245ffd5b604051601f8201601f1916810167ffffffffffffffff8111828210171561166157611661611624565b604052919050565b5f67ffffffffffffffff82111561168257611682611624565b5060051b60200190565b5f82601f83011261169b575f5ffd5b81356116ae6116a982611669565b611638565b8082825260208201915060208360051b8601019250858311156116cf575f5ffd5b602085015b838110156116f55780356116e781611511565b8352602092830192016116d4565b5095945050505050565b5f5f5f5f5f60a08688031215611713575f5ffd5b853561171e81611511565b9450602086013561172e81611511565b9350604086013567ffffffffffffffff811115611749575f5ffd5b8601601f81018813611759575f5ffd5b80356117676116a982611669565b8082825260208201915060208360051b85010192508a831115611788575f5ffd5b6020840193505b828410156117b35783356117a281611511565b82526020938401939091019061178f565b9550505050606086013567ffffffffffffffff8111156117d1575f5ffd5b6117dd8882890161168c565b925050608086013567ffffffffffffffff8111156117f9575f5ffd5b6118058882890161168c565b9150509295509295909350565b5f60208284031215611822575f5ffd5b5051919050565b5f60208284031215611839575f5ffd5b8151610a0481611511565b634e487b7160e01b5f52603260045260245ffd5b5f60208284031215611868575f5ffd5b8151610a048161157a565b8181038181111561085757634e487b7160e01b5f52601160045260245ffd5b634e487b7160e01b5f52603160045260245ffdfea2646970667358221220638bafb0e37702e144aa35c08409a53a42a87f0bc5ef4f42d3b9f1d700473e0264736f6c634300081c0033",
  "language": "Solidity",
  "compiler": "0.8.28+commit.7893614a"
}