{
  "address": "0x77cbCB96fFFe44d344c54A5868C49ad1C5AaAC6A",
  "abi": [
    {
      "type": "constructor",
      "inputs": [
        {
          "name": "_siloVaultsFactory",
          "type": "address",
          "internalType": "contract ISiloVaultsFactory"
        },
        {
          "name": "_siloIncentivesControllerFactory",
          "type": "address",
          "internalType": "contract ISiloIncentivesControllerFactory"
        },
        {
          "name": "_siloIncentivesControllerCLFactory",
          "type": "address",
          "internalType": "contract ISiloIncentivesControllerCLFactory"
        },
        {
          "name": "_idleVaultsFactory",
          "type": "address",
          "internalType": "contract IdleVaultsFactory"
        }
      ],
      "stateMutability": "nonpayable"
    },
    {
      "type": "function",
      "name": "IDLE_VAULTS_FACTORY",
      "inputs": [],
      "outputs": [
        {
          "name": "",
          "type": "address",
          "internalType": "contract IdleVaultsFactory"
        }
      ],
      "stateMutability": "view"
    },
    {
      "type": "function",
      "name": "SILO_INCENTIVES_CONTROLLER_CL_FACTORY",
      "inputs": [],
      "outputs": [
        {
          "name": "",
          "type": "address",
          "internalType": "contract ISiloIncentivesControllerCLFactory"
        }
      ],
      "stateMutability": "view"
    },
    {
      "type": "function",
      "name": "SILO_INCENTIVES_CONTROLLER_FACTORY",
      "inputs": [],
      "outputs": [
        {
          "name": "",
          "type": "address",
          "internalType": "contract ISiloIncentivesControllerFactory"
        }
      ],
      "stateMutability": "view"
    },
    {
      "type": "function",
      "name": "SILO_VAULTS_FACTORY",
      "inputs": [],
      "outputs": [
        {
          "name": "",
          "type": "address",
          "internalType": "contract ISiloVaultsFactory"
        }
      ],
      "stateMutability": "view"
    },
    {
      "type": "function",
      "name": "createSiloVault",
      "inputs": [
        {
          "name": "params",
          "type": "tuple",
          "internalType": "struct ISiloVaultDeployer.CreateSiloVaultParams",
          "components": [
            {
              "name": "initialOwner",
              "type": "address",
              "internalType": "address"
            },
            {
              "name": "initialTimelock",
              "type": "uint256",
              "internalType": "uint256"
            },
            {
              "name": "asset",
              "type": "address",
              "internalType": "address"
            },
            {
              "name": "incentivesControllerOwner",
              "type": "address",
              "internalType": "address"
            },
            {
              "name": "name",
              "type": "string",
              "internalType": "string"
            },
            {
              "name": "symbol",
              "type": "string",
              "internalType": "string"
            },
            {
              "name": "trustedFactories",
              "type": "address[]",
              "internalType": "contract IIncentivesClaimingLogicFactory[]"
            },
            {
              "name": "silosWithIncentives",
              "type": "address[]",
              "internalType": "contract ISilo[]"
            }
          ]
        }
      ],
      "outputs": [
        {
          "name": "vault",
          "type": "address",
          "internalType": "contract ISiloVault"
        },
        {
          "name": "incentivesController",
          "type": "address",
          "internalType": "contract ISiloIncentivesController"
        },
        {
          "name": "idleVault",
          "type": "address",
          "internalType": "contract IERC4626"
        }
      ],
      "stateMutability": "nonpayable"
    },
    {
      "type": "function",
      "name": "nonces",
      "inputs": [
        {
          "name": "owner",
          "type": "address",
          "internalType": "address"
        }
      ],
      "outputs": [
        {
          "name": "",
          "type": "uint256",
          "internalType": "uint256"
        }
      ],
      "stateMutability": "view"
    },
    {
      "type": "event",
      "name": "CreateIncentivesCL",
      "inputs": [
        {
          "name": "vault",
          "type": "address",
          "indexed": true,
          "internalType": "address"
        },
        {
          "name": "market",
          "type": "address",
          "indexed": false,
          "internalType": "address"
        },
        {
          "name": "claimingLogic",
          "type": "address",
          "indexed": false,
          "internalType": "address"
        }
      ],
      "anonymous": false
    },
    {
      "type": "event",
      "name": "CreateSiloVault",
      "inputs": [
        {
          "name": "vault",
          "type": "address",
          "indexed": true,
          "internalType": "address"
        },
        {
          "name": "incentivesController",
          "type": "address",
          "indexed": false,
          "internalType": "address"
        },
        {
          "name": "idleVault",
          "type": "address",
          "indexed": false,
          "internalType": "address"
        }
      ],
      "anonymous": false
    },
    {
      "type": "error",
      "name": "EmptyIdleVaultFactory",
      "inputs": []
    },
    {
      "type": "error",
      "name": "EmptySiloIncentivesControllerCLFactory",
      "inputs": []
    },
    {
      "type": "error",
      "name": "EmptySiloIncentivesControllerFactory",
      "inputs": []
    },
    {
      "type": "error",
      "name": "EmptySiloVaultFactory",
      "inputs": []
    },
    {
      "type": "error",
      "name": "GaugeIsNotConfigured",
      "inputs": [
        {
          "name": "silo",
          "type": "address",
          "internalType": "address"
        }
      ]
    },
    {
      "type": "error",
      "name": "InvalidAccountNonce",
      "inputs": [
        {
          "name": "account",
          "type": "address",
          "internalType": "address"
        },
        {
          "name": "currentNonce",
          "type": "uint256",
          "internalType": "uint256"
        }
      ]
    },
    {
      "type": "error",
      "name": "VaultAddressMismatch",
      "inputs": []
    }
  ],
  "bytecode": "0x610100604052348015610010575f5ffd5b506040516111c43803806111c483398101604081905261002f91610104565b6001600160a01b03841661005657604051639f7392d960e01b815260040160405180910390fd5b6001600160a01b03821661007d57604051638dcdad6d60e01b815260040160405180910390fd5b6001600160a01b0381166100a457604051631082fd5960e11b815260040160405180910390fd5b6001600160a01b0383166100cb57604051634f4c84ef60e11b815260040160405180910390fd5b6001600160a01b0393841660805291831660a052821660c0521660e052610160565b6001600160a01b0381168114610101575f5ffd5b50565b5f5f5f5f60808587031215610117575f5ffd5b8451610122816100ed565b6020860151909450610133816100ed565b6040860151909350610144816100ed565b6060860151909250610155816100ed565b939692955090935050565b60805160a05160c05160e051610ff36101d15f395f818160ab015261034501525f818161016e01526108c701525f8181610147015261025201525f818161012001528181610425015281816104f501528181610578015281816105f30152818161064d0152610a3c0152610ff35ff3fe608060405234801561000f575f5ffd5b5060043610610060575f3560e01c80635d424dce146100645780636899dc28146100a65780637ecebe00146100e55780638dd579c91461011b578063d9d5059114610142578063fd4e4be214610169575b5f5ffd5b610077610072366004610c60565b610190565b604080516001600160a01b03948516815292841660208401529216918101919091526060015b60405180910390f35b6100cd7f000000000000000000000000000000000000000000000000000000000000000081565b6040516001600160a01b03909116815260200161009d565b61010d6100f3366004610d8b565b6001600160a01b03165f9081526020819052604090205490565b60405190815260200161009d565b6100cd7f000000000000000000000000000000000000000000000000000000000000000081565b6100cd7f000000000000000000000000000000000000000000000000000000000000000081565b6100cd7f000000000000000000000000000000000000000000000000000000000000000081565b5f5f5f5f6101f1335f81815260208190526040812080546001810190915590919060405160609290921b6bffffffffffffffffffffffff19166020830152603482015260540160405160208183030381529060405280519060200120905090565b90505f610215865f01518760200151886040015189608001518a60a0015187610405565b6060870151604051637875ad5960e11b81526001600160a01b039182166004820152818316602482018190526044820152606481018590529192507f0000000000000000000000000000000000000000000000000000000000000000169063f0eb5ab2906084016020604051808303815f875af1158015610298573d5f5f3e3d5ffd5b505050506040513d601f19601f820116820180604052508101906102bc9190610dad565b93506060806102d18860e001518588866106d7565b80925081935050506102eb88858885858d60c00151610a0d565b9650826001600160a01b0316876001600160a01b03161461031f5760405163b4c1be7b60e01b815260040160405180910390fd5b604051635f46f7f560e11b81526001600160a01b038881166004830152602482018690527f0000000000000000000000000000000000000000000000000000000000000000169063be8defea906044016020604051808303815f875af115801561038b573d5f5f3e3d5ffd5b505050506040513d601f19601f820116820180604052508101906103af9190610dad565b604080516001600160a01b0389811682528084166020830152929750918916917ff11952be09bd4aba4d2548ec1ac2e27c763a8eaaa0d96b954bd5f6e184be8736910160405180910390a2505050509193909250565b604051623f675f60e91b81523060048201525f9081906001600160a01b037f00000000000000000000000000000000000000000000000000000000000000001690637ecebe0090602401602060405180830381865afa15801561046a573d5f5f3e3d5ffd5b505050506040513d601f19601f8201168201806040525081019061048e9190610dc8565b90505f6104ed848361049f81610ddf565b94506040516bffffffffffffffffffffffff193060601b16602082015260348101829052605481018390525f9060740160405160208183030381529060405280519060200120905092915050565b90505f6105ef7f00000000000000000000000000000000000000000000000000000000000000006001600160a01b031663254067426040518163ffffffff1660e01b8152600401602060405180830381865afa15801561054f573d5f5f3e3d5ffd5b505050506040513d601f19601f820116820180604052508101906105739190610dad565b6040517f000000000000000000000000000000000000000000000000000000000000000060388201526f5af43d82803e903d91602b57fd5bf3ff60248201526014810191909152733d602d80600a3d3981f3363d3d373d3d3d363d738152605881018490526037600c8201206078820152605560439091012090565b90507f00000000000000000000000000000000000000000000000000000000000000006001600160a01b031663053670e08b8b848c8c8c60405160200161063b96959493929190610e31565b604051602081830303815290604052847f00000000000000000000000000000000000000000000000000000000000000006040518463ffffffff1660e01b815260040161068a93929190610e8a565b602060405180830381865afa1580156106a5573d5f5f3e3d5ffd5b505050506040513d601f19601f820116820180604052508101906106c99190610dad565b9a9950505050505050505050565b606080855167ffffffffffffffff8111156106f4576106f4610ac8565b60405190808252806020026020018201604052801561071d578160200160208202803683370190505b509150855167ffffffffffffffff81111561073a5761073a610ac8565b604051908082528060200260200182016040528015610763578160200160208202803683370190505b5090505f5b8651811015610a03575f87828151811061078457610784610ebc565b602002602001015190505f816001600160a01b0316638fea80626040518163ffffffff1660e01b8152600401602060405180830381865afa1580156107cb573d5f5f3e3d5ffd5b505050506040513d601f19601f820116820180604052508101906107ef9190610dad565b60405163a37d941160e01b81526001600160a01b0384811660048301529192505f9183169063a37d941190602401602060405180830381865afa158015610838573d5f5f3e3d5ffd5b505050506040513d601f19601f8201168201806040525081019061085c9190610dad565b9050826001600160a01b03821661089657604051631ef8290960e31b81526001600160a01b03909116600482015260240160405180910390fd5b506040516315bd68e160e21b81526001600160a01b0389811660048301528281166024830152604482018b90525f917f0000000000000000000000000000000000000000000000000000000000000000909116906356f5a384906064016020604051808303815f875af115801561090f573d5f5f3e3d5ffd5b505050506040513d601f19601f820116820180604052508101906109339190610dad565b90508087868151811061094857610948610ebc565b60200260200101906001600160a01b031690816001600160a01b0316815250508386868151811061097b5761097b610ebc565b60200260200101906001600160a01b031690816001600160a01b031681525050876001600160a01b03167fb9777f6bac53a0b0e19e5a2ba70fda35f8de7eb0eda9e74e5ef31b36667c93a985836040516109eb9291906001600160a01b0392831681529116602082015260400190565b60405180910390a25050600190920191506107689050565b5094509492505050565b8551602087015160408089015160808a015160a08b01519251631a7728bf60e21b81525f956001600160a01b037f000000000000000000000000000000000000000000000000000000000000000016956369dca2fc95610a7d95929491938e908e908e908e908e90600401610f13565b6020604051808303815f875af1158015610a99573d5f5f3e3d5ffd5b505050506040513d601f19601f82011682018060405250810190610abd9190610dad565b979650505050505050565b634e487b7160e01b5f52604160045260245ffd5b604051610100810167ffffffffffffffff81118282101715610b0057610b00610ac8565b60405290565b604051601f8201601f1916810167ffffffffffffffff81118282101715610b2f57610b2f610ac8565b604052919050565b6001600160a01b0381168114610b4b575f5ffd5b50565b8035610b5981610b37565b919050565b5f82601f830112610b6d575f5ffd5b813567ffffffffffffffff811115610b8757610b87610ac8565b610b9a601f8201601f1916602001610b06565b818152846020838601011115610bae575f5ffd5b816020850160208301375f918101602001919091529392505050565b5f67ffffffffffffffff821115610be357610be3610ac8565b5060051b60200190565b5f82601f830112610bfc575f5ffd5b8135610c0f610c0a82610bca565b610b06565b8082825260208201915060208360051b860101925085831115610c30575f5ffd5b602085015b83811015610c56578035610c4881610b37565b835260209283019201610c35565b5095945050505050565b5f60208284031215610c70575f5ffd5b813567ffffffffffffffff811115610c86575f5ffd5b82016101008185031215610c98575f5ffd5b610ca0610adc565b610ca982610b4e565b815260208281013590820152610cc160408301610b4e565b6040820152610cd260608301610b4e565b6060820152608082013567ffffffffffffffff811115610cf0575f5ffd5b610cfc86828501610b5e565b60808301525060a082013567ffffffffffffffff811115610d1b575f5ffd5b610d2786828501610b5e565b60a08301525060c082013567ffffffffffffffff811115610d46575f5ffd5b610d5286828501610bed565b60c08301525060e082013567ffffffffffffffff811115610d71575f5ffd5b610d7d86828501610bed565b60e083015250949350505050565b5f60208284031215610d9b575f5ffd5b8135610da681610b37565b9392505050565b5f60208284031215610dbd575f5ffd5b8151610da681610b37565b5f60208284031215610dd8575f5ffd5b5051919050565b5f60018201610dfc57634e487b7160e01b5f52601160045260245ffd5b5060010190565b5f81518084528060208401602086015e5f602082860101526020601f19601f83011685010191505092915050565b6001600160a01b0387811682526020820187905285811660408301528416606082015260c0608082018190525f90610e6b90830185610e03565b82810360a0840152610e7d8185610e03565b9998505050505050505050565b606081525f610e9c6060830186610e03565b6020830194909452506001600160a01b0391909116604090910152919050565b634e487b7160e01b5f52603260045260245ffd5b5f8151808452602084019350602083015f5b82811015610f095781516001600160a01b0316865260209586019590910190600101610ee2565b5093949350505050565b6001600160a01b038b81168252602082018b905289166040820152610140606082018190525f90610f469083018a610e03565b8281036080840152610f58818a610e03565b60a084018990526001600160a01b03881660c085015283810360e08501529050610f828187610ed0565b9050828103610100840152610f978186610ed0565b9050828103610120840152610fac8185610ed0565b9d9c5050505050505050505050505056fea2646970667358221220dd21cb2a3f4a5350d997245666ab199c4a8478eb98a7553a3293be0cac174f7064736f6c634300081c0033",
  "language": "Solidity",
  "compiler": "0.8.28+commit.7893614a"
}